{
  "_format": "hh-sol-artifact-1",
  "contractName": "MonstersOnTheWayCards",
  "sourceName": "contracts/MonstersOnTheWayCards.sol",
  "abi": [
    {
      "anonymous": false,
      "inputs": [
        {
          "indexed": true,
          "internalType": "address",
          "name": "owner",
          "type": "address"
        },
        {
          "indexed": true,
          "internalType": "address",
          "name": "approved",
          "type": "address"
        },
        {
          "indexed": true,
          "internalType": "uint256",
          "name": "tokenId",
          "type": "uint256"
        }
      ],
      "name": "Approval",
      "type": "event"
    },
    {
      "anonymous": false,
      "inputs": [
        {
          "indexed": true,
          "internalType": "address",
          "name": "owner",
          "type": "address"
        },
        {
          "indexed": true,
          "internalType": "address",
          "name": "operator",
          "type": "address"
        },
        {
          "indexed": false,
          "internalType": "bool",
          "name": "approved",
          "type": "bool"
        }
      ],
      "name": "ApprovalForAll",
      "type": "event"
    },
    {
      "anonymous": false,
      "inputs": [
        {
          "indexed": true,
          "internalType": "address",
          "name": "previousOwner",
          "type": "address"
        },
        {
          "indexed": true,
          "internalType": "address",
          "name": "newOwner",
          "type": "address"
        }
      ],
      "name": "OwnershipTransferred",
      "type": "event"
    },
    {
      "anonymous": false,
      "inputs": [
        {
          "indexed": false,
          "internalType": "address",
          "name": "account",
          "type": "address"
        }
      ],
      "name": "Paused",
      "type": "event"
    },
    {
      "anonymous": false,
      "inputs": [
        {
          "indexed": true,
          "internalType": "address",
          "name": "from",
          "type": "address"
        },
        {
          "indexed": true,
          "internalType": "address",
          "name": "to",
          "type": "address"
        },
        {
          "indexed": true,
          "internalType": "uint256",
          "name": "tokenId",
          "type": "uint256"
        }
      ],
      "name": "Transfer",
      "type": "event"
    },
    {
      "anonymous": false,
      "inputs": [
        {
          "indexed": false,
          "internalType": "address",
          "name": "account",
          "type": "address"
        }
      ],
      "name": "Unpaused",
      "type": "event"
    },
    {
      "inputs": [
        {
          "internalType": "address",
          "name": "to",
          "type": "address"
        },
        {
          "internalType": "uint256",
          "name": "tokenId",
          "type": "uint256"
        }
      ],
      "name": "approve",
      "outputs": [],
      "stateMutability": "nonpayable",
      "type": "function"
    },
    {
      "inputs": [
        {
          "internalType": "address",
          "name": "owner",
          "type": "address"
        }
      ],
      "name": "balanceOf",
      "outputs": [
        {
          "internalType": "uint256",
          "name": "",
          "type": "uint256"
        }
      ],
      "stateMutability": "view",
      "type": "function"
    },
    {
      "inputs": [],
      "name": "balanceToRetrieveByTheOwner",
      "outputs": [
        {
          "internalType": "uint256",
          "name": "",
          "type": "uint256"
        }
      ],
      "stateMutability": "view",
      "type": "function"
    },
    {
      "inputs": [
        {
          "internalType": "uint256",
          "name": "tokenId",
          "type": "uint256"
        }
      ],
      "name": "burn",
      "outputs": [],
      "stateMutability": "nonpayable",
      "type": "function"
    },
    {
      "inputs": [
        {
          "internalType": "uint256",
          "name": "tokenId",
          "type": "uint256"
        }
      ],
      "name": "getApproved",
      "outputs": [
        {
          "internalType": "address",
          "name": "",
          "type": "address"
        }
      ],
      "stateMutability": "view",
      "type": "function"
    },
    {
      "inputs": [],
      "name": "getCids",
      "outputs": [
        {
          "internalType": "string[]",
          "name": "",
          "type": "string[]"
        }
      ],
      "stateMutability": "view",
      "type": "function"
    },
    {
      "inputs": [],
      "name": "getFee",
      "outputs": [
        {
          "internalType": "uint256",
          "name": "",
          "type": "uint256"
        }
      ],
      "stateMutability": "view",
      "type": "function"
    },
    {
      "inputs": [],
      "name": "getRetriever",
      "outputs": [
        {
          "internalType": "address",
          "name": "",
          "type": "address"
        }
      ],
      "stateMutability": "view",
      "type": "function"
    },
    {
      "inputs": [],
      "name": "getSmartContractAddr",
      "outputs": [
        {
          "internalType": "address",
          "name": "",
          "type": "address"
        }
      ],
      "stateMutability": "view",
      "type": "function"
    },
    {
      "inputs": [
        {
          "internalType": "address",
          "name": "addressOfPromethium",
          "type": "address"
        },
        {
          "internalType": "address",
          "name": "newOwner",
          "type": "address"
        }
      ],
      "name": "initialize",
      "outputs": [],
      "stateMutability": "nonpayable",
      "type": "function"
    },
    {
      "inputs": [
        {
          "internalType": "address",
          "name": "owner",
          "type": "address"
        },
        {
          "internalType": "address",
          "name": "operator",
          "type": "address"
        }
      ],
      "name": "isApprovedForAll",
      "outputs": [
        {
          "internalType": "bool",
          "name": "",
          "type": "bool"
        }
      ],
      "stateMutability": "view",
      "type": "function"
    },
    {
      "inputs": [],
      "name": "name",
      "outputs": [
        {
          "internalType": "string",
          "name": "",
          "type": "string"
        }
      ],
      "stateMutability": "view",
      "type": "function"
    },
    {
      "inputs": [],
      "name": "owner",
      "outputs": [
        {
          "internalType": "address",
          "name": "",
          "type": "address"
        }
      ],
      "stateMutability": "view",
      "type": "function"
    },
    {
      "inputs": [
        {
          "internalType": "uint256",
          "name": "tokenId",
          "type": "uint256"
        }
      ],
      "name": "ownerOf",
      "outputs": [
        {
          "internalType": "address",
          "name": "",
          "type": "address"
        }
      ],
      "stateMutability": "view",
      "type": "function"
    },
    {
      "inputs": [],
      "name": "pause",
      "outputs": [],
      "stateMutability": "nonpayable",
      "type": "function"
    },
    {
      "inputs": [],
      "name": "paused",
      "outputs": [
        {
          "internalType": "bool",
          "name": "",
          "type": "bool"
        }
      ],
      "stateMutability": "view",
      "type": "function"
    },
    {
      "inputs": [],
      "name": "renounceOwnership",
      "outputs": [],
      "stateMutability": "nonpayable",
      "type": "function"
    },
    {
      "inputs": [],
      "name": "retrieveFunds",
      "outputs": [],
      "stateMutability": "nonpayable",
      "type": "function"
    },
    {
      "inputs": [
        {
          "internalType": "address",
          "name": "to",
          "type": "address"
        },
        {
          "internalType": "string",
          "name": "uri",
          "type": "string"
        }
      ],
      "name": "safeMint",
      "outputs": [],
      "stateMutability": "payable",
      "type": "function"
    },
    {
      "inputs": [
        {
          "internalType": "address",
          "name": "to",
          "type": "address"
        },
        {
          "internalType": "string",
          "name": "uri",
          "type": "string"
        }
      ],
      "name": "safeMintWithTokens",
      "outputs": [],
      "stateMutability": "nonpayable",
      "type": "function"
    },
    {
      "inputs": [
        {
          "internalType": "address",
          "name": "from",
          "type": "address"
        },
        {
          "internalType": "address",
          "name": "to",
          "type": "address"
        },
        {
          "internalType": "uint256",
          "name": "tokenId",
          "type": "uint256"
        }
      ],
      "name": "safeTransferFrom",
      "outputs": [],
      "stateMutability": "nonpayable",
      "type": "function"
    },
    {
      "inputs": [
        {
          "internalType": "address",
          "name": "from",
          "type": "address"
        },
        {
          "internalType": "address",
          "name": "to",
          "type": "address"
        },
        {
          "internalType": "uint256",
          "name": "tokenId",
          "type": "uint256"
        },
        {
          "internalType": "bytes",
          "name": "_data",
          "type": "bytes"
        }
      ],
      "name": "safeTransferFrom",
      "outputs": [],
      "stateMutability": "nonpayable",
      "type": "function"
    },
    {
      "inputs": [
        {
          "internalType": "address",
          "name": "newAddress",
          "type": "address"
        }
      ],
      "name": "setAddressOfTokenContract",
      "outputs": [],
      "stateMutability": "nonpayable",
      "type": "function"
    },
    {
      "inputs": [
        {
          "internalType": "address",
          "name": "operator",
          "type": "address"
        },
        {
          "internalType": "bool",
          "name": "approved",
          "type": "bool"
        }
      ],
      "name": "setApprovalForAll",
      "outputs": [],
      "stateMutability": "nonpayable",
      "type": "function"
    },
    {
      "inputs": [
        {
          "internalType": "uint256",
          "name": "fee",
          "type": "uint256"
        }
      ],
      "name": "setFee",
      "outputs": [],
      "stateMutability": "nonpayable",
      "type": "function"
    },
    {
      "inputs": [
        {
          "internalType": "address",
          "name": "newRetrieve",
          "type": "address"
        }
      ],
      "name": "setRetriever",
      "outputs": [],
      "stateMutability": "nonpayable",
      "type": "function"
    },
    {
      "inputs": [
        {
          "internalType": "bytes4",
          "name": "interfaceId",
          "type": "bytes4"
        }
      ],
      "name": "supportsInterface",
      "outputs": [
        {
          "internalType": "bool",
          "name": "",
          "type": "bool"
        }
      ],
      "stateMutability": "view",
      "type": "function"
    },
    {
      "inputs": [],
      "name": "symbol",
      "outputs": [
        {
          "internalType": "string",
          "name": "",
          "type": "string"
        }
      ],
      "stateMutability": "view",
      "type": "function"
    },
    {
      "inputs": [
        {
          "internalType": "uint256",
          "name": "tokenId",
          "type": "uint256"
        }
      ],
      "name": "tokenURI",
      "outputs": [
        {
          "internalType": "string",
          "name": "",
          "type": "string"
        }
      ],
      "stateMutability": "view",
      "type": "function"
    },
    {
      "inputs": [
        {
          "internalType": "address",
          "name": "from",
          "type": "address"
        },
        {
          "internalType": "address",
          "name": "to",
          "type": "address"
        },
        {
          "internalType": "uint256",
          "name": "tokenId",
          "type": "uint256"
        }
      ],
      "name": "transferFrom",
      "outputs": [],
      "stateMutability": "nonpayable",
      "type": "function"
    },
    {
      "inputs": [
        {
          "internalType": "address",
          "name": "newOwner",
          "type": "address"
        }
      ],
      "name": "transferOwnership",
      "outputs": [],
      "stateMutability": "nonpayable",
      "type": "function"
    },
    {
      "inputs": [],
      "name": "unpause",
      "outputs": [],
      "stateMutability": "nonpayable",
      "type": "function"
    }
  ],
  "bytecode": "0x608060405234801561001057600080fd5b50614bbf806100206000396000f3fe6080604052600436106101e35760003560e01c806370a0823111610102578063a22cb46511610095578063ced72f8711610064578063ced72f8714610690578063d204c45e146106bb578063e985e9c5146106d7578063f2fde38b14610714576101e3565b8063a22cb465146105d8578063b823629914610601578063b88d4fde1461062a578063c87b56dd14610653576101e3565b80639266c05b116100d15780639266c05b1461052e57806395d89b41146105595780639a8d141e146105845780639bbbe461146105ad576101e3565b806370a0823114610498578063715018a6146104d55780638456cb59146104ec5780638da5cb5b14610503576101e3565b806342842e0e1161017a5780635c975abb116101495780635c975abb146103f057806361b20d8c1461041b5780636352211e1461043257806369fe0e2d1461046f576101e3565b806342842e0e1461034a57806342966c6814610373578063485cc9551461039c5780634e11ecb2146103c5576101e3565b806323b872dd116101b657806323b872dd146102b6578063278bea4b146102df57806330a29d39146103085780633f4ba83a14610333576101e3565b806301ffc9a7146101e857806306fdde0314610225578063081812fc14610250578063095ea7b31461028d575b600080fd5b3480156101f457600080fd5b5061020f600480360381019061020a9190613549565b61073d565b60405161021c9190613c4d565b60405180910390f35b34801561023157600080fd5b5061023a61081f565b6040516102479190613c68565b60405180910390f35b34801561025c57600080fd5b506102776004803603810190610272919061359b565b6108b1565b6040516102849190613b9b565b60405180910390f35b34801561029957600080fd5b506102b460048036038101906102af919061350d565b610936565b005b3480156102c257600080fd5b506102dd60048036038101906102d891906133b3565b610a4e565b005b3480156102eb57600080fd5b506103066004803603810190610301919061334e565b610aae565b005b34801561031457600080fd5b5061031d610b6f565b60405161032a9190613c2b565b60405180910390f35b34801561033f57600080fd5b50610348610c49565b005b34801561035657600080fd5b50610371600480360381019061036c91906133b3565b610ccf565b005b34801561037f57600080fd5b5061039a6004803603810190610395919061359b565b610cef565b005b3480156103a857600080fd5b506103c360048036038101906103be9190613377565b610d4b565b005b3480156103d157600080fd5b506103da610f58565b6040516103e79190613fea565b60405180910390f35b3480156103fc57600080fd5b50610405610fdc565b6040516104129190613c4d565b60405180910390f35b34801561042757600080fd5b50610430610ff3565b005b34801561043e57600080fd5b506104596004803603810190610454919061359b565b61116b565b6040516104669190613b9b565b60405180910390f35b34801561047b57600080fd5b506104966004803603810190610491919061359b565b61121d565b005b3480156104a457600080fd5b506104bf60048036038101906104ba919061334e565b6112a4565b6040516104cc9190613fea565b60405180910390f35b3480156104e157600080fd5b506104ea61135c565b005b3480156104f857600080fd5b506105016113e4565b005b34801561050f57600080fd5b5061051861146a565b6040516105259190613b9b565b60405180910390f35b34801561053a57600080fd5b50610543611495565b6040516105509190613b9b565b60405180910390f35b34801561056557600080fd5b5061056e6114c0565b60405161057b9190613c68565b60405180910390f35b34801561059057600080fd5b506105ab60048036038101906105a6919061334e565b611552565b005b3480156105b957600080fd5b506105c2611613565b6040516105cf9190613b9b565b60405180910390f35b3480156105e457600080fd5b506105ff60048036038101906105fa919061347d565b61163e565b005b34801561060d57600080fd5b50610628600480360381019061062391906134b9565b611654565b005b34801561063657600080fd5b50610651600480360381019061064c9190613402565b611834565b005b34801561065f57600080fd5b5061067a6004803603810190610675919061359b565b611896565b6040516106879190613c68565b60405180910390f35b34801561069c57600080fd5b506106a56118a8565b6040516106b29190613fea565b60405180910390f35b6106d560048036038101906106d091906134b9565b6118b3565b005b3480156106e357600080fd5b506106fe60048036038101906106f99190613377565b611969565b60405161070b9190613c4d565b60405180910390f35b34801561072057600080fd5b5061073b6004803603810190610736919061334e565b6119fd565b005b60007f80ac58cd000000000000000000000000000000000000000000000000000000007bffffffffffffffffffffffffffffffffffffffffffffffffffffffff1916827bffffffffffffffffffffffffffffffffffffffffffffffffffffffff1916148061080857507f5b5e139f000000000000000000000000000000000000000000000000000000007bffffffffffffffffffffffffffffffffffffffffffffffffffffffff1916827bffffffffffffffffffffffffffffffffffffffffffffffffffffffff1916145b80610818575061081782611af5565b5b9050919050565b60606065805461082e906142a7565b80601f016020809104026020016040519081016040528092919081815260200182805461085a906142a7565b80156108a75780601f1061087c576101008083540402835291602001916108a7565b820191906000526020600020905b81548152906001019060200180831161088a57829003601f168201915b5050505050905090565b60006108bc82611b5f565b6108fb576040517f08c379a00000000000000000000000000000000000000000000000000000000081526004016108f290613f0a565b60405180910390fd5b6069600083815260200190815260200160002060009054906101000a900473ffffffffffffffffffffffffffffffffffffffff169050919050565b60006109418261116b565b90508073ffffffffffffffffffffffffffffffffffffffff168373ffffffffffffffffffffffffffffffffffffffff1614156109b2576040517f08c379a00000000000000000000000000000000000000000000000000000000081526004016109a990613f6a565b60405180910390fd5b8073ffffffffffffffffffffffffffffffffffffffff166109d1611bcb565b73ffffffffffffffffffffffffffffffffffffffff161480610a0057506109ff816109fa611bcb565b611969565b5b610a3f576040517f08c379a0000000000000000000000000000000000000000000000000000000008152600401610a3690613dea565b60405180910390fd5b610a498383611bd3565b505050565b610a5f610a59611bcb565b82611c8c565b610a9e576040517f08c379a0000000000000000000000000000000000000000000000000000000008152600401610a9590613f8a565b60405180910390fd5b610aa9838383611d6a565b505050565b610ab6611bcb565b73ffffffffffffffffffffffffffffffffffffffff16610ad461146a565b73ffffffffffffffffffffffffffffffffffffffff1614610b2a576040517f08c379a0000000000000000000000000000000000000000000000000000000008152600401610b2190613f2a565b60405180910390fd5b8061016160006101000a81548173ffffffffffffffffffffffffffffffffffffffff021916908373ffffffffffffffffffffffffffffffffffffffff16021790555050565b6060610163805480602002602001604051908101604052809291908181526020016000905b82821015610c40578382906000526020600020018054610bb3906142a7565b80601f0160208091040260200160405190810160405280929190818152602001828054610bdf906142a7565b8015610c2c5780601f10610c0157610100808354040283529160200191610c2c565b820191906000526020600020905b815481529060010190602001808311610c0f57829003601f168201915b505050505081526020019060010190610b94565b50505050905090565b610c51611bcb565b73ffffffffffffffffffffffffffffffffffffffff16610c6f61146a565b73ffffffffffffffffffffffffffffffffffffffff1614610cc5576040517f08c379a0000000000000000000000000000000000000000000000000000000008152600401610cbc90613f2a565b60405180910390fd5b610ccd611fd1565b565b610cea83838360405180602001604052806000815250611834565b505050565b610d00610cfa611bcb565b82611c8c565b610d3f576040517f08c379a0000000000000000000000000000000000000000000000000000000008152600401610d3690613fca565b60405180910390fd5b610d4881612073565b50565b600060019054906101000a900460ff16610d735760008054906101000a900460ff1615610d7c565b610d7b61207f565b5b610dbb576040517f08c379a0000000000000000000000000000000000000000000000000000000008152600401610db290613e6a565b60405180910390fd5b60008060019054906101000a900460ff161590508015610e0b576001600060016101000a81548160ff02191690831515021790555060016000806101000a81548160ff0219169083151502179055505b610e7f6040518060400160405280600581526020017f43617264730000000000000000000000000000000000000000000000000000008152506040518060400160405280600381526020017f4352440000000000000000000000000000000000000000000000000000000000815250612090565b610e876120ed565b610e8f61213e565b610e97612197565b610e9f6121e8565b8261016460006101000a81548173ffffffffffffffffffffffffffffffffffffffff021916908373ffffffffffffffffffffffffffffffffffffffff160217905550660aa87bee538000610160819055508161016160006101000a81548173ffffffffffffffffffffffffffffffffffffffff021916908373ffffffffffffffffffffffffffffffffffffffff1602179055508015610f535760008060016101000a81548160ff0219169083151502179055505b505050565b6000610f62611bcb565b73ffffffffffffffffffffffffffffffffffffffff16610f8061146a565b73ffffffffffffffffffffffffffffffffffffffff1614610fd6576040517f08c379a0000000000000000000000000000000000000000000000000000000008152600401610fcd90613f2a565b60405180910390fd5b47905090565b600060c960009054906101000a900460ff16905090565b610ffb611bcb565b73ffffffffffffffffffffffffffffffffffffffff1661101961146a565b73ffffffffffffffffffffffffffffffffffffffff161461106f576040517f08c379a000000000000000000000000000000000000000000000000000000000815260040161106690613f2a565b60405180910390fd5b600047116110b2576040517f08c379a00000000000000000000000000000000000000000000000000000000081526004016110a990613e8a565b60405180910390fd5b6000806110bd61146a565b73ffffffffffffffffffffffffffffffffffffffff16476040516110e090613b86565b60006040518083038185875af1925050503d806000811461111d576040519150601f19603f3d011682016040523d82523d6000602084013e611122565b606091505b509150915081611167576040517f08c379a000000000000000000000000000000000000000000000000000000000815260040161115e90613d4a565b60405180910390fd5b5050565b6000806067600084815260200190815260200160002060009054906101000a900473ffffffffffffffffffffffffffffffffffffffff169050600073ffffffffffffffffffffffffffffffffffffffff168173ffffffffffffffffffffffffffffffffffffffff161415611214576040517f08c379a000000000000000000000000000000000000000000000000000000000815260040161120b90613e2a565b60405180910390fd5b80915050919050565b611225611bcb565b73ffffffffffffffffffffffffffffffffffffffff1661124361146a565b73ffffffffffffffffffffffffffffffffffffffff1614611299576040517f08c379a000000000000000000000000000000000000000000000000000000000815260040161129090613f2a565b60405180910390fd5b806101608190555050565b60008073ffffffffffffffffffffffffffffffffffffffff168273ffffffffffffffffffffffffffffffffffffffff161415611315576040517f08c379a000000000000000000000000000000000000000000000000000000000815260040161130c90613e0a565b60405180910390fd5b606860008373ffffffffffffffffffffffffffffffffffffffff1673ffffffffffffffffffffffffffffffffffffffff168152602001908152602001600020549050919050565b611364611bcb565b73ffffffffffffffffffffffffffffffffffffffff1661138261146a565b73ffffffffffffffffffffffffffffffffffffffff16146113d8576040517f08c379a00000000000000000000000000000000000000000000000000000000081526004016113cf90613f2a565b60405180910390fd5b6113e26000612241565b565b6113ec611bcb565b73ffffffffffffffffffffffffffffffffffffffff1661140a61146a565b73ffffffffffffffffffffffffffffffffffffffff1614611460576040517f08c379a000000000000000000000000000000000000000000000000000000000815260040161145790613f2a565b60405180910390fd5b611468612309565b565b600061012d60009054906101000a900473ffffffffffffffffffffffffffffffffffffffff16905090565b600061016160009054906101000a900473ffffffffffffffffffffffffffffffffffffffff16905090565b6060606680546114cf906142a7565b80601f01602080910402602001604051908101604052809291908181526020018280546114fb906142a7565b80156115485780601f1061151d57610100808354040283529160200191611548565b820191906000526020600020905b81548152906001019060200180831161152b57829003601f168201915b5050505050905090565b61155a611bcb565b73ffffffffffffffffffffffffffffffffffffffff1661157861146a565b73ffffffffffffffffffffffffffffffffffffffff16146115ce576040517f08c379a00000000000000000000000000000000000000000000000000000000081526004016115c590613f2a565b60405180910390fd5b8061016460006101000a81548173ffffffffffffffffffffffffffffffffffffffff021916908373ffffffffffffffffffffffffffffffffffffffff16021790555050565b600061016460009054906101000a900473ffffffffffffffffffffffffffffffffffffffff16905090565b611650611649611bcb565b83836123ac565b5050565b600061016460009054906101000a900473ffffffffffffffffffffffffffffffffffffffff169050600a8173ffffffffffffffffffffffffffffffffffffffff166370a082316116a2611bcb565b6040518263ffffffff1660e01b81526004016116be9190613b9b565b60206040518083038186803b1580156116d657600080fd5b505afa1580156116ea573d6000803e3d6000fd5b505050506040513d601f19601f8201168201806040525081019061170e91906135c4565b1161174e576040517f08c379a000000000000000000000000000000000000000000000000000000000815260040161174590613caa565b60405180910390fd5b8073ffffffffffffffffffffffffffffffffffffffff1663b7b9790c611772611bcb565b600a6040518363ffffffff1660e01b8152600401611791929190613c02565b600060405180830381600087803b1580156117ab57600080fd5b505af11580156117bf573d6000803e3d6000fd5b50505050610163829080600181540180825580915050600190039060005260206000200160009091909190915090805190602001906117ff92919061311d565b50600061180d61015f612519565b905061181a61015f612527565b611824848261253d565b61182e818461255b565b50505050565b61184561183f611bcb565b83611c8c565b611884576040517f08c379a000000000000000000000000000000000000000000000000000000000815260040161187b90613f8a565b60405180910390fd5b611890848484846125cf565b50505050565b60606118a18261262b565b9050919050565b600061016054905090565b610160543410156118f9576040517f08c379a00000000000000000000000000000000000000000000000000000000081526004016118f090613eca565b60405180910390fd5b6101638190806001815401808255809150506001900390600052602060002001600090919091909150908051906020019061193592919061311d565b50600061194361015f612519565b905061195061015f612527565b61195a838261253d565b611964818361255b565b505050565b6000606a60008473ffffffffffffffffffffffffffffffffffffffff1673ffffffffffffffffffffffffffffffffffffffff16815260200190815260200160002060008373ffffffffffffffffffffffffffffffffffffffff1673ffffffffffffffffffffffffffffffffffffffff16815260200190815260200160002060009054906101000a900460ff16905092915050565b611a05611bcb565b73ffffffffffffffffffffffffffffffffffffffff16611a2361146a565b73ffffffffffffffffffffffffffffffffffffffff1614611a79576040517f08c379a0000000000000000000000000000000000000000000000000000000008152600401611a7090613f2a565b60405180910390fd5b600073ffffffffffffffffffffffffffffffffffffffff168173ffffffffffffffffffffffffffffffffffffffff161415611ae9576040517f08c379a0000000000000000000000000000000000000000000000000000000008152600401611ae090613cea565b60405180910390fd5b611af281612241565b50565b60007f01ffc9a7000000000000000000000000000000000000000000000000000000007bffffffffffffffffffffffffffffffffffffffffffffffffffffffff1916827bffffffffffffffffffffffffffffffffffffffffffffffffffffffff1916149050919050565b60008073ffffffffffffffffffffffffffffffffffffffff166067600084815260200190815260200160002060009054906101000a900473ffffffffffffffffffffffffffffffffffffffff1673ffffffffffffffffffffffffffffffffffffffff1614159050919050565b600033905090565b816069600083815260200190815260200160002060006101000a81548173ffffffffffffffffffffffffffffffffffffffff021916908373ffffffffffffffffffffffffffffffffffffffff160217905550808273ffffffffffffffffffffffffffffffffffffffff16611c468361116b565b73ffffffffffffffffffffffffffffffffffffffff167f8c5be1e5ebec7d5bd14f71427d1e84f3dd0314c0f7b2291e5b200ac8c7c3b92560405160405180910390a45050565b6000611c9782611b5f565b611cd6576040517f08c379a0000000000000000000000000000000000000000000000000000000008152600401611ccd90613daa565b60405180910390fd5b6000611ce18361116b565b90508073ffffffffffffffffffffffffffffffffffffffff168473ffffffffffffffffffffffffffffffffffffffff161480611d5057508373ffffffffffffffffffffffffffffffffffffffff16611d38846108b1565b73ffffffffffffffffffffffffffffffffffffffff16145b80611d615750611d608185611969565b5b91505092915050565b8273ffffffffffffffffffffffffffffffffffffffff16611d8a8261116b565b73ffffffffffffffffffffffffffffffffffffffff1614611de0576040517f08c379a0000000000000000000000000000000000000000000000000000000008152600401611dd790613d0a565b60405180910390fd5b600073ffffffffffffffffffffffffffffffffffffffff168273ffffffffffffffffffffffffffffffffffffffff161415611e50576040517f08c379a0000000000000000000000000000000000000000000000000000000008152600401611e4790613d6a565b60405180910390fd5b611e5b83838361277d565b611e66600082611bd3565b6001606860008573ffffffffffffffffffffffffffffffffffffffff1673ffffffffffffffffffffffffffffffffffffffff1681526020019081526020016000206000828254611eb691906141ab565b925050819055506001606860008473ffffffffffffffffffffffffffffffffffffffff1673ffffffffffffffffffffffffffffffffffffffff1681526020019081526020016000206000828254611f0d9190614124565b92505081905550816067600083815260200190815260200160002060006101000a81548173ffffffffffffffffffffffffffffffffffffffff021916908373ffffffffffffffffffffffffffffffffffffffff160217905550808273ffffffffffffffffffffffffffffffffffffffff168473ffffffffffffffffffffffffffffffffffffffff167fddf252ad1be2c89b69c2b068fc378daa952ba7f163c4a11628f55a4df523b3ef60405160405180910390a4611fcc8383836127d5565b505050565b611fd9610fdc565b612018576040517f08c379a000000000000000000000000000000000000000000000000000000000815260040161200f90613c8a565b60405180910390fd5b600060c960006101000a81548160ff0219169083151502179055507f5db9ee0a495bf2e6ff9c91a7834c1ba4fdd244a5e8aa4e537bd38aeae4b073aa61205c611bcb565b6040516120699190613b9b565b60405180910390a1565b61207c816127da565b50565b600061208a3061282d565b15905090565b600060019054906101000a900460ff166120df576040517f08c379a00000000000000000000000000000000000000000000000000000000081526004016120d690613faa565b60405180910390fd5b6120e98282612850565b5050565b600060019054906101000a900460ff1661213c576040517f08c379a000000000000000000000000000000000000000000000000000000000815260040161213390613faa565b60405180910390fd5b565b600060019054906101000a900460ff1661218d576040517f08c379a000000000000000000000000000000000000000000000000000000000815260040161218490613faa565b60405180910390fd5b6121956128d1565b565b600060019054906101000a900460ff166121e6576040517f08c379a00000000000000000000000000000000000000000000000000000000081526004016121dd90613faa565b60405180910390fd5b565b600060019054906101000a900460ff16612237576040517f08c379a000000000000000000000000000000000000000000000000000000000815260040161222e90613faa565b60405180910390fd5b61223f61293d565b565b600061012d60009054906101000a900473ffffffffffffffffffffffffffffffffffffffff1690508161012d60006101000a81548173ffffffffffffffffffffffffffffffffffffffff021916908373ffffffffffffffffffffffffffffffffffffffff1602179055508173ffffffffffffffffffffffffffffffffffffffff168173ffffffffffffffffffffffffffffffffffffffff167f8be0079c531659141344cd1fd0a4f28419497f9722a3daafe3b4186f6b6457e060405160405180910390a35050565b612311610fdc565b15612351576040517f08c379a000000000000000000000000000000000000000000000000000000000815260040161234890613dca565b60405180910390fd5b600160c960006101000a81548160ff0219169083151502179055507f62e78cea01bee320cd4e420270b5ea74000d11b0c9f74754ebdbfc544b05a258612395611bcb565b6040516123a29190613b9b565b60405180910390a1565b8173ffffffffffffffffffffffffffffffffffffffff168373ffffffffffffffffffffffffffffffffffffffff16141561241b576040517f08c379a000000000000000000000000000000000000000000000000000000000815260040161241290613d8a565b60405180910390fd5b80606a60008573ffffffffffffffffffffffffffffffffffffffff1673ffffffffffffffffffffffffffffffffffffffff16815260200190815260200160002060008473ffffffffffffffffffffffffffffffffffffffff1673ffffffffffffffffffffffffffffffffffffffff16815260200190815260200160002060006101000a81548160ff0219169083151502179055508173ffffffffffffffffffffffffffffffffffffffff168373ffffffffffffffffffffffffffffffffffffffff167f17307eab39ab6107e8899845ad3d59bd9653f200f220920489ca2b5937696c318360405161250c9190613c4d565b60405180910390a3505050565b600081600001549050919050565b6001816000016000828254019250508190555050565b61255782826040518060200160405280600081525061299e565b5050565b61256482611b5f565b6125a3576040517f08c379a000000000000000000000000000000000000000000000000000000000815260040161259a90613e4a565b60405180910390fd5b806097600084815260200190815260200160002090805190602001906125ca92919061311d565b505050565b6125da848484611d6a565b6125e6848484846129f9565b612625576040517f08c379a000000000000000000000000000000000000000000000000000000000815260040161261c90613cca565b60405180910390fd5b50505050565b606061263682611b5f565b612675576040517f08c379a000000000000000000000000000000000000000000000000000000000815260040161266c90613eea565b60405180910390fd5b6000609760008481526020019081526020016000208054612695906142a7565b80601f01602080910402602001604051908101604052809291908181526020018280546126c1906142a7565b801561270e5780601f106126e35761010080835404028352916020019161270e565b820191906000526020600020905b8154815290600101906020018083116126f157829003601f168201915b50505050509050600061271f612b90565b9050600081511415612735578192505050612778565b60008251111561276a578082604051602001612752929190613b62565b60405160208183030381529060405292505050612778565b61277384612bcd565b925050505b919050565b612785610fdc565b156127c5576040517f08c379a00000000000000000000000000000000000000000000000000000000081526004016127bc90613dca565b60405180910390fd5b6127d0838383612c74565b505050565b505050565b6127e381612c79565b6000609760008381526020019081526020016000208054612803906142a7565b90501461282a5760976000828152602001908152602001600020600061282991906131a3565b5b50565b6000808273ffffffffffffffffffffffffffffffffffffffff163b119050919050565b600060019054906101000a900460ff1661289f576040517f08c379a000000000000000000000000000000000000000000000000000000000815260040161289690613faa565b60405180910390fd5b81606590805190602001906128b592919061311d565b5080606690805190602001906128cc92919061311d565b505050565b600060019054906101000a900460ff16612920576040517f08c379a000000000000000000000000000000000000000000000000000000000815260040161291790613faa565b60405180910390fd5b600060c960006101000a81548160ff021916908315150217905550565b600060019054906101000a900460ff1661298c576040517f08c379a000000000000000000000000000000000000000000000000000000000815260040161298390613faa565b60405180910390fd5b61299c612997611bcb565b612241565b565b6129a88383612d96565b6129b560008484846129f9565b6129f4576040517f08c379a00000000000000000000000000000000000000000000000000000000081526004016129eb90613cca565b60405180910390fd5b505050565b6000612a1a8473ffffffffffffffffffffffffffffffffffffffff1661282d565b15612b83578373ffffffffffffffffffffffffffffffffffffffff1663150b7a02612a43611bcb565b8786866040518563ffffffff1660e01b8152600401612a659493929190613bb6565b602060405180830381600087803b158015612a7f57600080fd5b505af1925050508015612ab057506040513d601f19601f82011682018060405250810190612aad9190613572565b60015b612b33573d8060008114612ae0576040519150601f19603f3d011682016040523d82523d6000602084013e612ae5565b606091505b50600081511415612b2b576040517f08c379a0000000000000000000000000000000000000000000000000000000008152600401612b2290613cca565b60405180910390fd5b805181602001fd5b63150b7a0260e01b7bffffffffffffffffffffffffffffffffffffffffffffffffffffffff1916817bffffffffffffffffffffffffffffffffffffffffffffffffffffffff191614915050612b88565b600190505b949350505050565b60606040518060400160405280600781526020017f697066733a2f2f00000000000000000000000000000000000000000000000000815250905090565b6060612bd882611b5f565b612c17576040517f08c379a0000000000000000000000000000000000000000000000000000000008152600401612c0e90613f4a565b60405180910390fd5b6000612c21612b90565b90506000815111612c415760405180602001604052806000815250612c6c565b80612c4b84612f70565b604051602001612c5c929190613b62565b6040516020818303038152906040525b915050919050565b505050565b6000612c848261116b565b9050612c928160008461277d565b612c9d600083611bd3565b6001606860008373ffffffffffffffffffffffffffffffffffffffff1673ffffffffffffffffffffffffffffffffffffffff1681526020019081526020016000206000828254612ced91906141ab565b925050819055506067600083815260200190815260200160002060006101000a81549073ffffffffffffffffffffffffffffffffffffffff021916905581600073ffffffffffffffffffffffffffffffffffffffff168273ffffffffffffffffffffffffffffffffffffffff167fddf252ad1be2c89b69c2b068fc378daa952ba7f163c4a11628f55a4df523b3ef60405160405180910390a4612d92816000846127d5565b5050565b600073ffffffffffffffffffffffffffffffffffffffff168273ffffffffffffffffffffffffffffffffffffffff161415612e06576040517f08c379a0000000000000000000000000000000000000000000000000000000008152600401612dfd90613eaa565b60405180910390fd5b612e0f81611b5f565b15612e4f576040517f08c379a0000000000000000000000000000000000000000000000000000000008152600401612e4690613d2a565b60405180910390fd5b612e5b6000838361277d565b6001606860008473ffffffffffffffffffffffffffffffffffffffff1673ffffffffffffffffffffffffffffffffffffffff1681526020019081526020016000206000828254612eab9190614124565b92505081905550816067600083815260200190815260200160002060006101000a81548173ffffffffffffffffffffffffffffffffffffffff021916908373ffffffffffffffffffffffffffffffffffffffff160217905550808273ffffffffffffffffffffffffffffffffffffffff16600073ffffffffffffffffffffffffffffffffffffffff167fddf252ad1be2c89b69c2b068fc378daa952ba7f163c4a11628f55a4df523b3ef60405160405180910390a4612f6c600083836127d5565b5050565b60606000821415612fb8576040518060400160405280600181526020017f30000000000000000000000000000000000000000000000000000000000000008152509050613118565b600082905060005b60008214612fea578080612fd39061430a565b915050600a82612fe3919061417a565b9150612fc0565b60008167ffffffffffffffff81111561302c577f4e487b7100000000000000000000000000000000000000000000000000000000600052604160045260246000fd5b6040519080825280601f01601f19166020018201604052801561305e5781602001600182028036833780820191505090505b5090505b600085146131115760018261307791906141ab565b9150600a856130869190614353565b60306130929190614124565b60f81b8183815181106130ce577f4e487b7100000000000000000000000000000000000000000000000000000000600052603260045260246000fd5b60200101907effffffffffffffffffffffffffffffffffffffffffffffffffffffffffffff1916908160001a905350600a8561310a919061417a565b9450613062565b8093505050505b919050565b828054613129906142a7565b90600052602060002090601f01602090048101928261314b5760008555613192565b82601f1061316457805160ff1916838001178555613192565b82800160010185558215613192579182015b82811115613191578251825591602001919060010190613176565b5b50905061319f91906131e3565b5090565b5080546131af906142a7565b6000825580601f106131c157506131e0565b601f0160209004906000526020600020908101906131df91906131e3565b5b50565b5b808211156131fc5760008160009055506001016131e4565b5090565b600061321361320e8461402a565b614005565b90508281526020810184848401111561322b57600080fd5b613236848285614265565b509392505050565b600061325161324c8461405b565b614005565b90508281526020810184848401111561326957600080fd5b613274848285614265565b509392505050565b60008135905061328b81614b2d565b92915050565b6000813590506132a081614b44565b92915050565b6000813590506132b581614b5b565b92915050565b6000815190506132ca81614b5b565b92915050565b600082601f8301126132e157600080fd5b81356132f1848260208601613200565b91505092915050565b600082601f83011261330b57600080fd5b813561331b84826020860161323e565b91505092915050565b60008135905061333381614b72565b92915050565b60008151905061334881614b72565b92915050565b60006020828403121561336057600080fd5b600061336e8482850161327c565b91505092915050565b6000806040838503121561338a57600080fd5b60006133988582860161327c565b92505060206133a98582860161327c565b9150509250929050565b6000806000606084860312156133c857600080fd5b60006133d68682870161327c565b93505060206133e78682870161327c565b92505060406133f886828701613324565b9150509250925092565b6000806000806080858703121561341857600080fd5b60006134268782880161327c565b94505060206134378782880161327c565b935050604061344887828801613324565b925050606085013567ffffffffffffffff81111561346557600080fd5b613471878288016132d0565b91505092959194509250565b6000806040838503121561349057600080fd5b600061349e8582860161327c565b92505060206134af85828601613291565b9150509250929050565b600080604083850312156134cc57600080fd5b60006134da8582860161327c565b925050602083013567ffffffffffffffff8111156134f757600080fd5b613503858286016132fa565b9150509250929050565b6000806040838503121561352057600080fd5b600061352e8582860161327c565b925050602061353f85828601613324565b9150509250929050565b60006020828403121561355b57600080fd5b6000613569848285016132a6565b91505092915050565b60006020828403121561358457600080fd5b6000613592848285016132bb565b91505092915050565b6000602082840312156135ad57600080fd5b60006135bb84828501613324565b91505092915050565b6000602082840312156135d657600080fd5b60006135e484828501613339565b91505092915050565b60006135f983836136dc565b905092915050565b61360a816141df565b82525050565b600061361b8261409c565b61362581856140ca565b9350836020820285016136378561408c565b8060005b85811015613673578484038952815161365485826135ed565b945061365f836140bd565b925060208a0199505060018101905061363b565b50829750879550505050505092915050565b61368e816141f1565b82525050565b600061369f826140a7565b6136a981856140db565b93506136b9818560208601614274565b6136c281614440565b840191505092915050565b6136d681614253565b82525050565b60006136e7826140b2565b6136f181856140f7565b9350613701818560208601614274565b61370a81614440565b840191505092915050565b6000613720826140b2565b61372a8185614108565b935061373a818560208601614274565b61374381614440565b840191505092915050565b6000613759826140b2565b6137638185614119565b9350613773818560208601614274565b80840191505092915050565b600061378c601483614108565b915061379782614451565b602082019050919050565b60006137af601683614108565b91506137ba8261447a565b602082019050919050565b60006137d2603283614108565b91506137dd826144a3565b604082019050919050565b60006137f5602683614108565b9150613800826144f2565b604082019050919050565b6000613818602583614108565b915061382382614541565b604082019050919050565b600061383b601c83614108565b915061384682614590565b602082019050919050565b600061385e601483614108565b9150613869826145b9565b602082019050919050565b6000613881602483614108565b915061388c826145e2565b604082019050919050565b60006138a4601983614108565b91506138af82614631565b602082019050919050565b60006138c7602c83614108565b91506138d28261465a565b604082019050919050565b60006138ea601083614108565b91506138f5826146a9565b602082019050919050565b600061390d603883614108565b9150613918826146d2565b604082019050919050565b6000613930602a83614108565b915061393b82614721565b604082019050919050565b6000613953602983614108565b915061395e82614770565b604082019050919050565b6000613976602e83614108565b9150613981826147bf565b604082019050919050565b6000613999602e83614108565b91506139a48261480e565b604082019050919050565b60006139bc601483614108565b91506139c78261485d565b602082019050919050565b60006139df602083614108565b91506139ea82614886565b602082019050919050565b6000613a02601883614108565b9150613a0d826148af565b602082019050919050565b6000613a25603183614108565b9150613a30826148d8565b604082019050919050565b6000613a48602c83614108565b9150613a5382614927565b604082019050919050565b6000613a6b602083614108565b9150613a7682614976565b602082019050919050565b6000613a8e602f83614108565b9150613a998261499f565b604082019050919050565b6000613ab1602183614108565b9150613abc826149ee565b604082019050919050565b6000613ad46000836140ec565b9150613adf82614a3d565b600082019050919050565b6000613af7603183614108565b9150613b0282614a40565b604082019050919050565b6000613b1a602b83614108565b9150613b2582614a8f565b604082019050919050565b6000613b3d603083614108565b9150613b4882614ade565b604082019050919050565b613b5c81614249565b82525050565b6000613b6e828561374e565b9150613b7a828461374e565b91508190509392505050565b6000613b9182613ac7565b9150819050919050565b6000602082019050613bb06000830184613601565b92915050565b6000608082019050613bcb6000830187613601565b613bd86020830186613601565b613be56040830185613b53565b8181036060830152613bf78184613694565b905095945050505050565b6000604082019050613c176000830185613601565b613c2460208301846136cd565b9392505050565b60006020820190508181036000830152613c458184613610565b905092915050565b6000602082019050613c626000830184613685565b92915050565b60006020820190508181036000830152613c828184613715565b905092915050565b60006020820190508181036000830152613ca38161377f565b9050919050565b60006020820190508181036000830152613cc3816137a2565b9050919050565b60006020820190508181036000830152613ce3816137c5565b9050919050565b60006020820190508181036000830152613d03816137e8565b9050919050565b60006020820190508181036000830152613d238161380b565b9050919050565b60006020820190508181036000830152613d438161382e565b9050919050565b60006020820190508181036000830152613d6381613851565b9050919050565b60006020820190508181036000830152613d8381613874565b9050919050565b60006020820190508181036000830152613da381613897565b9050919050565b60006020820190508181036000830152613dc3816138ba565b9050919050565b60006020820190508181036000830152613de3816138dd565b9050919050565b60006020820190508181036000830152613e0381613900565b9050919050565b60006020820190508181036000830152613e2381613923565b9050919050565b60006020820190508181036000830152613e4381613946565b9050919050565b60006020820190508181036000830152613e6381613969565b9050919050565b60006020820190508181036000830152613e838161398c565b9050919050565b60006020820190508181036000830152613ea3816139af565b9050919050565b60006020820190508181036000830152613ec3816139d2565b9050919050565b60006020820190508181036000830152613ee3816139f5565b9050919050565b60006020820190508181036000830152613f0381613a18565b9050919050565b60006020820190508181036000830152613f2381613a3b565b9050919050565b60006020820190508181036000830152613f4381613a5e565b9050919050565b60006020820190508181036000830152613f6381613a81565b9050919050565b60006020820190508181036000830152613f8381613aa4565b9050919050565b60006020820190508181036000830152613fa381613aea565b9050919050565b60006020820190508181036000830152613fc381613b0d565b9050919050565b60006020820190508181036000830152613fe381613b30565b9050919050565b6000602082019050613fff6000830184613b53565b92915050565b600061400f614020565b905061401b82826142d9565b919050565b6000604051905090565b600067ffffffffffffffff82111561404557614044614411565b5b61404e82614440565b9050602081019050919050565b600067ffffffffffffffff82111561407657614075614411565b5b61407f82614440565b9050602081019050919050565b6000819050602082019050919050565b600081519050919050565b600081519050919050565b600081519050919050565b6000602082019050919050565b600082825260208201905092915050565b600082825260208201905092915050565b600081905092915050565b600082825260208201905092915050565b600082825260208201905092915050565b600081905092915050565b600061412f82614249565b915061413a83614249565b9250827fffffffffffffffffffffffffffffffffffffffffffffffffffffffffffffffff0382111561416f5761416e614384565b5b828201905092915050565b600061418582614249565b915061419083614249565b9250826141a05761419f6143b3565b5b828204905092915050565b60006141b682614249565b91506141c183614249565b9250828210156141d4576141d3614384565b5b828203905092915050565b60006141ea82614229565b9050919050565b60008115159050919050565b60007fffffffff0000000000000000000000000000000000000000000000000000000082169050919050565b600073ffffffffffffffffffffffffffffffffffffffff82169050919050565b6000819050919050565b600061425e82614249565b9050919050565b82818337600083830152505050565b60005b83811015614292578082015181840152602081019050614277565b838111156142a1576000848401525b50505050565b600060028204905060018216806142bf57607f821691505b602082108114156142d3576142d26143e2565b5b50919050565b6142e282614440565b810181811067ffffffffffffffff8211171561430157614300614411565b5b80604052505050565b600061431582614249565b91507fffffffffffffffffffffffffffffffffffffffffffffffffffffffffffffffff82141561434857614347614384565b5b600182019050919050565b600061435e82614249565b915061436983614249565b925082614379576143786143b3565b5b828206905092915050565b7f4e487b7100000000000000000000000000000000000000000000000000000000600052601160045260246000fd5b7f4e487b7100000000000000000000000000000000000000000000000000000000600052601260045260246000fd5b7f4e487b7100000000000000000000000000000000000000000000000000000000600052602260045260246000fd5b7f4e487b7100000000000000000000000000000000000000000000000000000000600052604160045260246000fd5b6000601f19601f8301169050919050565b7f5061757361626c653a206e6f7420706175736564000000000000000000000000600082015250565b7f4e6f7420656e6f7567682070726f6d65746869756d7300000000000000000000600082015250565b7f4552433732313a207472616e7366657220746f206e6f6e20455243373231526560008201527f63656976657220696d706c656d656e7465720000000000000000000000000000602082015250565b7f4f776e61626c653a206e6577206f776e657220697320746865207a65726f206160008201527f6464726573730000000000000000000000000000000000000000000000000000602082015250565b7f4552433732313a207472616e736665722066726f6d20696e636f72726563742060008201527f6f776e6572000000000000000000000000000000000000000000000000000000602082015250565b7f4552433732313a20746f6b656e20616c7265616479206d696e74656400000000600082015250565b7f4661696c656420746f2073656e64204574686572000000000000000000000000600082015250565b7f4552433732313a207472616e7366657220746f20746865207a65726f2061646460008201527f7265737300000000000000000000000000000000000000000000000000000000602082015250565b7f4552433732313a20617070726f766520746f2063616c6c657200000000000000600082015250565b7f4552433732313a206f70657261746f7220717565727920666f72206e6f6e657860008201527f697374656e7420746f6b656e0000000000000000000000000000000000000000602082015250565b7f5061757361626c653a2070617573656400000000000000000000000000000000600082015250565b7f4552433732313a20617070726f76652063616c6c6572206973206e6f74206f7760008201527f6e6572206e6f7220617070726f76656420666f7220616c6c0000000000000000602082015250565b7f4552433732313a2062616c616e636520717565727920666f7220746865207a6560008201527f726f206164647265737300000000000000000000000000000000000000000000602082015250565b7f4552433732313a206f776e657220717565727920666f72206e6f6e657869737460008201527f656e7420746f6b656e0000000000000000000000000000000000000000000000602082015250565b7f45524337323155524953746f726167653a2055524920736574206f66206e6f6e60008201527f6578697374656e7420746f6b656e000000000000000000000000000000000000602082015250565b7f496e697469616c697a61626c653a20636f6e747261637420697320616c72656160008201527f647920696e697469616c697a6564000000000000000000000000000000000000602082015250565b7f4e6f2066756e647320746f207265747269657665000000000000000000000000600082015250565b7f4552433732313a206d696e7420746f20746865207a65726f2061646472657373600082015250565b7f4e6f7420656e6f7567682066756e647320746f206d696e740000000000000000600082015250565b7f45524337323155524953746f726167653a2055524920717565727920666f722060008201527f6e6f6e6578697374656e7420746f6b656e000000000000000000000000000000602082015250565b7f4552433732313a20617070726f76656420717565727920666f72206e6f6e657860008201527f697374656e7420746f6b656e0000000000000000000000000000000000000000602082015250565b7f4f776e61626c653a2063616c6c6572206973206e6f7420746865206f776e6572600082015250565b7f4552433732314d657461646174613a2055524920717565727920666f72206e6f60008201527f6e6578697374656e7420746f6b656e0000000000000000000000000000000000602082015250565b7f4552433732313a20617070726f76616c20746f2063757272656e74206f776e6560008201527f7200000000000000000000000000000000000000000000000000000000000000602082015250565b50565b7f4552433732313a207472616e736665722063616c6c6572206973206e6f74206f60008201527f776e6572206e6f7220617070726f766564000000000000000000000000000000602082015250565b7f496e697469616c697a61626c653a20636f6e7472616374206973206e6f74206960008201527f6e697469616c697a696e67000000000000000000000000000000000000000000602082015250565b7f4552433732314275726e61626c653a2063616c6c6572206973206e6f74206f7760008201527f6e6572206e6f7220617070726f76656400000000000000000000000000000000602082015250565b614b36816141df565b8114614b4157600080fd5b50565b614b4d816141f1565b8114614b5857600080fd5b50565b614b64816141fd565b8114614b6f57600080fd5b50565b614b7b81614249565b8114614b8657600080fd5b5056fea26469706673582212208f832d5325c1424d8fe7e218c7db968b7f336a12c6be268d1780bd39dc33414464736f6c63430008020033",
  "linkReferences": {},
  "deployedLinkReferences": {}
}