{
  "_format": "hh-sol-artifact-1",
  "contractName": "MonstersOnTheWayCards",
  "sourceName": "contracts/MonstersOnTheWayCards.sol",
  "abi": [
    {
      "anonymous": false,
      "inputs": [
        {
          "indexed": true,
          "internalType": "address",
          "name": "owner",
          "type": "address"
        },
        {
          "indexed": true,
          "internalType": "address",
          "name": "approved",
          "type": "address"
        },
        {
          "indexed": true,
          "internalType": "uint256",
          "name": "tokenId",
          "type": "uint256"
        }
      ],
      "name": "Approval",
      "type": "event"
    },
    {
      "anonymous": false,
      "inputs": [
        {
          "indexed": true,
          "internalType": "address",
          "name": "owner",
          "type": "address"
        },
        {
          "indexed": true,
          "internalType": "address",
          "name": "operator",
          "type": "address"
        },
        {
          "indexed": false,
          "internalType": "bool",
          "name": "approved",
          "type": "bool"
        }
      ],
      "name": "ApprovalForAll",
      "type": "event"
    },
    {
      "anonymous": false,
      "inputs": [
        {
          "indexed": true,
          "internalType": "address",
          "name": "previousOwner",
          "type": "address"
        },
        {
          "indexed": true,
          "internalType": "address",
          "name": "newOwner",
          "type": "address"
        }
      ],
      "name": "OwnershipTransferred",
      "type": "event"
    },
    {
      "anonymous": false,
      "inputs": [
        {
          "indexed": false,
          "internalType": "address",
          "name": "account",
          "type": "address"
        }
      ],
      "name": "Paused",
      "type": "event"
    },
    {
      "anonymous": false,
      "inputs": [
        {
          "indexed": true,
          "internalType": "address",
          "name": "from",
          "type": "address"
        },
        {
          "indexed": true,
          "internalType": "address",
          "name": "to",
          "type": "address"
        },
        {
          "indexed": true,
          "internalType": "uint256",
          "name": "tokenId",
          "type": "uint256"
        }
      ],
      "name": "Transfer",
      "type": "event"
    },
    {
      "anonymous": false,
      "inputs": [
        {
          "indexed": false,
          "internalType": "address",
          "name": "account",
          "type": "address"
        }
      ],
      "name": "Unpaused",
      "type": "event"
    },
    {
      "inputs": [
        {
          "internalType": "address",
          "name": "to",
          "type": "address"
        },
        {
          "internalType": "uint256",
          "name": "tokenId",
          "type": "uint256"
        }
      ],
      "name": "approve",
      "outputs": [],
      "stateMutability": "nonpayable",
      "type": "function"
    },
    {
      "inputs": [
        {
          "internalType": "address",
          "name": "owner",
          "type": "address"
        }
      ],
      "name": "balanceOf",
      "outputs": [
        {
          "internalType": "uint256",
          "name": "",
          "type": "uint256"
        }
      ],
      "stateMutability": "view",
      "type": "function"
    },
    {
      "inputs": [],
      "name": "balanceToRetrieveByTheOwner",
      "outputs": [
        {
          "internalType": "uint256",
          "name": "",
          "type": "uint256"
        }
      ],
      "stateMutability": "view",
      "type": "function"
    },
    {
      "inputs": [
        {
          "internalType": "uint256",
          "name": "tokenId",
          "type": "uint256"
        }
      ],
      "name": "burn",
      "outputs": [],
      "stateMutability": "nonpayable",
      "type": "function"
    },
    {
      "inputs": [
        {
          "internalType": "uint256",
          "name": "tokenId",
          "type": "uint256"
        }
      ],
      "name": "getApproved",
      "outputs": [
        {
          "internalType": "address",
          "name": "",
          "type": "address"
        }
      ],
      "stateMutability": "view",
      "type": "function"
    },
    {
      "inputs": [],
      "name": "getCids",
      "outputs": [
        {
          "internalType": "string[]",
          "name": "",
          "type": "string[]"
        }
      ],
      "stateMutability": "view",
      "type": "function"
    },
    {
      "inputs": [],
      "name": "getFee",
      "outputs": [
        {
          "internalType": "uint256",
          "name": "",
          "type": "uint256"
        }
      ],
      "stateMutability": "view",
      "type": "function"
    },
    {
      "inputs": [],
      "name": "getRetriever",
      "outputs": [
        {
          "internalType": "address",
          "name": "",
          "type": "address"
        }
      ],
      "stateMutability": "view",
      "type": "function"
    },
    {
      "inputs": [],
      "name": "getSmartContractAddr",
      "outputs": [
        {
          "internalType": "address",
          "name": "",
          "type": "address"
        }
      ],
      "stateMutability": "view",
      "type": "function"
    },
    {
      "inputs": [
        {
          "internalType": "address",
          "name": "addressOfPromethium",
          "type": "address"
        },
        {
          "internalType": "address",
          "name": "newOwner",
          "type": "address"
        }
      ],
      "name": "initialize",
      "outputs": [],
      "stateMutability": "nonpayable",
      "type": "function"
    },
    {
      "inputs": [
        {
          "internalType": "address",
          "name": "owner",
          "type": "address"
        },
        {
          "internalType": "address",
          "name": "operator",
          "type": "address"
        }
      ],
      "name": "isApprovedForAll",
      "outputs": [
        {
          "internalType": "bool",
          "name": "",
          "type": "bool"
        }
      ],
      "stateMutability": "view",
      "type": "function"
    },
    {
      "inputs": [],
      "name": "name",
      "outputs": [
        {
          "internalType": "string",
          "name": "",
          "type": "string"
        }
      ],
      "stateMutability": "view",
      "type": "function"
    },
    {
      "inputs": [],
      "name": "owner",
      "outputs": [
        {
          "internalType": "address",
          "name": "",
          "type": "address"
        }
      ],
      "stateMutability": "view",
      "type": "function"
    },
    {
      "inputs": [
        {
          "internalType": "uint256",
          "name": "tokenId",
          "type": "uint256"
        }
      ],
      "name": "ownerOf",
      "outputs": [
        {
          "internalType": "address",
          "name": "",
          "type": "address"
        }
      ],
      "stateMutability": "view",
      "type": "function"
    },
    {
      "inputs": [],
      "name": "pause",
      "outputs": [],
      "stateMutability": "nonpayable",
      "type": "function"
    },
    {
      "inputs": [],
      "name": "paused",
      "outputs": [
        {
          "internalType": "bool",
          "name": "",
          "type": "bool"
        }
      ],
      "stateMutability": "view",
      "type": "function"
    },
    {
      "inputs": [],
      "name": "renounceOwnership",
      "outputs": [],
      "stateMutability": "nonpayable",
      "type": "function"
    },
    {
      "inputs": [],
      "name": "retrieveFunds",
      "outputs": [],
      "stateMutability": "nonpayable",
      "type": "function"
    },
    {
      "inputs": [
        {
          "internalType": "address",
          "name": "to",
          "type": "address"
        },
        {
          "internalType": "string",
          "name": "uri",
          "type": "string"
        }
      ],
      "name": "safeMint",
      "outputs": [],
      "stateMutability": "payable",
      "type": "function"
    },
    {
      "inputs": [
        {
          "internalType": "address",
          "name": "to",
          "type": "address"
        },
        {
          "internalType": "string",
          "name": "uri",
          "type": "string"
        }
      ],
      "name": "safeMintWithTokens",
      "outputs": [],
      "stateMutability": "nonpayable",
      "type": "function"
    },
    {
      "inputs": [
        {
          "internalType": "address",
          "name": "from",
          "type": "address"
        },
        {
          "internalType": "address",
          "name": "to",
          "type": "address"
        },
        {
          "internalType": "uint256",
          "name": "tokenId",
          "type": "uint256"
        }
      ],
      "name": "safeTransferFrom",
      "outputs": [],
      "stateMutability": "nonpayable",
      "type": "function"
    },
    {
      "inputs": [
        {
          "internalType": "address",
          "name": "from",
          "type": "address"
        },
        {
          "internalType": "address",
          "name": "to",
          "type": "address"
        },
        {
          "internalType": "uint256",
          "name": "tokenId",
          "type": "uint256"
        },
        {
          "internalType": "bytes",
          "name": "_data",
          "type": "bytes"
        }
      ],
      "name": "safeTransferFrom",
      "outputs": [],
      "stateMutability": "nonpayable",
      "type": "function"
    },
    {
      "inputs": [
        {
          "internalType": "address",
          "name": "operator",
          "type": "address"
        },
        {
          "internalType": "bool",
          "name": "approved",
          "type": "bool"
        }
      ],
      "name": "setApprovalForAll",
      "outputs": [],
      "stateMutability": "nonpayable",
      "type": "function"
    },
    {
      "inputs": [
        {
          "internalType": "uint256",
          "name": "fee",
          "type": "uint256"
        }
      ],
      "name": "setFee",
      "outputs": [],
      "stateMutability": "nonpayable",
      "type": "function"
    },
    {
      "inputs": [
        {
          "internalType": "address",
          "name": "newRetrieve",
          "type": "address"
        }
      ],
      "name": "setRetriever",
      "outputs": [],
      "stateMutability": "nonpayable",
      "type": "function"
    },
    {
      "inputs": [
        {
          "internalType": "bytes4",
          "name": "interfaceId",
          "type": "bytes4"
        }
      ],
      "name": "supportsInterface",
      "outputs": [
        {
          "internalType": "bool",
          "name": "",
          "type": "bool"
        }
      ],
      "stateMutability": "view",
      "type": "function"
    },
    {
      "inputs": [],
      "name": "symbol",
      "outputs": [
        {
          "internalType": "string",
          "name": "",
          "type": "string"
        }
      ],
      "stateMutability": "view",
      "type": "function"
    },
    {
      "inputs": [
        {
          "internalType": "uint256",
          "name": "tokenId",
          "type": "uint256"
        }
      ],
      "name": "tokenURI",
      "outputs": [
        {
          "internalType": "string",
          "name": "",
          "type": "string"
        }
      ],
      "stateMutability": "view",
      "type": "function"
    },
    {
      "inputs": [
        {
          "internalType": "address",
          "name": "from",
          "type": "address"
        },
        {
          "internalType": "address",
          "name": "to",
          "type": "address"
        },
        {
          "internalType": "uint256",
          "name": "tokenId",
          "type": "uint256"
        }
      ],
      "name": "transferFrom",
      "outputs": [],
      "stateMutability": "nonpayable",
      "type": "function"
    },
    {
      "inputs": [
        {
          "internalType": "address",
          "name": "newOwner",
          "type": "address"
        }
      ],
      "name": "transferOwnership",
      "outputs": [],
      "stateMutability": "nonpayable",
      "type": "function"
    },
    {
      "inputs": [],
      "name": "unpause",
      "outputs": [],
      "stateMutability": "nonpayable",
      "type": "function"
    }
  ],
  "bytecode": "0x608060405234801561001057600080fd5b50614aca806100206000396000f3fe6080604052600436106101d85760003560e01c806369fe0e2d11610102578063a22cb46511610095578063ced72f8711610064578063ced72f871461065c578063d204c45e14610687578063e985e9c5146106a3578063f2fde38b146106e0576101d8565b8063a22cb465146105a4578063b8236299146105cd578063b88d4fde146105f6578063c87b56dd1461061f576101d8565b80638da5cb5b116100d15780638da5cb5b146104f85780639266c05b1461052357806395d89b411461054e5780639bbbe46114610579576101d8565b806369fe0e2d1461046457806370a082311461048d578063715018a6146104ca5780638456cb59146104e1576101d8565b80633f4ba83a1161017a5780634e11ecb2116101495780634e11ecb2146103ba5780635c975abb146103e557806361b20d8c146104105780636352211e14610427576101d8565b80633f4ba83a1461032857806342842e0e1461033f57806342966c6814610368578063485cc95514610391576101d8565b8063095ea7b3116101b6578063095ea7b31461028257806323b872dd146102ab578063278bea4b146102d457806330a29d39146102fd576101d8565b806301ffc9a7146101dd57806306fdde031461021a578063081812fc14610245575b600080fd5b3480156101e957600080fd5b5061020460048036038101906101ff9190613454565b610709565b6040516102119190613b58565b60405180910390f35b34801561022657600080fd5b5061022f6107eb565b60405161023c9190613b73565b60405180910390f35b34801561025157600080fd5b5061026c600480360381019061026791906134a6565b61087d565b6040516102799190613aa6565b60405180910390f35b34801561028e57600080fd5b506102a960048036038101906102a49190613418565b610902565b005b3480156102b757600080fd5b506102d260048036038101906102cd91906132be565b610a1a565b005b3480156102e057600080fd5b506102fb60048036038101906102f69190613259565b610a7a565b005b34801561030957600080fd5b50610312610b3b565b60405161031f9190613b36565b60405180910390f35b34801561033457600080fd5b5061033d610c15565b005b34801561034b57600080fd5b50610366600480360381019061036191906132be565b610c9b565b005b34801561037457600080fd5b5061038f600480360381019061038a91906134a6565b610cbb565b005b34801561039d57600080fd5b506103b860048036038101906103b39190613282565b610d17565b005b3480156103c657600080fd5b506103cf610f24565b6040516103dc9190613ef5565b60405180910390f35b3480156103f157600080fd5b506103fa610fa8565b6040516104079190613b58565b60405180910390f35b34801561041c57600080fd5b50610425610fbf565b005b34801561043357600080fd5b5061044e600480360381019061044991906134a6565b611137565b60405161045b9190613aa6565b60405180910390f35b34801561047057600080fd5b5061048b600480360381019061048691906134a6565b6111e9565b005b34801561049957600080fd5b506104b460048036038101906104af9190613259565b611270565b6040516104c19190613ef5565b60405180910390f35b3480156104d657600080fd5b506104df611328565b005b3480156104ed57600080fd5b506104f66113b0565b005b34801561050457600080fd5b5061050d611436565b60405161051a9190613aa6565b60405180910390f35b34801561052f57600080fd5b50610538611461565b6040516105459190613aa6565b60405180910390f35b34801561055a57600080fd5b5061056361148c565b6040516105709190613b73565b60405180910390f35b34801561058557600080fd5b5061058e61151e565b60405161059b9190613aa6565b60405180910390f35b3480156105b057600080fd5b506105cb60048036038101906105c69190613388565b611549565b005b3480156105d957600080fd5b506105f460048036038101906105ef91906133c4565b61155f565b005b34801561060257600080fd5b5061061d6004803603810190610618919061330d565b61173f565b005b34801561062b57600080fd5b50610646600480360381019061064191906134a6565b6117a1565b6040516106539190613b73565b60405180910390f35b34801561066857600080fd5b506106716117b3565b60405161067e9190613ef5565b60405180910390f35b6106a1600480360381019061069c91906133c4565b6117be565b005b3480156106af57600080fd5b506106ca60048036038101906106c59190613282565b611874565b6040516106d79190613b58565b60405180910390f35b3480156106ec57600080fd5b5061070760048036038101906107029190613259565b611908565b005b60007f80ac58cd000000000000000000000000000000000000000000000000000000007bffffffffffffffffffffffffffffffffffffffffffffffffffffffff1916827bffffffffffffffffffffffffffffffffffffffffffffffffffffffff191614806107d457507f5b5e139f000000000000000000000000000000000000000000000000000000007bffffffffffffffffffffffffffffffffffffffffffffffffffffffff1916827bffffffffffffffffffffffffffffffffffffffffffffffffffffffff1916145b806107e457506107e382611a00565b5b9050919050565b6060606580546107fa906141b2565b80601f0160208091040260200160405190810160405280929190818152602001828054610826906141b2565b80156108735780601f1061084857610100808354040283529160200191610873565b820191906000526020600020905b81548152906001019060200180831161085657829003601f168201915b5050505050905090565b600061088882611a6a565b6108c7576040517f08c379a00000000000000000000000000000000000000000000000000000000081526004016108be90613e15565b60405180910390fd5b6069600083815260200190815260200160002060009054906101000a900473ffffffffffffffffffffffffffffffffffffffff169050919050565b600061090d82611137565b90508073ffffffffffffffffffffffffffffffffffffffff168373ffffffffffffffffffffffffffffffffffffffff16141561097e576040517f08c379a000000000000000000000000000000000000000000000000000000000815260040161097590613e75565b60405180910390fd5b8073ffffffffffffffffffffffffffffffffffffffff1661099d611ad6565b73ffffffffffffffffffffffffffffffffffffffff1614806109cc57506109cb816109c6611ad6565b611874565b5b610a0b576040517f08c379a0000000000000000000000000000000000000000000000000000000008152600401610a0290613cf5565b60405180910390fd5b610a158383611ade565b505050565b610a2b610a25611ad6565b82611b97565b610a6a576040517f08c379a0000000000000000000000000000000000000000000000000000000008152600401610a6190613e95565b60405180910390fd5b610a75838383611c75565b505050565b610a82611ad6565b73ffffffffffffffffffffffffffffffffffffffff16610aa0611436565b73ffffffffffffffffffffffffffffffffffffffff1614610af6576040517f08c379a0000000000000000000000000000000000000000000000000000000008152600401610aed90613e35565b60405180910390fd5b8061016160006101000a81548173ffffffffffffffffffffffffffffffffffffffff021916908373ffffffffffffffffffffffffffffffffffffffff16021790555050565b6060610163805480602002602001604051908101604052809291908181526020016000905b82821015610c0c578382906000526020600020018054610b7f906141b2565b80601f0160208091040260200160405190810160405280929190818152602001828054610bab906141b2565b8015610bf85780601f10610bcd57610100808354040283529160200191610bf8565b820191906000526020600020905b815481529060010190602001808311610bdb57829003601f168201915b505050505081526020019060010190610b60565b50505050905090565b610c1d611ad6565b73ffffffffffffffffffffffffffffffffffffffff16610c3b611436565b73ffffffffffffffffffffffffffffffffffffffff1614610c91576040517f08c379a0000000000000000000000000000000000000000000000000000000008152600401610c8890613e35565b60405180910390fd5b610c99611edc565b565b610cb68383836040518060200160405280600081525061173f565b505050565b610ccc610cc6611ad6565b82611b97565b610d0b576040517f08c379a0000000000000000000000000000000000000000000000000000000008152600401610d0290613ed5565b60405180910390fd5b610d1481611f7e565b50565b600060019054906101000a900460ff16610d3f5760008054906101000a900460ff1615610d48565b610d47611f8a565b5b610d87576040517f08c379a0000000000000000000000000000000000000000000000000000000008152600401610d7e90613d75565b60405180910390fd5b60008060019054906101000a900460ff161590508015610dd7576001600060016101000a81548160ff02191690831515021790555060016000806101000a81548160ff0219169083151502179055505b610e4b6040518060400160405280600581526020017f43617264730000000000000000000000000000000000000000000000000000008152506040518060400160405280600381526020017f4352440000000000000000000000000000000000000000000000000000000000815250611f9b565b610e53611ff8565b610e5b612049565b610e636120a2565b610e6b6120f3565b8261016460006101000a81548173ffffffffffffffffffffffffffffffffffffffff021916908373ffffffffffffffffffffffffffffffffffffffff160217905550660aa87bee538000610160819055508161016160006101000a81548173ffffffffffffffffffffffffffffffffffffffff021916908373ffffffffffffffffffffffffffffffffffffffff1602179055508015610f1f5760008060016101000a81548160ff0219169083151502179055505b505050565b6000610f2e611ad6565b73ffffffffffffffffffffffffffffffffffffffff16610f4c611436565b73ffffffffffffffffffffffffffffffffffffffff1614610fa2576040517f08c379a0000000000000000000000000000000000000000000000000000000008152600401610f9990613e35565b60405180910390fd5b47905090565b600060c960009054906101000a900460ff16905090565b610fc7611ad6565b73ffffffffffffffffffffffffffffffffffffffff16610fe5611436565b73ffffffffffffffffffffffffffffffffffffffff161461103b576040517f08c379a000000000000000000000000000000000000000000000000000000000815260040161103290613e35565b60405180910390fd5b6000471161107e576040517f08c379a000000000000000000000000000000000000000000000000000000000815260040161107590613d95565b60405180910390fd5b600080611089611436565b73ffffffffffffffffffffffffffffffffffffffff16476040516110ac90613a91565b60006040518083038185875af1925050503d80600081146110e9576040519150601f19603f3d011682016040523d82523d6000602084013e6110ee565b606091505b509150915081611133576040517f08c379a000000000000000000000000000000000000000000000000000000000815260040161112a90613c55565b60405180910390fd5b5050565b6000806067600084815260200190815260200160002060009054906101000a900473ffffffffffffffffffffffffffffffffffffffff169050600073ffffffffffffffffffffffffffffffffffffffff168173ffffffffffffffffffffffffffffffffffffffff1614156111e0576040517f08c379a00000000000000000000000000000000000000000000000000000000081526004016111d790613d35565b60405180910390fd5b80915050919050565b6111f1611ad6565b73ffffffffffffffffffffffffffffffffffffffff1661120f611436565b73ffffffffffffffffffffffffffffffffffffffff1614611265576040517f08c379a000000000000000000000000000000000000000000000000000000000815260040161125c90613e35565b60405180910390fd5b806101608190555050565b60008073ffffffffffffffffffffffffffffffffffffffff168273ffffffffffffffffffffffffffffffffffffffff1614156112e1576040517f08c379a00000000000000000000000000000000000000000000000000000000081526004016112d890613d15565b60405180910390fd5b606860008373ffffffffffffffffffffffffffffffffffffffff1673ffffffffffffffffffffffffffffffffffffffff168152602001908152602001600020549050919050565b611330611ad6565b73ffffffffffffffffffffffffffffffffffffffff1661134e611436565b73ffffffffffffffffffffffffffffffffffffffff16146113a4576040517f08c379a000000000000000000000000000000000000000000000000000000000815260040161139b90613e35565b60405180910390fd5b6113ae600061214c565b565b6113b8611ad6565b73ffffffffffffffffffffffffffffffffffffffff166113d6611436565b73ffffffffffffffffffffffffffffffffffffffff161461142c576040517f08c379a000000000000000000000000000000000000000000000000000000000815260040161142390613e35565b60405180910390fd5b611434612214565b565b600061012d60009054906101000a900473ffffffffffffffffffffffffffffffffffffffff16905090565b600061016160009054906101000a900473ffffffffffffffffffffffffffffffffffffffff16905090565b60606066805461149b906141b2565b80601f01602080910402602001604051908101604052809291908181526020018280546114c7906141b2565b80156115145780601f106114e957610100808354040283529160200191611514565b820191906000526020600020905b8154815290600101906020018083116114f757829003601f168201915b5050505050905090565b600061016460009054906101000a900473ffffffffffffffffffffffffffffffffffffffff16905090565b61155b611554611ad6565b83836122b7565b5050565b600061016460009054906101000a900473ffffffffffffffffffffffffffffffffffffffff169050600a8173ffffffffffffffffffffffffffffffffffffffff166370a082316115ad611ad6565b6040518263ffffffff1660e01b81526004016115c99190613aa6565b60206040518083038186803b1580156115e157600080fd5b505afa1580156115f5573d6000803e3d6000fd5b505050506040513d601f19601f8201168201806040525081019061161991906134cf565b11611659576040517f08c379a000000000000000000000000000000000000000000000000000000000815260040161165090613bb5565b60405180910390fd5b8073ffffffffffffffffffffffffffffffffffffffff1663b7b9790c61167d611ad6565b600a6040518363ffffffff1660e01b815260040161169c929190613b0d565b600060405180830381600087803b1580156116b657600080fd5b505af11580156116ca573d6000803e3d6000fd5b505050506101638290806001815401808255809150506001900390600052602060002001600090919091909150908051906020019061170a929190613028565b50600061171861015f612424565b905061172561015f612432565b61172f8482612448565b6117398184612466565b50505050565b61175061174a611ad6565b83611b97565b61178f576040517f08c379a000000000000000000000000000000000000000000000000000000000815260040161178690613e95565b60405180910390fd5b61179b848484846124da565b50505050565b60606117ac82612536565b9050919050565b600061016054905090565b61016054341015611804576040517f08c379a00000000000000000000000000000000000000000000000000000000081526004016117fb90613dd5565b60405180910390fd5b61016381908060018154018082558091505060019003906000526020600020016000909190919091509080519060200190611840929190613028565b50600061184e61015f612424565b905061185b61015f612432565b6118658382612448565b61186f8183612466565b505050565b6000606a60008473ffffffffffffffffffffffffffffffffffffffff1673ffffffffffffffffffffffffffffffffffffffff16815260200190815260200160002060008373ffffffffffffffffffffffffffffffffffffffff1673ffffffffffffffffffffffffffffffffffffffff16815260200190815260200160002060009054906101000a900460ff16905092915050565b611910611ad6565b73ffffffffffffffffffffffffffffffffffffffff1661192e611436565b73ffffffffffffffffffffffffffffffffffffffff1614611984576040517f08c379a000000000000000000000000000000000000000000000000000000000815260040161197b90613e35565b60405180910390fd5b600073ffffffffffffffffffffffffffffffffffffffff168173ffffffffffffffffffffffffffffffffffffffff1614156119f4576040517f08c379a00000000000000000000000000000000000000000000000000000000081526004016119eb90613bf5565b60405180910390fd5b6119fd8161214c565b50565b60007f01ffc9a7000000000000000000000000000000000000000000000000000000007bffffffffffffffffffffffffffffffffffffffffffffffffffffffff1916827bffffffffffffffffffffffffffffffffffffffffffffffffffffffff1916149050919050565b60008073ffffffffffffffffffffffffffffffffffffffff166067600084815260200190815260200160002060009054906101000a900473ffffffffffffffffffffffffffffffffffffffff1673ffffffffffffffffffffffffffffffffffffffff1614159050919050565b600033905090565b816069600083815260200190815260200160002060006101000a81548173ffffffffffffffffffffffffffffffffffffffff021916908373ffffffffffffffffffffffffffffffffffffffff160217905550808273ffffffffffffffffffffffffffffffffffffffff16611b5183611137565b73ffffffffffffffffffffffffffffffffffffffff167f8c5be1e5ebec7d5bd14f71427d1e84f3dd0314c0f7b2291e5b200ac8c7c3b92560405160405180910390a45050565b6000611ba282611a6a565b611be1576040517f08c379a0000000000000000000000000000000000000000000000000000000008152600401611bd890613cb5565b60405180910390fd5b6000611bec83611137565b90508073ffffffffffffffffffffffffffffffffffffffff168473ffffffffffffffffffffffffffffffffffffffff161480611c5b57508373ffffffffffffffffffffffffffffffffffffffff16611c438461087d565b73ffffffffffffffffffffffffffffffffffffffff16145b80611c6c5750611c6b8185611874565b5b91505092915050565b8273ffffffffffffffffffffffffffffffffffffffff16611c9582611137565b73ffffffffffffffffffffffffffffffffffffffff1614611ceb576040517f08c379a0000000000000000000000000000000000000000000000000000000008152600401611ce290613c15565b60405180910390fd5b600073ffffffffffffffffffffffffffffffffffffffff168273ffffffffffffffffffffffffffffffffffffffff161415611d5b576040517f08c379a0000000000000000000000000000000000000000000000000000000008152600401611d5290613c75565b60405180910390fd5b611d66838383612688565b611d71600082611ade565b6001606860008573ffffffffffffffffffffffffffffffffffffffff1673ffffffffffffffffffffffffffffffffffffffff1681526020019081526020016000206000828254611dc191906140b6565b925050819055506001606860008473ffffffffffffffffffffffffffffffffffffffff1673ffffffffffffffffffffffffffffffffffffffff1681526020019081526020016000206000828254611e18919061402f565b92505081905550816067600083815260200190815260200160002060006101000a81548173ffffffffffffffffffffffffffffffffffffffff021916908373ffffffffffffffffffffffffffffffffffffffff160217905550808273ffffffffffffffffffffffffffffffffffffffff168473ffffffffffffffffffffffffffffffffffffffff167fddf252ad1be2c89b69c2b068fc378daa952ba7f163c4a11628f55a4df523b3ef60405160405180910390a4611ed78383836126e0565b505050565b611ee4610fa8565b611f23576040517f08c379a0000000000000000000000000000000000000000000000000000000008152600401611f1a90613b95565b60405180910390fd5b600060c960006101000a81548160ff0219169083151502179055507f5db9ee0a495bf2e6ff9c91a7834c1ba4fdd244a5e8aa4e537bd38aeae4b073aa611f67611ad6565b604051611f749190613aa6565b60405180910390a1565b611f87816126e5565b50565b6000611f9530612738565b15905090565b600060019054906101000a900460ff16611fea576040517f08c379a0000000000000000000000000000000000000000000000000000000008152600401611fe190613eb5565b60405180910390fd5b611ff4828261275b565b5050565b600060019054906101000a900460ff16612047576040517f08c379a000000000000000000000000000000000000000000000000000000000815260040161203e90613eb5565b60405180910390fd5b565b600060019054906101000a900460ff16612098576040517f08c379a000000000000000000000000000000000000000000000000000000000815260040161208f90613eb5565b60405180910390fd5b6120a06127dc565b565b600060019054906101000a900460ff166120f1576040517f08c379a00000000000000000000000000000000000000000000000000000000081526004016120e890613eb5565b60405180910390fd5b565b600060019054906101000a900460ff16612142576040517f08c379a000000000000000000000000000000000000000000000000000000000815260040161213990613eb5565b60405180910390fd5b61214a612848565b565b600061012d60009054906101000a900473ffffffffffffffffffffffffffffffffffffffff1690508161012d60006101000a81548173ffffffffffffffffffffffffffffffffffffffff021916908373ffffffffffffffffffffffffffffffffffffffff1602179055508173ffffffffffffffffffffffffffffffffffffffff168173ffffffffffffffffffffffffffffffffffffffff167f8be0079c531659141344cd1fd0a4f28419497f9722a3daafe3b4186f6b6457e060405160405180910390a35050565b61221c610fa8565b1561225c576040517f08c379a000000000000000000000000000000000000000000000000000000000815260040161225390613cd5565b60405180910390fd5b600160c960006101000a81548160ff0219169083151502179055507f62e78cea01bee320cd4e420270b5ea74000d11b0c9f74754ebdbfc544b05a2586122a0611ad6565b6040516122ad9190613aa6565b60405180910390a1565b8173ffffffffffffffffffffffffffffffffffffffff168373ffffffffffffffffffffffffffffffffffffffff161415612326576040517f08c379a000000000000000000000000000000000000000000000000000000000815260040161231d90613c95565b60405180910390fd5b80606a60008573ffffffffffffffffffffffffffffffffffffffff1673ffffffffffffffffffffffffffffffffffffffff16815260200190815260200160002060008473ffffffffffffffffffffffffffffffffffffffff1673ffffffffffffffffffffffffffffffffffffffff16815260200190815260200160002060006101000a81548160ff0219169083151502179055508173ffffffffffffffffffffffffffffffffffffffff168373ffffffffffffffffffffffffffffffffffffffff167f17307eab39ab6107e8899845ad3d59bd9653f200f220920489ca2b5937696c31836040516124179190613b58565b60405180910390a3505050565b600081600001549050919050565b6001816000016000828254019250508190555050565b6124628282604051806020016040528060008152506128a9565b5050565b61246f82611a6a565b6124ae576040517f08c379a00000000000000000000000000000000000000000000000000000000081526004016124a590613d55565b60405180910390fd5b806097600084815260200190815260200160002090805190602001906124d5929190613028565b505050565b6124e5848484611c75565b6124f184848484612904565b612530576040517f08c379a000000000000000000000000000000000000000000000000000000000815260040161252790613bd5565b60405180910390fd5b50505050565b606061254182611a6a565b612580576040517f08c379a000000000000000000000000000000000000000000000000000000000815260040161257790613df5565b60405180910390fd5b60006097600084815260200190815260200160002080546125a0906141b2565b80601f01602080910402602001604051908101604052809291908181526020018280546125cc906141b2565b80156126195780601f106125ee57610100808354040283529160200191612619565b820191906000526020600020905b8154815290600101906020018083116125fc57829003601f168201915b50505050509050600061262a612a9b565b9050600081511415612640578192505050612683565b60008251111561267557808260405160200161265d929190613a6d565b60405160208183030381529060405292505050612683565b61267e84612ad8565b925050505b919050565b612690610fa8565b156126d0576040517f08c379a00000000000000000000000000000000000000000000000000000000081526004016126c790613cd5565b60405180910390fd5b6126db838383612b7f565b505050565b505050565b6126ee81612b84565b600060976000838152602001908152602001600020805461270e906141b2565b9050146127355760976000828152602001908152602001600020600061273491906130ae565b5b50565b6000808273ffffffffffffffffffffffffffffffffffffffff163b119050919050565b600060019054906101000a900460ff166127aa576040517f08c379a00000000000000000000000000000000000000000000000000000000081526004016127a190613eb5565b60405180910390fd5b81606590805190602001906127c0929190613028565b5080606690805190602001906127d7929190613028565b505050565b600060019054906101000a900460ff1661282b576040517f08c379a000000000000000000000000000000000000000000000000000000000815260040161282290613eb5565b60405180910390fd5b600060c960006101000a81548160ff021916908315150217905550565b600060019054906101000a900460ff16612897576040517f08c379a000000000000000000000000000000000000000000000000000000000815260040161288e90613eb5565b60405180910390fd5b6128a76128a2611ad6565b61214c565b565b6128b38383612ca1565b6128c06000848484612904565b6128ff576040517f08c379a00000000000000000000000000000000000000000000000000000000081526004016128f690613bd5565b60405180910390fd5b505050565b60006129258473ffffffffffffffffffffffffffffffffffffffff16612738565b15612a8e578373ffffffffffffffffffffffffffffffffffffffff1663150b7a0261294e611ad6565b8786866040518563ffffffff1660e01b81526004016129709493929190613ac1565b602060405180830381600087803b15801561298a57600080fd5b505af19250505080156129bb57506040513d601f19601f820116820180604052508101906129b8919061347d565b60015b612a3e573d80600081146129eb576040519150601f19603f3d011682016040523d82523d6000602084013e6129f0565b606091505b50600081511415612a36576040517f08c379a0000000000000000000000000000000000000000000000000000000008152600401612a2d90613bd5565b60405180910390fd5b805181602001fd5b63150b7a0260e01b7bffffffffffffffffffffffffffffffffffffffffffffffffffffffff1916817bffffffffffffffffffffffffffffffffffffffffffffffffffffffff191614915050612a93565b600190505b949350505050565b60606040518060400160405280600781526020017f697066733a2f2f00000000000000000000000000000000000000000000000000815250905090565b6060612ae382611a6a565b612b22576040517f08c379a0000000000000000000000000000000000000000000000000000000008152600401612b1990613e55565b60405180910390fd5b6000612b2c612a9b565b90506000815111612b4c5760405180602001604052806000815250612b77565b80612b5684612e7b565b604051602001612b67929190613a6d565b6040516020818303038152906040525b915050919050565b505050565b6000612b8f82611137565b9050612b9d81600084612688565b612ba8600083611ade565b6001606860008373ffffffffffffffffffffffffffffffffffffffff1673ffffffffffffffffffffffffffffffffffffffff1681526020019081526020016000206000828254612bf891906140b6565b925050819055506067600083815260200190815260200160002060006101000a81549073ffffffffffffffffffffffffffffffffffffffff021916905581600073ffffffffffffffffffffffffffffffffffffffff168273ffffffffffffffffffffffffffffffffffffffff167fddf252ad1be2c89b69c2b068fc378daa952ba7f163c4a11628f55a4df523b3ef60405160405180910390a4612c9d816000846126e0565b5050565b600073ffffffffffffffffffffffffffffffffffffffff168273ffffffffffffffffffffffffffffffffffffffff161415612d11576040517f08c379a0000000000000000000000000000000000000000000000000000000008152600401612d0890613db5565b60405180910390fd5b612d1a81611a6a565b15612d5a576040517f08c379a0000000000000000000000000000000000000000000000000000000008152600401612d5190613c35565b60405180910390fd5b612d6660008383612688565b6001606860008473ffffffffffffffffffffffffffffffffffffffff1673ffffffffffffffffffffffffffffffffffffffff1681526020019081526020016000206000828254612db6919061402f565b92505081905550816067600083815260200190815260200160002060006101000a81548173ffffffffffffffffffffffffffffffffffffffff021916908373ffffffffffffffffffffffffffffffffffffffff160217905550808273ffffffffffffffffffffffffffffffffffffffff16600073ffffffffffffffffffffffffffffffffffffffff167fddf252ad1be2c89b69c2b068fc378daa952ba7f163c4a11628f55a4df523b3ef60405160405180910390a4612e77600083836126e0565b5050565b60606000821415612ec3576040518060400160405280600181526020017f30000000000000000000000000000000000000000000000000000000000000008152509050613023565b600082905060005b60008214612ef5578080612ede90614215565b915050600a82612eee9190614085565b9150612ecb565b60008167ffffffffffffffff811115612f37577f4e487b7100000000000000000000000000000000000000000000000000000000600052604160045260246000fd5b6040519080825280601f01601f191660200182016040528015612f695781602001600182028036833780820191505090505b5090505b6000851461301c57600182612f8291906140b6565b9150600a85612f91919061425e565b6030612f9d919061402f565b60f81b818381518110612fd9577f4e487b7100000000000000000000000000000000000000000000000000000000600052603260045260246000fd5b60200101907effffffffffffffffffffffffffffffffffffffffffffffffffffffffffffff1916908160001a905350600a856130159190614085565b9450612f6d565b8093505050505b919050565b828054613034906141b2565b90600052602060002090601f016020900481019282613056576000855561309d565b82601f1061306f57805160ff191683800117855561309d565b8280016001018555821561309d579182015b8281111561309c578251825591602001919060010190613081565b5b5090506130aa91906130ee565b5090565b5080546130ba906141b2565b6000825580601f106130cc57506130eb565b601f0160209004906000526020600020908101906130ea91906130ee565b5b50565b5b808211156131075760008160009055506001016130ef565b5090565b600061311e61311984613f35565b613f10565b90508281526020810184848401111561313657600080fd5b613141848285614170565b509392505050565b600061315c61315784613f66565b613f10565b90508281526020810184848401111561317457600080fd5b61317f848285614170565b509392505050565b60008135905061319681614a38565b92915050565b6000813590506131ab81614a4f565b92915050565b6000813590506131c081614a66565b92915050565b6000815190506131d581614a66565b92915050565b600082601f8301126131ec57600080fd5b81356131fc84826020860161310b565b91505092915050565b600082601f83011261321657600080fd5b8135613226848260208601613149565b91505092915050565b60008135905061323e81614a7d565b92915050565b60008151905061325381614a7d565b92915050565b60006020828403121561326b57600080fd5b600061327984828501613187565b91505092915050565b6000806040838503121561329557600080fd5b60006132a385828601613187565b92505060206132b485828601613187565b9150509250929050565b6000806000606084860312156132d357600080fd5b60006132e186828701613187565b93505060206132f286828701613187565b92505060406133038682870161322f565b9150509250925092565b6000806000806080858703121561332357600080fd5b600061333187828801613187565b945050602061334287828801613187565b93505060406133538782880161322f565b925050606085013567ffffffffffffffff81111561337057600080fd5b61337c878288016131db565b91505092959194509250565b6000806040838503121561339b57600080fd5b60006133a985828601613187565b92505060206133ba8582860161319c565b9150509250929050565b600080604083850312156133d757600080fd5b60006133e585828601613187565b925050602083013567ffffffffffffffff81111561340257600080fd5b61340e85828601613205565b9150509250929050565b6000806040838503121561342b57600080fd5b600061343985828601613187565b925050602061344a8582860161322f565b9150509250929050565b60006020828403121561346657600080fd5b6000613474848285016131b1565b91505092915050565b60006020828403121561348f57600080fd5b600061349d848285016131c6565b91505092915050565b6000602082840312156134b857600080fd5b60006134c68482850161322f565b91505092915050565b6000602082840312156134e157600080fd5b60006134ef84828501613244565b91505092915050565b600061350483836135e7565b905092915050565b613515816140ea565b82525050565b600061352682613fa7565b6135308185613fd5565b93508360208202850161354285613f97565b8060005b8581101561357e578484038952815161355f85826134f8565b945061356a83613fc8565b925060208a01995050600181019050613546565b50829750879550505050505092915050565b613599816140fc565b82525050565b60006135aa82613fb2565b6135b48185613fe6565b93506135c481856020860161417f565b6135cd8161434b565b840191505092915050565b6135e18161415e565b82525050565b60006135f282613fbd565b6135fc8185614002565b935061360c81856020860161417f565b6136158161434b565b840191505092915050565b600061362b82613fbd565b6136358185614013565b935061364581856020860161417f565b61364e8161434b565b840191505092915050565b600061366482613fbd565b61366e8185614024565b935061367e81856020860161417f565b80840191505092915050565b6000613697601483614013565b91506136a28261435c565b602082019050919050565b60006136ba601683614013565b91506136c582614385565b602082019050919050565b60006136dd603283614013565b91506136e8826143ae565b604082019050919050565b6000613700602683614013565b915061370b826143fd565b604082019050919050565b6000613723602583614013565b915061372e8261444c565b604082019050919050565b6000613746601c83614013565b91506137518261449b565b602082019050919050565b6000613769601483614013565b9150613774826144c4565b602082019050919050565b600061378c602483614013565b9150613797826144ed565b604082019050919050565b60006137af601983614013565b91506137ba8261453c565b602082019050919050565b60006137d2602c83614013565b91506137dd82614565565b604082019050919050565b60006137f5601083614013565b9150613800826145b4565b602082019050919050565b6000613818603883614013565b9150613823826145dd565b604082019050919050565b600061383b602a83614013565b91506138468261462c565b604082019050919050565b600061385e602983614013565b91506138698261467b565b604082019050919050565b6000613881602e83614013565b915061388c826146ca565b604082019050919050565b60006138a4602e83614013565b91506138af82614719565b604082019050919050565b60006138c7601483614013565b91506138d282614768565b602082019050919050565b60006138ea602083614013565b91506138f582614791565b602082019050919050565b600061390d601883614013565b9150613918826147ba565b602082019050919050565b6000613930603183614013565b915061393b826147e3565b604082019050919050565b6000613953602c83614013565b915061395e82614832565b604082019050919050565b6000613976602083614013565b915061398182614881565b602082019050919050565b6000613999602f83614013565b91506139a4826148aa565b604082019050919050565b60006139bc602183614013565b91506139c7826148f9565b604082019050919050565b60006139df600083613ff7565b91506139ea82614948565b600082019050919050565b6000613a02603183614013565b9150613a0d8261494b565b604082019050919050565b6000613a25602b83614013565b9150613a308261499a565b604082019050919050565b6000613a48603083614013565b9150613a53826149e9565b604082019050919050565b613a6781614154565b82525050565b6000613a798285613659565b9150613a858284613659565b91508190509392505050565b6000613a9c826139d2565b9150819050919050565b6000602082019050613abb600083018461350c565b92915050565b6000608082019050613ad6600083018761350c565b613ae3602083018661350c565b613af06040830185613a5e565b8181036060830152613b02818461359f565b905095945050505050565b6000604082019050613b22600083018561350c565b613b2f60208301846135d8565b9392505050565b60006020820190508181036000830152613b50818461351b565b905092915050565b6000602082019050613b6d6000830184613590565b92915050565b60006020820190508181036000830152613b8d8184613620565b905092915050565b60006020820190508181036000830152613bae8161368a565b9050919050565b60006020820190508181036000830152613bce816136ad565b9050919050565b60006020820190508181036000830152613bee816136d0565b9050919050565b60006020820190508181036000830152613c0e816136f3565b9050919050565b60006020820190508181036000830152613c2e81613716565b9050919050565b60006020820190508181036000830152613c4e81613739565b9050919050565b60006020820190508181036000830152613c6e8161375c565b9050919050565b60006020820190508181036000830152613c8e8161377f565b9050919050565b60006020820190508181036000830152613cae816137a2565b9050919050565b60006020820190508181036000830152613cce816137c5565b9050919050565b60006020820190508181036000830152613cee816137e8565b9050919050565b60006020820190508181036000830152613d0e8161380b565b9050919050565b60006020820190508181036000830152613d2e8161382e565b9050919050565b60006020820190508181036000830152613d4e81613851565b9050919050565b60006020820190508181036000830152613d6e81613874565b9050919050565b60006020820190508181036000830152613d8e81613897565b9050919050565b60006020820190508181036000830152613dae816138ba565b9050919050565b60006020820190508181036000830152613dce816138dd565b9050919050565b60006020820190508181036000830152613dee81613900565b9050919050565b60006020820190508181036000830152613e0e81613923565b9050919050565b60006020820190508181036000830152613e2e81613946565b9050919050565b60006020820190508181036000830152613e4e81613969565b9050919050565b60006020820190508181036000830152613e6e8161398c565b9050919050565b60006020820190508181036000830152613e8e816139af565b9050919050565b60006020820190508181036000830152613eae816139f5565b9050919050565b60006020820190508181036000830152613ece81613a18565b9050919050565b60006020820190508181036000830152613eee81613a3b565b9050919050565b6000602082019050613f0a6000830184613a5e565b92915050565b6000613f1a613f2b565b9050613f2682826141e4565b919050565b6000604051905090565b600067ffffffffffffffff821115613f5057613f4f61431c565b5b613f598261434b565b9050602081019050919050565b600067ffffffffffffffff821115613f8157613f8061431c565b5b613f8a8261434b565b9050602081019050919050565b6000819050602082019050919050565b600081519050919050565b600081519050919050565b600081519050919050565b6000602082019050919050565b600082825260208201905092915050565b600082825260208201905092915050565b600081905092915050565b600082825260208201905092915050565b600082825260208201905092915050565b600081905092915050565b600061403a82614154565b915061404583614154565b9250827fffffffffffffffffffffffffffffffffffffffffffffffffffffffffffffffff0382111561407a5761407961428f565b5b828201905092915050565b600061409082614154565b915061409b83614154565b9250826140ab576140aa6142be565b5b828204905092915050565b60006140c182614154565b91506140cc83614154565b9250828210156140df576140de61428f565b5b828203905092915050565b60006140f582614134565b9050919050565b60008115159050919050565b60007fffffffff0000000000000000000000000000000000000000000000000000000082169050919050565b600073ffffffffffffffffffffffffffffffffffffffff82169050919050565b6000819050919050565b600061416982614154565b9050919050565b82818337600083830152505050565b60005b8381101561419d578082015181840152602081019050614182565b838111156141ac576000848401525b50505050565b600060028204905060018216806141ca57607f821691505b602082108114156141de576141dd6142ed565b5b50919050565b6141ed8261434b565b810181811067ffffffffffffffff8211171561420c5761420b61431c565b5b80604052505050565b600061422082614154565b91507fffffffffffffffffffffffffffffffffffffffffffffffffffffffffffffffff8214156142535761425261428f565b5b600182019050919050565b600061426982614154565b915061427483614154565b925082614284576142836142be565b5b828206905092915050565b7f4e487b7100000000000000000000000000000000000000000000000000000000600052601160045260246000fd5b7f4e487b7100000000000000000000000000000000000000000000000000000000600052601260045260246000fd5b7f4e487b7100000000000000000000000000000000000000000000000000000000600052602260045260246000fd5b7f4e487b7100000000000000000000000000000000000000000000000000000000600052604160045260246000fd5b6000601f19601f8301169050919050565b7f5061757361626c653a206e6f7420706175736564000000000000000000000000600082015250565b7f4e6f7420656e6f7567682070726f6d65746869756d7300000000000000000000600082015250565b7f4552433732313a207472616e7366657220746f206e6f6e20455243373231526560008201527f63656976657220696d706c656d656e7465720000000000000000000000000000602082015250565b7f4f776e61626c653a206e6577206f776e657220697320746865207a65726f206160008201527f6464726573730000000000000000000000000000000000000000000000000000602082015250565b7f4552433732313a207472616e736665722066726f6d20696e636f72726563742060008201527f6f776e6572000000000000000000000000000000000000000000000000000000602082015250565b7f4552433732313a20746f6b656e20616c7265616479206d696e74656400000000600082015250565b7f4661696c656420746f2073656e64204574686572000000000000000000000000600082015250565b7f4552433732313a207472616e7366657220746f20746865207a65726f2061646460008201527f7265737300000000000000000000000000000000000000000000000000000000602082015250565b7f4552433732313a20617070726f766520746f2063616c6c657200000000000000600082015250565b7f4552433732313a206f70657261746f7220717565727920666f72206e6f6e657860008201527f697374656e7420746f6b656e0000000000000000000000000000000000000000602082015250565b7f5061757361626c653a2070617573656400000000000000000000000000000000600082015250565b7f4552433732313a20617070726f76652063616c6c6572206973206e6f74206f7760008201527f6e6572206e6f7220617070726f76656420666f7220616c6c0000000000000000602082015250565b7f4552433732313a2062616c616e636520717565727920666f7220746865207a6560008201527f726f206164647265737300000000000000000000000000000000000000000000602082015250565b7f4552433732313a206f776e657220717565727920666f72206e6f6e657869737460008201527f656e7420746f6b656e0000000000000000000000000000000000000000000000602082015250565b7f45524337323155524953746f726167653a2055524920736574206f66206e6f6e60008201527f6578697374656e7420746f6b656e000000000000000000000000000000000000602082015250565b7f496e697469616c697a61626c653a20636f6e747261637420697320616c72656160008201527f647920696e697469616c697a6564000000000000000000000000000000000000602082015250565b7f4e6f2066756e647320746f207265747269657665000000000000000000000000600082015250565b7f4552433732313a206d696e7420746f20746865207a65726f2061646472657373600082015250565b7f4e6f7420656e6f7567682066756e647320746f206d696e740000000000000000600082015250565b7f45524337323155524953746f726167653a2055524920717565727920666f722060008201527f6e6f6e6578697374656e7420746f6b656e000000000000000000000000000000602082015250565b7f4552433732313a20617070726f76656420717565727920666f72206e6f6e657860008201527f697374656e7420746f6b656e0000000000000000000000000000000000000000602082015250565b7f4f776e61626c653a2063616c6c6572206973206e6f7420746865206f776e6572600082015250565b7f4552433732314d657461646174613a2055524920717565727920666f72206e6f60008201527f6e6578697374656e7420746f6b656e0000000000000000000000000000000000602082015250565b7f4552433732313a20617070726f76616c20746f2063757272656e74206f776e6560008201527f7200000000000000000000000000000000000000000000000000000000000000602082015250565b50565b7f4552433732313a207472616e736665722063616c6c6572206973206e6f74206f60008201527f776e6572206e6f7220617070726f766564000000000000000000000000000000602082015250565b7f496e697469616c697a61626c653a20636f6e7472616374206973206e6f74206960008201527f6e697469616c697a696e67000000000000000000000000000000000000000000602082015250565b7f4552433732314275726e61626c653a2063616c6c6572206973206e6f74206f7760008201527f6e6572206e6f7220617070726f76656400000000000000000000000000000000602082015250565b614a41816140ea565b8114614a4c57600080fd5b50565b614a58816140fc565b8114614a6357600080fd5b50565b614a6f81614108565b8114614a7a57600080fd5b50565b614a8681614154565b8114614a9157600080fd5b5056fea2646970667358221220ca5aa38ff3d395b8285a43d9ffd84276984e795da76275b89361fe6ebdfee96864736f6c63430008020033",
  "linkReferences": {},
  "deployedLinkReferences": {}
}