{
  "_format": "hh-sol-artifact-1",
  "contractName": "MonstersOnTheWayCards",
  "sourceName": "contracts/MonstersOnTheWayCards.sol",
  "abi": [
    {
      "anonymous": false,
      "inputs": [
        {
          "indexed": true,
          "internalType": "address",
          "name": "owner",
          "type": "address"
        },
        {
          "indexed": true,
          "internalType": "address",
          "name": "approved",
          "type": "address"
        },
        {
          "indexed": true,
          "internalType": "uint256",
          "name": "tokenId",
          "type": "uint256"
        }
      ],
      "name": "Approval",
      "type": "event"
    },
    {
      "anonymous": false,
      "inputs": [
        {
          "indexed": true,
          "internalType": "address",
          "name": "owner",
          "type": "address"
        },
        {
          "indexed": true,
          "internalType": "address",
          "name": "operator",
          "type": "address"
        },
        {
          "indexed": false,
          "internalType": "bool",
          "name": "approved",
          "type": "bool"
        }
      ],
      "name": "ApprovalForAll",
      "type": "event"
    },
    {
      "anonymous": false,
      "inputs": [
        {
          "indexed": true,
          "internalType": "address",
          "name": "previousOwner",
          "type": "address"
        },
        {
          "indexed": true,
          "internalType": "address",
          "name": "newOwner",
          "type": "address"
        }
      ],
      "name": "OwnershipTransferred",
      "type": "event"
    },
    {
      "anonymous": false,
      "inputs": [
        {
          "indexed": false,
          "internalType": "address",
          "name": "account",
          "type": "address"
        }
      ],
      "name": "Paused",
      "type": "event"
    },
    {
      "anonymous": false,
      "inputs": [
        {
          "indexed": true,
          "internalType": "address",
          "name": "from",
          "type": "address"
        },
        {
          "indexed": true,
          "internalType": "address",
          "name": "to",
          "type": "address"
        },
        {
          "indexed": true,
          "internalType": "uint256",
          "name": "tokenId",
          "type": "uint256"
        }
      ],
      "name": "Transfer",
      "type": "event"
    },
    {
      "anonymous": false,
      "inputs": [
        {
          "indexed": false,
          "internalType": "address",
          "name": "account",
          "type": "address"
        }
      ],
      "name": "Unpaused",
      "type": "event"
    },
    {
      "inputs": [
        {
          "internalType": "address",
          "name": "to",
          "type": "address"
        },
        {
          "internalType": "uint256",
          "name": "tokenId",
          "type": "uint256"
        }
      ],
      "name": "approve",
      "outputs": [],
      "stateMutability": "nonpayable",
      "type": "function"
    },
    {
      "inputs": [
        {
          "internalType": "address",
          "name": "owner",
          "type": "address"
        }
      ],
      "name": "balanceOf",
      "outputs": [
        {
          "internalType": "uint256",
          "name": "",
          "type": "uint256"
        }
      ],
      "stateMutability": "view",
      "type": "function"
    },
    {
      "inputs": [],
      "name": "balanceToRetrieveByTheOwner",
      "outputs": [
        {
          "internalType": "uint256",
          "name": "",
          "type": "uint256"
        }
      ],
      "stateMutability": "view",
      "type": "function"
    },
    {
      "inputs": [
        {
          "internalType": "uint256",
          "name": "tokenId",
          "type": "uint256"
        }
      ],
      "name": "burn",
      "outputs": [],
      "stateMutability": "nonpayable",
      "type": "function"
    },
    {
      "inputs": [
        {
          "internalType": "uint256",
          "name": "tokenId",
          "type": "uint256"
        }
      ],
      "name": "getApproved",
      "outputs": [
        {
          "internalType": "address",
          "name": "",
          "type": "address"
        }
      ],
      "stateMutability": "view",
      "type": "function"
    },
    {
      "inputs": [],
      "name": "getCids",
      "outputs": [
        {
          "internalType": "string[]",
          "name": "",
          "type": "string[]"
        }
      ],
      "stateMutability": "view",
      "type": "function"
    },
    {
      "inputs": [],
      "name": "getFee",
      "outputs": [
        {
          "internalType": "uint256",
          "name": "",
          "type": "uint256"
        }
      ],
      "stateMutability": "view",
      "type": "function"
    },
    {
      "inputs": [
        {
          "internalType": "address",
          "name": "addressOfPromethium",
          "type": "address"
        }
      ],
      "name": "initialize",
      "outputs": [],
      "stateMutability": "nonpayable",
      "type": "function"
    },
    {
      "inputs": [
        {
          "internalType": "address",
          "name": "owner",
          "type": "address"
        },
        {
          "internalType": "address",
          "name": "operator",
          "type": "address"
        }
      ],
      "name": "isApprovedForAll",
      "outputs": [
        {
          "internalType": "bool",
          "name": "",
          "type": "bool"
        }
      ],
      "stateMutability": "view",
      "type": "function"
    },
    {
      "inputs": [],
      "name": "name",
      "outputs": [
        {
          "internalType": "string",
          "name": "",
          "type": "string"
        }
      ],
      "stateMutability": "view",
      "type": "function"
    },
    {
      "inputs": [],
      "name": "owner",
      "outputs": [
        {
          "internalType": "address",
          "name": "",
          "type": "address"
        }
      ],
      "stateMutability": "view",
      "type": "function"
    },
    {
      "inputs": [
        {
          "internalType": "uint256",
          "name": "tokenId",
          "type": "uint256"
        }
      ],
      "name": "ownerOf",
      "outputs": [
        {
          "internalType": "address",
          "name": "",
          "type": "address"
        }
      ],
      "stateMutability": "view",
      "type": "function"
    },
    {
      "inputs": [],
      "name": "pause",
      "outputs": [],
      "stateMutability": "nonpayable",
      "type": "function"
    },
    {
      "inputs": [],
      "name": "paused",
      "outputs": [
        {
          "internalType": "bool",
          "name": "",
          "type": "bool"
        }
      ],
      "stateMutability": "view",
      "type": "function"
    },
    {
      "inputs": [],
      "name": "renounceOwnership",
      "outputs": [],
      "stateMutability": "nonpayable",
      "type": "function"
    },
    {
      "inputs": [],
      "name": "retrieveFunds",
      "outputs": [],
      "stateMutability": "nonpayable",
      "type": "function"
    },
    {
      "inputs": [
        {
          "internalType": "address",
          "name": "to",
          "type": "address"
        },
        {
          "internalType": "string",
          "name": "uri",
          "type": "string"
        }
      ],
      "name": "safeMint",
      "outputs": [],
      "stateMutability": "payable",
      "type": "function"
    },
    {
      "inputs": [
        {
          "internalType": "address",
          "name": "to",
          "type": "address"
        },
        {
          "internalType": "string",
          "name": "uri",
          "type": "string"
        }
      ],
      "name": "safeMintWithTokens",
      "outputs": [],
      "stateMutability": "nonpayable",
      "type": "function"
    },
    {
      "inputs": [
        {
          "internalType": "address",
          "name": "from",
          "type": "address"
        },
        {
          "internalType": "address",
          "name": "to",
          "type": "address"
        },
        {
          "internalType": "uint256",
          "name": "tokenId",
          "type": "uint256"
        }
      ],
      "name": "safeTransferFrom",
      "outputs": [],
      "stateMutability": "nonpayable",
      "type": "function"
    },
    {
      "inputs": [
        {
          "internalType": "address",
          "name": "from",
          "type": "address"
        },
        {
          "internalType": "address",
          "name": "to",
          "type": "address"
        },
        {
          "internalType": "uint256",
          "name": "tokenId",
          "type": "uint256"
        },
        {
          "internalType": "bytes",
          "name": "_data",
          "type": "bytes"
        }
      ],
      "name": "safeTransferFrom",
      "outputs": [],
      "stateMutability": "nonpayable",
      "type": "function"
    },
    {
      "inputs": [
        {
          "internalType": "address",
          "name": "operator",
          "type": "address"
        },
        {
          "internalType": "bool",
          "name": "approved",
          "type": "bool"
        }
      ],
      "name": "setApprovalForAll",
      "outputs": [],
      "stateMutability": "nonpayable",
      "type": "function"
    },
    {
      "inputs": [
        {
          "internalType": "uint256",
          "name": "fee",
          "type": "uint256"
        }
      ],
      "name": "setFee",
      "outputs": [],
      "stateMutability": "nonpayable",
      "type": "function"
    },
    {
      "inputs": [
        {
          "internalType": "bytes4",
          "name": "interfaceId",
          "type": "bytes4"
        }
      ],
      "name": "supportsInterface",
      "outputs": [
        {
          "internalType": "bool",
          "name": "",
          "type": "bool"
        }
      ],
      "stateMutability": "view",
      "type": "function"
    },
    {
      "inputs": [],
      "name": "symbol",
      "outputs": [
        {
          "internalType": "string",
          "name": "",
          "type": "string"
        }
      ],
      "stateMutability": "view",
      "type": "function"
    },
    {
      "inputs": [
        {
          "internalType": "uint256",
          "name": "tokenId",
          "type": "uint256"
        }
      ],
      "name": "tokenURI",
      "outputs": [
        {
          "internalType": "string",
          "name": "",
          "type": "string"
        }
      ],
      "stateMutability": "view",
      "type": "function"
    },
    {
      "inputs": [
        {
          "internalType": "address",
          "name": "from",
          "type": "address"
        },
        {
          "internalType": "address",
          "name": "to",
          "type": "address"
        },
        {
          "internalType": "uint256",
          "name": "tokenId",
          "type": "uint256"
        }
      ],
      "name": "transferFrom",
      "outputs": [],
      "stateMutability": "nonpayable",
      "type": "function"
    },
    {
      "inputs": [
        {
          "internalType": "address",
          "name": "newOwner",
          "type": "address"
        }
      ],
      "name": "transferOwnership",
      "outputs": [],
      "stateMutability": "nonpayable",
      "type": "function"
    },
    {
      "inputs": [],
      "name": "unpause",
      "outputs": [],
      "stateMutability": "nonpayable",
      "type": "function"
    }
  ],
  "bytecode": "0x608060405234801561001057600080fd5b50614916806100206000396000f3fe6080604052600436106101b75760003560e01c806370a08231116100ec578063b88d4fde1161008a578063ced72f8711610064578063ced72f87146105bc578063d204c45e146105e7578063e985e9c514610603578063f2fde38b14610640576101b7565b8063b88d4fde1461052d578063c4d66de814610556578063c87b56dd1461057f576101b7565b80638da5cb5b116100c65780638da5cb5b1461048557806395d89b41146104b0578063a22cb465146104db578063b823629914610504576101b7565b806370a082311461041a578063715018a6146104575780638456cb591461046e576101b7565b806342842e0e116101595780635c975abb116101335780635c975abb1461037257806361b20d8c1461039d5780636352211e146103b457806369fe0e2d146103f1576101b7565b806342842e0e146102f557806342966c681461031e5780634e11ecb214610347576101b7565b8063095ea7b311610195578063095ea7b31461026157806323b872dd1461028a57806330a29d39146102b35780633f4ba83a146102de576101b7565b806301ffc9a7146101bc57806306fdde03146101f9578063081812fc14610224575b600080fd5b3480156101c857600080fd5b506101e360048036038101906101de91906132a0565b610669565b6040516101f091906139a4565b60405180910390f35b34801561020557600080fd5b5061020e61074b565b60405161021b91906139bf565b60405180910390f35b34801561023057600080fd5b5061024b600480360381019061024691906132f2565b6107dd565b60405161025891906138f2565b60405180910390f35b34801561026d57600080fd5b5061028860048036038101906102839190613264565b610862565b005b34801561029657600080fd5b506102b160048036038101906102ac919061310a565b61097a565b005b3480156102bf57600080fd5b506102c86109da565b6040516102d59190613982565b60405180910390f35b3480156102ea57600080fd5b506102f3610ab4565b005b34801561030157600080fd5b5061031c6004803603810190610317919061310a565b610b3a565b005b34801561032a57600080fd5b50610345600480360381019061034091906132f2565b610b5a565b005b34801561035357600080fd5b5061035c610bb6565b6040516103699190613d41565b60405180910390f35b34801561037e57600080fd5b50610387610c3a565b60405161039491906139a4565b60405180910390f35b3480156103a957600080fd5b506103b2610c51565b005b3480156103c057600080fd5b506103db60048036038101906103d691906132f2565b610dc9565b6040516103e891906138f2565b60405180910390f35b3480156103fd57600080fd5b50610418600480360381019061041391906132f2565b610e7b565b005b34801561042657600080fd5b50610441600480360381019061043c91906130a5565b610f02565b60405161044e9190613d41565b60405180910390f35b34801561046357600080fd5b5061046c610fba565b005b34801561047a57600080fd5b50610483611042565b005b34801561049157600080fd5b5061049a6110c8565b6040516104a791906138f2565b60405180910390f35b3480156104bc57600080fd5b506104c56110f2565b6040516104d291906139bf565b60405180910390f35b3480156104e757600080fd5b5061050260048036038101906104fd91906131d4565b611184565b005b34801561051057600080fd5b5061052b60048036038101906105269190613210565b61119a565b005b34801561053957600080fd5b50610554600480360381019061054f9190613159565b61137a565b005b34801561056257600080fd5b5061057d600480360381019061057891906130a5565b6113dc565b005b34801561058b57600080fd5b506105a660048036038101906105a191906132f2565b6115ef565b6040516105b391906139bf565b60405180910390f35b3480156105c857600080fd5b506105d1611601565b6040516105de9190613d41565b60405180910390f35b61060160048036038101906105fc9190613210565b61160c565b005b34801561060f57600080fd5b5061062a600480360381019061062591906130ce565b6116c2565b60405161063791906139a4565b60405180910390f35b34801561064c57600080fd5b50610667600480360381019061066291906130a5565b611756565b005b60007f80ac58cd000000000000000000000000000000000000000000000000000000007bffffffffffffffffffffffffffffffffffffffffffffffffffffffff1916827bffffffffffffffffffffffffffffffffffffffffffffffffffffffff1916148061073457507f5b5e139f000000000000000000000000000000000000000000000000000000007bffffffffffffffffffffffffffffffffffffffffffffffffffffffff1916827bffffffffffffffffffffffffffffffffffffffffffffffffffffffff1916145b8061074457506107438261184e565b5b9050919050565b60606065805461075a90613ffe565b80601f016020809104026020016040519081016040528092919081815260200182805461078690613ffe565b80156107d35780601f106107a8576101008083540402835291602001916107d3565b820191906000526020600020905b8154815290600101906020018083116107b657829003601f168201915b5050505050905090565b60006107e8826118b8565b610827576040517f08c379a000000000000000000000000000000000000000000000000000000000815260040161081e90613c61565b60405180910390fd5b6069600083815260200190815260200160002060009054906101000a900473ffffffffffffffffffffffffffffffffffffffff169050919050565b600061086d82610dc9565b90508073ffffffffffffffffffffffffffffffffffffffff168373ffffffffffffffffffffffffffffffffffffffff1614156108de576040517f08c379a00000000000000000000000000000000000000000000000000000000081526004016108d590613cc1565b60405180910390fd5b8073ffffffffffffffffffffffffffffffffffffffff166108fd611924565b73ffffffffffffffffffffffffffffffffffffffff16148061092c575061092b81610926611924565b6116c2565b5b61096b576040517f08c379a000000000000000000000000000000000000000000000000000000000815260040161096290613b41565b60405180910390fd5b610975838361192c565b505050565b61098b610985611924565b826119e5565b6109ca576040517f08c379a00000000000000000000000000000000000000000000000000000000081526004016109c190613ce1565b60405180910390fd5b6109d5838383611ac3565b505050565b6060610163805480602002602001604051908101604052809291908181526020016000905b82821015610aab578382906000526020600020018054610a1e90613ffe565b80601f0160208091040260200160405190810160405280929190818152602001828054610a4a90613ffe565b8015610a975780601f10610a6c57610100808354040283529160200191610a97565b820191906000526020600020905b815481529060010190602001808311610a7a57829003601f168201915b5050505050815260200190600101906109ff565b50505050905090565b610abc611924565b73ffffffffffffffffffffffffffffffffffffffff16610ada6110c8565b73ffffffffffffffffffffffffffffffffffffffff1614610b30576040517f08c379a0000000000000000000000000000000000000000000000000000000008152600401610b2790613c81565b60405180910390fd5b610b38611d2a565b565b610b558383836040518060200160405280600081525061137a565b505050565b610b6b610b65611924565b826119e5565b610baa576040517f08c379a0000000000000000000000000000000000000000000000000000000008152600401610ba190613d21565b60405180910390fd5b610bb381611dcc565b50565b6000610bc0611924565b73ffffffffffffffffffffffffffffffffffffffff16610bde6110c8565b73ffffffffffffffffffffffffffffffffffffffff1614610c34576040517f08c379a0000000000000000000000000000000000000000000000000000000008152600401610c2b90613c81565b60405180910390fd5b47905090565b600060c960009054906101000a900460ff16905090565b610c59611924565b73ffffffffffffffffffffffffffffffffffffffff16610c776110c8565b73ffffffffffffffffffffffffffffffffffffffff1614610ccd576040517f08c379a0000000000000000000000000000000000000000000000000000000008152600401610cc490613c81565b60405180910390fd5b60004711610d10576040517f08c379a0000000000000000000000000000000000000000000000000000000008152600401610d0790613be1565b60405180910390fd5b600080610d1b6110c8565b73ffffffffffffffffffffffffffffffffffffffff1647604051610d3e906138dd565b60006040518083038185875af1925050503d8060008114610d7b576040519150601f19603f3d011682016040523d82523d6000602084013e610d80565b606091505b509150915081610dc5576040517f08c379a0000000000000000000000000000000000000000000000000000000008152600401610dbc90613aa1565b60405180910390fd5b5050565b6000806067600084815260200190815260200160002060009054906101000a900473ffffffffffffffffffffffffffffffffffffffff169050600073ffffffffffffffffffffffffffffffffffffffff168173ffffffffffffffffffffffffffffffffffffffff161415610e72576040517f08c379a0000000000000000000000000000000000000000000000000000000008152600401610e6990613b81565b60405180910390fd5b80915050919050565b610e83611924565b73ffffffffffffffffffffffffffffffffffffffff16610ea16110c8565b73ffffffffffffffffffffffffffffffffffffffff1614610ef7576040517f08c379a0000000000000000000000000000000000000000000000000000000008152600401610eee90613c81565b60405180910390fd5b806101608190555050565b60008073ffffffffffffffffffffffffffffffffffffffff168273ffffffffffffffffffffffffffffffffffffffff161415610f73576040517f08c379a0000000000000000000000000000000000000000000000000000000008152600401610f6a90613b61565b60405180910390fd5b606860008373ffffffffffffffffffffffffffffffffffffffff1673ffffffffffffffffffffffffffffffffffffffff168152602001908152602001600020549050919050565b610fc2611924565b73ffffffffffffffffffffffffffffffffffffffff16610fe06110c8565b73ffffffffffffffffffffffffffffffffffffffff1614611036576040517f08c379a000000000000000000000000000000000000000000000000000000000815260040161102d90613c81565b60405180910390fd5b6110406000611dd8565b565b61104a611924565b73ffffffffffffffffffffffffffffffffffffffff166110686110c8565b73ffffffffffffffffffffffffffffffffffffffff16146110be576040517f08c379a00000000000000000000000000000000000000000000000000000000081526004016110b590613c81565b60405180910390fd5b6110c6611e9e565b565b600060fb60009054906101000a900473ffffffffffffffffffffffffffffffffffffffff16905090565b60606066805461110190613ffe565b80601f016020809104026020016040519081016040528092919081815260200182805461112d90613ffe565b801561117a5780601f1061114f5761010080835404028352916020019161117a565b820191906000526020600020905b81548152906001019060200180831161115d57829003601f168201915b5050505050905090565b61119661118f611924565b8383611f41565b5050565b600061016460009054906101000a900473ffffffffffffffffffffffffffffffffffffffff169050600a8173ffffffffffffffffffffffffffffffffffffffff166370a082316111e8611924565b6040518263ffffffff1660e01b815260040161120491906138f2565b60206040518083038186803b15801561121c57600080fd5b505afa158015611230573d6000803e3d6000fd5b505050506040513d601f19601f82011682018060405250810190611254919061331b565b11611294576040517f08c379a000000000000000000000000000000000000000000000000000000000815260040161128b90613a01565b60405180910390fd5b8073ffffffffffffffffffffffffffffffffffffffff1663b7b9790c6112b8611924565b600a6040518363ffffffff1660e01b81526004016112d7929190613959565b600060405180830381600087803b1580156112f157600080fd5b505af1158015611305573d6000803e3d6000fd5b5050505061016382908060018154018082558091505060019003906000526020600020016000909190919091509080519060200190611345929190612e74565b50600061135361015f6120ae565b905061136061015f6120bc565b61136a84826120d2565b61137481846120f0565b50505050565b61138b611385611924565b836119e5565b6113ca576040517f08c379a00000000000000000000000000000000000000000000000000000000081526004016113c190613ce1565b60405180910390fd5b6113d684848484612164565b50505050565b600060019054906101000a900460ff166114045760008054906101000a900460ff161561140d565b61140c6121c0565b5b61144c576040517f08c379a000000000000000000000000000000000000000000000000000000000815260040161144390613bc1565b60405180910390fd5b60008060019054906101000a900460ff16159050801561149c576001600060016101000a81548160ff02191690831515021790555060016000806101000a81548160ff0219169083151502179055505b6115106040518060400160405280600581526020017f43617264730000000000000000000000000000000000000000000000000000008152506040518060400160405280600381526020017f43524400000000000000000000000000000000000000000000000000000000008152506121d1565b61151861222e565b61152061227f565b6115286122d8565b611530612331565b8161016460006101000a81548173ffffffffffffffffffffffffffffffffffffffff021916908373ffffffffffffffffffffffffffffffffffffffff160217905550660aa87bee53800061016081905550611589611924565b61016160006101000a81548173ffffffffffffffffffffffffffffffffffffffff021916908373ffffffffffffffffffffffffffffffffffffffff16021790555080156115eb5760008060016101000a81548160ff0219169083151502179055505b5050565b60606115fa82612382565b9050919050565b600061016054905090565b61016054341015611652576040517f08c379a000000000000000000000000000000000000000000000000000000000815260040161164990613c21565b60405180910390fd5b6101638190806001815401808255809150506001900390600052602060002001600090919091909150908051906020019061168e929190612e74565b50600061169c61015f6120ae565b90506116a961015f6120bc565b6116b383826120d2565b6116bd81836120f0565b505050565b6000606a60008473ffffffffffffffffffffffffffffffffffffffff1673ffffffffffffffffffffffffffffffffffffffff16815260200190815260200160002060008373ffffffffffffffffffffffffffffffffffffffff1673ffffffffffffffffffffffffffffffffffffffff16815260200190815260200160002060009054906101000a900460ff16905092915050565b61175e611924565b73ffffffffffffffffffffffffffffffffffffffff1661177c6110c8565b73ffffffffffffffffffffffffffffffffffffffff16146117d2576040517f08c379a00000000000000000000000000000000000000000000000000000000081526004016117c990613c81565b60405180910390fd5b600073ffffffffffffffffffffffffffffffffffffffff168173ffffffffffffffffffffffffffffffffffffffff161415611842576040517f08c379a000000000000000000000000000000000000000000000000000000000815260040161183990613a41565b60405180910390fd5b61184b81611dd8565b50565b60007f01ffc9a7000000000000000000000000000000000000000000000000000000007bffffffffffffffffffffffffffffffffffffffffffffffffffffffff1916827bffffffffffffffffffffffffffffffffffffffffffffffffffffffff1916149050919050565b60008073ffffffffffffffffffffffffffffffffffffffff166067600084815260200190815260200160002060009054906101000a900473ffffffffffffffffffffffffffffffffffffffff1673ffffffffffffffffffffffffffffffffffffffff1614159050919050565b600033905090565b816069600083815260200190815260200160002060006101000a81548173ffffffffffffffffffffffffffffffffffffffff021916908373ffffffffffffffffffffffffffffffffffffffff160217905550808273ffffffffffffffffffffffffffffffffffffffff1661199f83610dc9565b73ffffffffffffffffffffffffffffffffffffffff167f8c5be1e5ebec7d5bd14f71427d1e84f3dd0314c0f7b2291e5b200ac8c7c3b92560405160405180910390a45050565b60006119f0826118b8565b611a2f576040517f08c379a0000000000000000000000000000000000000000000000000000000008152600401611a2690613b01565b60405180910390fd5b6000611a3a83610dc9565b90508073ffffffffffffffffffffffffffffffffffffffff168473ffffffffffffffffffffffffffffffffffffffff161480611aa957508373ffffffffffffffffffffffffffffffffffffffff16611a91846107dd565b73ffffffffffffffffffffffffffffffffffffffff16145b80611aba5750611ab981856116c2565b5b91505092915050565b8273ffffffffffffffffffffffffffffffffffffffff16611ae382610dc9565b73ffffffffffffffffffffffffffffffffffffffff1614611b39576040517f08c379a0000000000000000000000000000000000000000000000000000000008152600401611b3090613a61565b60405180910390fd5b600073ffffffffffffffffffffffffffffffffffffffff168273ffffffffffffffffffffffffffffffffffffffff161415611ba9576040517f08c379a0000000000000000000000000000000000000000000000000000000008152600401611ba090613ac1565b60405180910390fd5b611bb48383836124d4565b611bbf60008261192c565b6001606860008573ffffffffffffffffffffffffffffffffffffffff1673ffffffffffffffffffffffffffffffffffffffff1681526020019081526020016000206000828254611c0f9190613f02565b925050819055506001606860008473ffffffffffffffffffffffffffffffffffffffff1673ffffffffffffffffffffffffffffffffffffffff1681526020019081526020016000206000828254611c669190613e7b565b92505081905550816067600083815260200190815260200160002060006101000a81548173ffffffffffffffffffffffffffffffffffffffff021916908373ffffffffffffffffffffffffffffffffffffffff160217905550808273ffffffffffffffffffffffffffffffffffffffff168473ffffffffffffffffffffffffffffffffffffffff167fddf252ad1be2c89b69c2b068fc378daa952ba7f163c4a11628f55a4df523b3ef60405160405180910390a4611d2583838361252c565b505050565b611d32610c3a565b611d71576040517f08c379a0000000000000000000000000000000000000000000000000000000008152600401611d68906139e1565b60405180910390fd5b600060c960006101000a81548160ff0219169083151502179055507f5db9ee0a495bf2e6ff9c91a7834c1ba4fdd244a5e8aa4e537bd38aeae4b073aa611db5611924565b604051611dc291906138f2565b60405180910390a1565b611dd581612531565b50565b600060fb60009054906101000a900473ffffffffffffffffffffffffffffffffffffffff1690508160fb60006101000a81548173ffffffffffffffffffffffffffffffffffffffff021916908373ffffffffffffffffffffffffffffffffffffffff1602179055508173ffffffffffffffffffffffffffffffffffffffff168173ffffffffffffffffffffffffffffffffffffffff167f8be0079c531659141344cd1fd0a4f28419497f9722a3daafe3b4186f6b6457e060405160405180910390a35050565b611ea6610c3a565b15611ee6576040517f08c379a0000000000000000000000000000000000000000000000000000000008152600401611edd90613b21565b60405180910390fd5b600160c960006101000a81548160ff0219169083151502179055507f62e78cea01bee320cd4e420270b5ea74000d11b0c9f74754ebdbfc544b05a258611f2a611924565b604051611f3791906138f2565b60405180910390a1565b8173ffffffffffffffffffffffffffffffffffffffff168373ffffffffffffffffffffffffffffffffffffffff161415611fb0576040517f08c379a0000000000000000000000000000000000000000000000000000000008152600401611fa790613ae1565b60405180910390fd5b80606a60008573ffffffffffffffffffffffffffffffffffffffff1673ffffffffffffffffffffffffffffffffffffffff16815260200190815260200160002060008473ffffffffffffffffffffffffffffffffffffffff1673ffffffffffffffffffffffffffffffffffffffff16815260200190815260200160002060006101000a81548160ff0219169083151502179055508173ffffffffffffffffffffffffffffffffffffffff168373ffffffffffffffffffffffffffffffffffffffff167f17307eab39ab6107e8899845ad3d59bd9653f200f220920489ca2b5937696c31836040516120a191906139a4565b60405180910390a3505050565b600081600001549050919050565b6001816000016000828254019250508190555050565b6120ec828260405180602001604052806000815250612584565b5050565b6120f9826118b8565b612138576040517f08c379a000000000000000000000000000000000000000000000000000000000815260040161212f90613ba1565b60405180910390fd5b8060976000848152602001908152602001600020908051906020019061215f929190612e74565b505050565b61216f848484611ac3565b61217b848484846125df565b6121ba576040517f08c379a00000000000000000000000000000000000000000000000000000000081526004016121b190613a21565b60405180910390fd5b50505050565b60006121cb30612776565b15905090565b600060019054906101000a900460ff16612220576040517f08c379a000000000000000000000000000000000000000000000000000000000815260040161221790613d01565b60405180910390fd5b61222a8282612799565b5050565b600060019054906101000a900460ff1661227d576040517f08c379a000000000000000000000000000000000000000000000000000000000815260040161227490613d01565b60405180910390fd5b565b600060019054906101000a900460ff166122ce576040517f08c379a00000000000000000000000000000000000000000000000000000000081526004016122c590613d01565b60405180910390fd5b6122d661281a565b565b600060019054906101000a900460ff16612327576040517f08c379a000000000000000000000000000000000000000000000000000000000815260040161231e90613d01565b60405180910390fd5b61232f612886565b565b600060019054906101000a900460ff16612380576040517f08c379a000000000000000000000000000000000000000000000000000000000815260040161237790613d01565b60405180910390fd5b565b606061238d826118b8565b6123cc576040517f08c379a00000000000000000000000000000000000000000000000000000000081526004016123c390613c41565b60405180910390fd5b60006097600084815260200190815260200160002080546123ec90613ffe565b80601f016020809104026020016040519081016040528092919081815260200182805461241890613ffe565b80156124655780601f1061243a57610100808354040283529160200191612465565b820191906000526020600020905b81548152906001019060200180831161244857829003601f168201915b5050505050905060006124766128e7565b905060008151141561248c5781925050506124cf565b6000825111156124c15780826040516020016124a99291906138b9565b604051602081830303815290604052925050506124cf565b6124ca84612924565b925050505b919050565b6124dc610c3a565b1561251c576040517f08c379a000000000000000000000000000000000000000000000000000000000815260040161251390613b21565b60405180910390fd5b6125278383836129cb565b505050565b505050565b61253a816129d0565b600060976000838152602001908152602001600020805461255a90613ffe565b905014612581576097600082815260200190815260200160002060006125809190612efa565b5b50565b61258e8383612aed565b61259b60008484846125df565b6125da576040517f08c379a00000000000000000000000000000000000000000000000000000000081526004016125d190613a21565b60405180910390fd5b505050565b60006126008473ffffffffffffffffffffffffffffffffffffffff16612776565b15612769578373ffffffffffffffffffffffffffffffffffffffff1663150b7a02612629611924565b8786866040518563ffffffff1660e01b815260040161264b949392919061390d565b602060405180830381600087803b15801561266557600080fd5b505af192505050801561269657506040513d601f19601f8201168201806040525081019061269391906132c9565b60015b612719573d80600081146126c6576040519150601f19603f3d011682016040523d82523d6000602084013e6126cb565b606091505b50600081511415612711576040517f08c379a000000000000000000000000000000000000000000000000000000000815260040161270890613a21565b60405180910390fd5b805181602001fd5b63150b7a0260e01b7bffffffffffffffffffffffffffffffffffffffffffffffffffffffff1916817bffffffffffffffffffffffffffffffffffffffffffffffffffffffff19161491505061276e565b600190505b949350505050565b6000808273ffffffffffffffffffffffffffffffffffffffff163b119050919050565b600060019054906101000a900460ff166127e8576040517f08c379a00000000000000000000000000000000000000000000000000000000081526004016127df90613d01565b60405180910390fd5b81606590805190602001906127fe929190612e74565b508060669080519060200190612815929190612e74565b505050565b600060019054906101000a900460ff16612869576040517f08c379a000000000000000000000000000000000000000000000000000000000815260040161286090613d01565b60405180910390fd5b600060c960006101000a81548160ff021916908315150217905550565b600060019054906101000a900460ff166128d5576040517f08c379a00000000000000000000000000000000000000000000000000000000081526004016128cc90613d01565b60405180910390fd5b6128e56128e0611924565b611dd8565b565b60606040518060400160405280600781526020017f697066733a2f2f00000000000000000000000000000000000000000000000000815250905090565b606061292f826118b8565b61296e576040517f08c379a000000000000000000000000000000000000000000000000000000000815260040161296590613ca1565b60405180910390fd5b60006129786128e7565b9050600081511161299857604051806020016040528060008152506129c3565b806129a284612cc7565b6040516020016129b39291906138b9565b6040516020818303038152906040525b915050919050565b505050565b60006129db82610dc9565b90506129e9816000846124d4565b6129f460008361192c565b6001606860008373ffffffffffffffffffffffffffffffffffffffff1673ffffffffffffffffffffffffffffffffffffffff1681526020019081526020016000206000828254612a449190613f02565b925050819055506067600083815260200190815260200160002060006101000a81549073ffffffffffffffffffffffffffffffffffffffff021916905581600073ffffffffffffffffffffffffffffffffffffffff168273ffffffffffffffffffffffffffffffffffffffff167fddf252ad1be2c89b69c2b068fc378daa952ba7f163c4a11628f55a4df523b3ef60405160405180910390a4612ae98160008461252c565b5050565b600073ffffffffffffffffffffffffffffffffffffffff168273ffffffffffffffffffffffffffffffffffffffff161415612b5d576040517f08c379a0000000000000000000000000000000000000000000000000000000008152600401612b5490613c01565b60405180910390fd5b612b66816118b8565b15612ba6576040517f08c379a0000000000000000000000000000000000000000000000000000000008152600401612b9d90613a81565b60405180910390fd5b612bb2600083836124d4565b6001606860008473ffffffffffffffffffffffffffffffffffffffff1673ffffffffffffffffffffffffffffffffffffffff1681526020019081526020016000206000828254612c029190613e7b565b92505081905550816067600083815260200190815260200160002060006101000a81548173ffffffffffffffffffffffffffffffffffffffff021916908373ffffffffffffffffffffffffffffffffffffffff160217905550808273ffffffffffffffffffffffffffffffffffffffff16600073ffffffffffffffffffffffffffffffffffffffff167fddf252ad1be2c89b69c2b068fc378daa952ba7f163c4a11628f55a4df523b3ef60405160405180910390a4612cc36000838361252c565b5050565b60606000821415612d0f576040518060400160405280600181526020017f30000000000000000000000000000000000000000000000000000000000000008152509050612e6f565b600082905060005b60008214612d41578080612d2a90614061565b915050600a82612d3a9190613ed1565b9150612d17565b60008167ffffffffffffffff811115612d83577f4e487b7100000000000000000000000000000000000000000000000000000000600052604160045260246000fd5b6040519080825280601f01601f191660200182016040528015612db55781602001600182028036833780820191505090505b5090505b60008514612e6857600182612dce9190613f02565b9150600a85612ddd91906140aa565b6030612de99190613e7b565b60f81b818381518110612e25577f4e487b7100000000000000000000000000000000000000000000000000000000600052603260045260246000fd5b60200101907effffffffffffffffffffffffffffffffffffffffffffffffffffffffffffff1916908160001a905350600a85612e619190613ed1565b9450612db9565b8093505050505b919050565b828054612e8090613ffe565b90600052602060002090601f016020900481019282612ea25760008555612ee9565b82601f10612ebb57805160ff1916838001178555612ee9565b82800160010185558215612ee9579182015b82811115612ee8578251825591602001919060010190612ecd565b5b509050612ef69190612f3a565b5090565b508054612f0690613ffe565b6000825580601f10612f185750612f37565b601f016020900490600052602060002090810190612f369190612f3a565b5b50565b5b80821115612f53576000816000905550600101612f3b565b5090565b6000612f6a612f6584613d81565b613d5c565b905082815260208101848484011115612f8257600080fd5b612f8d848285613fbc565b509392505050565b6000612fa8612fa384613db2565b613d5c565b905082815260208101848484011115612fc057600080fd5b612fcb848285613fbc565b509392505050565b600081359050612fe281614884565b92915050565b600081359050612ff78161489b565b92915050565b60008135905061300c816148b2565b92915050565b600081519050613021816148b2565b92915050565b600082601f83011261303857600080fd5b8135613048848260208601612f57565b91505092915050565b600082601f83011261306257600080fd5b8135613072848260208601612f95565b91505092915050565b60008135905061308a816148c9565b92915050565b60008151905061309f816148c9565b92915050565b6000602082840312156130b757600080fd5b60006130c584828501612fd3565b91505092915050565b600080604083850312156130e157600080fd5b60006130ef85828601612fd3565b925050602061310085828601612fd3565b9150509250929050565b60008060006060848603121561311f57600080fd5b600061312d86828701612fd3565b935050602061313e86828701612fd3565b925050604061314f8682870161307b565b9150509250925092565b6000806000806080858703121561316f57600080fd5b600061317d87828801612fd3565b945050602061318e87828801612fd3565b935050604061319f8782880161307b565b925050606085013567ffffffffffffffff8111156131bc57600080fd5b6131c887828801613027565b91505092959194509250565b600080604083850312156131e757600080fd5b60006131f585828601612fd3565b925050602061320685828601612fe8565b9150509250929050565b6000806040838503121561322357600080fd5b600061323185828601612fd3565b925050602083013567ffffffffffffffff81111561324e57600080fd5b61325a85828601613051565b9150509250929050565b6000806040838503121561327757600080fd5b600061328585828601612fd3565b92505060206132968582860161307b565b9150509250929050565b6000602082840312156132b257600080fd5b60006132c084828501612ffd565b91505092915050565b6000602082840312156132db57600080fd5b60006132e984828501613012565b91505092915050565b60006020828403121561330457600080fd5b60006133128482850161307b565b91505092915050565b60006020828403121561332d57600080fd5b600061333b84828501613090565b91505092915050565b60006133508383613433565b905092915050565b61336181613f36565b82525050565b600061337282613df3565b61337c8185613e21565b93508360208202850161338e85613de3565b8060005b858110156133ca57848403895281516133ab8582613344565b94506133b683613e14565b925060208a01995050600181019050613392565b50829750879550505050505092915050565b6133e581613f48565b82525050565b60006133f682613dfe565b6134008185613e32565b9350613410818560208601613fcb565b61341981614197565b840191505092915050565b61342d81613faa565b82525050565b600061343e82613e09565b6134488185613e4e565b9350613458818560208601613fcb565b61346181614197565b840191505092915050565b600061347782613e09565b6134818185613e5f565b9350613491818560208601613fcb565b61349a81614197565b840191505092915050565b60006134b082613e09565b6134ba8185613e70565b93506134ca818560208601613fcb565b80840191505092915050565b60006134e3601483613e5f565b91506134ee826141a8565b602082019050919050565b6000613506601683613e5f565b9150613511826141d1565b602082019050919050565b6000613529603283613e5f565b9150613534826141fa565b604082019050919050565b600061354c602683613e5f565b915061355782614249565b604082019050919050565b600061356f602583613e5f565b915061357a82614298565b604082019050919050565b6000613592601c83613e5f565b915061359d826142e7565b602082019050919050565b60006135b5601483613e5f565b91506135c082614310565b602082019050919050565b60006135d8602483613e5f565b91506135e382614339565b604082019050919050565b60006135fb601983613e5f565b915061360682614388565b602082019050919050565b600061361e602c83613e5f565b9150613629826143b1565b604082019050919050565b6000613641601083613e5f565b915061364c82614400565b602082019050919050565b6000613664603883613e5f565b915061366f82614429565b604082019050919050565b6000613687602a83613e5f565b915061369282614478565b604082019050919050565b60006136aa602983613e5f565b91506136b5826144c7565b604082019050919050565b60006136cd602e83613e5f565b91506136d882614516565b604082019050919050565b60006136f0602e83613e5f565b91506136fb82614565565b604082019050919050565b6000613713601483613e5f565b915061371e826145b4565b602082019050919050565b6000613736602083613e5f565b9150613741826145dd565b602082019050919050565b6000613759601883613e5f565b915061376482614606565b602082019050919050565b600061377c603183613e5f565b91506137878261462f565b604082019050919050565b600061379f602c83613e5f565b91506137aa8261467e565b604082019050919050565b60006137c2602083613e5f565b91506137cd826146cd565b602082019050919050565b60006137e5602f83613e5f565b91506137f0826146f6565b604082019050919050565b6000613808602183613e5f565b915061381382614745565b604082019050919050565b600061382b600083613e43565b915061383682614794565b600082019050919050565b600061384e603183613e5f565b915061385982614797565b604082019050919050565b6000613871602b83613e5f565b915061387c826147e6565b604082019050919050565b6000613894603083613e5f565b915061389f82614835565b604082019050919050565b6138b381613fa0565b82525050565b60006138c582856134a5565b91506138d182846134a5565b91508190509392505050565b60006138e88261381e565b9150819050919050565b60006020820190506139076000830184613358565b92915050565b60006080820190506139226000830187613358565b61392f6020830186613358565b61393c60408301856138aa565b818103606083015261394e81846133eb565b905095945050505050565b600060408201905061396e6000830185613358565b61397b6020830184613424565b9392505050565b6000602082019050818103600083015261399c8184613367565b905092915050565b60006020820190506139b960008301846133dc565b92915050565b600060208201905081810360008301526139d9818461346c565b905092915050565b600060208201905081810360008301526139fa816134d6565b9050919050565b60006020820190508181036000830152613a1a816134f9565b9050919050565b60006020820190508181036000830152613a3a8161351c565b9050919050565b60006020820190508181036000830152613a5a8161353f565b9050919050565b60006020820190508181036000830152613a7a81613562565b9050919050565b60006020820190508181036000830152613a9a81613585565b9050919050565b60006020820190508181036000830152613aba816135a8565b9050919050565b60006020820190508181036000830152613ada816135cb565b9050919050565b60006020820190508181036000830152613afa816135ee565b9050919050565b60006020820190508181036000830152613b1a81613611565b9050919050565b60006020820190508181036000830152613b3a81613634565b9050919050565b60006020820190508181036000830152613b5a81613657565b9050919050565b60006020820190508181036000830152613b7a8161367a565b9050919050565b60006020820190508181036000830152613b9a8161369d565b9050919050565b60006020820190508181036000830152613bba816136c0565b9050919050565b60006020820190508181036000830152613bda816136e3565b9050919050565b60006020820190508181036000830152613bfa81613706565b9050919050565b60006020820190508181036000830152613c1a81613729565b9050919050565b60006020820190508181036000830152613c3a8161374c565b9050919050565b60006020820190508181036000830152613c5a8161376f565b9050919050565b60006020820190508181036000830152613c7a81613792565b9050919050565b60006020820190508181036000830152613c9a816137b5565b9050919050565b60006020820190508181036000830152613cba816137d8565b9050919050565b60006020820190508181036000830152613cda816137fb565b9050919050565b60006020820190508181036000830152613cfa81613841565b9050919050565b60006020820190508181036000830152613d1a81613864565b9050919050565b60006020820190508181036000830152613d3a81613887565b9050919050565b6000602082019050613d5660008301846138aa565b92915050565b6000613d66613d77565b9050613d728282614030565b919050565b6000604051905090565b600067ffffffffffffffff821115613d9c57613d9b614168565b5b613da582614197565b9050602081019050919050565b600067ffffffffffffffff821115613dcd57613dcc614168565b5b613dd682614197565b9050602081019050919050565b6000819050602082019050919050565b600081519050919050565b600081519050919050565b600081519050919050565b6000602082019050919050565b600082825260208201905092915050565b600082825260208201905092915050565b600081905092915050565b600082825260208201905092915050565b600082825260208201905092915050565b600081905092915050565b6000613e8682613fa0565b9150613e9183613fa0565b9250827fffffffffffffffffffffffffffffffffffffffffffffffffffffffffffffffff03821115613ec657613ec56140db565b5b828201905092915050565b6000613edc82613fa0565b9150613ee783613fa0565b925082613ef757613ef661410a565b5b828204905092915050565b6000613f0d82613fa0565b9150613f1883613fa0565b925082821015613f2b57613f2a6140db565b5b828203905092915050565b6000613f4182613f80565b9050919050565b60008115159050919050565b60007fffffffff0000000000000000000000000000000000000000000000000000000082169050919050565b600073ffffffffffffffffffffffffffffffffffffffff82169050919050565b6000819050919050565b6000613fb582613fa0565b9050919050565b82818337600083830152505050565b60005b83811015613fe9578082015181840152602081019050613fce565b83811115613ff8576000848401525b50505050565b6000600282049050600182168061401657607f821691505b6020821081141561402a57614029614139565b5b50919050565b61403982614197565b810181811067ffffffffffffffff8211171561405857614057614168565b5b80604052505050565b600061406c82613fa0565b91507fffffffffffffffffffffffffffffffffffffffffffffffffffffffffffffffff82141561409f5761409e6140db565b5b600182019050919050565b60006140b582613fa0565b91506140c083613fa0565b9250826140d0576140cf61410a565b5b828206905092915050565b7f4e487b7100000000000000000000000000000000000000000000000000000000600052601160045260246000fd5b7f4e487b7100000000000000000000000000000000000000000000000000000000600052601260045260246000fd5b7f4e487b7100000000000000000000000000000000000000000000000000000000600052602260045260246000fd5b7f4e487b7100000000000000000000000000000000000000000000000000000000600052604160045260246000fd5b6000601f19601f8301169050919050565b7f5061757361626c653a206e6f7420706175736564000000000000000000000000600082015250565b7f4e6f7420656e6f7567682070726f6d65746869756d7300000000000000000000600082015250565b7f4552433732313a207472616e7366657220746f206e6f6e20455243373231526560008201527f63656976657220696d706c656d656e7465720000000000000000000000000000602082015250565b7f4f776e61626c653a206e6577206f776e657220697320746865207a65726f206160008201527f6464726573730000000000000000000000000000000000000000000000000000602082015250565b7f4552433732313a207472616e736665722066726f6d20696e636f72726563742060008201527f6f776e6572000000000000000000000000000000000000000000000000000000602082015250565b7f4552433732313a20746f6b656e20616c7265616479206d696e74656400000000600082015250565b7f4661696c656420746f2073656e64204574686572000000000000000000000000600082015250565b7f4552433732313a207472616e7366657220746f20746865207a65726f2061646460008201527f7265737300000000000000000000000000000000000000000000000000000000602082015250565b7f4552433732313a20617070726f766520746f2063616c6c657200000000000000600082015250565b7f4552433732313a206f70657261746f7220717565727920666f72206e6f6e657860008201527f697374656e7420746f6b656e0000000000000000000000000000000000000000602082015250565b7f5061757361626c653a2070617573656400000000000000000000000000000000600082015250565b7f4552433732313a20617070726f76652063616c6c6572206973206e6f74206f7760008201527f6e6572206e6f7220617070726f76656420666f7220616c6c0000000000000000602082015250565b7f4552433732313a2062616c616e636520717565727920666f7220746865207a6560008201527f726f206164647265737300000000000000000000000000000000000000000000602082015250565b7f4552433732313a206f776e657220717565727920666f72206e6f6e657869737460008201527f656e7420746f6b656e0000000000000000000000000000000000000000000000602082015250565b7f45524337323155524953746f726167653a2055524920736574206f66206e6f6e60008201527f6578697374656e7420746f6b656e000000000000000000000000000000000000602082015250565b7f496e697469616c697a61626c653a20636f6e747261637420697320616c72656160008201527f647920696e697469616c697a6564000000000000000000000000000000000000602082015250565b7f4e6f2066756e647320746f207265747269657665000000000000000000000000600082015250565b7f4552433732313a206d696e7420746f20746865207a65726f2061646472657373600082015250565b7f4e6f7420656e6f7567682066756e647320746f206d696e740000000000000000600082015250565b7f45524337323155524953746f726167653a2055524920717565727920666f722060008201527f6e6f6e6578697374656e7420746f6b656e000000000000000000000000000000602082015250565b7f4552433732313a20617070726f76656420717565727920666f72206e6f6e657860008201527f697374656e7420746f6b656e0000000000000000000000000000000000000000602082015250565b7f4f776e61626c653a2063616c6c6572206973206e6f7420746865206f776e6572600082015250565b7f4552433732314d657461646174613a2055524920717565727920666f72206e6f60008201527f6e6578697374656e7420746f6b656e0000000000000000000000000000000000602082015250565b7f4552433732313a20617070726f76616c20746f2063757272656e74206f776e6560008201527f7200000000000000000000000000000000000000000000000000000000000000602082015250565b50565b7f4552433732313a207472616e736665722063616c6c6572206973206e6f74206f60008201527f776e6572206e6f7220617070726f766564000000000000000000000000000000602082015250565b7f496e697469616c697a61626c653a20636f6e7472616374206973206e6f74206960008201527f6e697469616c697a696e67000000000000000000000000000000000000000000602082015250565b7f4552433732314275726e61626c653a2063616c6c6572206973206e6f74206f7760008201527f6e6572206e6f7220617070726f76656400000000000000000000000000000000602082015250565b61488d81613f36565b811461489857600080fd5b50565b6148a481613f48565b81146148af57600080fd5b50565b6148bb81613f54565b81146148c657600080fd5b50565b6148d281613fa0565b81146148dd57600080fd5b5056fea2646970667358221220069a1e82ab6912e68eeb96e1c9c751d27e0757ca026efc279e83ca1de7c6b43164736f6c63430008020033",
  "linkReferences": {},
  "deployedLinkReferences": {}
}