{
  "_format": "hh-sol-artifact-1",
  "contractName": "Promethium",
  "sourceName": "contracts/Promethium.sol",
  "abi": [
    {
      "anonymous": false,
      "inputs": [
        {
          "indexed": true,
          "internalType": "address",
          "name": "owner",
          "type": "address"
        },
        {
          "indexed": true,
          "internalType": "address",
          "name": "spender",
          "type": "address"
        },
        {
          "indexed": false,
          "internalType": "uint256",
          "name": "value",
          "type": "uint256"
        }
      ],
      "name": "Approval",
      "type": "event"
    },
    {
      "anonymous": false,
      "inputs": [
        {
          "indexed": true,
          "internalType": "address",
          "name": "previousOwner",
          "type": "address"
        },
        {
          "indexed": true,
          "internalType": "address",
          "name": "newOwner",
          "type": "address"
        }
      ],
      "name": "OwnershipTransferred",
      "type": "event"
    },
    {
      "anonymous": false,
      "inputs": [
        {
          "indexed": false,
          "internalType": "address",
          "name": "account",
          "type": "address"
        }
      ],
      "name": "Paused",
      "type": "event"
    },
    {
      "anonymous": false,
      "inputs": [
        {
          "indexed": true,
          "internalType": "address",
          "name": "from",
          "type": "address"
        },
        {
          "indexed": true,
          "internalType": "address",
          "name": "to",
          "type": "address"
        },
        {
          "indexed": false,
          "internalType": "uint256",
          "name": "value",
          "type": "uint256"
        }
      ],
      "name": "Transfer",
      "type": "event"
    },
    {
      "anonymous": false,
      "inputs": [
        {
          "indexed": false,
          "internalType": "address",
          "name": "account",
          "type": "address"
        }
      ],
      "name": "Unpaused",
      "type": "event"
    },
    {
      "inputs": [
        {
          "internalType": "address",
          "name": "owner",
          "type": "address"
        },
        {
          "internalType": "address",
          "name": "spender",
          "type": "address"
        }
      ],
      "name": "allowance",
      "outputs": [
        {
          "internalType": "uint256",
          "name": "",
          "type": "uint256"
        }
      ],
      "stateMutability": "view",
      "type": "function"
    },
    {
      "inputs": [
        {
          "internalType": "address",
          "name": "spender",
          "type": "address"
        },
        {
          "internalType": "uint256",
          "name": "amount",
          "type": "uint256"
        }
      ],
      "name": "approve",
      "outputs": [
        {
          "internalType": "bool",
          "name": "",
          "type": "bool"
        }
      ],
      "stateMutability": "nonpayable",
      "type": "function"
    },
    {
      "inputs": [
        {
          "internalType": "address",
          "name": "account",
          "type": "address"
        }
      ],
      "name": "balanceOf",
      "outputs": [
        {
          "internalType": "uint256",
          "name": "",
          "type": "uint256"
        }
      ],
      "stateMutability": "view",
      "type": "function"
    },
    {
      "inputs": [
        {
          "internalType": "uint256",
          "name": "amount",
          "type": "uint256"
        }
      ],
      "name": "burn",
      "outputs": [],
      "stateMutability": "nonpayable",
      "type": "function"
    },
    {
      "inputs": [
        {
          "internalType": "address",
          "name": "account",
          "type": "address"
        },
        {
          "internalType": "uint256",
          "name": "amount",
          "type": "uint256"
        }
      ],
      "name": "burnFrom",
      "outputs": [],
      "stateMutability": "nonpayable",
      "type": "function"
    },
    {
      "inputs": [],
      "name": "decimals",
      "outputs": [
        {
          "internalType": "uint8",
          "name": "",
          "type": "uint8"
        }
      ],
      "stateMutability": "view",
      "type": "function"
    },
    {
      "inputs": [
        {
          "internalType": "address",
          "name": "spender",
          "type": "address"
        },
        {
          "internalType": "uint256",
          "name": "subtractedValue",
          "type": "uint256"
        }
      ],
      "name": "decreaseAllowance",
      "outputs": [
        {
          "internalType": "bool",
          "name": "",
          "type": "bool"
        }
      ],
      "stateMutability": "nonpayable",
      "type": "function"
    },
    {
      "inputs": [
        {
          "internalType": "string",
          "name": "str",
          "type": "string"
        }
      ],
      "name": "extractNumberOfTokensFromHash",
      "outputs": [
        {
          "internalType": "uint256",
          "name": "",
          "type": "uint256"
        }
      ],
      "stateMutability": "pure",
      "type": "function"
    },
    {
      "inputs": [
        {
          "internalType": "address",
          "name": "spender",
          "type": "address"
        },
        {
          "internalType": "uint256",
          "name": "addedValue",
          "type": "uint256"
        }
      ],
      "name": "increaseAllowance",
      "outputs": [
        {
          "internalType": "bool",
          "name": "",
          "type": "bool"
        }
      ],
      "stateMutability": "nonpayable",
      "type": "function"
    },
    {
      "inputs": [
        {
          "internalType": "address",
          "name": "newOwner",
          "type": "address"
        }
      ],
      "name": "initialize",
      "outputs": [],
      "stateMutability": "nonpayable",
      "type": "function"
    },
    {
      "inputs": [
        {
          "internalType": "bytes32",
          "name": "_hash",
          "type": "bytes32"
        }
      ],
      "name": "isCodeValid",
      "outputs": [
        {
          "internalType": "bool",
          "name": "",
          "type": "bool"
        }
      ],
      "stateMutability": "view",
      "type": "function"
    },
    {
      "inputs": [
        {
          "internalType": "address",
          "name": "to",
          "type": "address"
        },
        {
          "internalType": "uint256",
          "name": "amount",
          "type": "uint256"
        }
      ],
      "name": "mint",
      "outputs": [],
      "stateMutability": "nonpayable",
      "type": "function"
    },
    {
      "inputs": [],
      "name": "name",
      "outputs": [
        {
          "internalType": "string",
          "name": "",
          "type": "string"
        }
      ],
      "stateMutability": "view",
      "type": "function"
    },
    {
      "inputs": [],
      "name": "owner",
      "outputs": [
        {
          "internalType": "address",
          "name": "",
          "type": "address"
        }
      ],
      "stateMutability": "view",
      "type": "function"
    },
    {
      "inputs": [],
      "name": "pause",
      "outputs": [],
      "stateMutability": "nonpayable",
      "type": "function"
    },
    {
      "inputs": [],
      "name": "paused",
      "outputs": [
        {
          "internalType": "bool",
          "name": "",
          "type": "bool"
        }
      ],
      "stateMutability": "view",
      "type": "function"
    },
    {
      "inputs": [
        {
          "internalType": "address",
          "name": "origin",
          "type": "address"
        },
        {
          "internalType": "uint256",
          "name": "value",
          "type": "uint256"
        }
      ],
      "name": "receiveTokensFromNFTMint",
      "outputs": [],
      "stateMutability": "nonpayable",
      "type": "function"
    },
    {
      "inputs": [],
      "name": "renounceOwnership",
      "outputs": [],
      "stateMutability": "nonpayable",
      "type": "function"
    },
    {
      "inputs": [
        {
          "internalType": "address",
          "name": "addr",
          "type": "address"
        }
      ],
      "name": "setAddressOfNFTContract",
      "outputs": [],
      "stateMutability": "nonpayable",
      "type": "function"
    },
    {
      "inputs": [
        {
          "internalType": "string",
          "name": "numString",
          "type": "string"
        }
      ],
      "name": "st2num",
      "outputs": [
        {
          "internalType": "uint256",
          "name": "",
          "type": "uint256"
        }
      ],
      "stateMutability": "pure",
      "type": "function"
    },
    {
      "inputs": [],
      "name": "symbol",
      "outputs": [
        {
          "internalType": "string",
          "name": "",
          "type": "string"
        }
      ],
      "stateMutability": "view",
      "type": "function"
    },
    {
      "inputs": [
        {
          "internalType": "bytes32",
          "name": "data",
          "type": "bytes32"
        }
      ],
      "name": "toHex",
      "outputs": [
        {
          "internalType": "string",
          "name": "",
          "type": "string"
        }
      ],
      "stateMutability": "pure",
      "type": "function"
    },
    {
      "inputs": [],
      "name": "totalSupply",
      "outputs": [
        {
          "internalType": "uint256",
          "name": "",
          "type": "uint256"
        }
      ],
      "stateMutability": "view",
      "type": "function"
    },
    {
      "inputs": [
        {
          "internalType": "address",
          "name": "to",
          "type": "address"
        },
        {
          "internalType": "uint256",
          "name": "amount",
          "type": "uint256"
        }
      ],
      "name": "transfer",
      "outputs": [
        {
          "internalType": "bool",
          "name": "",
          "type": "bool"
        }
      ],
      "stateMutability": "nonpayable",
      "type": "function"
    },
    {
      "inputs": [
        {
          "internalType": "address",
          "name": "from",
          "type": "address"
        },
        {
          "internalType": "address",
          "name": "to",
          "type": "address"
        },
        {
          "internalType": "uint256",
          "name": "amount",
          "type": "uint256"
        }
      ],
      "name": "transferFrom",
      "outputs": [
        {
          "internalType": "bool",
          "name": "",
          "type": "bool"
        }
      ],
      "stateMutability": "nonpayable",
      "type": "function"
    },
    {
      "inputs": [
        {
          "internalType": "address",
          "name": "newOwner",
          "type": "address"
        }
      ],
      "name": "transferOwnership",
      "outputs": [],
      "stateMutability": "nonpayable",
      "type": "function"
    },
    {
      "inputs": [],
      "name": "unpause",
      "outputs": [],
      "stateMutability": "nonpayable",
      "type": "function"
    }
  ],
  "bytecode": "0x608060405234801561001057600080fd5b50613ac0806100206000396000f3fe608060405234801561001057600080fd5b50600436106101a95760003560e01c8063715018a6116100f9578063a457c2d711610097578063b7b9790c11610071578063b7b9790c146104d0578063c4d66de8146104ec578063dd62ed3e14610508578063f2fde38b14610538576101a9565b8063a457c2d714610440578063a9059cbb14610470578063ad045c6e146104a0576101a9565b80638456cb59116100d35780638456cb59146103ca5780638da5cb5b146103d457806395d89b41146103f25780639926a6ab14610410576101a9565b8063715018a61461037457806379cc67901461037e57806379cd90551461039a576101a9565b80633f4ba83a1161016657806349e894d81161014057806349e894d8146102da5780634e07695a1461030a5780635c975abb1461032657806370a0823114610344576101a9565b80633f4ba83a1461029857806340c10f19146102a257806342966c68146102be576101a9565b806306fdde03146101ae578063095ea7b3146101cc57806318160ddd146101fc57806323b872dd1461021a578063313ce5671461024a5780633950935114610268575b600080fd5b6101b6610554565b6040516101c39190612dde565b60405180910390f35b6101e660048036038101906101e191906129a0565b6105e6565b6040516101f39190612dc3565b60405180910390f35b610204610609565b6040516102119190613020565b60405180910390f35b610234600480360381019061022f9190612951565b610613565b6040516102419190612dc3565b60405180910390f35b610252610642565b60405161025f919061303b565b60405180910390f35b610282600480360381019061027d91906129a0565b610659565b60405161028f9190612dc3565b60405180910390f35b6102a0610703565b005b6102bc60048036038101906102b791906129a0565b610789565b005b6102d860048036038101906102d39190612a46565b610813565b005b6102f460048036038101906102ef91906129dc565b610827565b6040516103019190612dde565b60405180910390f35b610324600480360381019061031f91906128ec565b610866565b005b61032e610926565b60405161033b9190612dc3565b60405180910390f35b61035e600480360381019061035991906128ec565b61093d565b60405161036b9190613020565b60405180910390f35b61037c610986565b005b610398600480360381019061039391906129a0565b610a0e565b005b6103b460048036038101906103af9190612a05565b610a2e565b6040516103c19190613020565b60405180910390f35b6103d2610a45565b005b6103dc610acb565b6040516103e99190612da8565b60405180910390f35b6103fa610af5565b6040516104079190612dde565b60405180910390f35b61042a600480360381019061042591906129dc565b610b87565b6040516104379190612dc3565b60405180910390f35b61045a600480360381019061045591906129a0565b610bb1565b6040516104679190612dc3565b60405180910390f35b61048a600480360381019061048591906129a0565b610c9b565b6040516104979190612dc3565b60405180910390f35b6104ba60048036038101906104b59190612a05565b610cbe565b6040516104c79190613020565b60405180910390f35b6104ea60048036038101906104e591906129a0565b610fef565b005b610506600480360381019061050191906128ec565b6111c2565b005b610522600480360381019061051d9190612915565b6113b9565b60405161052f9190613020565b60405180910390f35b610552600480360381019061054d91906128ec565b611440565b005b60606036805461056390613414565b80601f016020809104026020016040519081016040528092919081815260200182805461058f90613414565b80156105dc5780601f106105b1576101008083540402835291602001916105dc565b820191906000526020600020905b8154815290600101906020018083116105bf57829003601f168201915b5050505050905090565b6000806105f1611538565b90506105fe818585611540565b600191505092915050565b6000603554905090565b60008061061e611538565b905061062b85828561170b565b610636858585611797565b60019150509392505050565b600060fb60109054906101000a900460ff16905090565b600080610664611538565b90506106f8818585603460008673ffffffffffffffffffffffffffffffffffffffff1673ffffffffffffffffffffffffffffffffffffffff16815260200190815260200160002060008973ffffffffffffffffffffffffffffffffffffffff1673ffffffffffffffffffffffffffffffffffffffff168152602001908152602001600020546106f391906130d3565b611540565b600191505092915050565b61070b611538565b73ffffffffffffffffffffffffffffffffffffffff16610729610acb565b73ffffffffffffffffffffffffffffffffffffffff161461077f576040517f08c379a000000000000000000000000000000000000000000000000000000000815260040161077690612f20565b60405180910390fd5b610787611a1b565b565b610791611538565b73ffffffffffffffffffffffffffffffffffffffff166107af610acb565b73ffffffffffffffffffffffffffffffffffffffff1614610805576040517f08c379a00000000000000000000000000000000000000000000000000000000081526004016107fc90612f20565b60405180910390fd5b61080f8282611abd565b5050565b61082461081e611538565b82611c1e565b50565b606061083282611df7565b61083f608084901b611df7565b604051602001610850929190612d71565b6040516020818303038152906040529050919050565b61086e611538565b73ffffffffffffffffffffffffffffffffffffffff1661088c610acb565b73ffffffffffffffffffffffffffffffffffffffff16146108e2576040517f08c379a00000000000000000000000000000000000000000000000000000000081526004016108d990612f20565b60405180910390fd5b8060fc60006101000a81548173ffffffffffffffffffffffffffffffffffffffff021916908373ffffffffffffffffffffffffffffffffffffffff16021790555050565b6000609760009054906101000a900460ff16905090565b6000603360008373ffffffffffffffffffffffffffffffffffffffff1673ffffffffffffffffffffffffffffffffffffffff168152602001908152602001600020549050919050565b61098e611538565b73ffffffffffffffffffffffffffffffffffffffff166109ac610acb565b73ffffffffffffffffffffffffffffffffffffffff1614610a02576040517f08c379a00000000000000000000000000000000000000000000000000000000081526004016109f990612f20565b60405180910390fd5b610a0c6000612057565b565b610a2082610a1a611538565b8361170b565b610a2a8282611c1e565b5050565b600080610a3a8361211d565b905080915050919050565b610a4d611538565b73ffffffffffffffffffffffffffffffffffffffff16610a6b610acb565b73ffffffffffffffffffffffffffffffffffffffff1614610ac1576040517f08c379a0000000000000000000000000000000000000000000000000000000008152600401610ab890612f20565b60405180910390fd5b610ac9612336565b565b600060c960009054906101000a900473ffffffffffffffffffffffffffffffffffffffff16905090565b606060378054610b0490613414565b80601f0160208091040260200160405190810160405280929190818152602001828054610b3090613414565b8015610b7d5780601f10610b5257610100808354040283529160200191610b7d565b820191906000526020600020905b815481529060010190602001808311610b6057829003601f168201915b5050505050905090565b600060fd600083815260200190815260200160002060009054906101000a900460ff169050919050565b600080610bbc611538565b90506000603460008373ffffffffffffffffffffffffffffffffffffffff1673ffffffffffffffffffffffffffffffffffffffff16815260200190815260200160002060008673ffffffffffffffffffffffffffffffffffffffff1673ffffffffffffffffffffffffffffffffffffffff16815260200190815260200160002054905083811015610c82576040517f08c379a0000000000000000000000000000000000000000000000000000000008152600401610c7990612fe0565b60405180910390fd5b610c8f8286868403611540565b60019250505092915050565b600080610ca6611538565b9050610cb3818585611797565b600191505092915050565b600080829050600060018251610cd4919061333f565b905060008251905060008282610cea919061333f565b67ffffffffffffffff811115610d29577f4e487b7100000000000000000000000000000000000000000000000000000000600052604160045260246000fd5b6040519080825280601f01601f191660200182016040528015610d5b5781602001600182028036833780820191505090505b50905060008390505b82811015610e3657848181518110610da5577f4e487b7100000000000000000000000000000000000000000000000000000000600052603260045260246000fd5b602001015160f81c60f81b828583610dbd919061333f565b81518110610df4577f4e487b7100000000000000000000000000000000000000000000000000000000600052603260045260246000fd5b60200101907effffffffffffffffffffffffffffffffffffffffffffffffffffffffffffff1916908160001a9053508080610e2e90613477565b915050610d64565b5060008190506000610e4782610a2e565b90508060018751610e58919061333f565b610e62919061333f565b945060018651610e72919061333f565b935060008585610e82919061333f565b67ffffffffffffffff811115610ec1577f4e487b7100000000000000000000000000000000000000000000000000000000600052604160045260246000fd5b6040519080825280601f01601f191660200182016040528015610ef35781602001600182028036833780820191505090505b50905060008690505b85811015610fce57878181518110610f3d577f4e487b7100000000000000000000000000000000000000000000000000000000600052603260045260246000fd5b602001015160f81c60f81b828883610f55919061333f565b81518110610f8c577f4e487b7100000000000000000000000000000000000000000000000000000000600052603260045260246000fd5b60200101907effffffffffffffffffffffffffffffffffffffffffffffffffffffffffffff1916908160001a9053508080610fc690613477565b915050610efc565b508092506000610fdd84610a2e565b90508098505050505050505050919050565b60fc60009054906101000a900473ffffffffffffffffffffffffffffffffffffffff1673ffffffffffffffffffffffffffffffffffffffff16611030611538565b73ffffffffffffffffffffffffffffffffffffffff1614611086576040517f08c379a000000000000000000000000000000000000000000000000000000000815260040161107d90612f40565b60405180910390fd5b6110d881603360008573ffffffffffffffffffffffffffffffffffffffff1673ffffffffffffffffffffffffffffffffffffffff168152602001908152602001600020546123d990919063ffffffff16565b603360008473ffffffffffffffffffffffffffffffffffffffff1673ffffffffffffffffffffffffffffffffffffffff16815260200190815260200160002081905550611174816033600061112b610acb565b73ffffffffffffffffffffffffffffffffffffffff1673ffffffffffffffffffffffffffffffffffffffff168152602001908152602001600020546123ef90919063ffffffff16565b60336000611180610acb565b73ffffffffffffffffffffffffffffffffffffffff1673ffffffffffffffffffffffffffffffffffffffff168152602001908152602001600020819055505050565b600060019054906101000a900460ff166111ea5760008054906101000a900460ff16156111f3565b6111f2612405565b5b611232576040517f08c379a000000000000000000000000000000000000000000000000000000000815260040161122990612f00565b60405180910390fd5b60008060019054906101000a900460ff161590508015611282576001600060016101000a81548160ff02191690831515021790555060016000806101000a81548160ff0219169083151502179055505b6112f66040518060400160405280600a81526020017f50726f6d65746869756d000000000000000000000000000000000000000000008152506040518060400160405280600381526020017f50524d0000000000000000000000000000000000000000000000000000000000815250612416565b6112fe612473565b6113066124c4565b61130e61251d565b600660fb60106101000a81548160ff021916908360ff160217905550651319718a500060fb60006101000a8154816fffffffffffffffffffffffffffffffff02191690836fffffffffffffffffffffffffffffffff16021790555061139482611375610642565b600a61138191906131c7565b620186a061138f91906132e5565b611abd565b80156113b55760008060016101000a81548160ff0219169083151502179055505b5050565b6000603460008473ffffffffffffffffffffffffffffffffffffffff1673ffffffffffffffffffffffffffffffffffffffff16815260200190815260200160002060008373ffffffffffffffffffffffffffffffffffffffff1673ffffffffffffffffffffffffffffffffffffffff16815260200190815260200160002054905092915050565b611448611538565b73ffffffffffffffffffffffffffffffffffffffff16611466610acb565b73ffffffffffffffffffffffffffffffffffffffff16146114bc576040517f08c379a00000000000000000000000000000000000000000000000000000000081526004016114b390612f20565b60405180910390fd5b600073ffffffffffffffffffffffffffffffffffffffff168173ffffffffffffffffffffffffffffffffffffffff16141561152c576040517f08c379a000000000000000000000000000000000000000000000000000000000815260040161152390612e60565b60405180910390fd5b61153581612057565b50565b600033905090565b600073ffffffffffffffffffffffffffffffffffffffff168373ffffffffffffffffffffffffffffffffffffffff1614156115b0576040517f08c379a00000000000000000000000000000000000000000000000000000000081526004016115a790612fa0565b60405180910390fd5b600073ffffffffffffffffffffffffffffffffffffffff168273ffffffffffffffffffffffffffffffffffffffff161415611620576040517f08c379a000000000000000000000000000000000000000000000000000000000815260040161161790612e80565b60405180910390fd5b80603460008573ffffffffffffffffffffffffffffffffffffffff1673ffffffffffffffffffffffffffffffffffffffff16815260200190815260200160002060008473ffffffffffffffffffffffffffffffffffffffff1673ffffffffffffffffffffffffffffffffffffffff168152602001908152602001600020819055508173ffffffffffffffffffffffffffffffffffffffff168373ffffffffffffffffffffffffffffffffffffffff167f8c5be1e5ebec7d5bd14f71427d1e84f3dd0314c0f7b2291e5b200ac8c7c3b925836040516116fe9190613020565b60405180910390a3505050565b600061171784846113b9565b90507fffffffffffffffffffffffffffffffffffffffffffffffffffffffffffffffff81146117915781811015611783576040517f08c379a000000000000000000000000000000000000000000000000000000000815260040161177a90612ea0565b60405180910390fd5b6117908484848403611540565b5b50505050565b600073ffffffffffffffffffffffffffffffffffffffff168373ffffffffffffffffffffffffffffffffffffffff161415611807576040517f08c379a00000000000000000000000000000000000000000000000000000000081526004016117fe90612f80565b60405180910390fd5b600073ffffffffffffffffffffffffffffffffffffffff168273ffffffffffffffffffffffffffffffffffffffff161415611877576040517f08c379a000000000000000000000000000000000000000000000000000000000815260040161186e90612e00565b60405180910390fd5b611882838383612576565b6000603360008573ffffffffffffffffffffffffffffffffffffffff1673ffffffffffffffffffffffffffffffffffffffff16815260200190815260200160002054905081811015611909576040517f08c379a000000000000000000000000000000000000000000000000000000000815260040161190090612ec0565b60405180910390fd5b818103603360008673ffffffffffffffffffffffffffffffffffffffff1673ffffffffffffffffffffffffffffffffffffffff1681526020019081526020016000208190555081603360008573ffffffffffffffffffffffffffffffffffffffff1673ffffffffffffffffffffffffffffffffffffffff168152602001908152602001600020600082825461199e91906130d3565b925050819055508273ffffffffffffffffffffffffffffffffffffffff168473ffffffffffffffffffffffffffffffffffffffff167fddf252ad1be2c89b69c2b068fc378daa952ba7f163c4a11628f55a4df523b3ef84604051611a029190613020565b60405180910390a3611a158484846125ce565b50505050565b611a23610926565b611a62576040517f08c379a0000000000000000000000000000000000000000000000000000000008152600401611a5990612e20565b60405180910390fd5b6000609760006101000a81548160ff0219169083151502179055507f5db9ee0a495bf2e6ff9c91a7834c1ba4fdd244a5e8aa4e537bd38aeae4b073aa611aa6611538565b604051611ab39190612da8565b60405180910390a1565b600073ffffffffffffffffffffffffffffffffffffffff168273ffffffffffffffffffffffffffffffffffffffff161415611b2d576040517f08c379a0000000000000000000000000000000000000000000000000000000008152600401611b2490613000565b60405180910390fd5b611b3960008383612576565b8060356000828254611b4b91906130d3565b9250508190555080603360008473ffffffffffffffffffffffffffffffffffffffff1673ffffffffffffffffffffffffffffffffffffffff1681526020019081526020016000206000828254611ba191906130d3565b925050819055508173ffffffffffffffffffffffffffffffffffffffff16600073ffffffffffffffffffffffffffffffffffffffff167fddf252ad1be2c89b69c2b068fc378daa952ba7f163c4a11628f55a4df523b3ef83604051611c069190613020565b60405180910390a3611c1a600083836125ce565b5050565b600073ffffffffffffffffffffffffffffffffffffffff168273ffffffffffffffffffffffffffffffffffffffff161415611c8e576040517f08c379a0000000000000000000000000000000000000000000000000000000008152600401611c8590612f60565b60405180910390fd5b611c9a82600083612576565b6000603360008473ffffffffffffffffffffffffffffffffffffffff1673ffffffffffffffffffffffffffffffffffffffff16815260200190815260200160002054905081811015611d21576040517f08c379a0000000000000000000000000000000000000000000000000000000008152600401611d1890612e40565b60405180910390fd5b818103603360008573ffffffffffffffffffffffffffffffffffffffff1673ffffffffffffffffffffffffffffffffffffffff168152602001908152602001600020819055508160356000828254611d79919061333f565b92505081905550600073ffffffffffffffffffffffffffffffffffffffff168373ffffffffffffffffffffffffffffffffffffffff167fddf252ad1be2c89b69c2b068fc378daa952ba7f163c4a11628f55a4df523b3ef84604051611dde9190613020565b60405180910390a3611df2836000846125ce565b505050565b6000604077ffffffffffffffff0000000000000000000000000000000060001b836fffffffffffffffffffffffffffffffff191616901c7fffffffffffffffff00000000000000000000000000000000000000000000000060001b836fffffffffffffffffffffffffffffffff19161617905060207bffffffff000000000000000000000000ffffffff000000000000000060001b8216901c7fffffffff000000000000000000000000ffffffff00000000000000000000000060001b821617905060107dffff000000000000ffff000000000000ffff000000000000ffff0000000060001b8216901c7fffff000000000000ffff000000000000ffff000000000000ffff00000000000060001b821617905060087eff000000ff000000ff000000ff000000ff000000ff000000ff000000ff000060001b8216901c7fff000000ff000000ff000000ff000000ff000000ff000000ff000000ff00000060001b821617905060087f0f000f000f000f000f000f000f000f000f000f000f000f000f000f000f000f0060001b8216901c60047ff000f000f000f000f000f000f000f000f000f000f000f000f000f000f000f00060001b8316901c17905060077f0f0f0f0f0f0f0f0f0f0f0f0f0f0f0f0f0f0f0f0f0f0f0f0f0f0f0f0f0f0f0f0f60047f06060606060606060606060606060606060606060606060606060606060606068460001c61200791906130d3565b901c1661201491906132e5565b8160001c7f303030303030303030303030303030303030303030303030303030303030303061204391906130d3565b61204d91906130d3565b60001b9050919050565b600060c960009054906101000a900473ffffffffffffffffffffffffffffffffffffffff1690508160c960006101000a81548173ffffffffffffffffffffffffffffffffffffffff021916908373ffffffffffffffffffffffffffffffffffffffff1602179055508173ffffffffffffffffffffffffffffffffffffffff168173ffffffffffffffffffffffffffffffffffffffff167f8be0079c531659141344cd1fd0a4f28419497f9722a3daafe3b4186f6b6457e060405160405180910390a35050565b60008060009050612163836040518060400160405280600181526020017f41000000000000000000000000000000000000000000000000000000000000008152506125d3565b1561217257600a915050612331565b6121b1836040518060400160405280600181526020017f42000000000000000000000000000000000000000000000000000000000000008152506125d3565b156121c057600b915050612331565b6121ff836040518060400160405280600181526020017f43000000000000000000000000000000000000000000000000000000000000008152506125d3565b1561220e57600c915050612331565b61224d836040518060400160405280600181526020017f44000000000000000000000000000000000000000000000000000000000000008152506125d3565b1561225c57600d915050612331565b600083905060005b815181101561232a57600081835161227c919061333f565b905060008383815181106122b9577f4e487b7100000000000000000000000000000000000000000000000000000000600052603260045260246000fd5b602001015160f81c60f81b905060008160f81c9050600060308260ff166122e0919061333f565b90506001846122ef919061333f565b600a6122fb919061317c565b8161230691906132e5565b8761231191906130d3565b965050505050808061232290613477565b915050612264565b5050809150505b919050565b61233e610926565b1561237e576040517f08c379a000000000000000000000000000000000000000000000000000000000815260040161237590612ee0565b60405180910390fd5b6001609760006101000a81548160ff0219169083151502179055507f62e78cea01bee320cd4e420270b5ea74000d11b0c9f74754ebdbfc544b05a2586123c2611538565b6040516123cf9190612da8565b60405180910390a1565b600081836123e7919061333f565b905092915050565b600081836123fd91906130d3565b905092915050565b60006124103061262c565b15905090565b600060019054906101000a900460ff16612465576040517f08c379a000000000000000000000000000000000000000000000000000000000815260040161245c90612fc0565b60405180910390fd5b61246f828261264f565b5050565b600060019054906101000a900460ff166124c2576040517f08c379a00000000000000000000000000000000000000000000000000000000081526004016124b990612fc0565b60405180910390fd5b565b600060019054906101000a900460ff16612513576040517f08c379a000000000000000000000000000000000000000000000000000000000815260040161250a90612fc0565b60405180910390fd5b61251b6126d0565b565b600060019054906101000a900460ff1661256c576040517f08c379a000000000000000000000000000000000000000000000000000000000815260040161256390612fc0565b60405180910390fd5b61257461273c565b565b61257e610926565b156125be576040517f08c379a00000000000000000000000000000000000000000000000000000000081526004016125b590612ee0565b60405180910390fd5b6125c983838361279d565b505050565b505050565b6000816040516020016125e69190612dde565b604051602081830303815290604052805190602001208360405160200161260d9190612dde565b6040516020818303038152906040528051906020012014905092915050565b6000808273ffffffffffffffffffffffffffffffffffffffff163b119050919050565b600060019054906101000a900460ff1661269e576040517f08c379a000000000000000000000000000000000000000000000000000000000815260040161269590612fc0565b60405180910390fd5b81603690805190602001906126b49291906127a2565b5080603790805190602001906126cb9291906127a2565b505050565b600060019054906101000a900460ff1661271f576040517f08c379a000000000000000000000000000000000000000000000000000000000815260040161271690612fc0565b60405180910390fd5b6000609760006101000a81548160ff021916908315150217905550565b600060019054906101000a900460ff1661278b576040517f08c379a000000000000000000000000000000000000000000000000000000000815260040161278290612fc0565b60405180910390fd5b61279b612796611538565b612057565b565b505050565b8280546127ae90613414565b90600052602060002090601f0160209004810192826127d05760008555612817565b82601f106127e957805160ff1916838001178555612817565b82800160010185558215612817579182015b828111156128165782518255916020019190600101906127fb565b5b5090506128249190612828565b5090565b5b80821115612841576000816000905550600101612829565b5090565b60006128586128538461307b565b613056565b90508281526020810184848401111561287057600080fd5b61287b8482856133d2565b509392505050565b60008135905061289281613a45565b92915050565b6000813590506128a781613a5c565b92915050565b600082601f8301126128be57600080fd5b81356128ce848260208601612845565b91505092915050565b6000813590506128e681613a73565b92915050565b6000602082840312156128fe57600080fd5b600061290c84828501612883565b91505092915050565b6000806040838503121561292857600080fd5b600061293685828601612883565b925050602061294785828601612883565b9150509250929050565b60008060006060848603121561296657600080fd5b600061297486828701612883565b935050602061298586828701612883565b9250506040612996868287016128d7565b9150509250925092565b600080604083850312156129b357600080fd5b60006129c185828601612883565b92505060206129d2858286016128d7565b9150509250929050565b6000602082840312156129ee57600080fd5b60006129fc84828501612898565b91505092915050565b600060208284031215612a1757600080fd5b600082013567ffffffffffffffff811115612a3157600080fd5b612a3d848285016128ad565b91505092915050565b600060208284031215612a5857600080fd5b6000612a66848285016128d7565b91505092915050565b612a7881613373565b82525050565b612a8781613385565b82525050565b612a9e612a9982613391565b6134c0565b82525050565b6000612aaf826130ac565b612ab981856130b7565b9350612ac98185602086016133e1565b612ad281613557565b840191505092915050565b6000612aea6023836130b7565b9150612af582613575565b604082019050919050565b6000612b0d6014836130b7565b9150612b18826135c4565b602082019050919050565b6000612b306022836130b7565b9150612b3b826135ed565b604082019050919050565b6000612b536026836130b7565b9150612b5e8261363c565b604082019050919050565b6000612b766022836130b7565b9150612b818261368b565b604082019050919050565b6000612b996002836130c8565b9150612ba4826136da565b600282019050919050565b6000612bbc601d836130b7565b9150612bc782613703565b602082019050919050565b6000612bdf6026836130b7565b9150612bea8261372c565b604082019050919050565b6000612c026010836130b7565b9150612c0d8261377b565b602082019050919050565b6000612c25602e836130b7565b9150612c30826137a4565b604082019050919050565b6000612c486020836130b7565b9150612c53826137f3565b602082019050919050565b6000612c6b6042836130b7565b9150612c768261381c565b606082019050919050565b6000612c8e6021836130b7565b9150612c9982613891565b604082019050919050565b6000612cb16025836130b7565b9150612cbc826138e0565b604082019050919050565b6000612cd46024836130b7565b9150612cdf8261392f565b604082019050919050565b6000612cf7602b836130b7565b9150612d028261397e565b604082019050919050565b6000612d1a6025836130b7565b9150612d25826139cd565b604082019050919050565b6000612d3d601f836130b7565b9150612d4882613a1c565b602082019050919050565b612d5c816133bb565b82525050565b612d6b816133c5565b82525050565b6000612d7c82612b8c565b9150612d888285612a8d565b602082019150612d988284612a8d565b6020820191508190509392505050565b6000602082019050612dbd6000830184612a6f565b92915050565b6000602082019050612dd86000830184612a7e565b92915050565b60006020820190508181036000830152612df88184612aa4565b905092915050565b60006020820190508181036000830152612e1981612add565b9050919050565b60006020820190508181036000830152612e3981612b00565b9050919050565b60006020820190508181036000830152612e5981612b23565b9050919050565b60006020820190508181036000830152612e7981612b46565b9050919050565b60006020820190508181036000830152612e9981612b69565b9050919050565b60006020820190508181036000830152612eb981612baf565b9050919050565b60006020820190508181036000830152612ed981612bd2565b9050919050565b60006020820190508181036000830152612ef981612bf5565b9050919050565b60006020820190508181036000830152612f1981612c18565b9050919050565b60006020820190508181036000830152612f3981612c3b565b9050919050565b60006020820190508181036000830152612f5981612c5e565b9050919050565b60006020820190508181036000830152612f7981612c81565b9050919050565b60006020820190508181036000830152612f9981612ca4565b9050919050565b60006020820190508181036000830152612fb981612cc7565b9050919050565b60006020820190508181036000830152612fd981612cea565b9050919050565b60006020820190508181036000830152612ff981612d0d565b9050919050565b6000602082019050818103600083015261301981612d30565b9050919050565b60006020820190506130356000830184612d53565b92915050565b60006020820190506130506000830184612d62565b92915050565b6000613060613071565b905061306c8282613446565b919050565b6000604051905090565b600067ffffffffffffffff82111561309657613095613528565b5b61309f82613557565b9050602081019050919050565b600081519050919050565b600082825260208201905092915050565b600081905092915050565b60006130de826133bb565b91506130e9836133bb565b9250827fffffffffffffffffffffffffffffffffffffffffffffffffffffffffffffffff0382111561311e5761311d6134ca565b5b828201905092915050565b6000808291508390505b60018511156131735780860481111561314f5761314e6134ca565b5b600185161561315e5780820291505b808102905061316c85613568565b9450613133565b94509492505050565b6000613187826133bb565b9150613192836133bb565b92506131bf7fffffffffffffffffffffffffffffffffffffffffffffffffffffffffffffffff8484613212565b905092915050565b60006131d2826133bb565b91506131dd836133c5565b925061320a7fffffffffffffffffffffffffffffffffffffffffffffffffffffffffffffffff8484613212565b905092915050565b60008261322257600190506132de565b8161323057600090506132de565b816001811461324657600281146132505761327f565b60019150506132de565b60ff841115613262576132616134ca565b5b8360020a915084821115613279576132786134ca565b5b506132de565b5060208310610133831016604e8410600b84101617156132b45782820a9050838111156132af576132ae6134ca565b5b6132de565b6132c18484846001613129565b925090508184048111156132d8576132d76134ca565b5b81810290505b9392505050565b60006132f0826133bb565b91506132fb836133bb565b9250817fffffffffffffffffffffffffffffffffffffffffffffffffffffffffffffffff0483118215151615613334576133336134ca565b5b828202905092915050565b600061334a826133bb565b9150613355836133bb565b925082821015613368576133676134ca565b5b828203905092915050565b600061337e8261339b565b9050919050565b60008115159050919050565b6000819050919050565b600073ffffffffffffffffffffffffffffffffffffffff82169050919050565b6000819050919050565b600060ff82169050919050565b82818337600083830152505050565b60005b838110156133ff5780820151818401526020810190506133e4565b8381111561340e576000848401525b50505050565b6000600282049050600182168061342c57607f821691505b602082108114156134405761343f6134f9565b5b50919050565b61344f82613557565b810181811067ffffffffffffffff8211171561346e5761346d613528565b5b80604052505050565b6000613482826133bb565b91507fffffffffffffffffffffffffffffffffffffffffffffffffffffffffffffffff8214156134b5576134b46134ca565b5b600182019050919050565b6000819050919050565b7f4e487b7100000000000000000000000000000000000000000000000000000000600052601160045260246000fd5b7f4e487b7100000000000000000000000000000000000000000000000000000000600052602260045260246000fd5b7f4e487b7100000000000000000000000000000000000000000000000000000000600052604160045260246000fd5b6000601f19601f8301169050919050565b60008160011c9050919050565b7f45524332303a207472616e7366657220746f20746865207a65726f206164647260008201527f6573730000000000000000000000000000000000000000000000000000000000602082015250565b7f5061757361626c653a206e6f7420706175736564000000000000000000000000600082015250565b7f45524332303a206275726e20616d6f756e7420657863656564732062616c616e60008201527f6365000000000000000000000000000000000000000000000000000000000000602082015250565b7f4f776e61626c653a206e6577206f776e657220697320746865207a65726f206160008201527f6464726573730000000000000000000000000000000000000000000000000000602082015250565b7f45524332303a20617070726f766520746f20746865207a65726f20616464726560008201527f7373000000000000000000000000000000000000000000000000000000000000602082015250565b7f3078000000000000000000000000000000000000000000000000000000000000600082015250565b7f45524332303a20696e73756666696369656e7420616c6c6f77616e6365000000600082015250565b7f45524332303a207472616e7366657220616d6f756e742065786365656473206260008201527f616c616e63650000000000000000000000000000000000000000000000000000602082015250565b7f5061757361626c653a2070617573656400000000000000000000000000000000600082015250565b7f496e697469616c697a61626c653a20636f6e747261637420697320616c72656160008201527f647920696e697469616c697a6564000000000000000000000000000000000000602082015250565b7f4f776e61626c653a2063616c6c6572206973206e6f7420746865206f776e6572600082015250565b7f546869732066756e6374696f6e2063616e206f6e6c792062652063616c6c656460008201527f2062792074686520736d61727420636f6e7472616374206f6620746865204e4660208201527f5473000000000000000000000000000000000000000000000000000000000000604082015250565b7f45524332303a206275726e2066726f6d20746865207a65726f2061646472657360008201527f7300000000000000000000000000000000000000000000000000000000000000602082015250565b7f45524332303a207472616e736665722066726f6d20746865207a65726f20616460008201527f6472657373000000000000000000000000000000000000000000000000000000602082015250565b7f45524332303a20617070726f76652066726f6d20746865207a65726f2061646460008201527f7265737300000000000000000000000000000000000000000000000000000000602082015250565b7f496e697469616c697a61626c653a20636f6e7472616374206973206e6f74206960008201527f6e697469616c697a696e67000000000000000000000000000000000000000000602082015250565b7f45524332303a2064656372656173656420616c6c6f77616e63652062656c6f7760008201527f207a65726f000000000000000000000000000000000000000000000000000000602082015250565b7f45524332303a206d696e7420746f20746865207a65726f206164647265737300600082015250565b613a4e81613373565b8114613a5957600080fd5b50565b613a6581613391565b8114613a7057600080fd5b50565b613a7c816133bb565b8114613a8757600080fd5b5056fea26469706673582212203664db4ca6c9a6cab5b2d8b5d8954c19034fd96f854cfd63a76c203ce3cc0f5664736f6c63430008020033",
  "linkReferences": {},
  "deployedLinkReferences": {}
}