{
  "_format": "hh-sol-artifact-1",
  "contractName": "Promethium",
  "sourceName": "contracts/Promethium.sol",
  "abi": [
    {
      "anonymous": false,
      "inputs": [
        {
          "indexed": true,
          "internalType": "address",
          "name": "owner",
          "type": "address"
        },
        {
          "indexed": true,
          "internalType": "address",
          "name": "spender",
          "type": "address"
        },
        {
          "indexed": false,
          "internalType": "uint256",
          "name": "value",
          "type": "uint256"
        }
      ],
      "name": "Approval",
      "type": "event"
    },
    {
      "anonymous": false,
      "inputs": [
        {
          "indexed": true,
          "internalType": "address",
          "name": "previousOwner",
          "type": "address"
        },
        {
          "indexed": true,
          "internalType": "address",
          "name": "newOwner",
          "type": "address"
        }
      ],
      "name": "OwnershipTransferred",
      "type": "event"
    },
    {
      "anonymous": false,
      "inputs": [
        {
          "indexed": false,
          "internalType": "address",
          "name": "account",
          "type": "address"
        }
      ],
      "name": "Paused",
      "type": "event"
    },
    {
      "anonymous": false,
      "inputs": [
        {
          "indexed": true,
          "internalType": "address",
          "name": "from",
          "type": "address"
        },
        {
          "indexed": true,
          "internalType": "address",
          "name": "to",
          "type": "address"
        },
        {
          "indexed": false,
          "internalType": "uint256",
          "name": "value",
          "type": "uint256"
        }
      ],
      "name": "Transfer",
      "type": "event"
    },
    {
      "anonymous": false,
      "inputs": [
        {
          "indexed": false,
          "internalType": "address",
          "name": "account",
          "type": "address"
        }
      ],
      "name": "Unpaused",
      "type": "event"
    },
    {
      "inputs": [
        {
          "internalType": "address",
          "name": "owner",
          "type": "address"
        },
        {
          "internalType": "address",
          "name": "spender",
          "type": "address"
        }
      ],
      "name": "allowance",
      "outputs": [
        {
          "internalType": "uint256",
          "name": "",
          "type": "uint256"
        }
      ],
      "stateMutability": "view",
      "type": "function"
    },
    {
      "inputs": [
        {
          "internalType": "address",
          "name": "spender",
          "type": "address"
        },
        {
          "internalType": "uint256",
          "name": "amount",
          "type": "uint256"
        }
      ],
      "name": "approve",
      "outputs": [
        {
          "internalType": "bool",
          "name": "",
          "type": "bool"
        }
      ],
      "stateMutability": "nonpayable",
      "type": "function"
    },
    {
      "inputs": [
        {
          "internalType": "address",
          "name": "account",
          "type": "address"
        }
      ],
      "name": "balanceOf",
      "outputs": [
        {
          "internalType": "uint256",
          "name": "",
          "type": "uint256"
        }
      ],
      "stateMutability": "view",
      "type": "function"
    },
    {
      "inputs": [
        {
          "internalType": "uint256",
          "name": "amount",
          "type": "uint256"
        }
      ],
      "name": "burn",
      "outputs": [],
      "stateMutability": "nonpayable",
      "type": "function"
    },
    {
      "inputs": [
        {
          "internalType": "address",
          "name": "account",
          "type": "address"
        },
        {
          "internalType": "uint256",
          "name": "amount",
          "type": "uint256"
        }
      ],
      "name": "burnFrom",
      "outputs": [],
      "stateMutability": "nonpayable",
      "type": "function"
    },
    {
      "inputs": [],
      "name": "decimals",
      "outputs": [
        {
          "internalType": "uint8",
          "name": "",
          "type": "uint8"
        }
      ],
      "stateMutability": "view",
      "type": "function"
    },
    {
      "inputs": [
        {
          "internalType": "address",
          "name": "spender",
          "type": "address"
        },
        {
          "internalType": "uint256",
          "name": "subtractedValue",
          "type": "uint256"
        }
      ],
      "name": "decreaseAllowance",
      "outputs": [
        {
          "internalType": "bool",
          "name": "",
          "type": "bool"
        }
      ],
      "stateMutability": "nonpayable",
      "type": "function"
    },
    {
      "inputs": [
        {
          "internalType": "string",
          "name": "str",
          "type": "string"
        }
      ],
      "name": "extractNumberOfTokensFromHash",
      "outputs": [
        {
          "internalType": "uint256",
          "name": "",
          "type": "uint256"
        }
      ],
      "stateMutability": "pure",
      "type": "function"
    },
    {
      "inputs": [
        {
          "internalType": "address",
          "name": "spender",
          "type": "address"
        },
        {
          "internalType": "uint256",
          "name": "addedValue",
          "type": "uint256"
        }
      ],
      "name": "increaseAllowance",
      "outputs": [
        {
          "internalType": "bool",
          "name": "",
          "type": "bool"
        }
      ],
      "stateMutability": "nonpayable",
      "type": "function"
    },
    {
      "inputs": [
        {
          "internalType": "address",
          "name": "newOwner",
          "type": "address"
        }
      ],
      "name": "initialize",
      "outputs": [],
      "stateMutability": "nonpayable",
      "type": "function"
    },
    {
      "inputs": [
        {
          "internalType": "bytes32",
          "name": "_hash",
          "type": "bytes32"
        }
      ],
      "name": "isCodeValid",
      "outputs": [
        {
          "internalType": "bool",
          "name": "",
          "type": "bool"
        }
      ],
      "stateMutability": "view",
      "type": "function"
    },
    {
      "inputs": [
        {
          "internalType": "address",
          "name": "to",
          "type": "address"
        },
        {
          "internalType": "uint256",
          "name": "amount",
          "type": "uint256"
        }
      ],
      "name": "mint",
      "outputs": [],
      "stateMutability": "nonpayable",
      "type": "function"
    },
    {
      "inputs": [],
      "name": "name",
      "outputs": [
        {
          "internalType": "string",
          "name": "",
          "type": "string"
        }
      ],
      "stateMutability": "view",
      "type": "function"
    },
    {
      "inputs": [],
      "name": "owner",
      "outputs": [
        {
          "internalType": "address",
          "name": "",
          "type": "address"
        }
      ],
      "stateMutability": "view",
      "type": "function"
    },
    {
      "inputs": [],
      "name": "pause",
      "outputs": [],
      "stateMutability": "nonpayable",
      "type": "function"
    },
    {
      "inputs": [],
      "name": "paused",
      "outputs": [
        {
          "internalType": "bool",
          "name": "",
          "type": "bool"
        }
      ],
      "stateMutability": "view",
      "type": "function"
    },
    {
      "inputs": [
        {
          "internalType": "address",
          "name": "origin",
          "type": "address"
        },
        {
          "internalType": "uint256",
          "name": "value",
          "type": "uint256"
        }
      ],
      "name": "receiveTokensFromNFTMint",
      "outputs": [],
      "stateMutability": "nonpayable",
      "type": "function"
    },
    {
      "inputs": [],
      "name": "renounceOwnership",
      "outputs": [],
      "stateMutability": "nonpayable",
      "type": "function"
    },
    {
      "inputs": [
        {
          "internalType": "address",
          "name": "addr",
          "type": "address"
        }
      ],
      "name": "setAddressOfNFTContract",
      "outputs": [],
      "stateMutability": "nonpayable",
      "type": "function"
    },
    {
      "inputs": [
        {
          "internalType": "string",
          "name": "numString",
          "type": "string"
        }
      ],
      "name": "st2num",
      "outputs": [
        {
          "internalType": "uint256",
          "name": "",
          "type": "uint256"
        }
      ],
      "stateMutability": "pure",
      "type": "function"
    },
    {
      "inputs": [],
      "name": "symbol",
      "outputs": [
        {
          "internalType": "string",
          "name": "",
          "type": "string"
        }
      ],
      "stateMutability": "view",
      "type": "function"
    },
    {
      "inputs": [
        {
          "internalType": "bytes32",
          "name": "data",
          "type": "bytes32"
        }
      ],
      "name": "toHex",
      "outputs": [
        {
          "internalType": "string",
          "name": "",
          "type": "string"
        }
      ],
      "stateMutability": "pure",
      "type": "function"
    },
    {
      "inputs": [],
      "name": "totalSupply",
      "outputs": [
        {
          "internalType": "uint256",
          "name": "",
          "type": "uint256"
        }
      ],
      "stateMutability": "view",
      "type": "function"
    },
    {
      "inputs": [
        {
          "internalType": "address",
          "name": "to",
          "type": "address"
        },
        {
          "internalType": "uint256",
          "name": "amount",
          "type": "uint256"
        }
      ],
      "name": "transfer",
      "outputs": [
        {
          "internalType": "bool",
          "name": "",
          "type": "bool"
        }
      ],
      "stateMutability": "nonpayable",
      "type": "function"
    },
    {
      "inputs": [
        {
          "internalType": "address",
          "name": "from",
          "type": "address"
        },
        {
          "internalType": "address",
          "name": "to",
          "type": "address"
        },
        {
          "internalType": "uint256",
          "name": "amount",
          "type": "uint256"
        }
      ],
      "name": "transferFrom",
      "outputs": [
        {
          "internalType": "bool",
          "name": "",
          "type": "bool"
        }
      ],
      "stateMutability": "nonpayable",
      "type": "function"
    },
    {
      "inputs": [
        {
          "internalType": "address",
          "name": "newOwner",
          "type": "address"
        }
      ],
      "name": "transferOwnership",
      "outputs": [],
      "stateMutability": "nonpayable",
      "type": "function"
    },
    {
      "inputs": [],
      "name": "unpause",
      "outputs": [],
      "stateMutability": "nonpayable",
      "type": "function"
    }
  ],
  "bytecode": "0x608060405234801561001057600080fd5b506139fe806100206000396000f3fe608060405234801561001057600080fd5b50600436106101a95760003560e01c8063715018a6116100f9578063a457c2d711610097578063b7b9790c11610071578063b7b9790c146104d0578063c4d66de8146104ec578063dd62ed3e14610508578063f2fde38b14610538576101a9565b8063a457c2d714610440578063a9059cbb14610470578063ad045c6e146104a0576101a9565b80638456cb59116100d35780638456cb59146103ca5780638da5cb5b146103d457806395d89b41146103f25780639926a6ab14610410576101a9565b8063715018a61461037457806379cc67901461037e57806379cd90551461039a576101a9565b80633f4ba83a1161016657806349e894d81161014057806349e894d8146102da5780634e07695a1461030a5780635c975abb1461032657806370a0823114610344576101a9565b80633f4ba83a1461029857806340c10f19146102a257806342966c68146102be576101a9565b806306fdde03146101ae578063095ea7b3146101cc57806318160ddd146101fc57806323b872dd1461021a578063313ce5671461024a5780633950935114610268575b600080fd5b6101b6610554565b6040516101c39190612d1c565b60405180910390f35b6101e660048036038101906101e191906128de565b6105e6565b6040516101f39190612d01565b60405180910390f35b610204610609565b6040516102119190612f5e565b60405180910390f35b610234600480360381019061022f919061288f565b610613565b6040516102419190612d01565b60405180910390f35b610252610642565b60405161025f9190612f79565b60405180910390f35b610282600480360381019061027d91906128de565b610659565b60405161028f9190612d01565b60405180910390f35b6102a0610703565b005b6102bc60048036038101906102b791906128de565b610789565b005b6102d860048036038101906102d39190612984565b610813565b005b6102f460048036038101906102ef919061291a565b610827565b6040516103019190612d1c565b60405180910390f35b610324600480360381019061031f919061282a565b610866565b005b61032e610926565b60405161033b9190612d01565b60405180910390f35b61035e6004803603810190610359919061282a565b61093d565b60405161036b9190612f5e565b60405180910390f35b61037c610986565b005b610398600480360381019061039391906128de565b610a0e565b005b6103b460048036038101906103af9190612943565b610a2e565b6040516103c19190612f5e565b60405180910390f35b6103d2610a45565b005b6103dc610acb565b6040516103e99190612ce6565b60405180910390f35b6103fa610af5565b6040516104079190612d1c565b60405180910390f35b61042a6004803603810190610425919061291a565b610b87565b6040516104379190612d01565b60405180910390f35b61045a600480360381019061045591906128de565b610bb1565b6040516104679190612d01565b60405180910390f35b61048a600480360381019061048591906128de565b610c9b565b6040516104979190612d01565b60405180910390f35b6104ba60048036038101906104b59190612943565b610cbe565b6040516104c79190612f5e565b60405180910390f35b6104ea60048036038101906104e591906128de565b610fef565b005b6105066004803603810190610501919061282a565b6111c2565b005b610522600480360381019061051d9190612853565b6113b1565b60405161052f9190612f5e565b60405180910390f35b610552600480360381019061054d919061282a565b611438565b005b60606036805461056390613352565b80601f016020809104026020016040519081016040528092919081815260200182805461058f90613352565b80156105dc5780601f106105b1576101008083540402835291602001916105dc565b820191906000526020600020905b8154815290600101906020018083116105bf57829003601f168201915b5050505050905090565b6000806105f1611530565b90506105fe818585611538565b600191505092915050565b6000603554905090565b60008061061e611530565b905061062b858285611703565b61063685858561178f565b60019150509392505050565b600060fb60109054906101000a900460ff16905090565b600080610664611530565b90506106f8818585603460008673ffffffffffffffffffffffffffffffffffffffff1673ffffffffffffffffffffffffffffffffffffffff16815260200190815260200160002060008973ffffffffffffffffffffffffffffffffffffffff1673ffffffffffffffffffffffffffffffffffffffff168152602001908152602001600020546106f39190613011565b611538565b600191505092915050565b61070b611530565b73ffffffffffffffffffffffffffffffffffffffff16610729610acb565b73ffffffffffffffffffffffffffffffffffffffff161461077f576040517f08c379a000000000000000000000000000000000000000000000000000000000815260040161077690612e5e565b60405180910390fd5b610787611a13565b565b610791611530565b73ffffffffffffffffffffffffffffffffffffffff166107af610acb565b73ffffffffffffffffffffffffffffffffffffffff1614610805576040517f08c379a00000000000000000000000000000000000000000000000000000000081526004016107fc90612e5e565b60405180910390fd5b61080f8282611ab5565b5050565b61082461081e611530565b82611c16565b50565b606061083282611def565b61083f608084901b611def565b604051602001610850929190612caf565b6040516020818303038152906040529050919050565b61086e611530565b73ffffffffffffffffffffffffffffffffffffffff1661088c610acb565b73ffffffffffffffffffffffffffffffffffffffff16146108e2576040517f08c379a00000000000000000000000000000000000000000000000000000000081526004016108d990612e5e565b60405180910390fd5b8060fc60006101000a81548173ffffffffffffffffffffffffffffffffffffffff021916908373ffffffffffffffffffffffffffffffffffffffff16021790555050565b6000609760009054906101000a900460ff16905090565b6000603360008373ffffffffffffffffffffffffffffffffffffffff1673ffffffffffffffffffffffffffffffffffffffff168152602001908152602001600020549050919050565b61098e611530565b73ffffffffffffffffffffffffffffffffffffffff166109ac610acb565b73ffffffffffffffffffffffffffffffffffffffff1614610a02576040517f08c379a00000000000000000000000000000000000000000000000000000000081526004016109f990612e5e565b60405180910390fd5b610a0c600061204f565b565b610a2082610a1a611530565b83611703565b610a2a8282611c16565b5050565b600080610a3a83612115565b905080915050919050565b610a4d611530565b73ffffffffffffffffffffffffffffffffffffffff16610a6b610acb565b73ffffffffffffffffffffffffffffffffffffffff1614610ac1576040517f08c379a0000000000000000000000000000000000000000000000000000000008152600401610ab890612e5e565b60405180910390fd5b610ac961232e565b565b600060c960009054906101000a900473ffffffffffffffffffffffffffffffffffffffff16905090565b606060378054610b0490613352565b80601f0160208091040260200160405190810160405280929190818152602001828054610b3090613352565b8015610b7d5780601f10610b5257610100808354040283529160200191610b7d565b820191906000526020600020905b815481529060010190602001808311610b6057829003601f168201915b5050505050905090565b600060fd600083815260200190815260200160002060009054906101000a900460ff169050919050565b600080610bbc611530565b90506000603460008373ffffffffffffffffffffffffffffffffffffffff1673ffffffffffffffffffffffffffffffffffffffff16815260200190815260200160002060008673ffffffffffffffffffffffffffffffffffffffff1673ffffffffffffffffffffffffffffffffffffffff16815260200190815260200160002054905083811015610c82576040517f08c379a0000000000000000000000000000000000000000000000000000000008152600401610c7990612f1e565b60405180910390fd5b610c8f8286868403611538565b60019250505092915050565b600080610ca6611530565b9050610cb381858561178f565b600191505092915050565b600080829050600060018251610cd4919061327d565b905060008251905060008282610cea919061327d565b67ffffffffffffffff811115610d29577f4e487b7100000000000000000000000000000000000000000000000000000000600052604160045260246000fd5b6040519080825280601f01601f191660200182016040528015610d5b5781602001600182028036833780820191505090505b50905060008390505b82811015610e3657848181518110610da5577f4e487b7100000000000000000000000000000000000000000000000000000000600052603260045260246000fd5b602001015160f81c60f81b828583610dbd919061327d565b81518110610df4577f4e487b7100000000000000000000000000000000000000000000000000000000600052603260045260246000fd5b60200101907effffffffffffffffffffffffffffffffffffffffffffffffffffffffffffff1916908160001a9053508080610e2e906133b5565b915050610d64565b5060008190506000610e4782610a2e565b90508060018751610e58919061327d565b610e62919061327d565b945060018651610e72919061327d565b935060008585610e82919061327d565b67ffffffffffffffff811115610ec1577f4e487b7100000000000000000000000000000000000000000000000000000000600052604160045260246000fd5b6040519080825280601f01601f191660200182016040528015610ef35781602001600182028036833780820191505090505b50905060008690505b85811015610fce57878181518110610f3d577f4e487b7100000000000000000000000000000000000000000000000000000000600052603260045260246000fd5b602001015160f81c60f81b828883610f55919061327d565b81518110610f8c577f4e487b7100000000000000000000000000000000000000000000000000000000600052603260045260246000fd5b60200101907effffffffffffffffffffffffffffffffffffffffffffffffffffffffffffff1916908160001a9053508080610fc6906133b5565b915050610efc565b508092506000610fdd84610a2e565b90508098505050505050505050919050565b60fc60009054906101000a900473ffffffffffffffffffffffffffffffffffffffff1673ffffffffffffffffffffffffffffffffffffffff16611030611530565b73ffffffffffffffffffffffffffffffffffffffff1614611086576040517f08c379a000000000000000000000000000000000000000000000000000000000815260040161107d90612e7e565b60405180910390fd5b6110d881603360008573ffffffffffffffffffffffffffffffffffffffff1673ffffffffffffffffffffffffffffffffffffffff168152602001908152602001600020546123d190919063ffffffff16565b603360008473ffffffffffffffffffffffffffffffffffffffff1673ffffffffffffffffffffffffffffffffffffffff16815260200190815260200160002081905550611174816033600061112b610acb565b73ffffffffffffffffffffffffffffffffffffffff1673ffffffffffffffffffffffffffffffffffffffff168152602001908152602001600020546123e790919063ffffffff16565b60336000611180610acb565b73ffffffffffffffffffffffffffffffffffffffff1673ffffffffffffffffffffffffffffffffffffffff168152602001908152602001600020819055505050565b600060019054906101000a900460ff166111ea5760008054906101000a900460ff16156111f3565b6111f26123fd565b5b611232576040517f08c379a000000000000000000000000000000000000000000000000000000000815260040161122990612e3e565b60405180910390fd5b60008060019054906101000a900460ff161590508015611282576001600060016101000a81548160ff02191690831515021790555060016000806101000a81548160ff0219169083151502179055505b6112f66040518060400160405280600a81526020017f50726f6d65746869756d000000000000000000000000000000000000000000008152506040518060400160405280600381526020017f50524d000000000000000000000000000000000000000000000000000000000081525061240e565b6112fe61246b565b6113066124bc565b600660fb60106101000a81548160ff021916908360ff160217905550651319718a500060fb60006101000a8154816fffffffffffffffffffffffffffffffff02191690836fffffffffffffffffffffffffffffffff16021790555061138c8261136d610642565b600a6113799190613105565b620186a06113879190613223565b611ab5565b80156113ad5760008060016101000a81548160ff0219169083151502179055505b5050565b6000603460008473ffffffffffffffffffffffffffffffffffffffff1673ffffffffffffffffffffffffffffffffffffffff16815260200190815260200160002060008373ffffffffffffffffffffffffffffffffffffffff1673ffffffffffffffffffffffffffffffffffffffff16815260200190815260200160002054905092915050565b611440611530565b73ffffffffffffffffffffffffffffffffffffffff1661145e610acb565b73ffffffffffffffffffffffffffffffffffffffff16146114b4576040517f08c379a00000000000000000000000000000000000000000000000000000000081526004016114ab90612e5e565b60405180910390fd5b600073ffffffffffffffffffffffffffffffffffffffff168173ffffffffffffffffffffffffffffffffffffffff161415611524576040517f08c379a000000000000000000000000000000000000000000000000000000000815260040161151b90612d9e565b60405180910390fd5b61152d8161204f565b50565b600033905090565b600073ffffffffffffffffffffffffffffffffffffffff168373ffffffffffffffffffffffffffffffffffffffff1614156115a8576040517f08c379a000000000000000000000000000000000000000000000000000000000815260040161159f90612ede565b60405180910390fd5b600073ffffffffffffffffffffffffffffffffffffffff168273ffffffffffffffffffffffffffffffffffffffff161415611618576040517f08c379a000000000000000000000000000000000000000000000000000000000815260040161160f90612dbe565b60405180910390fd5b80603460008573ffffffffffffffffffffffffffffffffffffffff1673ffffffffffffffffffffffffffffffffffffffff16815260200190815260200160002060008473ffffffffffffffffffffffffffffffffffffffff1673ffffffffffffffffffffffffffffffffffffffff168152602001908152602001600020819055508173ffffffffffffffffffffffffffffffffffffffff168373ffffffffffffffffffffffffffffffffffffffff167f8c5be1e5ebec7d5bd14f71427d1e84f3dd0314c0f7b2291e5b200ac8c7c3b925836040516116f69190612f5e565b60405180910390a3505050565b600061170f84846113b1565b90507fffffffffffffffffffffffffffffffffffffffffffffffffffffffffffffffff8114611789578181101561177b576040517f08c379a000000000000000000000000000000000000000000000000000000000815260040161177290612dde565b60405180910390fd5b6117888484848403611538565b5b50505050565b600073ffffffffffffffffffffffffffffffffffffffff168373ffffffffffffffffffffffffffffffffffffffff1614156117ff576040517f08c379a00000000000000000000000000000000000000000000000000000000081526004016117f690612ebe565b60405180910390fd5b600073ffffffffffffffffffffffffffffffffffffffff168273ffffffffffffffffffffffffffffffffffffffff16141561186f576040517f08c379a000000000000000000000000000000000000000000000000000000000815260040161186690612d3e565b60405180910390fd5b61187a838383612515565b6000603360008573ffffffffffffffffffffffffffffffffffffffff1673ffffffffffffffffffffffffffffffffffffffff16815260200190815260200160002054905081811015611901576040517f08c379a00000000000000000000000000000000000000000000000000000000081526004016118f890612dfe565b60405180910390fd5b818103603360008673ffffffffffffffffffffffffffffffffffffffff1673ffffffffffffffffffffffffffffffffffffffff1681526020019081526020016000208190555081603360008573ffffffffffffffffffffffffffffffffffffffff1673ffffffffffffffffffffffffffffffffffffffff16815260200190815260200160002060008282546119969190613011565b925050819055508273ffffffffffffffffffffffffffffffffffffffff168473ffffffffffffffffffffffffffffffffffffffff167fddf252ad1be2c89b69c2b068fc378daa952ba7f163c4a11628f55a4df523b3ef846040516119fa9190612f5e565b60405180910390a3611a0d84848461256d565b50505050565b611a1b610926565b611a5a576040517f08c379a0000000000000000000000000000000000000000000000000000000008152600401611a5190612d5e565b60405180910390fd5b6000609760006101000a81548160ff0219169083151502179055507f5db9ee0a495bf2e6ff9c91a7834c1ba4fdd244a5e8aa4e537bd38aeae4b073aa611a9e611530565b604051611aab9190612ce6565b60405180910390a1565b600073ffffffffffffffffffffffffffffffffffffffff168273ffffffffffffffffffffffffffffffffffffffff161415611b25576040517f08c379a0000000000000000000000000000000000000000000000000000000008152600401611b1c90612f3e565b60405180910390fd5b611b3160008383612515565b8060356000828254611b439190613011565b9250508190555080603360008473ffffffffffffffffffffffffffffffffffffffff1673ffffffffffffffffffffffffffffffffffffffff1681526020019081526020016000206000828254611b999190613011565b925050819055508173ffffffffffffffffffffffffffffffffffffffff16600073ffffffffffffffffffffffffffffffffffffffff167fddf252ad1be2c89b69c2b068fc378daa952ba7f163c4a11628f55a4df523b3ef83604051611bfe9190612f5e565b60405180910390a3611c126000838361256d565b5050565b600073ffffffffffffffffffffffffffffffffffffffff168273ffffffffffffffffffffffffffffffffffffffff161415611c86576040517f08c379a0000000000000000000000000000000000000000000000000000000008152600401611c7d90612e9e565b60405180910390fd5b611c9282600083612515565b6000603360008473ffffffffffffffffffffffffffffffffffffffff1673ffffffffffffffffffffffffffffffffffffffff16815260200190815260200160002054905081811015611d19576040517f08c379a0000000000000000000000000000000000000000000000000000000008152600401611d1090612d7e565b60405180910390fd5b818103603360008573ffffffffffffffffffffffffffffffffffffffff1673ffffffffffffffffffffffffffffffffffffffff168152602001908152602001600020819055508160356000828254611d71919061327d565b92505081905550600073ffffffffffffffffffffffffffffffffffffffff168373ffffffffffffffffffffffffffffffffffffffff167fddf252ad1be2c89b69c2b068fc378daa952ba7f163c4a11628f55a4df523b3ef84604051611dd69190612f5e565b60405180910390a3611dea8360008461256d565b505050565b6000604077ffffffffffffffff0000000000000000000000000000000060001b836fffffffffffffffffffffffffffffffff191616901c7fffffffffffffffff00000000000000000000000000000000000000000000000060001b836fffffffffffffffffffffffffffffffff19161617905060207bffffffff000000000000000000000000ffffffff000000000000000060001b8216901c7fffffffff000000000000000000000000ffffffff00000000000000000000000060001b821617905060107dffff000000000000ffff000000000000ffff000000000000ffff0000000060001b8216901c7fffff000000000000ffff000000000000ffff000000000000ffff00000000000060001b821617905060087eff000000ff000000ff000000ff000000ff000000ff000000ff000000ff000060001b8216901c7fff000000ff000000ff000000ff000000ff000000ff000000ff000000ff00000060001b821617905060087f0f000f000f000f000f000f000f000f000f000f000f000f000f000f000f000f0060001b8216901c60047ff000f000f000f000f000f000f000f000f000f000f000f000f000f000f000f00060001b8316901c17905060077f0f0f0f0f0f0f0f0f0f0f0f0f0f0f0f0f0f0f0f0f0f0f0f0f0f0f0f0f0f0f0f0f60047f06060606060606060606060606060606060606060606060606060606060606068460001c611fff9190613011565b901c1661200c9190613223565b8160001c7f303030303030303030303030303030303030303030303030303030303030303061203b9190613011565b6120459190613011565b60001b9050919050565b600060c960009054906101000a900473ffffffffffffffffffffffffffffffffffffffff1690508160c960006101000a81548173ffffffffffffffffffffffffffffffffffffffff021916908373ffffffffffffffffffffffffffffffffffffffff1602179055508173ffffffffffffffffffffffffffffffffffffffff168173ffffffffffffffffffffffffffffffffffffffff167f8be0079c531659141344cd1fd0a4f28419497f9722a3daafe3b4186f6b6457e060405160405180910390a35050565b6000806000905061215b836040518060400160405280600181526020017f4100000000000000000000000000000000000000000000000000000000000000815250612572565b1561216a57600a915050612329565b6121a9836040518060400160405280600181526020017f4200000000000000000000000000000000000000000000000000000000000000815250612572565b156121b857600b915050612329565b6121f7836040518060400160405280600181526020017f4300000000000000000000000000000000000000000000000000000000000000815250612572565b1561220657600c915050612329565b612245836040518060400160405280600181526020017f4400000000000000000000000000000000000000000000000000000000000000815250612572565b1561225457600d915050612329565b600083905060005b8151811015612322576000818351612274919061327d565b905060008383815181106122b1577f4e487b7100000000000000000000000000000000000000000000000000000000600052603260045260246000fd5b602001015160f81c60f81b905060008160f81c9050600060308260ff166122d8919061327d565b90506001846122e7919061327d565b600a6122f391906130ba565b816122fe9190613223565b876123099190613011565b965050505050808061231a906133b5565b91505061225c565b5050809150505b919050565b612336610926565b15612376576040517f08c379a000000000000000000000000000000000000000000000000000000000815260040161236d90612e1e565b60405180910390fd5b6001609760006101000a81548160ff0219169083151502179055507f62e78cea01bee320cd4e420270b5ea74000d11b0c9f74754ebdbfc544b05a2586123ba611530565b6040516123c79190612ce6565b60405180910390a1565b600081836123df919061327d565b905092915050565b600081836123f59190613011565b905092915050565b6000612408306125cb565b15905090565b600060019054906101000a900460ff1661245d576040517f08c379a000000000000000000000000000000000000000000000000000000000815260040161245490612efe565b60405180910390fd5b61246782826125ee565b5050565b600060019054906101000a900460ff166124ba576040517f08c379a00000000000000000000000000000000000000000000000000000000081526004016124b190612efe565b60405180910390fd5b565b600060019054906101000a900460ff1661250b576040517f08c379a000000000000000000000000000000000000000000000000000000000815260040161250290612efe565b60405180910390fd5b61251361266f565b565b61251d610926565b1561255d576040517f08c379a000000000000000000000000000000000000000000000000000000000815260040161255490612e1e565b60405180910390fd5b6125688383836126db565b505050565b505050565b6000816040516020016125859190612d1c565b60405160208183030381529060405280519060200120836040516020016125ac9190612d1c565b6040516020818303038152906040528051906020012014905092915050565b6000808273ffffffffffffffffffffffffffffffffffffffff163b119050919050565b600060019054906101000a900460ff1661263d576040517f08c379a000000000000000000000000000000000000000000000000000000000815260040161263490612efe565b60405180910390fd5b81603690805190602001906126539291906126e0565b50806037908051906020019061266a9291906126e0565b505050565b600060019054906101000a900460ff166126be576040517f08c379a00000000000000000000000000000000000000000000000000000000081526004016126b590612efe565b60405180910390fd5b6000609760006101000a81548160ff021916908315150217905550565b505050565b8280546126ec90613352565b90600052602060002090601f01602090048101928261270e5760008555612755565b82601f1061272757805160ff1916838001178555612755565b82800160010185558215612755579182015b82811115612754578251825591602001919060010190612739565b5b5090506127629190612766565b5090565b5b8082111561277f576000816000905550600101612767565b5090565b600061279661279184612fb9565b612f94565b9050828152602081018484840111156127ae57600080fd5b6127b9848285613310565b509392505050565b6000813590506127d081613983565b92915050565b6000813590506127e58161399a565b92915050565b600082601f8301126127fc57600080fd5b813561280c848260208601612783565b91505092915050565b600081359050612824816139b1565b92915050565b60006020828403121561283c57600080fd5b600061284a848285016127c1565b91505092915050565b6000806040838503121561286657600080fd5b6000612874858286016127c1565b9250506020612885858286016127c1565b9150509250929050565b6000806000606084860312156128a457600080fd5b60006128b2868287016127c1565b93505060206128c3868287016127c1565b92505060406128d486828701612815565b9150509250925092565b600080604083850312156128f157600080fd5b60006128ff858286016127c1565b925050602061291085828601612815565b9150509250929050565b60006020828403121561292c57600080fd5b600061293a848285016127d6565b91505092915050565b60006020828403121561295557600080fd5b600082013567ffffffffffffffff81111561296f57600080fd5b61297b848285016127eb565b91505092915050565b60006020828403121561299657600080fd5b60006129a484828501612815565b91505092915050565b6129b6816132b1565b82525050565b6129c5816132c3565b82525050565b6129dc6129d7826132cf565b6133fe565b82525050565b60006129ed82612fea565b6129f78185612ff5565b9350612a0781856020860161331f565b612a1081613495565b840191505092915050565b6000612a28602383612ff5565b9150612a33826134b3565b604082019050919050565b6000612a4b601483612ff5565b9150612a5682613502565b602082019050919050565b6000612a6e602283612ff5565b9150612a798261352b565b604082019050919050565b6000612a91602683612ff5565b9150612a9c8261357a565b604082019050919050565b6000612ab4602283612ff5565b9150612abf826135c9565b604082019050919050565b6000612ad7600283613006565b9150612ae282613618565b600282019050919050565b6000612afa601d83612ff5565b9150612b0582613641565b602082019050919050565b6000612b1d602683612ff5565b9150612b288261366a565b604082019050919050565b6000612b40601083612ff5565b9150612b4b826136b9565b602082019050919050565b6000612b63602e83612ff5565b9150612b6e826136e2565b604082019050919050565b6000612b86602083612ff5565b9150612b9182613731565b602082019050919050565b6000612ba9604283612ff5565b9150612bb48261375a565b606082019050919050565b6000612bcc602183612ff5565b9150612bd7826137cf565b604082019050919050565b6000612bef602583612ff5565b9150612bfa8261381e565b604082019050919050565b6000612c12602483612ff5565b9150612c1d8261386d565b604082019050919050565b6000612c35602b83612ff5565b9150612c40826138bc565b604082019050919050565b6000612c58602583612ff5565b9150612c638261390b565b604082019050919050565b6000612c7b601f83612ff5565b9150612c868261395a565b602082019050919050565b612c9a816132f9565b82525050565b612ca981613303565b82525050565b6000612cba82612aca565b9150612cc682856129cb565b602082019150612cd682846129cb565b6020820191508190509392505050565b6000602082019050612cfb60008301846129ad565b92915050565b6000602082019050612d1660008301846129bc565b92915050565b60006020820190508181036000830152612d3681846129e2565b905092915050565b60006020820190508181036000830152612d5781612a1b565b9050919050565b60006020820190508181036000830152612d7781612a3e565b9050919050565b60006020820190508181036000830152612d9781612a61565b9050919050565b60006020820190508181036000830152612db781612a84565b9050919050565b60006020820190508181036000830152612dd781612aa7565b9050919050565b60006020820190508181036000830152612df781612aed565b9050919050565b60006020820190508181036000830152612e1781612b10565b9050919050565b60006020820190508181036000830152612e3781612b33565b9050919050565b60006020820190508181036000830152612e5781612b56565b9050919050565b60006020820190508181036000830152612e7781612b79565b9050919050565b60006020820190508181036000830152612e9781612b9c565b9050919050565b60006020820190508181036000830152612eb781612bbf565b9050919050565b60006020820190508181036000830152612ed781612be2565b9050919050565b60006020820190508181036000830152612ef781612c05565b9050919050565b60006020820190508181036000830152612f1781612c28565b9050919050565b60006020820190508181036000830152612f3781612c4b565b9050919050565b60006020820190508181036000830152612f5781612c6e565b9050919050565b6000602082019050612f736000830184612c91565b92915050565b6000602082019050612f8e6000830184612ca0565b92915050565b6000612f9e612faf565b9050612faa8282613384565b919050565b6000604051905090565b600067ffffffffffffffff821115612fd457612fd3613466565b5b612fdd82613495565b9050602081019050919050565b600081519050919050565b600082825260208201905092915050565b600081905092915050565b600061301c826132f9565b9150613027836132f9565b9250827fffffffffffffffffffffffffffffffffffffffffffffffffffffffffffffffff0382111561305c5761305b613408565b5b828201905092915050565b6000808291508390505b60018511156130b15780860481111561308d5761308c613408565b5b600185161561309c5780820291505b80810290506130aa856134a6565b9450613071565b94509492505050565b60006130c5826132f9565b91506130d0836132f9565b92506130fd7fffffffffffffffffffffffffffffffffffffffffffffffffffffffffffffffff8484613150565b905092915050565b6000613110826132f9565b915061311b83613303565b92506131487fffffffffffffffffffffffffffffffffffffffffffffffffffffffffffffffff8484613150565b905092915050565b600082613160576001905061321c565b8161316e576000905061321c565b8160018114613184576002811461318e576131bd565b600191505061321c565b60ff8411156131a05761319f613408565b5b8360020a9150848211156131b7576131b6613408565b5b5061321c565b5060208310610133831016604e8410600b84101617156131f25782820a9050838111156131ed576131ec613408565b5b61321c565b6131ff8484846001613067565b9250905081840481111561321657613215613408565b5b81810290505b9392505050565b600061322e826132f9565b9150613239836132f9565b9250817fffffffffffffffffffffffffffffffffffffffffffffffffffffffffffffffff048311821515161561327257613271613408565b5b828202905092915050565b6000613288826132f9565b9150613293836132f9565b9250828210156132a6576132a5613408565b5b828203905092915050565b60006132bc826132d9565b9050919050565b60008115159050919050565b6000819050919050565b600073ffffffffffffffffffffffffffffffffffffffff82169050919050565b6000819050919050565b600060ff82169050919050565b82818337600083830152505050565b60005b8381101561333d578082015181840152602081019050613322565b8381111561334c576000848401525b50505050565b6000600282049050600182168061336a57607f821691505b6020821081141561337e5761337d613437565b5b50919050565b61338d82613495565b810181811067ffffffffffffffff821117156133ac576133ab613466565b5b80604052505050565b60006133c0826132f9565b91507fffffffffffffffffffffffffffffffffffffffffffffffffffffffffffffffff8214156133f3576133f2613408565b5b600182019050919050565b6000819050919050565b7f4e487b7100000000000000000000000000000000000000000000000000000000600052601160045260246000fd5b7f4e487b7100000000000000000000000000000000000000000000000000000000600052602260045260246000fd5b7f4e487b7100000000000000000000000000000000000000000000000000000000600052604160045260246000fd5b6000601f19601f8301169050919050565b60008160011c9050919050565b7f45524332303a207472616e7366657220746f20746865207a65726f206164647260008201527f6573730000000000000000000000000000000000000000000000000000000000602082015250565b7f5061757361626c653a206e6f7420706175736564000000000000000000000000600082015250565b7f45524332303a206275726e20616d6f756e7420657863656564732062616c616e60008201527f6365000000000000000000000000000000000000000000000000000000000000602082015250565b7f4f776e61626c653a206e6577206f776e657220697320746865207a65726f206160008201527f6464726573730000000000000000000000000000000000000000000000000000602082015250565b7f45524332303a20617070726f766520746f20746865207a65726f20616464726560008201527f7373000000000000000000000000000000000000000000000000000000000000602082015250565b7f3078000000000000000000000000000000000000000000000000000000000000600082015250565b7f45524332303a20696e73756666696369656e7420616c6c6f77616e6365000000600082015250565b7f45524332303a207472616e7366657220616d6f756e742065786365656473206260008201527f616c616e63650000000000000000000000000000000000000000000000000000602082015250565b7f5061757361626c653a2070617573656400000000000000000000000000000000600082015250565b7f496e697469616c697a61626c653a20636f6e747261637420697320616c72656160008201527f647920696e697469616c697a6564000000000000000000000000000000000000602082015250565b7f4f776e61626c653a2063616c6c6572206973206e6f7420746865206f776e6572600082015250565b7f546869732066756e6374696f6e2063616e206f6e6c792062652063616c6c656460008201527f2062792074686520736d61727420636f6e7472616374206f6620746865204e4660208201527f5473000000000000000000000000000000000000000000000000000000000000604082015250565b7f45524332303a206275726e2066726f6d20746865207a65726f2061646472657360008201527f7300000000000000000000000000000000000000000000000000000000000000602082015250565b7f45524332303a207472616e736665722066726f6d20746865207a65726f20616460008201527f6472657373000000000000000000000000000000000000000000000000000000602082015250565b7f45524332303a20617070726f76652066726f6d20746865207a65726f2061646460008201527f7265737300000000000000000000000000000000000000000000000000000000602082015250565b7f496e697469616c697a61626c653a20636f6e7472616374206973206e6f74206960008201527f6e697469616c697a696e67000000000000000000000000000000000000000000602082015250565b7f45524332303a2064656372656173656420616c6c6f77616e63652062656c6f7760008201527f207a65726f000000000000000000000000000000000000000000000000000000602082015250565b7f45524332303a206d696e7420746f20746865207a65726f206164647265737300600082015250565b61398c816132b1565b811461399757600080fd5b50565b6139a3816132cf565b81146139ae57600080fd5b50565b6139ba816132f9565b81146139c557600080fd5b5056fea2646970667358221220107d7a84d81fcefb20c220edd7173a848ba62f473310ca722d479290dfea636664736f6c63430008020033",
  "linkReferences": {},
  "deployedLinkReferences": {}
}