{
  "_format": "hh-sol-artifact-1",
  "contractName": "Promethium",
  "sourceName": "contracts/Promethium.sol",
  "abi": [
    {
      "anonymous": false,
      "inputs": [
        {
          "indexed": true,
          "internalType": "address",
          "name": "owner",
          "type": "address"
        },
        {
          "indexed": true,
          "internalType": "address",
          "name": "spender",
          "type": "address"
        },
        {
          "indexed": false,
          "internalType": "uint256",
          "name": "value",
          "type": "uint256"
        }
      ],
      "name": "Approval",
      "type": "event"
    },
    {
      "anonymous": false,
      "inputs": [
        {
          "indexed": true,
          "internalType": "address",
          "name": "previousOwner",
          "type": "address"
        },
        {
          "indexed": true,
          "internalType": "address",
          "name": "newOwner",
          "type": "address"
        }
      ],
      "name": "OwnershipTransferred",
      "type": "event"
    },
    {
      "anonymous": false,
      "inputs": [
        {
          "indexed": false,
          "internalType": "address",
          "name": "account",
          "type": "address"
        }
      ],
      "name": "Paused",
      "type": "event"
    },
    {
      "anonymous": false,
      "inputs": [
        {
          "indexed": true,
          "internalType": "address",
          "name": "from",
          "type": "address"
        },
        {
          "indexed": true,
          "internalType": "address",
          "name": "to",
          "type": "address"
        },
        {
          "indexed": false,
          "internalType": "uint256",
          "name": "value",
          "type": "uint256"
        }
      ],
      "name": "Transfer",
      "type": "event"
    },
    {
      "anonymous": false,
      "inputs": [
        {
          "indexed": false,
          "internalType": "address",
          "name": "account",
          "type": "address"
        }
      ],
      "name": "Unpaused",
      "type": "event"
    },
    {
      "inputs": [
        {
          "internalType": "address",
          "name": "owner",
          "type": "address"
        },
        {
          "internalType": "address",
          "name": "spender",
          "type": "address"
        }
      ],
      "name": "allowance",
      "outputs": [
        {
          "internalType": "uint256",
          "name": "",
          "type": "uint256"
        }
      ],
      "stateMutability": "view",
      "type": "function"
    },
    {
      "inputs": [
        {
          "internalType": "address",
          "name": "spender",
          "type": "address"
        },
        {
          "internalType": "uint256",
          "name": "amount",
          "type": "uint256"
        }
      ],
      "name": "approve",
      "outputs": [
        {
          "internalType": "bool",
          "name": "",
          "type": "bool"
        }
      ],
      "stateMutability": "nonpayable",
      "type": "function"
    },
    {
      "inputs": [
        {
          "internalType": "address",
          "name": "account",
          "type": "address"
        }
      ],
      "name": "balanceOf",
      "outputs": [
        {
          "internalType": "uint256",
          "name": "",
          "type": "uint256"
        }
      ],
      "stateMutability": "view",
      "type": "function"
    },
    {
      "inputs": [
        {
          "internalType": "uint256",
          "name": "amount",
          "type": "uint256"
        }
      ],
      "name": "burn",
      "outputs": [],
      "stateMutability": "nonpayable",
      "type": "function"
    },
    {
      "inputs": [
        {
          "internalType": "address",
          "name": "account",
          "type": "address"
        },
        {
          "internalType": "uint256",
          "name": "amount",
          "type": "uint256"
        }
      ],
      "name": "burnFrom",
      "outputs": [],
      "stateMutability": "nonpayable",
      "type": "function"
    },
    {
      "inputs": [],
      "name": "decimals",
      "outputs": [
        {
          "internalType": "uint8",
          "name": "",
          "type": "uint8"
        }
      ],
      "stateMutability": "view",
      "type": "function"
    },
    {
      "inputs": [
        {
          "internalType": "address",
          "name": "spender",
          "type": "address"
        },
        {
          "internalType": "uint256",
          "name": "subtractedValue",
          "type": "uint256"
        }
      ],
      "name": "decreaseAllowance",
      "outputs": [
        {
          "internalType": "bool",
          "name": "",
          "type": "bool"
        }
      ],
      "stateMutability": "nonpayable",
      "type": "function"
    },
    {
      "inputs": [
        {
          "internalType": "string",
          "name": "str",
          "type": "string"
        }
      ],
      "name": "extractNumberOfTokensFromHash",
      "outputs": [
        {
          "internalType": "uint256",
          "name": "",
          "type": "uint256"
        }
      ],
      "stateMutability": "pure",
      "type": "function"
    },
    {
      "inputs": [
        {
          "internalType": "address",
          "name": "spender",
          "type": "address"
        },
        {
          "internalType": "uint256",
          "name": "addedValue",
          "type": "uint256"
        }
      ],
      "name": "increaseAllowance",
      "outputs": [
        {
          "internalType": "bool",
          "name": "",
          "type": "bool"
        }
      ],
      "stateMutability": "nonpayable",
      "type": "function"
    },
    {
      "inputs": [
        {
          "internalType": "address",
          "name": "newOwner",
          "type": "address"
        }
      ],
      "name": "initialize",
      "outputs": [],
      "stateMutability": "nonpayable",
      "type": "function"
    },
    {
      "inputs": [
        {
          "internalType": "bytes32",
          "name": "_hash",
          "type": "bytes32"
        }
      ],
      "name": "isCodeValid",
      "outputs": [
        {
          "internalType": "bool",
          "name": "",
          "type": "bool"
        }
      ],
      "stateMutability": "view",
      "type": "function"
    },
    {
      "inputs": [
        {
          "internalType": "bytes32",
          "name": "_hash",
          "type": "bytes32"
        },
        {
          "internalType": "bytes",
          "name": "_signature",
          "type": "bytes"
        }
      ],
      "name": "mint",
      "outputs": [],
      "stateMutability": "nonpayable",
      "type": "function"
    },
    {
      "inputs": [],
      "name": "name",
      "outputs": [
        {
          "internalType": "string",
          "name": "",
          "type": "string"
        }
      ],
      "stateMutability": "view",
      "type": "function"
    },
    {
      "inputs": [],
      "name": "owner",
      "outputs": [
        {
          "internalType": "address",
          "name": "",
          "type": "address"
        }
      ],
      "stateMutability": "view",
      "type": "function"
    },
    {
      "inputs": [],
      "name": "pause",
      "outputs": [],
      "stateMutability": "nonpayable",
      "type": "function"
    },
    {
      "inputs": [],
      "name": "paused",
      "outputs": [
        {
          "internalType": "bool",
          "name": "",
          "type": "bool"
        }
      ],
      "stateMutability": "view",
      "type": "function"
    },
    {
      "inputs": [
        {
          "internalType": "address",
          "name": "origin",
          "type": "address"
        },
        {
          "internalType": "uint256",
          "name": "value",
          "type": "uint256"
        }
      ],
      "name": "receiveTokensFromNFTMint",
      "outputs": [],
      "stateMutability": "nonpayable",
      "type": "function"
    },
    {
      "inputs": [],
      "name": "renounceOwnership",
      "outputs": [],
      "stateMutability": "nonpayable",
      "type": "function"
    },
    {
      "inputs": [
        {
          "internalType": "address",
          "name": "addr",
          "type": "address"
        }
      ],
      "name": "setAddressOfNFTContract",
      "outputs": [],
      "stateMutability": "nonpayable",
      "type": "function"
    },
    {
      "inputs": [
        {
          "internalType": "string",
          "name": "numString",
          "type": "string"
        }
      ],
      "name": "st2num",
      "outputs": [
        {
          "internalType": "uint256",
          "name": "",
          "type": "uint256"
        }
      ],
      "stateMutability": "pure",
      "type": "function"
    },
    {
      "inputs": [],
      "name": "symbol",
      "outputs": [
        {
          "internalType": "string",
          "name": "",
          "type": "string"
        }
      ],
      "stateMutability": "view",
      "type": "function"
    },
    {
      "inputs": [
        {
          "internalType": "bytes32",
          "name": "data",
          "type": "bytes32"
        }
      ],
      "name": "toHex",
      "outputs": [
        {
          "internalType": "string",
          "name": "",
          "type": "string"
        }
      ],
      "stateMutability": "pure",
      "type": "function"
    },
    {
      "inputs": [],
      "name": "totalSupply",
      "outputs": [
        {
          "internalType": "uint256",
          "name": "",
          "type": "uint256"
        }
      ],
      "stateMutability": "view",
      "type": "function"
    },
    {
      "inputs": [
        {
          "internalType": "address",
          "name": "to",
          "type": "address"
        },
        {
          "internalType": "uint256",
          "name": "amount",
          "type": "uint256"
        }
      ],
      "name": "transfer",
      "outputs": [
        {
          "internalType": "bool",
          "name": "",
          "type": "bool"
        }
      ],
      "stateMutability": "nonpayable",
      "type": "function"
    },
    {
      "inputs": [
        {
          "internalType": "address",
          "name": "from",
          "type": "address"
        },
        {
          "internalType": "address",
          "name": "to",
          "type": "address"
        },
        {
          "internalType": "uint256",
          "name": "amount",
          "type": "uint256"
        }
      ],
      "name": "transferFrom",
      "outputs": [
        {
          "internalType": "bool",
          "name": "",
          "type": "bool"
        }
      ],
      "stateMutability": "nonpayable",
      "type": "function"
    },
    {
      "inputs": [
        {
          "internalType": "address",
          "name": "newOwner",
          "type": "address"
        }
      ],
      "name": "transferOwnership",
      "outputs": [],
      "stateMutability": "nonpayable",
      "type": "function"
    },
    {
      "inputs": [],
      "name": "unpause",
      "outputs": [],
      "stateMutability": "nonpayable",
      "type": "function"
    }
  ],
  "bytecode": "0x608060405234801561001057600080fd5b50614620806100206000396000f3fe608060405234801561001057600080fd5b50600436106101a95760003560e01c806379cc6790116100f9578063a9059cbb11610097578063b7b9790c11610071578063b7b9790c146104d0578063c4d66de8146104ec578063dd62ed3e14610508578063f2fde38b14610538576101a9565b8063a9059cbb14610454578063acd379cc14610484578063ad045c6e146104a0576101a9565b80638da5cb5b116100d35780638da5cb5b146103b857806395d89b41146103d65780639926a6ab146103f4578063a457c2d714610424576101a9565b806379cc67901461036257806379cd90551461037e5780638456cb59146103ae576101a9565b80633f4ba83a116101665780634e07695a116101405780634e07695a146102ee5780635c975abb1461030a57806370a0823114610328578063715018a614610358576101a9565b80633f4ba83a1461029857806342966c68146102a257806349e894d8146102be576101a9565b806306fdde03146101ae578063095ea7b3146101cc57806318160ddd146101fc57806323b872dd1461021a578063313ce5671461024a5780633950935114610268575b600080fd5b6101b6610554565b6040516101c39190613676565b60405180910390f35b6101e660048036038101906101e1919061309b565b6105e6565b6040516101f39190613616565b60405180910390f35b610204610609565b6040516102119190613998565b60405180910390f35b610234600480360381019061022f919061304c565b610613565b6040516102419190613616565b60405180910390f35b610252610642565b60405161025f91906139b3565b60405180910390f35b610282600480360381019061027d919061309b565b610659565b60405161028f9190613616565b60405180910390f35b6102a0610703565b005b6102bc60048036038101906102b79190613195565b610789565b005b6102d860048036038101906102d391906130d7565b61079d565b6040516102e59190613676565b60405180910390f35b61030860048036038101906103039190612fe7565b6107dc565b005b61031261089c565b60405161031f9190613616565b60405180910390f35b610342600480360381019061033d9190612fe7565b6108b3565b60405161034f9190613998565b60405180910390f35b6103606108fc565b005b61037c6004803603810190610377919061309b565b610984565b005b61039860048036038101906103939190613154565b6109a4565b6040516103a59190613998565b60405180910390f35b6103b66109bb565b005b6103c0610a41565b6040516103cd91906135fb565b60405180910390f35b6103de610a6b565b6040516103eb9190613676565b60405180910390f35b61040e600480360381019061040991906130d7565b610afd565b60405161041b9190613616565b60405180910390f35b61043e6004803603810190610439919061309b565b610b27565b60405161044b9190613616565b60405180910390f35b61046e6004803603810190610469919061309b565b610c11565b60405161047b9190613616565b60405180910390f35b61049e60048036038101906104999190613100565b610c34565b005b6104ba60048036038101906104b59190613154565b610dea565b6040516104c79190613998565b60405180910390f35b6104ea60048036038101906104e5919061309b565b61111b565b005b61050660048036038101906105019190612fe7565b6112ee565b005b610522600480360381019061051d9190613010565b6114e5565b60405161052f9190613998565b60405180910390f35b610552600480360381019061054d9190612fe7565b61156c565b005b60606036805461056390613dbd565b80601f016020809104026020016040519081016040528092919081815260200182805461058f90613dbd565b80156105dc5780601f106105b1576101008083540402835291602001916105dc565b820191906000526020600020905b8154815290600101906020018083116105bf57829003601f168201915b5050505050905090565b6000806105f1611664565b90506105fe81858561166c565b600191505092915050565b6000603554905090565b60008061061e611664565b905061062b858285611837565b6106368585856118c3565b60019150509392505050565b600060fb60109054906101000a900460ff16905090565b600080610664611664565b90506106f8818585603460008673ffffffffffffffffffffffffffffffffffffffff1673ffffffffffffffffffffffffffffffffffffffff16815260200190815260200160002060008973ffffffffffffffffffffffffffffffffffffffff1673ffffffffffffffffffffffffffffffffffffffff168152602001908152602001600020546106f39190613a7c565b61166c565b600191505092915050565b61070b611664565b73ffffffffffffffffffffffffffffffffffffffff16610729610a41565b73ffffffffffffffffffffffffffffffffffffffff161461077f576040517f08c379a000000000000000000000000000000000000000000000000000000000815260040161077690613898565b60405180910390fd5b610787611b47565b565b61079a610794611664565b82611be9565b50565b60606107a882611dc2565b6107b5608084901b611dc2565b6040516020016107c69291906135c4565b6040516020818303038152906040529050919050565b6107e4611664565b73ffffffffffffffffffffffffffffffffffffffff16610802610a41565b73ffffffffffffffffffffffffffffffffffffffff1614610858576040517f08c379a000000000000000000000000000000000000000000000000000000000815260040161084f90613898565b60405180910390fd5b8060fc60006101000a81548173ffffffffffffffffffffffffffffffffffffffff021916908373ffffffffffffffffffffffffffffffffffffffff16021790555050565b6000609760009054906101000a900460ff16905090565b6000603360008373ffffffffffffffffffffffffffffffffffffffff1673ffffffffffffffffffffffffffffffffffffffff168152602001908152602001600020549050919050565b610904611664565b73ffffffffffffffffffffffffffffffffffffffff16610922610a41565b73ffffffffffffffffffffffffffffffffffffffff1614610978576040517f08c379a000000000000000000000000000000000000000000000000000000000815260040161096f90613898565b60405180910390fd5b6109826000612022565b565b61099682610990611664565b83611837565b6109a08282611be9565b5050565b6000806109b0836120e8565b905080915050919050565b6109c3611664565b73ffffffffffffffffffffffffffffffffffffffff166109e1610a41565b73ffffffffffffffffffffffffffffffffffffffff1614610a37576040517f08c379a0000000000000000000000000000000000000000000000000000000008152600401610a2e90613898565b60405180910390fd5b610a3f612301565b565b600060c960009054906101000a900473ffffffffffffffffffffffffffffffffffffffff16905090565b606060378054610a7a90613dbd565b80601f0160208091040260200160405190810160405280929190818152602001828054610aa690613dbd565b8015610af35780601f10610ac857610100808354040283529160200191610af3565b820191906000526020600020905b815481529060010190602001808311610ad657829003601f168201915b5050505050905090565b600060fd600083815260200190815260200160002060009054906101000a900460ff169050919050565b600080610b32611664565b90506000603460008373ffffffffffffffffffffffffffffffffffffffff1673ffffffffffffffffffffffffffffffffffffffff16815260200190815260200160002060008673ffffffffffffffffffffffffffffffffffffffff1673ffffffffffffffffffffffffffffffffffffffff16815260200190815260200160002054905083811015610bf8576040517f08c379a0000000000000000000000000000000000000000000000000000000008152600401610bef90613958565b60405180910390fd5b610c05828686840361166c565b60019250505092915050565b600080610c1c611664565b9050610c298185856118c3565b600191505092915050565b60fb60009054906101000a90046fffffffffffffffffffffffffffffffff166fffffffffffffffffffffffffffffffff16610c6d610609565b1115610cae576040517f08c379a0000000000000000000000000000000000000000000000000000000008152600401610ca5906137f8565b60405180910390fd5b610cb6610a41565b73ffffffffffffffffffffffffffffffffffffffff16610cd683836123a4565b73ffffffffffffffffffffffffffffffffffffffff1614610d2c576040517f08c379a0000000000000000000000000000000000000000000000000000000008152600401610d2390613858565b60405180910390fd5b60fd600083815260200190815260200160002060009054906101000a900460ff1615610d8d576040517f08c379a0000000000000000000000000000000000000000000000000000000008152600401610d84906136d8565b60405180910390fd5b600160fd600084815260200190815260200160002060006101000a81548160ff0219169083151502179055506000610dc48361079d565b90506000610dd182610dea565b9050610de4610dde611664565b826123cb565b50505050565b600080829050600060018251610e009190613ce8565b905060008251905060008282610e169190613ce8565b67ffffffffffffffff811115610e55577f4e487b7100000000000000000000000000000000000000000000000000000000600052604160045260246000fd5b6040519080825280601f01601f191660200182016040528015610e875781602001600182028036833780820191505090505b50905060008390505b82811015610f6257848181518110610ed1577f4e487b7100000000000000000000000000000000000000000000000000000000600052603260045260246000fd5b602001015160f81c60f81b828583610ee99190613ce8565b81518110610f20577f4e487b7100000000000000000000000000000000000000000000000000000000600052603260045260246000fd5b60200101907effffffffffffffffffffffffffffffffffffffffffffffffffffffffffffff1916908160001a9053508080610f5a90613e20565b915050610e90565b5060008190506000610f73826109a4565b90508060018751610f849190613ce8565b610f8e9190613ce8565b945060018651610f9e9190613ce8565b935060008585610fae9190613ce8565b67ffffffffffffffff811115610fed577f4e487b7100000000000000000000000000000000000000000000000000000000600052604160045260246000fd5b6040519080825280601f01601f19166020018201604052801561101f5781602001600182028036833780820191505090505b50905060008690505b858110156110fa57878181518110611069577f4e487b7100000000000000000000000000000000000000000000000000000000600052603260045260246000fd5b602001015160f81c60f81b8288836110819190613ce8565b815181106110b8577f4e487b7100000000000000000000000000000000000000000000000000000000600052603260045260246000fd5b60200101907effffffffffffffffffffffffffffffffffffffffffffffffffffffffffffff1916908160001a90535080806110f290613e20565b915050611028565b508092506000611109846109a4565b90508098505050505050505050919050565b60fc60009054906101000a900473ffffffffffffffffffffffffffffffffffffffff1673ffffffffffffffffffffffffffffffffffffffff1661115c611664565b73ffffffffffffffffffffffffffffffffffffffff16146111b2576040517f08c379a00000000000000000000000000000000000000000000000000000000081526004016111a9906138b8565b60405180910390fd5b61120481603360008573ffffffffffffffffffffffffffffffffffffffff1673ffffffffffffffffffffffffffffffffffffffff1681526020019081526020016000205461252c90919063ffffffff16565b603360008473ffffffffffffffffffffffffffffffffffffffff1673ffffffffffffffffffffffffffffffffffffffff168152602001908152602001600020819055506112a08160336000611257610a41565b73ffffffffffffffffffffffffffffffffffffffff1673ffffffffffffffffffffffffffffffffffffffff1681526020019081526020016000205461254290919063ffffffff16565b603360006112ac610a41565b73ffffffffffffffffffffffffffffffffffffffff1673ffffffffffffffffffffffffffffffffffffffff168152602001908152602001600020819055505050565b600060019054906101000a900460ff166113165760008054906101000a900460ff161561131f565b61131e612558565b5b61135e576040517f08c379a000000000000000000000000000000000000000000000000000000000815260040161135590613838565b60405180910390fd5b60008060019054906101000a900460ff1615905080156113ae576001600060016101000a81548160ff02191690831515021790555060016000806101000a81548160ff0219169083151502179055505b6114226040518060400160405280600a81526020017f50726f6d65746869756d000000000000000000000000000000000000000000008152506040518060400160405280600381526020017f50524d0000000000000000000000000000000000000000000000000000000000815250612569565b61142a6125c6565b611432612617565b61143a612670565b600660fb60106101000a81548160ff021916908360ff160217905550651319718a500060fb60006101000a8154816fffffffffffffffffffffffffffffffff02191690836fffffffffffffffffffffffffffffffff1602179055506114c0826114a1610642565b600a6114ad9190613b70565b620186a06114bb9190613c8e565b6123cb565b80156114e15760008060016101000a81548160ff0219169083151502179055505b5050565b6000603460008473ffffffffffffffffffffffffffffffffffffffff1673ffffffffffffffffffffffffffffffffffffffff16815260200190815260200160002060008373ffffffffffffffffffffffffffffffffffffffff1673ffffffffffffffffffffffffffffffffffffffff16815260200190815260200160002054905092915050565b611574611664565b73ffffffffffffffffffffffffffffffffffffffff16611592610a41565b73ffffffffffffffffffffffffffffffffffffffff16146115e8576040517f08c379a00000000000000000000000000000000000000000000000000000000081526004016115df90613898565b60405180910390fd5b600073ffffffffffffffffffffffffffffffffffffffff168173ffffffffffffffffffffffffffffffffffffffff161415611658576040517f08c379a000000000000000000000000000000000000000000000000000000000815260040161164f90613758565b60405180910390fd5b61166181612022565b50565b600033905090565b600073ffffffffffffffffffffffffffffffffffffffff168373ffffffffffffffffffffffffffffffffffffffff1614156116dc576040517f08c379a00000000000000000000000000000000000000000000000000000000081526004016116d390613918565b60405180910390fd5b600073ffffffffffffffffffffffffffffffffffffffff168273ffffffffffffffffffffffffffffffffffffffff16141561174c576040517f08c379a000000000000000000000000000000000000000000000000000000000815260040161174390613778565b60405180910390fd5b80603460008573ffffffffffffffffffffffffffffffffffffffff1673ffffffffffffffffffffffffffffffffffffffff16815260200190815260200160002060008473ffffffffffffffffffffffffffffffffffffffff1673ffffffffffffffffffffffffffffffffffffffff168152602001908152602001600020819055508173ffffffffffffffffffffffffffffffffffffffff168373ffffffffffffffffffffffffffffffffffffffff167f8c5be1e5ebec7d5bd14f71427d1e84f3dd0314c0f7b2291e5b200ac8c7c3b9258360405161182a9190613998565b60405180910390a3505050565b600061184384846114e5565b90507fffffffffffffffffffffffffffffffffffffffffffffffffffffffffffffffff81146118bd57818110156118af576040517f08c379a00000000000000000000000000000000000000000000000000000000081526004016118a690613798565b60405180910390fd5b6118bc848484840361166c565b5b50505050565b600073ffffffffffffffffffffffffffffffffffffffff168373ffffffffffffffffffffffffffffffffffffffff161415611933576040517f08c379a000000000000000000000000000000000000000000000000000000000815260040161192a906138f8565b60405180910390fd5b600073ffffffffffffffffffffffffffffffffffffffff168273ffffffffffffffffffffffffffffffffffffffff1614156119a3576040517f08c379a000000000000000000000000000000000000000000000000000000000815260040161199a906136b8565b60405180910390fd5b6119ae8383836126c9565b6000603360008573ffffffffffffffffffffffffffffffffffffffff1673ffffffffffffffffffffffffffffffffffffffff16815260200190815260200160002054905081811015611a35576040517f08c379a0000000000000000000000000000000000000000000000000000000008152600401611a2c906137b8565b60405180910390fd5b818103603360008673ffffffffffffffffffffffffffffffffffffffff1673ffffffffffffffffffffffffffffffffffffffff1681526020019081526020016000208190555081603360008573ffffffffffffffffffffffffffffffffffffffff1673ffffffffffffffffffffffffffffffffffffffff1681526020019081526020016000206000828254611aca9190613a7c565b925050819055508273ffffffffffffffffffffffffffffffffffffffff168473ffffffffffffffffffffffffffffffffffffffff167fddf252ad1be2c89b69c2b068fc378daa952ba7f163c4a11628f55a4df523b3ef84604051611b2e9190613998565b60405180910390a3611b41848484612721565b50505050565b611b4f61089c565b611b8e576040517f08c379a0000000000000000000000000000000000000000000000000000000008152600401611b85906136f8565b60405180910390fd5b6000609760006101000a81548160ff0219169083151502179055507f5db9ee0a495bf2e6ff9c91a7834c1ba4fdd244a5e8aa4e537bd38aeae4b073aa611bd2611664565b604051611bdf91906135fb565b60405180910390a1565b600073ffffffffffffffffffffffffffffffffffffffff168273ffffffffffffffffffffffffffffffffffffffff161415611c59576040517f08c379a0000000000000000000000000000000000000000000000000000000008152600401611c50906138d8565b60405180910390fd5b611c65826000836126c9565b6000603360008473ffffffffffffffffffffffffffffffffffffffff1673ffffffffffffffffffffffffffffffffffffffff16815260200190815260200160002054905081811015611cec576040517f08c379a0000000000000000000000000000000000000000000000000000000008152600401611ce390613718565b60405180910390fd5b818103603360008573ffffffffffffffffffffffffffffffffffffffff1673ffffffffffffffffffffffffffffffffffffffff168152602001908152602001600020819055508160356000828254611d449190613ce8565b92505081905550600073ffffffffffffffffffffffffffffffffffffffff168373ffffffffffffffffffffffffffffffffffffffff167fddf252ad1be2c89b69c2b068fc378daa952ba7f163c4a11628f55a4df523b3ef84604051611da99190613998565b60405180910390a3611dbd83600084612721565b505050565b6000604077ffffffffffffffff0000000000000000000000000000000060001b836fffffffffffffffffffffffffffffffff191616901c7fffffffffffffffff00000000000000000000000000000000000000000000000060001b836fffffffffffffffffffffffffffffffff19161617905060207bffffffff000000000000000000000000ffffffff000000000000000060001b8216901c7fffffffff000000000000000000000000ffffffff00000000000000000000000060001b821617905060107dffff000000000000ffff000000000000ffff000000000000ffff0000000060001b8216901c7fffff000000000000ffff000000000000ffff000000000000ffff00000000000060001b821617905060087eff000000ff000000ff000000ff000000ff000000ff000000ff000000ff000060001b8216901c7fff000000ff000000ff000000ff000000ff000000ff000000ff000000ff00000060001b821617905060087f0f000f000f000f000f000f000f000f000f000f000f000f000f000f000f000f0060001b8216901c60047ff000f000f000f000f000f000f000f000f000f000f000f000f000f000f000f00060001b8316901c17905060077f0f0f0f0f0f0f0f0f0f0f0f0f0f0f0f0f0f0f0f0f0f0f0f0f0f0f0f0f0f0f0f0f60047f06060606060606060606060606060606060606060606060606060606060606068460001c611fd29190613a7c565b901c16611fdf9190613c8e565b8160001c7f303030303030303030303030303030303030303030303030303030303030303061200e9190613a7c565b6120189190613a7c565b60001b9050919050565b600060c960009054906101000a900473ffffffffffffffffffffffffffffffffffffffff1690508160c960006101000a81548173ffffffffffffffffffffffffffffffffffffffff021916908373ffffffffffffffffffffffffffffffffffffffff1602179055508173ffffffffffffffffffffffffffffffffffffffff168173ffffffffffffffffffffffffffffffffffffffff167f8be0079c531659141344cd1fd0a4f28419497f9722a3daafe3b4186f6b6457e060405160405180910390a35050565b6000806000905061212e836040518060400160405280600181526020017f4100000000000000000000000000000000000000000000000000000000000000815250612726565b1561213d57600a9150506122fc565b61217c836040518060400160405280600181526020017f4200000000000000000000000000000000000000000000000000000000000000815250612726565b1561218b57600b9150506122fc565b6121ca836040518060400160405280600181526020017f4300000000000000000000000000000000000000000000000000000000000000815250612726565b156121d957600c9150506122fc565b612218836040518060400160405280600181526020017f4400000000000000000000000000000000000000000000000000000000000000815250612726565b1561222757600d9150506122fc565b600083905060005b81518110156122f55760008183516122479190613ce8565b90506000838381518110612284577f4e487b7100000000000000000000000000000000000000000000000000000000600052603260045260246000fd5b602001015160f81c60f81b905060008160f81c9050600060308260ff166122ab9190613ce8565b90506001846122ba9190613ce8565b600a6122c69190613b25565b816122d19190613c8e565b876122dc9190613a7c565b96505050505080806122ed90613e20565b91505061222f565b5050809150505b919050565b61230961089c565b15612349576040517f08c379a000000000000000000000000000000000000000000000000000000000815260040161234090613818565b60405180910390fd5b6001609760006101000a81548160ff0219169083151502179055507f62e78cea01bee320cd4e420270b5ea74000d11b0c9f74754ebdbfc544b05a25861238d611664565b60405161239a91906135fb565b60405180910390a1565b60008060006123b3858561277f565b915091506123c081612802565b819250505092915050565b600073ffffffffffffffffffffffffffffffffffffffff168273ffffffffffffffffffffffffffffffffffffffff16141561243b576040517f08c379a000000000000000000000000000000000000000000000000000000000815260040161243290613978565b60405180910390fd5b612447600083836126c9565b80603560008282546124599190613a7c565b9250508190555080603360008473ffffffffffffffffffffffffffffffffffffffff1673ffffffffffffffffffffffffffffffffffffffff16815260200190815260200160002060008282546124af9190613a7c565b925050819055508173ffffffffffffffffffffffffffffffffffffffff16600073ffffffffffffffffffffffffffffffffffffffff167fddf252ad1be2c89b69c2b068fc378daa952ba7f163c4a11628f55a4df523b3ef836040516125149190613998565b60405180910390a361252860008383612721565b5050565b6000818361253a9190613ce8565b905092915050565b600081836125509190613a7c565b905092915050565b600061256330612b53565b15905090565b600060019054906101000a900460ff166125b8576040517f08c379a00000000000000000000000000000000000000000000000000000000081526004016125af90613938565b60405180910390fd5b6125c28282612b76565b5050565b600060019054906101000a900460ff16612615576040517f08c379a000000000000000000000000000000000000000000000000000000000815260040161260c90613938565b60405180910390fd5b565b600060019054906101000a900460ff16612666576040517f08c379a000000000000000000000000000000000000000000000000000000000815260040161265d90613938565b60405180910390fd5b61266e612bf7565b565b600060019054906101000a900460ff166126bf576040517f08c379a00000000000000000000000000000000000000000000000000000000081526004016126b690613938565b60405180910390fd5b6126c7612c63565b565b6126d161089c565b15612711576040517f08c379a000000000000000000000000000000000000000000000000000000000815260040161270890613818565b60405180910390fd5b61271c838383612cc4565b505050565b505050565b6000816040516020016127399190613676565b60405160208183030381529060405280519060200120836040516020016127609190613676565b6040516020818303038152906040528051906020012014905092915050565b6000806041835114156127c15760008060006020860151925060408601519150606086015160001a90506127b587828585612cc9565b945094505050506127fb565b6040835114156127f25760008060208501519150604085015190506127e7868383612dd6565b9350935050506127fb565b60006002915091505b9250929050565b6000600481111561283c577f4e487b7100000000000000000000000000000000000000000000000000000000600052602160045260246000fd5b816004811115612875577f4e487b7100000000000000000000000000000000000000000000000000000000600052602160045260246000fd5b141561288057612b50565b600160048111156128ba577f4e487b7100000000000000000000000000000000000000000000000000000000600052602160045260246000fd5b8160048111156128f3577f4e487b7100000000000000000000000000000000000000000000000000000000600052602160045260246000fd5b1415612934576040517f08c379a000000000000000000000000000000000000000000000000000000000815260040161292b90613698565b60405180910390fd5b6002600481111561296e577f4e487b7100000000000000000000000000000000000000000000000000000000600052602160045260246000fd5b8160048111156129a7577f4e487b7100000000000000000000000000000000000000000000000000000000600052602160045260246000fd5b14156129e8576040517f08c379a00000000000000000000000000000000000000000000000000000000081526004016129df90613738565b60405180910390fd5b60036004811115612a22577f4e487b7100000000000000000000000000000000000000000000000000000000600052602160045260246000fd5b816004811115612a5b577f4e487b7100000000000000000000000000000000000000000000000000000000600052602160045260246000fd5b1415612a9c576040517f08c379a0000000000000000000000000000000000000000000000000000000008152600401612a93906137d8565b60405180910390fd5b600480811115612ad5577f4e487b7100000000000000000000000000000000000000000000000000000000600052602160045260246000fd5b816004811115612b0e577f4e487b7100000000000000000000000000000000000000000000000000000000600052602160045260246000fd5b1415612b4f576040517f08c379a0000000000000000000000000000000000000000000000000000000008152600401612b4690613878565b60405180910390fd5b5b50565b6000808273ffffffffffffffffffffffffffffffffffffffff163b119050919050565b600060019054906101000a900460ff16612bc5576040517f08c379a0000000000000000000000000000000000000000000000000000000008152600401612bbc90613938565b60405180910390fd5b8160369080519060200190612bdb929190612e35565b508060379080519060200190612bf2929190612e35565b505050565b600060019054906101000a900460ff16612c46576040517f08c379a0000000000000000000000000000000000000000000000000000000008152600401612c3d90613938565b60405180910390fd5b6000609760006101000a81548160ff021916908315150217905550565b600060019054906101000a900460ff16612cb2576040517f08c379a0000000000000000000000000000000000000000000000000000000008152600401612ca990613938565b60405180910390fd5b612cc2612cbd611664565b612022565b565b505050565b6000807f7fffffffffffffffffffffffffffffff5d576e7357a4501ddfe92f46681b20a08360001c1115612d04576000600391509150612dcd565b601b8560ff1614158015612d1c5750601c8560ff1614155b15612d2e576000600491509150612dcd565b600060018787878760405160008152602001604052604051612d539493929190613631565b6020604051602081039080840390855afa158015612d75573d6000803e3d6000fd5b505050602060405103519050600073ffffffffffffffffffffffffffffffffffffffff168173ffffffffffffffffffffffffffffffffffffffff161415612dc457600060019250925050612dcd565b80600092509250505b94509492505050565b60008060007f7fffffffffffffffffffffffffffffffffffffffffffffffffffffffffffffff60001b841690506000601b60ff8660001c901c612e199190613a7c565b9050612e2787828885612cc9565b935093505050935093915050565b828054612e4190613dbd565b90600052602060002090601f016020900481019282612e635760008555612eaa565b82601f10612e7c57805160ff1916838001178555612eaa565b82800160010185558215612eaa579182015b82811115612ea9578251825591602001919060010190612e8e565b5b509050612eb79190612ebb565b5090565b5b80821115612ed4576000816000905550600101612ebc565b5090565b6000612eeb612ee6846139f3565b6139ce565b905082815260208101848484011115612f0357600080fd5b612f0e848285613d7b565b509392505050565b6000612f29612f2484613a24565b6139ce565b905082815260208101848484011115612f4157600080fd5b612f4c848285613d7b565b509392505050565b600081359050612f63816145a5565b92915050565b600081359050612f78816145bc565b92915050565b600082601f830112612f8f57600080fd5b8135612f9f848260208601612ed8565b91505092915050565b600082601f830112612fb957600080fd5b8135612fc9848260208601612f16565b91505092915050565b600081359050612fe1816145d3565b92915050565b600060208284031215612ff957600080fd5b600061300784828501612f54565b91505092915050565b6000806040838503121561302357600080fd5b600061303185828601612f54565b925050602061304285828601612f54565b9150509250929050565b60008060006060848603121561306157600080fd5b600061306f86828701612f54565b935050602061308086828701612f54565b925050604061309186828701612fd2565b9150509250925092565b600080604083850312156130ae57600080fd5b60006130bc85828601612f54565b92505060206130cd85828601612fd2565b9150509250929050565b6000602082840312156130e957600080fd5b60006130f784828501612f69565b91505092915050565b6000806040838503121561311357600080fd5b600061312185828601612f69565b925050602083013567ffffffffffffffff81111561313e57600080fd5b61314a85828601612f7e565b9150509250929050565b60006020828403121561316657600080fd5b600082013567ffffffffffffffff81111561318057600080fd5b61318c84828501612fa8565b91505092915050565b6000602082840312156131a757600080fd5b60006131b584828501612fd2565b91505092915050565b6131c781613d1c565b82525050565b6131d681613d2e565b82525050565b6131e581613d3a565b82525050565b6131fc6131f782613d3a565b613e69565b82525050565b600061320d82613a55565b6132178185613a60565b9350613227818560208601613d8a565b61323081613f00565b840191505092915050565b6000613248601883613a60565b915061325382613f1e565b602082019050919050565b600061326b602383613a60565b915061327682613f47565b604082019050919050565b600061328e601e83613a60565b915061329982613f96565b602082019050919050565b60006132b1601483613a60565b91506132bc82613fbf565b602082019050919050565b60006132d4602283613a60565b91506132df82613fe8565b604082019050919050565b60006132f7601f83613a60565b915061330282614037565b602082019050919050565b600061331a602683613a60565b915061332582614060565b604082019050919050565b600061333d602283613a60565b9150613348826140af565b604082019050919050565b6000613360600283613a71565b915061336b826140fe565b600282019050919050565b6000613383601d83613a60565b915061338e82614127565b602082019050919050565b60006133a6602683613a60565b91506133b182614150565b604082019050919050565b60006133c9602283613a60565b91506133d48261419f565b604082019050919050565b60006133ec602983613a60565b91506133f7826141ee565b604082019050919050565b600061340f601083613a60565b915061341a8261423d565b602082019050919050565b6000613432602e83613a60565b915061343d82614266565b604082019050919050565b6000613455602583613a60565b9150613460826142b5565b604082019050919050565b6000613478602283613a60565b915061348382614304565b604082019050919050565b600061349b602083613a60565b91506134a682614353565b602082019050919050565b60006134be604283613a60565b91506134c98261437c565b606082019050919050565b60006134e1602183613a60565b91506134ec826143f1565b604082019050919050565b6000613504602583613a60565b915061350f82614440565b604082019050919050565b6000613527602483613a60565b91506135328261448f565b604082019050919050565b600061354a602b83613a60565b9150613555826144de565b604082019050919050565b600061356d602583613a60565b91506135788261452d565b604082019050919050565b6000613590601f83613a60565b915061359b8261457c565b602082019050919050565b6135af81613d64565b82525050565b6135be81613d6e565b82525050565b60006135cf82613353565b91506135db82856131eb565b6020820191506135eb82846131eb565b6020820191508190509392505050565b600060208201905061361060008301846131be565b92915050565b600060208201905061362b60008301846131cd565b92915050565b600060808201905061364660008301876131dc565b61365360208301866135b5565b61366060408301856131dc565b61366d60608301846131dc565b95945050505050565b600060208201905081810360008301526136908184613202565b905092915050565b600060208201905081810360008301526136b18161323b565b9050919050565b600060208201905081810360008301526136d18161325e565b9050919050565b600060208201905081810360008301526136f181613281565b9050919050565b60006020820190508181036000830152613711816132a4565b9050919050565b60006020820190508181036000830152613731816132c7565b9050919050565b60006020820190508181036000830152613751816132ea565b9050919050565b600060208201905081810360008301526137718161330d565b9050919050565b6000602082019050818103600083015261379181613330565b9050919050565b600060208201905081810360008301526137b181613376565b9050919050565b600060208201905081810360008301526137d181613399565b9050919050565b600060208201905081810360008301526137f1816133bc565b9050919050565b60006020820190508181036000830152613811816133df565b9050919050565b6000602082019050818103600083015261383181613402565b9050919050565b6000602082019050818103600083015261385181613425565b9050919050565b6000602082019050818103600083015261387181613448565b9050919050565b600060208201905081810360008301526138918161346b565b9050919050565b600060208201905081810360008301526138b18161348e565b9050919050565b600060208201905081810360008301526138d1816134b1565b9050919050565b600060208201905081810360008301526138f1816134d4565b9050919050565b60006020820190508181036000830152613911816134f7565b9050919050565b600060208201905081810360008301526139318161351a565b9050919050565b600060208201905081810360008301526139518161353d565b9050919050565b6000602082019050818103600083015261397181613560565b9050919050565b6000602082019050818103600083015261399181613583565b9050919050565b60006020820190506139ad60008301846135a6565b92915050565b60006020820190506139c860008301846135b5565b92915050565b60006139d86139e9565b90506139e48282613def565b919050565b6000604051905090565b600067ffffffffffffffff821115613a0e57613a0d613ed1565b5b613a1782613f00565b9050602081019050919050565b600067ffffffffffffffff821115613a3f57613a3e613ed1565b5b613a4882613f00565b9050602081019050919050565b600081519050919050565b600082825260208201905092915050565b600081905092915050565b6000613a8782613d64565b9150613a9283613d64565b9250827fffffffffffffffffffffffffffffffffffffffffffffffffffffffffffffffff03821115613ac757613ac6613e73565b5b828201905092915050565b6000808291508390505b6001851115613b1c57808604811115613af857613af7613e73565b5b6001851615613b075780820291505b8081029050613b1585613f11565b9450613adc565b94509492505050565b6000613b3082613d64565b9150613b3b83613d64565b9250613b687fffffffffffffffffffffffffffffffffffffffffffffffffffffffffffffffff8484613bbb565b905092915050565b6000613b7b82613d64565b9150613b8683613d6e565b9250613bb37fffffffffffffffffffffffffffffffffffffffffffffffffffffffffffffffff8484613bbb565b905092915050565b600082613bcb5760019050613c87565b81613bd95760009050613c87565b8160018114613bef5760028114613bf957613c28565b6001915050613c87565b60ff841115613c0b57613c0a613e73565b5b8360020a915084821115613c2257613c21613e73565b5b50613c87565b5060208310610133831016604e8410600b8410161715613c5d5782820a905083811115613c5857613c57613e73565b5b613c87565b613c6a8484846001613ad2565b92509050818404811115613c8157613c80613e73565b5b81810290505b9392505050565b6000613c9982613d64565b9150613ca483613d64565b9250817fffffffffffffffffffffffffffffffffffffffffffffffffffffffffffffffff0483118215151615613cdd57613cdc613e73565b5b828202905092915050565b6000613cf382613d64565b9150613cfe83613d64565b925082821015613d1157613d10613e73565b5b828203905092915050565b6000613d2782613d44565b9050919050565b60008115159050919050565b6000819050919050565b600073ffffffffffffffffffffffffffffffffffffffff82169050919050565b6000819050919050565b600060ff82169050919050565b82818337600083830152505050565b60005b83811015613da8578082015181840152602081019050613d8d565b83811115613db7576000848401525b50505050565b60006002820490506001821680613dd557607f821691505b60208210811415613de957613de8613ea2565b5b50919050565b613df882613f00565b810181811067ffffffffffffffff82111715613e1757613e16613ed1565b5b80604052505050565b6000613e2b82613d64565b91507fffffffffffffffffffffffffffffffffffffffffffffffffffffffffffffffff821415613e5e57613e5d613e73565b5b600182019050919050565b6000819050919050565b7f4e487b7100000000000000000000000000000000000000000000000000000000600052601160045260246000fd5b7f4e487b7100000000000000000000000000000000000000000000000000000000600052602260045260246000fd5b7f4e487b7100000000000000000000000000000000000000000000000000000000600052604160045260246000fd5b6000601f19601f8301169050919050565b60008160011c9050919050565b7f45434453413a20696e76616c6964207369676e61747572650000000000000000600082015250565b7f45524332303a207472616e7366657220746f20746865207a65726f206164647260008201527f6573730000000000000000000000000000000000000000000000000000000000602082015250565b7f5468697320636f64652077617320616c72656164792072656465656d65640000600082015250565b7f5061757361626c653a206e6f7420706175736564000000000000000000000000600082015250565b7f45524332303a206275726e20616d6f756e7420657863656564732062616c616e60008201527f6365000000000000000000000000000000000000000000000000000000000000602082015250565b7f45434453413a20696e76616c6964207369676e6174757265206c656e67746800600082015250565b7f4f776e61626c653a206e6577206f776e657220697320746865207a65726f206160008201527f6464726573730000000000000000000000000000000000000000000000000000602082015250565b7f45524332303a20617070726f766520746f20746865207a65726f20616464726560008201527f7373000000000000000000000000000000000000000000000000000000000000602082015250565b7f3078000000000000000000000000000000000000000000000000000000000000600082015250565b7f45524332303a20696e73756666696369656e7420616c6c6f77616e6365000000600082015250565b7f45524332303a207472616e7366657220616d6f756e742065786365656473206260008201527f616c616e63650000000000000000000000000000000000000000000000000000602082015250565b7f45434453413a20696e76616c6964207369676e6174757265202773272076616c60008201527f7565000000000000000000000000000000000000000000000000000000000000602082015250565b7f546f6b656e732063616e6e6f74206d696e74656420616e796d6f72652c20636160008201527f7020726561636865640000000000000000000000000000000000000000000000602082015250565b7f5061757361626c653a2070617573656400000000000000000000000000000000600082015250565b7f496e697469616c697a61626c653a20636f6e747261637420697320616c72656160008201527f647920696e697469616c697a6564000000000000000000000000000000000000602082015250565b7f54686973206d696e7420776173206e6f74207369676e6564206279207468652060008201527f6f776e6572000000000000000000000000000000000000000000000000000000602082015250565b7f45434453413a20696e76616c6964207369676e6174757265202776272076616c60008201527f7565000000000000000000000000000000000000000000000000000000000000602082015250565b7f4f776e61626c653a2063616c6c6572206973206e6f7420746865206f776e6572600082015250565b7f546869732066756e6374696f6e2063616e206f6e6c792062652063616c6c656460008201527f2062792074686520736d61727420636f6e7472616374206f6620746865204e4660208201527f5473000000000000000000000000000000000000000000000000000000000000604082015250565b7f45524332303a206275726e2066726f6d20746865207a65726f2061646472657360008201527f7300000000000000000000000000000000000000000000000000000000000000602082015250565b7f45524332303a207472616e736665722066726f6d20746865207a65726f20616460008201527f6472657373000000000000000000000000000000000000000000000000000000602082015250565b7f45524332303a20617070726f76652066726f6d20746865207a65726f2061646460008201527f7265737300000000000000000000000000000000000000000000000000000000602082015250565b7f496e697469616c697a61626c653a20636f6e7472616374206973206e6f74206960008201527f6e697469616c697a696e67000000000000000000000000000000000000000000602082015250565b7f45524332303a2064656372656173656420616c6c6f77616e63652062656c6f7760008201527f207a65726f000000000000000000000000000000000000000000000000000000602082015250565b7f45524332303a206d696e7420746f20746865207a65726f206164647265737300600082015250565b6145ae81613d1c565b81146145b957600080fd5b50565b6145c581613d3a565b81146145d057600080fd5b50565b6145dc81613d64565b81146145e757600080fd5b5056fea2646970667358221220bc540544f379a3c616e0768c8c4d89f989ef6890d99dcfb2b154d233f8d3b65a64736f6c63430008020033",
  "linkReferences": {},
  "deployedLinkReferences": {}
}