{
  "_format": "hh-sol-artifact-1",
  "contractName": "Promethium",
  "sourceName": "contracts/Promethium.sol",
  "abi": [
    {
      "anonymous": false,
      "inputs": [
        {
          "indexed": true,
          "internalType": "address",
          "name": "owner",
          "type": "address"
        },
        {
          "indexed": true,
          "internalType": "address",
          "name": "spender",
          "type": "address"
        },
        {
          "indexed": false,
          "internalType": "uint256",
          "name": "value",
          "type": "uint256"
        }
      ],
      "name": "Approval",
      "type": "event"
    },
    {
      "anonymous": false,
      "inputs": [
        {
          "indexed": true,
          "internalType": "address",
          "name": "previousOwner",
          "type": "address"
        },
        {
          "indexed": true,
          "internalType": "address",
          "name": "newOwner",
          "type": "address"
        }
      ],
      "name": "OwnershipTransferred",
      "type": "event"
    },
    {
      "anonymous": false,
      "inputs": [
        {
          "indexed": false,
          "internalType": "address",
          "name": "account",
          "type": "address"
        }
      ],
      "name": "Paused",
      "type": "event"
    },
    {
      "anonymous": false,
      "inputs": [
        {
          "indexed": true,
          "internalType": "address",
          "name": "from",
          "type": "address"
        },
        {
          "indexed": true,
          "internalType": "address",
          "name": "to",
          "type": "address"
        },
        {
          "indexed": false,
          "internalType": "uint256",
          "name": "value",
          "type": "uint256"
        }
      ],
      "name": "Transfer",
      "type": "event"
    },
    {
      "anonymous": false,
      "inputs": [
        {
          "indexed": false,
          "internalType": "address",
          "name": "account",
          "type": "address"
        }
      ],
      "name": "Unpaused",
      "type": "event"
    },
    {
      "inputs": [
        {
          "internalType": "address",
          "name": "owner",
          "type": "address"
        },
        {
          "internalType": "address",
          "name": "spender",
          "type": "address"
        }
      ],
      "name": "allowance",
      "outputs": [
        {
          "internalType": "uint256",
          "name": "",
          "type": "uint256"
        }
      ],
      "stateMutability": "view",
      "type": "function"
    },
    {
      "inputs": [
        {
          "internalType": "address",
          "name": "spender",
          "type": "address"
        },
        {
          "internalType": "uint256",
          "name": "amount",
          "type": "uint256"
        }
      ],
      "name": "approve",
      "outputs": [
        {
          "internalType": "bool",
          "name": "",
          "type": "bool"
        }
      ],
      "stateMutability": "nonpayable",
      "type": "function"
    },
    {
      "inputs": [
        {
          "internalType": "address",
          "name": "account",
          "type": "address"
        }
      ],
      "name": "balanceOf",
      "outputs": [
        {
          "internalType": "uint256",
          "name": "",
          "type": "uint256"
        }
      ],
      "stateMutability": "view",
      "type": "function"
    },
    {
      "inputs": [
        {
          "internalType": "uint256",
          "name": "amount",
          "type": "uint256"
        }
      ],
      "name": "burn",
      "outputs": [],
      "stateMutability": "nonpayable",
      "type": "function"
    },
    {
      "inputs": [
        {
          "internalType": "address",
          "name": "account",
          "type": "address"
        },
        {
          "internalType": "uint256",
          "name": "amount",
          "type": "uint256"
        }
      ],
      "name": "burnFrom",
      "outputs": [],
      "stateMutability": "nonpayable",
      "type": "function"
    },
    {
      "inputs": [],
      "name": "decimals",
      "outputs": [
        {
          "internalType": "uint8",
          "name": "",
          "type": "uint8"
        }
      ],
      "stateMutability": "view",
      "type": "function"
    },
    {
      "inputs": [
        {
          "internalType": "address",
          "name": "spender",
          "type": "address"
        },
        {
          "internalType": "uint256",
          "name": "subtractedValue",
          "type": "uint256"
        }
      ],
      "name": "decreaseAllowance",
      "outputs": [
        {
          "internalType": "bool",
          "name": "",
          "type": "bool"
        }
      ],
      "stateMutability": "nonpayable",
      "type": "function"
    },
    {
      "inputs": [
        {
          "internalType": "string",
          "name": "str",
          "type": "string"
        }
      ],
      "name": "extractNumberOfTokensFromHash",
      "outputs": [
        {
          "internalType": "uint256",
          "name": "",
          "type": "uint256"
        }
      ],
      "stateMutability": "pure",
      "type": "function"
    },
    {
      "inputs": [
        {
          "internalType": "address",
          "name": "spender",
          "type": "address"
        },
        {
          "internalType": "uint256",
          "name": "addedValue",
          "type": "uint256"
        }
      ],
      "name": "increaseAllowance",
      "outputs": [
        {
          "internalType": "bool",
          "name": "",
          "type": "bool"
        }
      ],
      "stateMutability": "nonpayable",
      "type": "function"
    },
    {
      "inputs": [],
      "name": "initialize",
      "outputs": [],
      "stateMutability": "nonpayable",
      "type": "function"
    },
    {
      "inputs": [
        {
          "internalType": "bytes32",
          "name": "_hash",
          "type": "bytes32"
        }
      ],
      "name": "isCodeValid",
      "outputs": [
        {
          "internalType": "bool",
          "name": "",
          "type": "bool"
        }
      ],
      "stateMutability": "view",
      "type": "function"
    },
    {
      "inputs": [
        {
          "internalType": "address",
          "name": "to",
          "type": "address"
        },
        {
          "internalType": "uint256",
          "name": "amount",
          "type": "uint256"
        }
      ],
      "name": "mint",
      "outputs": [],
      "stateMutability": "nonpayable",
      "type": "function"
    },
    {
      "inputs": [],
      "name": "name",
      "outputs": [
        {
          "internalType": "string",
          "name": "",
          "type": "string"
        }
      ],
      "stateMutability": "view",
      "type": "function"
    },
    {
      "inputs": [],
      "name": "owner",
      "outputs": [
        {
          "internalType": "address",
          "name": "",
          "type": "address"
        }
      ],
      "stateMutability": "view",
      "type": "function"
    },
    {
      "inputs": [],
      "name": "pause",
      "outputs": [],
      "stateMutability": "nonpayable",
      "type": "function"
    },
    {
      "inputs": [],
      "name": "paused",
      "outputs": [
        {
          "internalType": "bool",
          "name": "",
          "type": "bool"
        }
      ],
      "stateMutability": "view",
      "type": "function"
    },
    {
      "inputs": [
        {
          "internalType": "address",
          "name": "origin",
          "type": "address"
        },
        {
          "internalType": "uint256",
          "name": "value",
          "type": "uint256"
        }
      ],
      "name": "receiveTokensFromNFTMint",
      "outputs": [],
      "stateMutability": "nonpayable",
      "type": "function"
    },
    {
      "inputs": [],
      "name": "renounceOwnership",
      "outputs": [],
      "stateMutability": "nonpayable",
      "type": "function"
    },
    {
      "inputs": [
        {
          "internalType": "address",
          "name": "addr",
          "type": "address"
        }
      ],
      "name": "setAddressOfNFTContract",
      "outputs": [],
      "stateMutability": "nonpayable",
      "type": "function"
    },
    {
      "inputs": [
        {
          "internalType": "string",
          "name": "numString",
          "type": "string"
        }
      ],
      "name": "st2num",
      "outputs": [
        {
          "internalType": "uint256",
          "name": "",
          "type": "uint256"
        }
      ],
      "stateMutability": "pure",
      "type": "function"
    },
    {
      "inputs": [],
      "name": "symbol",
      "outputs": [
        {
          "internalType": "string",
          "name": "",
          "type": "string"
        }
      ],
      "stateMutability": "view",
      "type": "function"
    },
    {
      "inputs": [
        {
          "internalType": "bytes32",
          "name": "data",
          "type": "bytes32"
        }
      ],
      "name": "toHex",
      "outputs": [
        {
          "internalType": "string",
          "name": "",
          "type": "string"
        }
      ],
      "stateMutability": "pure",
      "type": "function"
    },
    {
      "inputs": [],
      "name": "totalSupply",
      "outputs": [
        {
          "internalType": "uint256",
          "name": "",
          "type": "uint256"
        }
      ],
      "stateMutability": "view",
      "type": "function"
    },
    {
      "inputs": [
        {
          "internalType": "address",
          "name": "to",
          "type": "address"
        },
        {
          "internalType": "uint256",
          "name": "amount",
          "type": "uint256"
        }
      ],
      "name": "transfer",
      "outputs": [
        {
          "internalType": "bool",
          "name": "",
          "type": "bool"
        }
      ],
      "stateMutability": "nonpayable",
      "type": "function"
    },
    {
      "inputs": [
        {
          "internalType": "address",
          "name": "from",
          "type": "address"
        },
        {
          "internalType": "address",
          "name": "to",
          "type": "address"
        },
        {
          "internalType": "uint256",
          "name": "amount",
          "type": "uint256"
        }
      ],
      "name": "transferFrom",
      "outputs": [
        {
          "internalType": "bool",
          "name": "",
          "type": "bool"
        }
      ],
      "stateMutability": "nonpayable",
      "type": "function"
    },
    {
      "inputs": [
        {
          "internalType": "address",
          "name": "newOwner",
          "type": "address"
        }
      ],
      "name": "transferOwnership",
      "outputs": [],
      "stateMutability": "nonpayable",
      "type": "function"
    },
    {
      "inputs": [],
      "name": "unpause",
      "outputs": [],
      "stateMutability": "nonpayable",
      "type": "function"
    }
  ],
  "bytecode": "0x608060405234801561001057600080fd5b50613aad806100206000396000f3fe608060405234801561001057600080fd5b50600436106101a95760003560e01c8063715018a6116100f95780639926a6ab11610097578063ad045c6e11610071578063ad045c6e146104aa578063b7b9790c146104da578063dd62ed3e146104f6578063f2fde38b14610526576101a9565b80639926a6ab1461041a578063a457c2d71461044a578063a9059cbb1461047a576101a9565b80638129fc1c116100d35780638129fc1c146103ca5780638456cb59146103d45780638da5cb5b146103de57806395d89b41146103fc576101a9565b8063715018a61461037457806379cc67901461037e57806379cd90551461039a576101a9565b80633f4ba83a1161016657806349e894d81161014057806349e894d8146102da5780634e07695a1461030a5780635c975abb1461032657806370a0823114610344576101a9565b80633f4ba83a1461029857806340c10f19146102a257806342966c68146102be576101a9565b806306fdde03146101ae578063095ea7b3146101cc57806318160ddd146101fc57806323b872dd1461021a578063313ce5671461024a5780633950935114610268575b600080fd5b6101b6610542565b6040516101c39190612dcb565b60405180910390f35b6101e660048036038101906101e1919061298d565b6105d4565b6040516101f39190612db0565b60405180910390f35b6102046105f7565b604051610211919061300d565b60405180910390f35b610234600480360381019061022f919061293e565b610601565b6040516102419190612db0565b60405180910390f35b610252610630565b60405161025f9190613028565b60405180910390f35b610282600480360381019061027d919061298d565b610647565b60405161028f9190612db0565b60405180910390f35b6102a06106f1565b005b6102bc60048036038101906102b7919061298d565b610777565b005b6102d860048036038101906102d39190612a33565b610801565b005b6102f460048036038101906102ef91906129c9565b610815565b6040516103019190612dcb565b60405180910390f35b610324600480360381019061031f91906128d9565b610854565b005b61032e610914565b60405161033b9190612db0565b60405180910390f35b61035e600480360381019061035991906128d9565b61092b565b60405161036b919061300d565b60405180910390f35b61037c610974565b005b6103986004803603810190610393919061298d565b6109fc565b005b6103b460048036038101906103af91906129f2565b610a1c565b6040516103c1919061300d565b60405180910390f35b6103d2610a33565b005b6103dc610c29565b005b6103e6610caf565b6040516103f39190612d95565b60405180910390f35b610404610cd9565b6040516104119190612dcb565b60405180910390f35b610434600480360381019061042f91906129c9565b610d6b565b6040516104419190612db0565b60405180910390f35b610464600480360381019061045f919061298d565b610d95565b6040516104719190612db0565b60405180910390f35b610494600480360381019061048f919061298d565b610e7f565b6040516104a19190612db0565b60405180910390f35b6104c460048036038101906104bf91906129f2565b610ea2565b6040516104d1919061300d565b60405180910390f35b6104f460048036038101906104ef919061298d565b6111d3565b005b610510600480360381019061050b9190612902565b6113a6565b60405161051d919061300d565b60405180910390f35b610540600480360381019061053b91906128d9565b61142d565b005b60606036805461055190613401565b80601f016020809104026020016040519081016040528092919081815260200182805461057d90613401565b80156105ca5780601f1061059f576101008083540402835291602001916105ca565b820191906000526020600020905b8154815290600101906020018083116105ad57829003601f168201915b5050505050905090565b6000806105df611525565b90506105ec81858561152d565b600191505092915050565b6000603554905090565b60008061060c611525565b90506106198582856116f8565b610624858585611784565b60019150509392505050565b600060fb60109054906101000a900460ff16905090565b600080610652611525565b90506106e6818585603460008673ffffffffffffffffffffffffffffffffffffffff1673ffffffffffffffffffffffffffffffffffffffff16815260200190815260200160002060008973ffffffffffffffffffffffffffffffffffffffff1673ffffffffffffffffffffffffffffffffffffffff168152602001908152602001600020546106e191906130c0565b61152d565b600191505092915050565b6106f9611525565b73ffffffffffffffffffffffffffffffffffffffff16610717610caf565b73ffffffffffffffffffffffffffffffffffffffff161461076d576040517f08c379a000000000000000000000000000000000000000000000000000000000815260040161076490612f0d565b60405180910390fd5b610775611a08565b565b61077f611525565b73ffffffffffffffffffffffffffffffffffffffff1661079d610caf565b73ffffffffffffffffffffffffffffffffffffffff16146107f3576040517f08c379a00000000000000000000000000000000000000000000000000000000081526004016107ea90612f0d565b60405180910390fd5b6107fd8282611aaa565b5050565b61081261080c611525565b82611c0b565b50565b606061082082611de4565b61082d608084901b611de4565b60405160200161083e929190612d5e565b6040516020818303038152906040529050919050565b61085c611525565b73ffffffffffffffffffffffffffffffffffffffff1661087a610caf565b73ffffffffffffffffffffffffffffffffffffffff16146108d0576040517f08c379a00000000000000000000000000000000000000000000000000000000081526004016108c790612f0d565b60405180910390fd5b8060fc60006101000a81548173ffffffffffffffffffffffffffffffffffffffff021916908373ffffffffffffffffffffffffffffffffffffffff16021790555050565b6000609760009054906101000a900460ff16905090565b6000603360008373ffffffffffffffffffffffffffffffffffffffff1673ffffffffffffffffffffffffffffffffffffffff168152602001908152602001600020549050919050565b61097c611525565b73ffffffffffffffffffffffffffffffffffffffff1661099a610caf565b73ffffffffffffffffffffffffffffffffffffffff16146109f0576040517f08c379a00000000000000000000000000000000000000000000000000000000081526004016109e790612f0d565b60405180910390fd5b6109fa6000612044565b565b610a0e82610a08611525565b836116f8565b610a188282611c0b565b5050565b600080610a288361210a565b905080915050919050565b600060019054906101000a900460ff16610a5b5760008054906101000a900460ff1615610a64565b610a63612323565b5b610aa3576040517f08c379a0000000000000000000000000000000000000000000000000000000008152600401610a9a90612eed565b60405180910390fd5b60008060019054906101000a900460ff161590508015610af3576001600060016101000a81548160ff02191690831515021790555060016000806101000a81548160ff0219169083151502179055505b610b676040518060400160405280600a81526020017f50726f6d65746869756d000000000000000000000000000000000000000000008152506040518060400160405280600381526020017f50524d0000000000000000000000000000000000000000000000000000000000815250612334565b610b6f612391565b610b776123e2565b610b7f61243b565b600660fb60106101000a81548160ff021916908360ff160217905550651319718a500060fb60006101000a8154816fffffffffffffffffffffffffffffffff02191690836fffffffffffffffffffffffffffffffff160217905550610c0533610be6610630565b600a610bf291906131b4565b620186a0610c0091906132d2565b611aaa565b8015610c265760008060016101000a81548160ff0219169083151502179055505b50565b610c31611525565b73ffffffffffffffffffffffffffffffffffffffff16610c4f610caf565b73ffffffffffffffffffffffffffffffffffffffff1614610ca5576040517f08c379a0000000000000000000000000000000000000000000000000000000008152600401610c9c90612f0d565b60405180910390fd5b610cad612494565b565b600060c960009054906101000a900473ffffffffffffffffffffffffffffffffffffffff16905090565b606060378054610ce890613401565b80601f0160208091040260200160405190810160405280929190818152602001828054610d1490613401565b8015610d615780601f10610d3657610100808354040283529160200191610d61565b820191906000526020600020905b815481529060010190602001808311610d4457829003601f168201915b5050505050905090565b600060fd600083815260200190815260200160002060009054906101000a900460ff169050919050565b600080610da0611525565b90506000603460008373ffffffffffffffffffffffffffffffffffffffff1673ffffffffffffffffffffffffffffffffffffffff16815260200190815260200160002060008673ffffffffffffffffffffffffffffffffffffffff1673ffffffffffffffffffffffffffffffffffffffff16815260200190815260200160002054905083811015610e66576040517f08c379a0000000000000000000000000000000000000000000000000000000008152600401610e5d90612fcd565b60405180910390fd5b610e73828686840361152d565b60019250505092915050565b600080610e8a611525565b9050610e97818585611784565b600191505092915050565b600080829050600060018251610eb8919061332c565b905060008251905060008282610ece919061332c565b67ffffffffffffffff811115610f0d577f4e487b7100000000000000000000000000000000000000000000000000000000600052604160045260246000fd5b6040519080825280601f01601f191660200182016040528015610f3f5781602001600182028036833780820191505090505b50905060008390505b8281101561101a57848181518110610f89577f4e487b7100000000000000000000000000000000000000000000000000000000600052603260045260246000fd5b602001015160f81c60f81b828583610fa1919061332c565b81518110610fd8577f4e487b7100000000000000000000000000000000000000000000000000000000600052603260045260246000fd5b60200101907effffffffffffffffffffffffffffffffffffffffffffffffffffffffffffff1916908160001a905350808061101290613464565b915050610f48565b506000819050600061102b82610a1c565b9050806001875161103c919061332c565b611046919061332c565b945060018651611056919061332c565b935060008585611066919061332c565b67ffffffffffffffff8111156110a5577f4e487b7100000000000000000000000000000000000000000000000000000000600052604160045260246000fd5b6040519080825280601f01601f1916602001820160405280156110d75781602001600182028036833780820191505090505b50905060008690505b858110156111b257878181518110611121577f4e487b7100000000000000000000000000000000000000000000000000000000600052603260045260246000fd5b602001015160f81c60f81b828883611139919061332c565b81518110611170577f4e487b7100000000000000000000000000000000000000000000000000000000600052603260045260246000fd5b60200101907effffffffffffffffffffffffffffffffffffffffffffffffffffffffffffff1916908160001a90535080806111aa90613464565b9150506110e0565b5080925060006111c184610a1c565b90508098505050505050505050919050565b60fc60009054906101000a900473ffffffffffffffffffffffffffffffffffffffff1673ffffffffffffffffffffffffffffffffffffffff16611214611525565b73ffffffffffffffffffffffffffffffffffffffff161461126a576040517f08c379a000000000000000000000000000000000000000000000000000000000815260040161126190612f2d565b60405180910390fd5b6112bc81603360008573ffffffffffffffffffffffffffffffffffffffff1673ffffffffffffffffffffffffffffffffffffffff1681526020019081526020016000205461253790919063ffffffff16565b603360008473ffffffffffffffffffffffffffffffffffffffff1673ffffffffffffffffffffffffffffffffffffffff16815260200190815260200160002081905550611358816033600061130f610caf565b73ffffffffffffffffffffffffffffffffffffffff1673ffffffffffffffffffffffffffffffffffffffff1681526020019081526020016000205461254d90919063ffffffff16565b60336000611364610caf565b73ffffffffffffffffffffffffffffffffffffffff1673ffffffffffffffffffffffffffffffffffffffff168152602001908152602001600020819055505050565b6000603460008473ffffffffffffffffffffffffffffffffffffffff1673ffffffffffffffffffffffffffffffffffffffff16815260200190815260200160002060008373ffffffffffffffffffffffffffffffffffffffff1673ffffffffffffffffffffffffffffffffffffffff16815260200190815260200160002054905092915050565b611435611525565b73ffffffffffffffffffffffffffffffffffffffff16611453610caf565b73ffffffffffffffffffffffffffffffffffffffff16146114a9576040517f08c379a00000000000000000000000000000000000000000000000000000000081526004016114a090612f0d565b60405180910390fd5b600073ffffffffffffffffffffffffffffffffffffffff168173ffffffffffffffffffffffffffffffffffffffff161415611519576040517f08c379a000000000000000000000000000000000000000000000000000000000815260040161151090612e4d565b60405180910390fd5b61152281612044565b50565b600033905090565b600073ffffffffffffffffffffffffffffffffffffffff168373ffffffffffffffffffffffffffffffffffffffff16141561159d576040517f08c379a000000000000000000000000000000000000000000000000000000000815260040161159490612f8d565b60405180910390fd5b600073ffffffffffffffffffffffffffffffffffffffff168273ffffffffffffffffffffffffffffffffffffffff16141561160d576040517f08c379a000000000000000000000000000000000000000000000000000000000815260040161160490612e6d565b60405180910390fd5b80603460008573ffffffffffffffffffffffffffffffffffffffff1673ffffffffffffffffffffffffffffffffffffffff16815260200190815260200160002060008473ffffffffffffffffffffffffffffffffffffffff1673ffffffffffffffffffffffffffffffffffffffff168152602001908152602001600020819055508173ffffffffffffffffffffffffffffffffffffffff168373ffffffffffffffffffffffffffffffffffffffff167f8c5be1e5ebec7d5bd14f71427d1e84f3dd0314c0f7b2291e5b200ac8c7c3b925836040516116eb919061300d565b60405180910390a3505050565b600061170484846113a6565b90507fffffffffffffffffffffffffffffffffffffffffffffffffffffffffffffffff811461177e5781811015611770576040517f08c379a000000000000000000000000000000000000000000000000000000000815260040161176790612e8d565b60405180910390fd5b61177d848484840361152d565b5b50505050565b600073ffffffffffffffffffffffffffffffffffffffff168373ffffffffffffffffffffffffffffffffffffffff1614156117f4576040517f08c379a00000000000000000000000000000000000000000000000000000000081526004016117eb90612f6d565b60405180910390fd5b600073ffffffffffffffffffffffffffffffffffffffff168273ffffffffffffffffffffffffffffffffffffffff161415611864576040517f08c379a000000000000000000000000000000000000000000000000000000000815260040161185b90612ded565b60405180910390fd5b61186f838383612563565b6000603360008573ffffffffffffffffffffffffffffffffffffffff1673ffffffffffffffffffffffffffffffffffffffff168152602001908152602001600020549050818110156118f6576040517f08c379a00000000000000000000000000000000000000000000000000000000081526004016118ed90612ead565b60405180910390fd5b818103603360008673ffffffffffffffffffffffffffffffffffffffff1673ffffffffffffffffffffffffffffffffffffffff1681526020019081526020016000208190555081603360008573ffffffffffffffffffffffffffffffffffffffff1673ffffffffffffffffffffffffffffffffffffffff168152602001908152602001600020600082825461198b91906130c0565b925050819055508273ffffffffffffffffffffffffffffffffffffffff168473ffffffffffffffffffffffffffffffffffffffff167fddf252ad1be2c89b69c2b068fc378daa952ba7f163c4a11628f55a4df523b3ef846040516119ef919061300d565b60405180910390a3611a028484846125bb565b50505050565b611a10610914565b611a4f576040517f08c379a0000000000000000000000000000000000000000000000000000000008152600401611a4690612e0d565b60405180910390fd5b6000609760006101000a81548160ff0219169083151502179055507f5db9ee0a495bf2e6ff9c91a7834c1ba4fdd244a5e8aa4e537bd38aeae4b073aa611a93611525565b604051611aa09190612d95565b60405180910390a1565b600073ffffffffffffffffffffffffffffffffffffffff168273ffffffffffffffffffffffffffffffffffffffff161415611b1a576040517f08c379a0000000000000000000000000000000000000000000000000000000008152600401611b1190612fed565b60405180910390fd5b611b2660008383612563565b8060356000828254611b3891906130c0565b9250508190555080603360008473ffffffffffffffffffffffffffffffffffffffff1673ffffffffffffffffffffffffffffffffffffffff1681526020019081526020016000206000828254611b8e91906130c0565b925050819055508173ffffffffffffffffffffffffffffffffffffffff16600073ffffffffffffffffffffffffffffffffffffffff167fddf252ad1be2c89b69c2b068fc378daa952ba7f163c4a11628f55a4df523b3ef83604051611bf3919061300d565b60405180910390a3611c07600083836125bb565b5050565b600073ffffffffffffffffffffffffffffffffffffffff168273ffffffffffffffffffffffffffffffffffffffff161415611c7b576040517f08c379a0000000000000000000000000000000000000000000000000000000008152600401611c7290612f4d565b60405180910390fd5b611c8782600083612563565b6000603360008473ffffffffffffffffffffffffffffffffffffffff1673ffffffffffffffffffffffffffffffffffffffff16815260200190815260200160002054905081811015611d0e576040517f08c379a0000000000000000000000000000000000000000000000000000000008152600401611d0590612e2d565b60405180910390fd5b818103603360008573ffffffffffffffffffffffffffffffffffffffff1673ffffffffffffffffffffffffffffffffffffffff168152602001908152602001600020819055508160356000828254611d66919061332c565b92505081905550600073ffffffffffffffffffffffffffffffffffffffff168373ffffffffffffffffffffffffffffffffffffffff167fddf252ad1be2c89b69c2b068fc378daa952ba7f163c4a11628f55a4df523b3ef84604051611dcb919061300d565b60405180910390a3611ddf836000846125bb565b505050565b6000604077ffffffffffffffff0000000000000000000000000000000060001b836fffffffffffffffffffffffffffffffff191616901c7fffffffffffffffff00000000000000000000000000000000000000000000000060001b836fffffffffffffffffffffffffffffffff19161617905060207bffffffff000000000000000000000000ffffffff000000000000000060001b8216901c7fffffffff000000000000000000000000ffffffff00000000000000000000000060001b821617905060107dffff000000000000ffff000000000000ffff000000000000ffff0000000060001b8216901c7fffff000000000000ffff000000000000ffff000000000000ffff00000000000060001b821617905060087eff000000ff000000ff000000ff000000ff000000ff000000ff000000ff000060001b8216901c7fff000000ff000000ff000000ff000000ff000000ff000000ff000000ff00000060001b821617905060087f0f000f000f000f000f000f000f000f000f000f000f000f000f000f000f000f0060001b8216901c60047ff000f000f000f000f000f000f000f000f000f000f000f000f000f000f000f00060001b8316901c17905060077f0f0f0f0f0f0f0f0f0f0f0f0f0f0f0f0f0f0f0f0f0f0f0f0f0f0f0f0f0f0f0f0f60047f06060606060606060606060606060606060606060606060606060606060606068460001c611ff491906130c0565b901c1661200191906132d2565b8160001c7f303030303030303030303030303030303030303030303030303030303030303061203091906130c0565b61203a91906130c0565b60001b9050919050565b600060c960009054906101000a900473ffffffffffffffffffffffffffffffffffffffff1690508160c960006101000a81548173ffffffffffffffffffffffffffffffffffffffff021916908373ffffffffffffffffffffffffffffffffffffffff1602179055508173ffffffffffffffffffffffffffffffffffffffff168173ffffffffffffffffffffffffffffffffffffffff167f8be0079c531659141344cd1fd0a4f28419497f9722a3daafe3b4186f6b6457e060405160405180910390a35050565b60008060009050612150836040518060400160405280600181526020017f41000000000000000000000000000000000000000000000000000000000000008152506125c0565b1561215f57600a91505061231e565b61219e836040518060400160405280600181526020017f42000000000000000000000000000000000000000000000000000000000000008152506125c0565b156121ad57600b91505061231e565b6121ec836040518060400160405280600181526020017f43000000000000000000000000000000000000000000000000000000000000008152506125c0565b156121fb57600c91505061231e565b61223a836040518060400160405280600181526020017f44000000000000000000000000000000000000000000000000000000000000008152506125c0565b1561224957600d91505061231e565b600083905060005b8151811015612317576000818351612269919061332c565b905060008383815181106122a6577f4e487b7100000000000000000000000000000000000000000000000000000000600052603260045260246000fd5b602001015160f81c60f81b905060008160f81c9050600060308260ff166122cd919061332c565b90506001846122dc919061332c565b600a6122e89190613169565b816122f391906132d2565b876122fe91906130c0565b965050505050808061230f90613464565b915050612251565b5050809150505b919050565b600061232e30612619565b15905090565b600060019054906101000a900460ff16612383576040517f08c379a000000000000000000000000000000000000000000000000000000000815260040161237a90612fad565b60405180910390fd5b61238d828261263c565b5050565b600060019054906101000a900460ff166123e0576040517f08c379a00000000000000000000000000000000000000000000000000000000081526004016123d790612fad565b60405180910390fd5b565b600060019054906101000a900460ff16612431576040517f08c379a000000000000000000000000000000000000000000000000000000000815260040161242890612fad565b60405180910390fd5b6124396126bd565b565b600060019054906101000a900460ff1661248a576040517f08c379a000000000000000000000000000000000000000000000000000000000815260040161248190612fad565b60405180910390fd5b612492612729565b565b61249c610914565b156124dc576040517f08c379a00000000000000000000000000000000000000000000000000000000081526004016124d390612ecd565b60405180910390fd5b6001609760006101000a81548160ff0219169083151502179055507f62e78cea01bee320cd4e420270b5ea74000d11b0c9f74754ebdbfc544b05a258612520611525565b60405161252d9190612d95565b60405180910390a1565b60008183612545919061332c565b905092915050565b6000818361255b91906130c0565b905092915050565b61256b610914565b156125ab576040517f08c379a00000000000000000000000000000000000000000000000000000000081526004016125a290612ecd565b60405180910390fd5b6125b683838361278a565b505050565b505050565b6000816040516020016125d39190612dcb565b60405160208183030381529060405280519060200120836040516020016125fa9190612dcb565b6040516020818303038152906040528051906020012014905092915050565b6000808273ffffffffffffffffffffffffffffffffffffffff163b119050919050565b600060019054906101000a900460ff1661268b576040517f08c379a000000000000000000000000000000000000000000000000000000000815260040161268290612fad565b60405180910390fd5b81603690805190602001906126a192919061278f565b5080603790805190602001906126b892919061278f565b505050565b600060019054906101000a900460ff1661270c576040517f08c379a000000000000000000000000000000000000000000000000000000000815260040161270390612fad565b60405180910390fd5b6000609760006101000a81548160ff021916908315150217905550565b600060019054906101000a900460ff16612778576040517f08c379a000000000000000000000000000000000000000000000000000000000815260040161276f90612fad565b60405180910390fd5b612788612783611525565b612044565b565b505050565b82805461279b90613401565b90600052602060002090601f0160209004810192826127bd5760008555612804565b82601f106127d657805160ff1916838001178555612804565b82800160010185558215612804579182015b828111156128035782518255916020019190600101906127e8565b5b5090506128119190612815565b5090565b5b8082111561282e576000816000905550600101612816565b5090565b600061284561284084613068565b613043565b90508281526020810184848401111561285d57600080fd5b6128688482856133bf565b509392505050565b60008135905061287f81613a32565b92915050565b60008135905061289481613a49565b92915050565b600082601f8301126128ab57600080fd5b81356128bb848260208601612832565b91505092915050565b6000813590506128d381613a60565b92915050565b6000602082840312156128eb57600080fd5b60006128f984828501612870565b91505092915050565b6000806040838503121561291557600080fd5b600061292385828601612870565b925050602061293485828601612870565b9150509250929050565b60008060006060848603121561295357600080fd5b600061296186828701612870565b935050602061297286828701612870565b9250506040612983868287016128c4565b9150509250925092565b600080604083850312156129a057600080fd5b60006129ae85828601612870565b92505060206129bf858286016128c4565b9150509250929050565b6000602082840312156129db57600080fd5b60006129e984828501612885565b91505092915050565b600060208284031215612a0457600080fd5b600082013567ffffffffffffffff811115612a1e57600080fd5b612a2a8482850161289a565b91505092915050565b600060208284031215612a4557600080fd5b6000612a53848285016128c4565b91505092915050565b612a6581613360565b82525050565b612a7481613372565b82525050565b612a8b612a868261337e565b6134ad565b82525050565b6000612a9c82613099565b612aa681856130a4565b9350612ab68185602086016133ce565b612abf81613544565b840191505092915050565b6000612ad76023836130a4565b9150612ae282613562565b604082019050919050565b6000612afa6014836130a4565b9150612b05826135b1565b602082019050919050565b6000612b1d6022836130a4565b9150612b28826135da565b604082019050919050565b6000612b406026836130a4565b9150612b4b82613629565b604082019050919050565b6000612b636022836130a4565b9150612b6e82613678565b604082019050919050565b6000612b866002836130b5565b9150612b91826136c7565b600282019050919050565b6000612ba9601d836130a4565b9150612bb4826136f0565b602082019050919050565b6000612bcc6026836130a4565b9150612bd782613719565b604082019050919050565b6000612bef6010836130a4565b9150612bfa82613768565b602082019050919050565b6000612c12602e836130a4565b9150612c1d82613791565b604082019050919050565b6000612c356020836130a4565b9150612c40826137e0565b602082019050919050565b6000612c586042836130a4565b9150612c6382613809565b606082019050919050565b6000612c7b6021836130a4565b9150612c868261387e565b604082019050919050565b6000612c9e6025836130a4565b9150612ca9826138cd565b604082019050919050565b6000612cc16024836130a4565b9150612ccc8261391c565b604082019050919050565b6000612ce4602b836130a4565b9150612cef8261396b565b604082019050919050565b6000612d076025836130a4565b9150612d12826139ba565b604082019050919050565b6000612d2a601f836130a4565b9150612d3582613a09565b602082019050919050565b612d49816133a8565b82525050565b612d58816133b2565b82525050565b6000612d6982612b79565b9150612d758285612a7a565b602082019150612d858284612a7a565b6020820191508190509392505050565b6000602082019050612daa6000830184612a5c565b92915050565b6000602082019050612dc56000830184612a6b565b92915050565b60006020820190508181036000830152612de58184612a91565b905092915050565b60006020820190508181036000830152612e0681612aca565b9050919050565b60006020820190508181036000830152612e2681612aed565b9050919050565b60006020820190508181036000830152612e4681612b10565b9050919050565b60006020820190508181036000830152612e6681612b33565b9050919050565b60006020820190508181036000830152612e8681612b56565b9050919050565b60006020820190508181036000830152612ea681612b9c565b9050919050565b60006020820190508181036000830152612ec681612bbf565b9050919050565b60006020820190508181036000830152612ee681612be2565b9050919050565b60006020820190508181036000830152612f0681612c05565b9050919050565b60006020820190508181036000830152612f2681612c28565b9050919050565b60006020820190508181036000830152612f4681612c4b565b9050919050565b60006020820190508181036000830152612f6681612c6e565b9050919050565b60006020820190508181036000830152612f8681612c91565b9050919050565b60006020820190508181036000830152612fa681612cb4565b9050919050565b60006020820190508181036000830152612fc681612cd7565b9050919050565b60006020820190508181036000830152612fe681612cfa565b9050919050565b6000602082019050818103600083015261300681612d1d565b9050919050565b60006020820190506130226000830184612d40565b92915050565b600060208201905061303d6000830184612d4f565b92915050565b600061304d61305e565b90506130598282613433565b919050565b6000604051905090565b600067ffffffffffffffff82111561308357613082613515565b5b61308c82613544565b9050602081019050919050565b600081519050919050565b600082825260208201905092915050565b600081905092915050565b60006130cb826133a8565b91506130d6836133a8565b9250827fffffffffffffffffffffffffffffffffffffffffffffffffffffffffffffffff0382111561310b5761310a6134b7565b5b828201905092915050565b6000808291508390505b60018511156131605780860481111561313c5761313b6134b7565b5b600185161561314b5780820291505b808102905061315985613555565b9450613120565b94509492505050565b6000613174826133a8565b915061317f836133a8565b92506131ac7fffffffffffffffffffffffffffffffffffffffffffffffffffffffffffffffff84846131ff565b905092915050565b60006131bf826133a8565b91506131ca836133b2565b92506131f77fffffffffffffffffffffffffffffffffffffffffffffffffffffffffffffffff84846131ff565b905092915050565b60008261320f57600190506132cb565b8161321d57600090506132cb565b8160018114613233576002811461323d5761326c565b60019150506132cb565b60ff84111561324f5761324e6134b7565b5b8360020a915084821115613266576132656134b7565b5b506132cb565b5060208310610133831016604e8410600b84101617156132a15782820a90508381111561329c5761329b6134b7565b5b6132cb565b6132ae8484846001613116565b925090508184048111156132c5576132c46134b7565b5b81810290505b9392505050565b60006132dd826133a8565b91506132e8836133a8565b9250817fffffffffffffffffffffffffffffffffffffffffffffffffffffffffffffffff0483118215151615613321576133206134b7565b5b828202905092915050565b6000613337826133a8565b9150613342836133a8565b925082821015613355576133546134b7565b5b828203905092915050565b600061336b82613388565b9050919050565b60008115159050919050565b6000819050919050565b600073ffffffffffffffffffffffffffffffffffffffff82169050919050565b6000819050919050565b600060ff82169050919050565b82818337600083830152505050565b60005b838110156133ec5780820151818401526020810190506133d1565b838111156133fb576000848401525b50505050565b6000600282049050600182168061341957607f821691505b6020821081141561342d5761342c6134e6565b5b50919050565b61343c82613544565b810181811067ffffffffffffffff8211171561345b5761345a613515565b5b80604052505050565b600061346f826133a8565b91507fffffffffffffffffffffffffffffffffffffffffffffffffffffffffffffffff8214156134a2576134a16134b7565b5b600182019050919050565b6000819050919050565b7f4e487b7100000000000000000000000000000000000000000000000000000000600052601160045260246000fd5b7f4e487b7100000000000000000000000000000000000000000000000000000000600052602260045260246000fd5b7f4e487b7100000000000000000000000000000000000000000000000000000000600052604160045260246000fd5b6000601f19601f8301169050919050565b60008160011c9050919050565b7f45524332303a207472616e7366657220746f20746865207a65726f206164647260008201527f6573730000000000000000000000000000000000000000000000000000000000602082015250565b7f5061757361626c653a206e6f7420706175736564000000000000000000000000600082015250565b7f45524332303a206275726e20616d6f756e7420657863656564732062616c616e60008201527f6365000000000000000000000000000000000000000000000000000000000000602082015250565b7f4f776e61626c653a206e6577206f776e657220697320746865207a65726f206160008201527f6464726573730000000000000000000000000000000000000000000000000000602082015250565b7f45524332303a20617070726f766520746f20746865207a65726f20616464726560008201527f7373000000000000000000000000000000000000000000000000000000000000602082015250565b7f3078000000000000000000000000000000000000000000000000000000000000600082015250565b7f45524332303a20696e73756666696369656e7420616c6c6f77616e6365000000600082015250565b7f45524332303a207472616e7366657220616d6f756e742065786365656473206260008201527f616c616e63650000000000000000000000000000000000000000000000000000602082015250565b7f5061757361626c653a2070617573656400000000000000000000000000000000600082015250565b7f496e697469616c697a61626c653a20636f6e747261637420697320616c72656160008201527f647920696e697469616c697a6564000000000000000000000000000000000000602082015250565b7f4f776e61626c653a2063616c6c6572206973206e6f7420746865206f776e6572600082015250565b7f546869732066756e6374696f6e2063616e206f6e6c792062652063616c6c656460008201527f2062792074686520736d61727420636f6e7472616374206f6620746865204e4660208201527f5473000000000000000000000000000000000000000000000000000000000000604082015250565b7f45524332303a206275726e2066726f6d20746865207a65726f2061646472657360008201527f7300000000000000000000000000000000000000000000000000000000000000602082015250565b7f45524332303a207472616e736665722066726f6d20746865207a65726f20616460008201527f6472657373000000000000000000000000000000000000000000000000000000602082015250565b7f45524332303a20617070726f76652066726f6d20746865207a65726f2061646460008201527f7265737300000000000000000000000000000000000000000000000000000000602082015250565b7f496e697469616c697a61626c653a20636f6e7472616374206973206e6f74206960008201527f6e697469616c697a696e67000000000000000000000000000000000000000000602082015250565b7f45524332303a2064656372656173656420616c6c6f77616e63652062656c6f7760008201527f207a65726f000000000000000000000000000000000000000000000000000000602082015250565b7f45524332303a206d696e7420746f20746865207a65726f206164647265737300600082015250565b613a3b81613360565b8114613a4657600080fd5b50565b613a528161337e565b8114613a5d57600080fd5b50565b613a69816133a8565b8114613a7457600080fd5b5056fea2646970667358221220b5bbfa9016cab248e25bb9cf385874e172fb52de8b7e62e6ba781a40c97b8ae864736f6c63430008020033",
  "linkReferences": {},
  "deployedLinkReferences": {}
}