{
  "_format": "hh-sol-artifact-1",
  "contractName": "ERC721Upgradeable",
  "sourceName": "@openzeppelin/contracts-upgradeable/token/ERC721/ERC721Upgradeable.sol",
  "abi": [
    {
      "anonymous": false,
      "inputs": [
        {
          "indexed": true,
          "internalType": "address",
          "name": "owner",
          "type": "address"
        },
        {
          "indexed": true,
          "internalType": "address",
          "name": "approved",
          "type": "address"
        },
        {
          "indexed": true,
          "internalType": "uint256",
          "name": "tokenId",
          "type": "uint256"
        }
      ],
      "name": "Approval",
      "type": "event"
    },
    {
      "anonymous": false,
      "inputs": [
        {
          "indexed": true,
          "internalType": "address",
          "name": "owner",
          "type": "address"
        },
        {
          "indexed": true,
          "internalType": "address",
          "name": "operator",
          "type": "address"
        },
        {
          "indexed": false,
          "internalType": "bool",
          "name": "approved",
          "type": "bool"
        }
      ],
      "name": "ApprovalForAll",
      "type": "event"
    },
    {
      "anonymous": false,
      "inputs": [
        {
          "indexed": true,
          "internalType": "address",
          "name": "from",
          "type": "address"
        },
        {
          "indexed": true,
          "internalType": "address",
          "name": "to",
          "type": "address"
        },
        {
          "indexed": true,
          "internalType": "uint256",
          "name": "tokenId",
          "type": "uint256"
        }
      ],
      "name": "Transfer",
      "type": "event"
    },
    {
      "inputs": [
        {
          "internalType": "address",
          "name": "to",
          "type": "address"
        },
        {
          "internalType": "uint256",
          "name": "tokenId",
          "type": "uint256"
        }
      ],
      "name": "approve",
      "outputs": [],
      "stateMutability": "nonpayable",
      "type": "function"
    },
    {
      "inputs": [
        {
          "internalType": "address",
          "name": "owner",
          "type": "address"
        }
      ],
      "name": "balanceOf",
      "outputs": [
        {
          "internalType": "uint256",
          "name": "",
          "type": "uint256"
        }
      ],
      "stateMutability": "view",
      "type": "function"
    },
    {
      "inputs": [
        {
          "internalType": "uint256",
          "name": "tokenId",
          "type": "uint256"
        }
      ],
      "name": "checkIfTokensExists",
      "outputs": [
        {
          "internalType": "bool",
          "name": "",
          "type": "bool"
        }
      ],
      "stateMutability": "view",
      "type": "function"
    },
    {
      "inputs": [
        {
          "internalType": "uint256",
          "name": "tokenId",
          "type": "uint256"
        }
      ],
      "name": "getApproved",
      "outputs": [
        {
          "internalType": "address",
          "name": "",
          "type": "address"
        }
      ],
      "stateMutability": "view",
      "type": "function"
    },
    {
      "inputs": [
        {
          "internalType": "address",
          "name": "owner",
          "type": "address"
        },
        {
          "internalType": "address",
          "name": "operator",
          "type": "address"
        }
      ],
      "name": "isApprovedForAll",
      "outputs": [
        {
          "internalType": "bool",
          "name": "",
          "type": "bool"
        }
      ],
      "stateMutability": "view",
      "type": "function"
    },
    {
      "inputs": [],
      "name": "name",
      "outputs": [
        {
          "internalType": "string",
          "name": "",
          "type": "string"
        }
      ],
      "stateMutability": "view",
      "type": "function"
    },
    {
      "inputs": [
        {
          "internalType": "uint256",
          "name": "tokenId",
          "type": "uint256"
        }
      ],
      "name": "ownerOf",
      "outputs": [
        {
          "internalType": "address",
          "name": "",
          "type": "address"
        }
      ],
      "stateMutability": "view",
      "type": "function"
    },
    {
      "inputs": [
        {
          "internalType": "address",
          "name": "from",
          "type": "address"
        },
        {
          "internalType": "address",
          "name": "to",
          "type": "address"
        },
        {
          "internalType": "uint256",
          "name": "tokenId",
          "type": "uint256"
        }
      ],
      "name": "safeTransferFrom",
      "outputs": [],
      "stateMutability": "nonpayable",
      "type": "function"
    },
    {
      "inputs": [
        {
          "internalType": "address",
          "name": "from",
          "type": "address"
        },
        {
          "internalType": "address",
          "name": "to",
          "type": "address"
        },
        {
          "internalType": "uint256",
          "name": "tokenId",
          "type": "uint256"
        },
        {
          "internalType": "bytes",
          "name": "_data",
          "type": "bytes"
        }
      ],
      "name": "safeTransferFrom",
      "outputs": [],
      "stateMutability": "nonpayable",
      "type": "function"
    },
    {
      "inputs": [
        {
          "internalType": "address",
          "name": "operator",
          "type": "address"
        },
        {
          "internalType": "bool",
          "name": "approved",
          "type": "bool"
        }
      ],
      "name": "setApprovalForAll",
      "outputs": [],
      "stateMutability": "nonpayable",
      "type": "function"
    },
    {
      "inputs": [
        {
          "internalType": "bytes4",
          "name": "interfaceId",
          "type": "bytes4"
        }
      ],
      "name": "supportsInterface",
      "outputs": [
        {
          "internalType": "bool",
          "name": "",
          "type": "bool"
        }
      ],
      "stateMutability": "view",
      "type": "function"
    },
    {
      "inputs": [],
      "name": "symbol",
      "outputs": [
        {
          "internalType": "string",
          "name": "",
          "type": "string"
        }
      ],
      "stateMutability": "view",
      "type": "function"
    },
    {
      "inputs": [
        {
          "internalType": "uint256",
          "name": "tokenId",
          "type": "uint256"
        }
      ],
      "name": "tokenURI",
      "outputs": [
        {
          "internalType": "string",
          "name": "",
          "type": "string"
        }
      ],
      "stateMutability": "view",
      "type": "function"
    },
    {
      "inputs": [
        {
          "internalType": "address",
          "name": "from",
          "type": "address"
        },
        {
          "internalType": "address",
          "name": "to",
          "type": "address"
        },
        {
          "internalType": "uint256",
          "name": "tokenId",
          "type": "uint256"
        }
      ],
      "name": "transferFrom",
      "outputs": [],
      "stateMutability": "nonpayable",
      "type": "function"
    }
  ],
  "bytecode": "0x608060405234801561001057600080fd5b5061247e806100206000396000f3fe608060405234801561001057600080fd5b50600436106100ea5760003560e01c806370a082311161008c578063a22cb46511610066578063a22cb4651461026f578063b88d4fde1461028b578063c87b56dd146102a7578063e985e9c5146102d7576100ea565b806370a08231146101f15780638d36f5f81461022157806395d89b4114610251576100ea565b8063095ea7b3116100c8578063095ea7b31461016d57806323b872dd1461018957806342842e0e146101a55780636352211e146101c1576100ea565b806301ffc9a7146100ef57806306fdde031461011f578063081812fc1461013d575b600080fd5b61010960048036038101906101049190611758565b610307565b6040516101169190611ad2565b60405180910390f35b6101276103e9565b6040516101349190611aed565b60405180910390f35b610157600480360381019061015291906117aa565b61047b565b6040516101649190611a6b565b60405180910390f35b6101876004803603810190610182919061171c565b610500565b005b6101a3600480360381019061019e9190611616565b610618565b005b6101bf60048036038101906101ba9190611616565b610678565b005b6101db60048036038101906101d691906117aa565b610698565b6040516101e89190611a6b565b60405180910390f35b61020b600480360381019061020691906115b1565b61074a565b6040516102189190611c8f565b60405180910390f35b61023b600480360381019061023691906117aa565b610802565b6040516102489190611ad2565b60405180910390f35b61025961086e565b6040516102669190611aed565b60405180910390f35b610289600480360381019061028491906116e0565b610900565b005b6102a560048036038101906102a09190611665565b610916565b005b6102c160048036038101906102bc91906117aa565b610978565b6040516102ce9190611aed565b60405180910390f35b6102f160048036038101906102ec91906115da565b610a1f565b6040516102fe9190611ad2565b60405180910390f35b60007f80ac58cd000000000000000000000000000000000000000000000000000000007bffffffffffffffffffffffffffffffffffffffffffffffffffffffff1916827bffffffffffffffffffffffffffffffffffffffffffffffffffffffff191614806103d257507f5b5e139f000000000000000000000000000000000000000000000000000000007bffffffffffffffffffffffffffffffffffffffffffffffffffffffff1916827bffffffffffffffffffffffffffffffffffffffffffffffffffffffff1916145b806103e257506103e182610ab3565b5b9050919050565b6060606580546103f890611eb4565b80601f016020809104026020016040519081016040528092919081815260200182805461042490611eb4565b80156104715780601f1061044657610100808354040283529160200191610471565b820191906000526020600020905b81548152906001019060200180831161045457829003601f168201915b5050505050905090565b600061048682610b1d565b6104c5576040517f08c379a00000000000000000000000000000000000000000000000000000000081526004016104bc90611c0f565b60405180910390fd5b6069600083815260200190815260200160002060009054906101000a900473ffffffffffffffffffffffffffffffffffffffff169050919050565b600061050b82610698565b90508073ffffffffffffffffffffffffffffffffffffffff168373ffffffffffffffffffffffffffffffffffffffff16141561057c576040517f08c379a000000000000000000000000000000000000000000000000000000000815260040161057390611c4f565b60405180910390fd5b8073ffffffffffffffffffffffffffffffffffffffff1661059b610b89565b73ffffffffffffffffffffffffffffffffffffffff1614806105ca57506105c9816105c4610b89565b610a1f565b5b610609576040517f08c379a000000000000000000000000000000000000000000000000000000000815260040161060090611baf565b60405180910390fd5b6106138383610b91565b505050565b610629610623610b89565b82610c4a565b610668576040517f08c379a000000000000000000000000000000000000000000000000000000000815260040161065f90611c6f565b60405180910390fd5b610673838383610d28565b505050565b61069383838360405180602001604052806000815250610916565b505050565b6000806067600084815260200190815260200160002060009054906101000a900473ffffffffffffffffffffffffffffffffffffffff169050600073ffffffffffffffffffffffffffffffffffffffff168173ffffffffffffffffffffffffffffffffffffffff161415610741576040517f08c379a000000000000000000000000000000000000000000000000000000000815260040161073890611bef565b60405180910390fd5b80915050919050565b60008073ffffffffffffffffffffffffffffffffffffffff168273ffffffffffffffffffffffffffffffffffffffff1614156107bb576040517f08c379a00000000000000000000000000000000000000000000000000000000081526004016107b290611bcf565b60405180910390fd5b606860008373ffffffffffffffffffffffffffffffffffffffff1673ffffffffffffffffffffffffffffffffffffffff168152602001908152602001600020549050919050565b60008073ffffffffffffffffffffffffffffffffffffffff166067600084815260200190815260200160002060009054906101000a900473ffffffffffffffffffffffffffffffffffffffff1673ffffffffffffffffffffffffffffffffffffffff1614159050919050565b60606066805461087d90611eb4565b80601f01602080910402602001604051908101604052809291908181526020018280546108a990611eb4565b80156108f65780601f106108cb576101008083540402835291602001916108f6565b820191906000526020600020905b8154815290600101906020018083116108d957829003601f168201915b5050505050905090565b61091261090b610b89565b8383610f8f565b5050565b610927610921610b89565b83610c4a565b610966576040517f08c379a000000000000000000000000000000000000000000000000000000000815260040161095d90611c6f565b60405180910390fd5b610972848484846110fc565b50505050565b606061098382610b1d565b6109c2576040517f08c379a00000000000000000000000000000000000000000000000000000000081526004016109b990611c2f565b60405180910390fd5b60006109cc611158565b905060008151116109ec5760405180602001604052806000815250610a17565b806109f68461116f565b604051602001610a07929190611a47565b6040516020818303038152906040525b915050919050565b6000606a60008473ffffffffffffffffffffffffffffffffffffffff1673ffffffffffffffffffffffffffffffffffffffff16815260200190815260200160002060008373ffffffffffffffffffffffffffffffffffffffff1673ffffffffffffffffffffffffffffffffffffffff16815260200190815260200160002060009054906101000a900460ff16905092915050565b60007f01ffc9a7000000000000000000000000000000000000000000000000000000007bffffffffffffffffffffffffffffffffffffffffffffffffffffffff1916827bffffffffffffffffffffffffffffffffffffffffffffffffffffffff1916149050919050565b60008073ffffffffffffffffffffffffffffffffffffffff166067600084815260200190815260200160002060009054906101000a900473ffffffffffffffffffffffffffffffffffffffff1673ffffffffffffffffffffffffffffffffffffffff1614159050919050565b600033905090565b816069600083815260200190815260200160002060006101000a81548173ffffffffffffffffffffffffffffffffffffffff021916908373ffffffffffffffffffffffffffffffffffffffff160217905550808273ffffffffffffffffffffffffffffffffffffffff16610c0483610698565b73ffffffffffffffffffffffffffffffffffffffff167f8c5be1e5ebec7d5bd14f71427d1e84f3dd0314c0f7b2291e5b200ac8c7c3b92560405160405180910390a45050565b6000610c5582610b1d565b610c94576040517f08c379a0000000000000000000000000000000000000000000000000000000008152600401610c8b90611b8f565b60405180910390fd5b6000610c9f83610698565b90508073ffffffffffffffffffffffffffffffffffffffff168473ffffffffffffffffffffffffffffffffffffffff161480610d0e57508373ffffffffffffffffffffffffffffffffffffffff16610cf68461047b565b73ffffffffffffffffffffffffffffffffffffffff16145b80610d1f5750610d1e8185610a1f565b5b91505092915050565b8273ffffffffffffffffffffffffffffffffffffffff16610d4882610698565b73ffffffffffffffffffffffffffffffffffffffff1614610d9e576040517f08c379a0000000000000000000000000000000000000000000000000000000008152600401610d9590611b2f565b60405180910390fd5b600073ffffffffffffffffffffffffffffffffffffffff168273ffffffffffffffffffffffffffffffffffffffff161415610e0e576040517f08c379a0000000000000000000000000000000000000000000000000000000008152600401610e0590611b4f565b60405180910390fd5b610e1983838361131c565b610e24600082610b91565b6001606860008573ffffffffffffffffffffffffffffffffffffffff1673ffffffffffffffffffffffffffffffffffffffff1681526020019081526020016000206000828254610e749190611dca565b925050819055506001606860008473ffffffffffffffffffffffffffffffffffffffff1673ffffffffffffffffffffffffffffffffffffffff1681526020019081526020016000206000828254610ecb9190611d43565b92505081905550816067600083815260200190815260200160002060006101000a81548173ffffffffffffffffffffffffffffffffffffffff021916908373ffffffffffffffffffffffffffffffffffffffff160217905550808273ffffffffffffffffffffffffffffffffffffffff168473ffffffffffffffffffffffffffffffffffffffff167fddf252ad1be2c89b69c2b068fc378daa952ba7f163c4a11628f55a4df523b3ef60405160405180910390a4610f8a838383611321565b505050565b8173ffffffffffffffffffffffffffffffffffffffff168373ffffffffffffffffffffffffffffffffffffffff161415610ffe576040517f08c379a0000000000000000000000000000000000000000000000000000000008152600401610ff590611b6f565b60405180910390fd5b80606a60008573ffffffffffffffffffffffffffffffffffffffff1673ffffffffffffffffffffffffffffffffffffffff16815260200190815260200160002060008473ffffffffffffffffffffffffffffffffffffffff1673ffffffffffffffffffffffffffffffffffffffff16815260200190815260200160002060006101000a81548160ff0219169083151502179055508173ffffffffffffffffffffffffffffffffffffffff168373ffffffffffffffffffffffffffffffffffffffff167f17307eab39ab6107e8899845ad3d59bd9653f200f220920489ca2b5937696c31836040516110ef9190611ad2565b60405180910390a3505050565b611107848484610d28565b61111384848484611326565b611152576040517f08c379a000000000000000000000000000000000000000000000000000000000815260040161114990611b0f565b60405180910390fd5b50505050565b606060405180602001604052806000815250905090565b606060008214156111b7576040518060400160405280600181526020017f30000000000000000000000000000000000000000000000000000000000000008152509050611317565b600082905060005b600082146111e95780806111d290611f17565b915050600a826111e29190611d99565b91506111bf565b60008167ffffffffffffffff81111561122b577f4e487b7100000000000000000000000000000000000000000000000000000000600052604160045260246000fd5b6040519080825280601f01601f19166020018201604052801561125d5781602001600182028036833780820191505090505b5090505b60008514611310576001826112769190611dca565b9150600a856112859190611f60565b60306112919190611d43565b60f81b8183815181106112cd577f4e487b7100000000000000000000000000000000000000000000000000000000600052603260045260246000fd5b60200101907effffffffffffffffffffffffffffffffffffffffffffffffffffffffffffff1916908160001a905350600a856113099190611d99565b9450611261565b8093505050505b919050565b505050565b505050565b60006113478473ffffffffffffffffffffffffffffffffffffffff166114bd565b156114b0578373ffffffffffffffffffffffffffffffffffffffff1663150b7a02611370610b89565b8786866040518563ffffffff1660e01b81526004016113929493929190611a86565b602060405180830381600087803b1580156113ac57600080fd5b505af19250505080156113dd57506040513d601f19601f820116820180604052508101906113da9190611781565b60015b611460573d806000811461140d576040519150601f19603f3d011682016040523d82523d6000602084013e611412565b606091505b50600081511415611458576040517f08c379a000000000000000000000000000000000000000000000000000000000815260040161144f90611b0f565b60405180910390fd5b805181602001fd5b63150b7a0260e01b7bffffffffffffffffffffffffffffffffffffffffffffffffffffffff1916817bffffffffffffffffffffffffffffffffffffffffffffffffffffffff1916149150506114b5565b600190505b949350505050565b6000808273ffffffffffffffffffffffffffffffffffffffff163b119050919050565b60006114f36114ee84611ccf565b611caa565b90508281526020810184848401111561150b57600080fd5b611516848285611e72565b509392505050565b60008135905061152d816123ec565b92915050565b60008135905061154281612403565b92915050565b6000813590506115578161241a565b92915050565b60008151905061156c8161241a565b92915050565b600082601f83011261158357600080fd5b81356115938482602086016114e0565b91505092915050565b6000813590506115ab81612431565b92915050565b6000602082840312156115c357600080fd5b60006115d18482850161151e565b91505092915050565b600080604083850312156115ed57600080fd5b60006115fb8582860161151e565b925050602061160c8582860161151e565b9150509250929050565b60008060006060848603121561162b57600080fd5b60006116398682870161151e565b935050602061164a8682870161151e565b925050604061165b8682870161159c565b9150509250925092565b6000806000806080858703121561167b57600080fd5b60006116898782880161151e565b945050602061169a8782880161151e565b93505060406116ab8782880161159c565b925050606085013567ffffffffffffffff8111156116c857600080fd5b6116d487828801611572565b91505092959194509250565b600080604083850312156116f357600080fd5b60006117018582860161151e565b925050602061171285828601611533565b9150509250929050565b6000806040838503121561172f57600080fd5b600061173d8582860161151e565b925050602061174e8582860161159c565b9150509250929050565b60006020828403121561176a57600080fd5b600061177884828501611548565b91505092915050565b60006020828403121561179357600080fd5b60006117a18482850161155d565b91505092915050565b6000602082840312156117bc57600080fd5b60006117ca8482850161159c565b91505092915050565b6117dc81611dfe565b82525050565b6117eb81611e10565b82525050565b60006117fc82611d00565b6118068185611d16565b9350611816818560208601611e81565b61181f8161204d565b840191505092915050565b600061183582611d0b565b61183f8185611d27565b935061184f818560208601611e81565b6118588161204d565b840191505092915050565b600061186e82611d0b565b6118788185611d38565b9350611888818560208601611e81565b80840191505092915050565b60006118a1603283611d27565b91506118ac8261205e565b604082019050919050565b60006118c4602583611d27565b91506118cf826120ad565b604082019050919050565b60006118e7602483611d27565b91506118f2826120fc565b604082019050919050565b600061190a601983611d27565b91506119158261214b565b602082019050919050565b600061192d602c83611d27565b915061193882612174565b604082019050919050565b6000611950603883611d27565b915061195b826121c3565b604082019050919050565b6000611973602a83611d27565b915061197e82612212565b604082019050919050565b6000611996602983611d27565b91506119a182612261565b604082019050919050565b60006119b9602c83611d27565b91506119c4826122b0565b604082019050919050565b60006119dc602f83611d27565b91506119e7826122ff565b604082019050919050565b60006119ff602183611d27565b9150611a0a8261234e565b604082019050919050565b6000611a22603183611d27565b9150611a2d8261239d565b604082019050919050565b611a4181611e68565b82525050565b6000611a538285611863565b9150611a5f8284611863565b91508190509392505050565b6000602082019050611a8060008301846117d3565b92915050565b6000608082019050611a9b60008301876117d3565b611aa860208301866117d3565b611ab56040830185611a38565b8181036060830152611ac781846117f1565b905095945050505050565b6000602082019050611ae760008301846117e2565b92915050565b60006020820190508181036000830152611b07818461182a565b905092915050565b60006020820190508181036000830152611b2881611894565b9050919050565b60006020820190508181036000830152611b48816118b7565b9050919050565b60006020820190508181036000830152611b68816118da565b9050919050565b60006020820190508181036000830152611b88816118fd565b9050919050565b60006020820190508181036000830152611ba881611920565b9050919050565b60006020820190508181036000830152611bc881611943565b9050919050565b60006020820190508181036000830152611be881611966565b9050919050565b60006020820190508181036000830152611c0881611989565b9050919050565b60006020820190508181036000830152611c28816119ac565b9050919050565b60006020820190508181036000830152611c48816119cf565b9050919050565b60006020820190508181036000830152611c68816119f2565b9050919050565b60006020820190508181036000830152611c8881611a15565b9050919050565b6000602082019050611ca46000830184611a38565b92915050565b6000611cb4611cc5565b9050611cc08282611ee6565b919050565b6000604051905090565b600067ffffffffffffffff821115611cea57611ce961201e565b5b611cf38261204d565b9050602081019050919050565b600081519050919050565b600081519050919050565b600082825260208201905092915050565b600082825260208201905092915050565b600081905092915050565b6000611d4e82611e68565b9150611d5983611e68565b9250827fffffffffffffffffffffffffffffffffffffffffffffffffffffffffffffffff03821115611d8e57611d8d611f91565b5b828201905092915050565b6000611da482611e68565b9150611daf83611e68565b925082611dbf57611dbe611fc0565b5b828204905092915050565b6000611dd582611e68565b9150611de083611e68565b925082821015611df357611df2611f91565b5b828203905092915050565b6000611e0982611e48565b9050919050565b60008115159050919050565b60007fffffffff0000000000000000000000000000000000000000000000000000000082169050919050565b600073ffffffffffffffffffffffffffffffffffffffff82169050919050565b6000819050919050565b82818337600083830152505050565b60005b83811015611e9f578082015181840152602081019050611e84565b83811115611eae576000848401525b50505050565b60006002820490506001821680611ecc57607f821691505b60208210811415611ee057611edf611fef565b5b50919050565b611eef8261204d565b810181811067ffffffffffffffff82111715611f0e57611f0d61201e565b5b80604052505050565b6000611f2282611e68565b91507fffffffffffffffffffffffffffffffffffffffffffffffffffffffffffffffff821415611f5557611f54611f91565b5b600182019050919050565b6000611f6b82611e68565b9150611f7683611e68565b925082611f8657611f85611fc0565b5b828206905092915050565b7f4e487b7100000000000000000000000000000000000000000000000000000000600052601160045260246000fd5b7f4e487b7100000000000000000000000000000000000000000000000000000000600052601260045260246000fd5b7f4e487b7100000000000000000000000000000000000000000000000000000000600052602260045260246000fd5b7f4e487b7100000000000000000000000000000000000000000000000000000000600052604160045260246000fd5b6000601f19601f8301169050919050565b7f4552433732313a207472616e7366657220746f206e6f6e20455243373231526560008201527f63656976657220696d706c656d656e7465720000000000000000000000000000602082015250565b7f4552433732313a207472616e736665722066726f6d20696e636f72726563742060008201527f6f776e6572000000000000000000000000000000000000000000000000000000602082015250565b7f4552433732313a207472616e7366657220746f20746865207a65726f2061646460008201527f7265737300000000000000000000000000000000000000000000000000000000602082015250565b7f4552433732313a20617070726f766520746f2063616c6c657200000000000000600082015250565b7f4552433732313a206f70657261746f7220717565727920666f72206e6f6e657860008201527f697374656e7420746f6b656e0000000000000000000000000000000000000000602082015250565b7f4552433732313a20617070726f76652063616c6c6572206973206e6f74206f7760008201527f6e6572206e6f7220617070726f76656420666f7220616c6c0000000000000000602082015250565b7f4552433732313a2062616c616e636520717565727920666f7220746865207a6560008201527f726f206164647265737300000000000000000000000000000000000000000000602082015250565b7f4552433732313a206f776e657220717565727920666f72206e6f6e657869737460008201527f656e7420746f6b656e0000000000000000000000000000000000000000000000602082015250565b7f4552433732313a20617070726f76656420717565727920666f72206e6f6e657860008201527f697374656e7420746f6b656e0000000000000000000000000000000000000000602082015250565b7f4552433732314d657461646174613a2055524920717565727920666f72206e6f60008201527f6e6578697374656e7420746f6b656e0000000000000000000000000000000000602082015250565b7f4552433732313a20617070726f76616c20746f2063757272656e74206f776e6560008201527f7200000000000000000000000000000000000000000000000000000000000000602082015250565b7f4552433732313a207472616e736665722063616c6c6572206973206e6f74206f60008201527f776e6572206e6f7220617070726f766564000000000000000000000000000000602082015250565b6123f581611dfe565b811461240057600080fd5b50565b61240c81611e10565b811461241757600080fd5b50565b61242381611e1c565b811461242e57600080fd5b50565b61243a81611e68565b811461244557600080fd5b5056fea26469706673582212200305c466c7ca6ddbb1c13006677df6b4bea932555a85934da6d1cbf5e707017e64736f6c63430008020033",
  "linkReferences": {},
  "deployedLinkReferences": {}
}