{
  "_format": "hh-sol-artifact-1",
  "contractName": "MonstersOnTheWayCardsV2",
  "sourceName": "contracts/MonstersOnTheWayCardsV2.sol",
  "abi": [
    {
      "anonymous": false,
      "inputs": [
        {
          "indexed": true,
          "internalType": "address",
          "name": "owner",
          "type": "address"
        },
        {
          "indexed": true,
          "internalType": "address",
          "name": "approved",
          "type": "address"
        },
        {
          "indexed": true,
          "internalType": "uint256",
          "name": "tokenId",
          "type": "uint256"
        }
      ],
      "name": "Approval",
      "type": "event"
    },
    {
      "anonymous": false,
      "inputs": [
        {
          "indexed": true,
          "internalType": "address",
          "name": "owner",
          "type": "address"
        },
        {
          "indexed": true,
          "internalType": "address",
          "name": "operator",
          "type": "address"
        },
        {
          "indexed": false,
          "internalType": "bool",
          "name": "approved",
          "type": "bool"
        }
      ],
      "name": "ApprovalForAll",
      "type": "event"
    },
    {
      "anonymous": false,
      "inputs": [
        {
          "indexed": true,
          "internalType": "address",
          "name": "previousOwner",
          "type": "address"
        },
        {
          "indexed": true,
          "internalType": "address",
          "name": "newOwner",
          "type": "address"
        }
      ],
      "name": "OwnershipTransferred",
      "type": "event"
    },
    {
      "anonymous": false,
      "inputs": [
        {
          "indexed": false,
          "internalType": "address",
          "name": "account",
          "type": "address"
        }
      ],
      "name": "Paused",
      "type": "event"
    },
    {
      "anonymous": false,
      "inputs": [
        {
          "indexed": true,
          "internalType": "address",
          "name": "from",
          "type": "address"
        },
        {
          "indexed": true,
          "internalType": "address",
          "name": "to",
          "type": "address"
        },
        {
          "indexed": true,
          "internalType": "uint256",
          "name": "tokenId",
          "type": "uint256"
        }
      ],
      "name": "Transfer",
      "type": "event"
    },
    {
      "anonymous": false,
      "inputs": [
        {
          "indexed": false,
          "internalType": "address",
          "name": "account",
          "type": "address"
        }
      ],
      "name": "Unpaused",
      "type": "event"
    },
    {
      "inputs": [
        {
          "internalType": "address",
          "name": "to",
          "type": "address"
        },
        {
          "internalType": "uint256",
          "name": "tokenId",
          "type": "uint256"
        }
      ],
      "name": "approve",
      "outputs": [],
      "stateMutability": "nonpayable",
      "type": "function"
    },
    {
      "inputs": [
        {
          "internalType": "address",
          "name": "owner",
          "type": "address"
        }
      ],
      "name": "balanceOf",
      "outputs": [
        {
          "internalType": "uint256",
          "name": "",
          "type": "uint256"
        }
      ],
      "stateMutability": "view",
      "type": "function"
    },
    {
      "inputs": [],
      "name": "balanceToRetrieveByTheOwner",
      "outputs": [
        {
          "internalType": "uint256",
          "name": "",
          "type": "uint256"
        }
      ],
      "stateMutability": "view",
      "type": "function"
    },
    {
      "inputs": [
        {
          "internalType": "uint256",
          "name": "tokenId",
          "type": "uint256"
        }
      ],
      "name": "burn",
      "outputs": [],
      "stateMutability": "nonpayable",
      "type": "function"
    },
    {
      "inputs": [
        {
          "internalType": "uint256",
          "name": "tokenId",
          "type": "uint256"
        }
      ],
      "name": "checkIfTokensExists",
      "outputs": [
        {
          "internalType": "bool",
          "name": "",
          "type": "bool"
        }
      ],
      "stateMutability": "view",
      "type": "function"
    },
    {
      "inputs": [
        {
          "internalType": "uint256",
          "name": "tokenId",
          "type": "uint256"
        }
      ],
      "name": "getApproved",
      "outputs": [
        {
          "internalType": "address",
          "name": "",
          "type": "address"
        }
      ],
      "stateMutability": "view",
      "type": "function"
    },
    {
      "inputs": [],
      "name": "getCids",
      "outputs": [
        {
          "internalType": "string[]",
          "name": "",
          "type": "string[]"
        }
      ],
      "stateMutability": "view",
      "type": "function"
    },
    {
      "inputs": [],
      "name": "getCirculatingSupply",
      "outputs": [
        {
          "internalType": "uint256",
          "name": "",
          "type": "uint256"
        }
      ],
      "stateMutability": "view",
      "type": "function"
    },
    {
      "inputs": [],
      "name": "getFee",
      "outputs": [
        {
          "internalType": "uint256",
          "name": "",
          "type": "uint256"
        }
      ],
      "stateMutability": "view",
      "type": "function"
    },
    {
      "inputs": [],
      "name": "getLastTokenId",
      "outputs": [
        {
          "components": [
            {
              "internalType": "uint256",
              "name": "_value",
              "type": "uint256"
            }
          ],
          "internalType": "struct CountersUpgradeable.Counter",
          "name": "",
          "type": "tuple"
        }
      ],
      "stateMutability": "view",
      "type": "function"
    },
    {
      "inputs": [],
      "name": "getRetriever",
      "outputs": [
        {
          "internalType": "address",
          "name": "",
          "type": "address"
        }
      ],
      "stateMutability": "view",
      "type": "function"
    },
    {
      "inputs": [],
      "name": "getSmartContractAddr",
      "outputs": [
        {
          "internalType": "address",
          "name": "",
          "type": "address"
        }
      ],
      "stateMutability": "view",
      "type": "function"
    },
    {
      "inputs": [
        {
          "internalType": "address",
          "name": "addressOfPromethium",
          "type": "address"
        },
        {
          "internalType": "address",
          "name": "newOwner",
          "type": "address"
        }
      ],
      "name": "initialize",
      "outputs": [],
      "stateMutability": "nonpayable",
      "type": "function"
    },
    {
      "inputs": [
        {
          "internalType": "address",
          "name": "owner",
          "type": "address"
        },
        {
          "internalType": "address",
          "name": "operator",
          "type": "address"
        }
      ],
      "name": "isApprovedForAll",
      "outputs": [
        {
          "internalType": "bool",
          "name": "",
          "type": "bool"
        }
      ],
      "stateMutability": "view",
      "type": "function"
    },
    {
      "inputs": [],
      "name": "name",
      "outputs": [
        {
          "internalType": "string",
          "name": "",
          "type": "string"
        }
      ],
      "stateMutability": "view",
      "type": "function"
    },
    {
      "inputs": [],
      "name": "owner",
      "outputs": [
        {
          "internalType": "address",
          "name": "",
          "type": "address"
        }
      ],
      "stateMutability": "view",
      "type": "function"
    },
    {
      "inputs": [
        {
          "internalType": "uint256",
          "name": "tokenId",
          "type": "uint256"
        }
      ],
      "name": "ownerOf",
      "outputs": [
        {
          "internalType": "address",
          "name": "",
          "type": "address"
        }
      ],
      "stateMutability": "view",
      "type": "function"
    },
    {
      "inputs": [],
      "name": "pause",
      "outputs": [],
      "stateMutability": "nonpayable",
      "type": "function"
    },
    {
      "inputs": [],
      "name": "paused",
      "outputs": [
        {
          "internalType": "bool",
          "name": "",
          "type": "bool"
        }
      ],
      "stateMutability": "view",
      "type": "function"
    },
    {
      "inputs": [],
      "name": "renounceOwnership",
      "outputs": [],
      "stateMutability": "nonpayable",
      "type": "function"
    },
    {
      "inputs": [],
      "name": "retrieveFunds",
      "outputs": [],
      "stateMutability": "nonpayable",
      "type": "function"
    },
    {
      "inputs": [
        {
          "internalType": "address",
          "name": "to",
          "type": "address"
        },
        {
          "internalType": "string",
          "name": "uri",
          "type": "string"
        }
      ],
      "name": "safeMint",
      "outputs": [],
      "stateMutability": "payable",
      "type": "function"
    },
    {
      "inputs": [
        {
          "internalType": "bytes32",
          "name": "_hash",
          "type": "bytes32"
        },
        {
          "internalType": "bytes",
          "name": "_signature",
          "type": "bytes"
        },
        {
          "internalType": "address",
          "name": "to",
          "type": "address"
        },
        {
          "internalType": "string",
          "name": "uri",
          "type": "string"
        }
      ],
      "name": "safeMintWithTicket",
      "outputs": [],
      "stateMutability": "nonpayable",
      "type": "function"
    },
    {
      "inputs": [
        {
          "internalType": "address",
          "name": "to",
          "type": "address"
        },
        {
          "internalType": "string",
          "name": "uri",
          "type": "string"
        }
      ],
      "name": "safeMintWithTokens",
      "outputs": [],
      "stateMutability": "nonpayable",
      "type": "function"
    },
    {
      "inputs": [
        {
          "internalType": "address",
          "name": "from",
          "type": "address"
        },
        {
          "internalType": "address",
          "name": "to",
          "type": "address"
        },
        {
          "internalType": "uint256",
          "name": "tokenId",
          "type": "uint256"
        }
      ],
      "name": "safeTransferFrom",
      "outputs": [],
      "stateMutability": "nonpayable",
      "type": "function"
    },
    {
      "inputs": [
        {
          "internalType": "address",
          "name": "from",
          "type": "address"
        },
        {
          "internalType": "address",
          "name": "to",
          "type": "address"
        },
        {
          "internalType": "uint256",
          "name": "tokenId",
          "type": "uint256"
        },
        {
          "internalType": "bytes",
          "name": "_data",
          "type": "bytes"
        }
      ],
      "name": "safeTransferFrom",
      "outputs": [],
      "stateMutability": "nonpayable",
      "type": "function"
    },
    {
      "inputs": [
        {
          "internalType": "address",
          "name": "newAddress",
          "type": "address"
        }
      ],
      "name": "setAddressOfTokenContract",
      "outputs": [],
      "stateMutability": "nonpayable",
      "type": "function"
    },
    {
      "inputs": [
        {
          "internalType": "address",
          "name": "operator",
          "type": "address"
        },
        {
          "internalType": "bool",
          "name": "approved",
          "type": "bool"
        }
      ],
      "name": "setApprovalForAll",
      "outputs": [],
      "stateMutability": "nonpayable",
      "type": "function"
    },
    {
      "inputs": [
        {
          "internalType": "uint256",
          "name": "fee",
          "type": "uint256"
        }
      ],
      "name": "setFee",
      "outputs": [],
      "stateMutability": "nonpayable",
      "type": "function"
    },
    {
      "inputs": [
        {
          "internalType": "address",
          "name": "newRetrieve",
          "type": "address"
        }
      ],
      "name": "setRetriever",
      "outputs": [],
      "stateMutability": "nonpayable",
      "type": "function"
    },
    {
      "inputs": [
        {
          "internalType": "bytes4",
          "name": "interfaceId",
          "type": "bytes4"
        }
      ],
      "name": "supportsInterface",
      "outputs": [
        {
          "internalType": "bool",
          "name": "",
          "type": "bool"
        }
      ],
      "stateMutability": "view",
      "type": "function"
    },
    {
      "inputs": [],
      "name": "symbol",
      "outputs": [
        {
          "internalType": "string",
          "name": "",
          "type": "string"
        }
      ],
      "stateMutability": "view",
      "type": "function"
    },
    {
      "inputs": [
        {
          "internalType": "uint256",
          "name": "tokenId",
          "type": "uint256"
        }
      ],
      "name": "tokenURI",
      "outputs": [
        {
          "internalType": "string",
          "name": "",
          "type": "string"
        }
      ],
      "stateMutability": "view",
      "type": "function"
    },
    {
      "inputs": [
        {
          "internalType": "address",
          "name": "from",
          "type": "address"
        },
        {
          "internalType": "address",
          "name": "to",
          "type": "address"
        },
        {
          "internalType": "uint256",
          "name": "tokenId",
          "type": "uint256"
        }
      ],
      "name": "transferFrom",
      "outputs": [],
      "stateMutability": "nonpayable",
      "type": "function"
    },
    {
      "inputs": [
        {
          "internalType": "address",
          "name": "newOwner",
          "type": "address"
        }
      ],
      "name": "transferOwnership",
      "outputs": [],
      "stateMutability": "nonpayable",
      "type": "function"
    },
    {
      "inputs": [],
      "name": "unpause",
      "outputs": [],
      "stateMutability": "nonpayable",
      "type": "function"
    }
  ],
  "bytecode": "0x608060405234801561001057600080fd5b506158f880620000216000396000f3fe60806040526004361061020f5760003560e01c806370a08231116101185780639bbbe461116100a0578063c87b56dd1161006f578063c87b56dd1461073b578063ced72f8714610778578063d204c45e146107a3578063e985e9c5146107bf578063f2fde38b146107fc5761020f565b80639bbbe46114610695578063a22cb465146106c0578063b8236299146106e9578063b88d4fde146107125761020f565b80638d36f5f8116100e75780638d36f5f8146105ae5780638da5cb5b146105eb5780639266c05b1461061657806395d89b41146106415780639a8d141e1461066c5761020f565b806370a0823114610518578063715018a61461055557806383c4c00d1461056c5780638456cb59146105975761020f565b806342842e0e1161019b5780634e11ecb21161016a5780634e11ecb2146104455780635c975abb1461047057806361b20d8c1461049b5780636352211e146104b257806369fe0e2d146104ef5761020f565b806342842e0e146103a157806342966c68146103ca5780634668f1af146103f3578063485cc9551461041c5761020f565b806323b872dd116101e257806323b872dd146102e2578063278bea4b1461030b5780632b112e491461033457806330a29d391461035f5780633f4ba83a1461038a5761020f565b806301ffc9a71461021457806306fdde0314610251578063081812fc1461027c578063095ea7b3146102b9575b600080fd5b34801561022057600080fd5b5061023b60048036038101906102369190613eb1565b610825565b60405161024891906146d0565b60405180910390f35b34801561025d57600080fd5b50610266610907565b6040516102739190614730565b60405180910390f35b34801561028857600080fd5b506102a3600480360381019061029e9190613f03565b610999565b6040516102b0919061461e565b60405180910390f35b3480156102c557600080fd5b506102e060048036038101906102db9190613de2565b610a1e565b005b3480156102ee57600080fd5b5061030960048036038101906103049190613c88565b610b36565b005b34801561031757600080fd5b50610332600480360381019061032d9190613c23565b610b96565b005b34801561034057600080fd5b50610349610c57565b6040516103569190614b8d565b60405180910390f35b34801561036b57600080fd5b50610374610c6e565b60405161038191906146ae565b60405180910390f35b34801561039657600080fd5b5061039f610d48565b005b3480156103ad57600080fd5b506103c860048036038101906103c39190613c88565b610dce565b005b3480156103d657600080fd5b506103f160048036038101906103ec9190613f03565b610dee565b005b3480156103ff57600080fd5b5061041a60048036038101906104159190613e1e565b610e4a565b005b34801561042857600080fd5b50610443600480360381019061043e9190613c4c565b610f8c565b005b34801561045157600080fd5b5061045a611199565b6040516104679190614b8d565b60405180910390f35b34801561047c57600080fd5b5061048561121d565b60405161049291906146d0565b60405180910390f35b3480156104a757600080fd5b506104b0611234565b005b3480156104be57600080fd5b506104d960048036038101906104d49190613f03565b6113ac565b6040516104e6919061461e565b60405180910390f35b3480156104fb57600080fd5b5061051660048036038101906105119190613f03565b61145e565b005b34801561052457600080fd5b5061053f600480360381019061053a9190613c23565b6114e5565b60405161054c9190614b8d565b60405180910390f35b34801561056157600080fd5b5061056a61159d565b005b34801561057857600080fd5b50610581611625565b60405161058e9190614b72565b60405180910390f35b3480156105a357600080fd5b506105ac61164a565b005b3480156105ba57600080fd5b506105d560048036038101906105d09190613f03565b6116d0565b6040516105e291906146d0565b60405180910390f35b3480156105f757600080fd5b5061060061173c565b60405161060d919061461e565b60405180910390f35b34801561062257600080fd5b5061062b611767565b604051610638919061461e565b60405180910390f35b34801561064d57600080fd5b50610656611792565b6040516106639190614730565b60405180910390f35b34801561067857600080fd5b50610693600480360381019061068e9190613c23565b611824565b005b3480156106a157600080fd5b506106aa6118e5565b6040516106b7919061461e565b60405180910390f35b3480156106cc57600080fd5b506106e760048036038101906106e29190613d52565b611910565b005b3480156106f557600080fd5b50610710600480360381019061070b9190613d8e565b611926565b005b34801561071e57600080fd5b5061073960048036038101906107349190613cd7565b611b1e565b005b34801561074757600080fd5b50610762600480360381019061075d9190613f03565b611b80565b60405161076f9190614730565b60405180910390f35b34801561078457600080fd5b5061078d611b92565b60405161079a9190614b8d565b60405180910390f35b6107bd60048036038101906107b89190613d8e565b611b9d565b005b3480156107cb57600080fd5b506107e660048036038101906107e19190613c4c565b611c6b565b6040516107f391906146d0565b60405180910390f35b34801561080857600080fd5b50610823600480360381019061081e9190613c23565b611cff565b005b60007f80ac58cd000000000000000000000000000000000000000000000000000000007bffffffffffffffffffffffffffffffffffffffffffffffffffffffff1916827bffffffffffffffffffffffffffffffffffffffffffffffffffffffff191614806108f057507f5b5e139f000000000000000000000000000000000000000000000000000000007bffffffffffffffffffffffffffffffffffffffffffffffffffffffff1916827bffffffffffffffffffffffffffffffffffffffffffffffffffffffff1916145b8061090057506108ff82611df7565b5b9050919050565b60606065805461091690614e61565b80601f016020809104026020016040519081016040528092919081815260200182805461094290614e61565b801561098f5780601f106109645761010080835404028352916020019161098f565b820191906000526020600020905b81548152906001019060200180831161097257829003601f168201915b5050505050905090565b60006109a482611e61565b6109e3576040517f08c379a00000000000000000000000000000000000000000000000000000000081526004016109da90614a92565b60405180910390fd5b6069600083815260200190815260200160002060009054906101000a900473ffffffffffffffffffffffffffffffffffffffff169050919050565b6000610a29826113ac565b90508073ffffffffffffffffffffffffffffffffffffffff168373ffffffffffffffffffffffffffffffffffffffff161415610a9a576040517f08c379a0000000000000000000000000000000000000000000000000000000008152600401610a9190614af2565b60405180910390fd5b8073ffffffffffffffffffffffffffffffffffffffff16610ab9611ecd565b73ffffffffffffffffffffffffffffffffffffffff161480610ae85750610ae781610ae2611ecd565b611c6b565b5b610b27576040517f08c379a0000000000000000000000000000000000000000000000000000000008152600401610b1e90614932565b60405180910390fd5b610b318383611ed5565b505050565b610b47610b41611ecd565b82611f8e565b610b86576040517f08c379a0000000000000000000000000000000000000000000000000000000008152600401610b7d90614b12565b60405180910390fd5b610b9183838361206c565b505050565b610b9e611ecd565b73ffffffffffffffffffffffffffffffffffffffff16610bbc61173c565b73ffffffffffffffffffffffffffffffffffffffff1614610c12576040517f08c379a0000000000000000000000000000000000000000000000000000000008152600401610c0990614ab2565b60405180910390fd5b8061016160006101000a81548173ffffffffffffffffffffffffffffffffffffffff021916908373ffffffffffffffffffffffffffffffffffffffff16021790555050565b6000600761016654610c699190614cc7565b905090565b6060610163805480602002602001604051908101604052809291908181526020016000905b82821015610d3f578382906000526020600020018054610cb290614e61565b80601f0160208091040260200160405190810160405280929190818152602001828054610cde90614e61565b8015610d2b5780601f10610d0057610100808354040283529160200191610d2b565b820191906000526020600020905b815481529060010190602001808311610d0e57829003601f168201915b505050505081526020019060010190610c93565b50505050905090565b610d50611ecd565b73ffffffffffffffffffffffffffffffffffffffff16610d6e61173c565b73ffffffffffffffffffffffffffffffffffffffff1614610dc4576040517f08c379a0000000000000000000000000000000000000000000000000000000008152600401610dbb90614ab2565b60405180910390fd5b610dcc6122d3565b565b610de983838360405180602001604052806000815250611b1e565b505050565b610dff610df9611ecd565b82611f8e565b610e3e576040517f08c379a0000000000000000000000000000000000000000000000000000000008152600401610e3590614b52565b60405180910390fd5b610e4781612375565b50565b610e5261173c565b73ffffffffffffffffffffffffffffffffffffffff16610e728585612399565b73ffffffffffffffffffffffffffffffffffffffff1614610ec8576040517f08c379a0000000000000000000000000000000000000000000000000000000008152600401610ebf906149f2565b60405180910390fd5b610165600085815260200190815260200160002060009054906101000a900460ff1615610f2a576040517f08c379a0000000000000000000000000000000000000000000000000000000008152600401610f2190614772565b60405180910390fd5b6001610165600086815260200190815260200160002060006101000a81548160ff0219169083151502179055506000610f6461015f6123c0565b9050610f7161015f6123ce565b610f7b83826123e4565b610f858183612402565b5050505050565b600060019054906101000a900460ff16610fb45760008054906101000a900460ff1615610fbd565b610fbc612476565b5b610ffc576040517f08c379a0000000000000000000000000000000000000000000000000000000008152600401610ff3906149b2565b60405180910390fd5b60008060019054906101000a900460ff16159050801561104c576001600060016101000a81548160ff02191690831515021790555060016000806101000a81548160ff0219169083151502179055505b6110c06040518060400160405280600581526020017f43617264730000000000000000000000000000000000000000000000000000008152506040518060400160405280600381526020017f4352440000000000000000000000000000000000000000000000000000000000815250612487565b6110c86124e4565b6110d0612535565b6110d861258e565b6110e06125df565b8261016460006101000a81548173ffffffffffffffffffffffffffffffffffffffff021916908373ffffffffffffffffffffffffffffffffffffffff160217905550660aa87bee538000610160819055508161016160006101000a81548173ffffffffffffffffffffffffffffffffffffffff021916908373ffffffffffffffffffffffffffffffffffffffff16021790555080156111945760008060016101000a81548160ff0219169083151502179055505b505050565b60006111a3611ecd565b73ffffffffffffffffffffffffffffffffffffffff166111c161173c565b73ffffffffffffffffffffffffffffffffffffffff1614611217576040517f08c379a000000000000000000000000000000000000000000000000000000000815260040161120e90614ab2565b60405180910390fd5b47905090565b600060c960009054906101000a900460ff16905090565b61123c611ecd565b73ffffffffffffffffffffffffffffffffffffffff1661125a61173c565b73ffffffffffffffffffffffffffffffffffffffff16146112b0576040517f08c379a00000000000000000000000000000000000000000000000000000000081526004016112a790614ab2565b60405180910390fd5b600047116112f3576040517f08c379a00000000000000000000000000000000000000000000000000000000081526004016112ea906149d2565b60405180910390fd5b6000806112fe61173c565b73ffffffffffffffffffffffffffffffffffffffff164760405161132190614609565b60006040518083038185875af1925050503d806000811461135e576040519150601f19603f3d011682016040523d82523d6000602084013e611363565b606091505b5091509150816113a8576040517f08c379a000000000000000000000000000000000000000000000000000000000815260040161139f90614872565b60405180910390fd5b5050565b6000806067600084815260200190815260200160002060009054906101000a900473ffffffffffffffffffffffffffffffffffffffff169050600073ffffffffffffffffffffffffffffffffffffffff168173ffffffffffffffffffffffffffffffffffffffff161415611455576040517f08c379a000000000000000000000000000000000000000000000000000000000815260040161144c90614972565b60405180910390fd5b80915050919050565b611466611ecd565b73ffffffffffffffffffffffffffffffffffffffff1661148461173c565b73ffffffffffffffffffffffffffffffffffffffff16146114da576040517f08c379a00000000000000000000000000000000000000000000000000000000081526004016114d190614ab2565b60405180910390fd5b806101608190555050565b60008073ffffffffffffffffffffffffffffffffffffffff168273ffffffffffffffffffffffffffffffffffffffff161415611556576040517f08c379a000000000000000000000000000000000000000000000000000000000815260040161154d90614952565b60405180910390fd5b606860008373ffffffffffffffffffffffffffffffffffffffff1673ffffffffffffffffffffffffffffffffffffffff168152602001908152602001600020549050919050565b6115a5611ecd565b73ffffffffffffffffffffffffffffffffffffffff166115c361173c565b73ffffffffffffffffffffffffffffffffffffffff1614611619576040517f08c379a000000000000000000000000000000000000000000000000000000000815260040161161090614ab2565b60405180910390fd5b6116236000612638565b565b61162d6139ca565b61015f604051806020016040529081600082015481525050905090565b611652611ecd565b73ffffffffffffffffffffffffffffffffffffffff1661167061173c565b73ffffffffffffffffffffffffffffffffffffffff16146116c6576040517f08c379a00000000000000000000000000000000000000000000000000000000081526004016116bd90614ab2565b60405180910390fd5b6116ce612700565b565b60008073ffffffffffffffffffffffffffffffffffffffff166067600084815260200190815260200160002060009054906101000a900473ffffffffffffffffffffffffffffffffffffffff1673ffffffffffffffffffffffffffffffffffffffff1614159050919050565b600061012d60009054906101000a900473ffffffffffffffffffffffffffffffffffffffff16905090565b600061016160009054906101000a900473ffffffffffffffffffffffffffffffffffffffff16905090565b6060606680546117a190614e61565b80601f01602080910402602001604051908101604052809291908181526020018280546117cd90614e61565b801561181a5780601f106117ef5761010080835404028352916020019161181a565b820191906000526020600020905b8154815290600101906020018083116117fd57829003601f168201915b5050505050905090565b61182c611ecd565b73ffffffffffffffffffffffffffffffffffffffff1661184a61173c565b73ffffffffffffffffffffffffffffffffffffffff16146118a0576040517f08c379a000000000000000000000000000000000000000000000000000000000815260040161189790614ab2565b60405180910390fd5b8061016460006101000a81548173ffffffffffffffffffffffffffffffffffffffff021916908373ffffffffffffffffffffffffffffffffffffffff16021790555050565b600061016460009054906101000a900473ffffffffffffffffffffffffffffffffffffffff16905090565b61192261191b611ecd565b83836127a3565b5050565b600061016460009054906101000a900473ffffffffffffffffffffffffffffffffffffffff169050600a8173ffffffffffffffffffffffffffffffffffffffff166370a08231611974611ecd565b6040518263ffffffff1660e01b8152600401611990919061461e565b60206040518083038186803b1580156119a857600080fd5b505afa1580156119bc573d6000803e3d6000fd5b505050506040513d601f19601f820116820180604052508101906119e09190613f2c565b11611a20576040517f08c379a0000000000000000000000000000000000000000000000000000000008152600401611a17906147b2565b60405180910390fd5b8073ffffffffffffffffffffffffffffffffffffffff1663b7b9790c611a44611ecd565b600a6040518363ffffffff1660e01b8152600401611a63929190614685565b600060405180830381600087803b158015611a7d57600080fd5b505af1158015611a91573d6000803e3d6000fd5b5050505061016382908060018154018082558091505060019003906000526020600020016000909190919091509080519060200190611ad19291906139dd565b506000611adf61015f6123c0565b9050611aec61015f6123ce565b611b0360016101665461291090919063ffffffff16565b50611b0e84826123e4565b611b188184612402565b50505050565b611b2f611b29611ecd565b83611f8e565b611b6e576040517f08c379a0000000000000000000000000000000000000000000000000000000008152600401611b6590614b12565b60405180910390fd5b611b7a84848484612926565b50505050565b6060611b8b82612982565b9050919050565b600061016054905090565b61016054341015611be3576040517f08c379a0000000000000000000000000000000000000000000000000000000008152600401611bda90614a52565b60405180910390fd5b61016381908060018154018082558091505060019003906000526020600020016000909190919091509080519060200190611c1f9291906139dd565b506000611c2d61015f6123c0565b9050611c3a61015f6123ce565b611c5160016101665461291090919063ffffffff16565b50611c5c83826123e4565b611c668183612402565b505050565b6000606a60008473ffffffffffffffffffffffffffffffffffffffff1673ffffffffffffffffffffffffffffffffffffffff16815260200190815260200160002060008373ffffffffffffffffffffffffffffffffffffffff1673ffffffffffffffffffffffffffffffffffffffff16815260200190815260200160002060009054906101000a900460ff16905092915050565b611d07611ecd565b73ffffffffffffffffffffffffffffffffffffffff16611d2561173c565b73ffffffffffffffffffffffffffffffffffffffff1614611d7b576040517f08c379a0000000000000000000000000000000000000000000000000000000008152600401611d7290614ab2565b60405180910390fd5b600073ffffffffffffffffffffffffffffffffffffffff168173ffffffffffffffffffffffffffffffffffffffff161415611deb576040517f08c379a0000000000000000000000000000000000000000000000000000000008152600401611de290614812565b60405180910390fd5b611df481612638565b50565b60007f01ffc9a7000000000000000000000000000000000000000000000000000000007bffffffffffffffffffffffffffffffffffffffffffffffffffffffff1916827bffffffffffffffffffffffffffffffffffffffffffffffffffffffff1916149050919050565b60008073ffffffffffffffffffffffffffffffffffffffff166067600084815260200190815260200160002060009054906101000a900473ffffffffffffffffffffffffffffffffffffffff1673ffffffffffffffffffffffffffffffffffffffff1614159050919050565b600033905090565b816069600083815260200190815260200160002060006101000a81548173ffffffffffffffffffffffffffffffffffffffff021916908373ffffffffffffffffffffffffffffffffffffffff160217905550808273ffffffffffffffffffffffffffffffffffffffff16611f48836113ac565b73ffffffffffffffffffffffffffffffffffffffff167f8c5be1e5ebec7d5bd14f71427d1e84f3dd0314c0f7b2291e5b200ac8c7c3b92560405160405180910390a45050565b6000611f9982611e61565b611fd8576040517f08c379a0000000000000000000000000000000000000000000000000000000008152600401611fcf906148f2565b60405180910390fd5b6000611fe3836113ac565b90508073ffffffffffffffffffffffffffffffffffffffff168473ffffffffffffffffffffffffffffffffffffffff16148061205257508373ffffffffffffffffffffffffffffffffffffffff1661203a84610999565b73ffffffffffffffffffffffffffffffffffffffff16145b8061206357506120628185611c6b565b5b91505092915050565b8273ffffffffffffffffffffffffffffffffffffffff1661208c826113ac565b73ffffffffffffffffffffffffffffffffffffffff16146120e2576040517f08c379a00000000000000000000000000000000000000000000000000000000081526004016120d990614832565b60405180910390fd5b600073ffffffffffffffffffffffffffffffffffffffff168273ffffffffffffffffffffffffffffffffffffffff161415612152576040517f08c379a000000000000000000000000000000000000000000000000000000000815260040161214990614892565b60405180910390fd5b61215d838383612ad4565b612168600082611ed5565b6001606860008573ffffffffffffffffffffffffffffffffffffffff1673ffffffffffffffffffffffffffffffffffffffff16815260200190815260200160002060008282546121b89190614d4e565b925050819055506001606860008473ffffffffffffffffffffffffffffffffffffffff1673ffffffffffffffffffffffffffffffffffffffff168152602001908152602001600020600082825461220f9190614cc7565b92505081905550816067600083815260200190815260200160002060006101000a81548173ffffffffffffffffffffffffffffffffffffffff021916908373ffffffffffffffffffffffffffffffffffffffff160217905550808273ffffffffffffffffffffffffffffffffffffffff168473ffffffffffffffffffffffffffffffffffffffff167fddf252ad1be2c89b69c2b068fc378daa952ba7f163c4a11628f55a4df523b3ef60405160405180910390a46122ce838383612b2c565b505050565b6122db61121d565b61231a576040517f08c379a000000000000000000000000000000000000000000000000000000000815260040161231190614792565b60405180910390fd5b600060c960006101000a81548160ff0219169083151502179055507f5db9ee0a495bf2e6ff9c91a7834c1ba4fdd244a5e8aa4e537bd38aeae4b073aa61235e611ecd565b60405161236b919061461e565b60405180910390a1565b61238c600161016654612b3190919063ffffffff16565b5061239681612b47565b50565b60008060006123a88585612b9a565b915091506123b581612c1d565b819250505092915050565b600081600001549050919050565b6001816000016000828254019250508190555050565b6123fe828260405180602001604052806000815250612f6e565b5050565b61240b82611e61565b61244a576040517f08c379a000000000000000000000000000000000000000000000000000000000815260040161244190614992565b60405180910390fd5b806097600084815260200190815260200160002090805190602001906124719291906139dd565b505050565b600061248130612fc9565b15905090565b600060019054906101000a900460ff166124d6576040517f08c379a00000000000000000000000000000000000000000000000000000000081526004016124cd90614b32565b60405180910390fd5b6124e08282612fec565b5050565b600060019054906101000a900460ff16612533576040517f08c379a000000000000000000000000000000000000000000000000000000000815260040161252a90614b32565b60405180910390fd5b565b600060019054906101000a900460ff16612584576040517f08c379a000000000000000000000000000000000000000000000000000000000815260040161257b90614b32565b60405180910390fd5b61258c61306d565b565b600060019054906101000a900460ff166125dd576040517f08c379a00000000000000000000000000000000000000000000000000000000081526004016125d490614b32565b60405180910390fd5b565b600060019054906101000a900460ff1661262e576040517f08c379a000000000000000000000000000000000000000000000000000000000815260040161262590614b32565b60405180910390fd5b6126366130d9565b565b600061012d60009054906101000a900473ffffffffffffffffffffffffffffffffffffffff1690508161012d60006101000a81548173ffffffffffffffffffffffffffffffffffffffff021916908373ffffffffffffffffffffffffffffffffffffffff1602179055508173ffffffffffffffffffffffffffffffffffffffff168173ffffffffffffffffffffffffffffffffffffffff167f8be0079c531659141344cd1fd0a4f28419497f9722a3daafe3b4186f6b6457e060405160405180910390a35050565b61270861121d565b15612748576040517f08c379a000000000000000000000000000000000000000000000000000000000815260040161273f90614912565b60405180910390fd5b600160c960006101000a81548160ff0219169083151502179055507f62e78cea01bee320cd4e420270b5ea74000d11b0c9f74754ebdbfc544b05a25861278c611ecd565b604051612799919061461e565b60405180910390a1565b8173ffffffffffffffffffffffffffffffffffffffff168373ffffffffffffffffffffffffffffffffffffffff161415612812576040517f08c379a0000000000000000000000000000000000000000000000000000000008152600401612809906148b2565b60405180910390fd5b80606a60008573ffffffffffffffffffffffffffffffffffffffff1673ffffffffffffffffffffffffffffffffffffffff16815260200190815260200160002060008473ffffffffffffffffffffffffffffffffffffffff1673ffffffffffffffffffffffffffffffffffffffff16815260200190815260200160002060006101000a81548160ff0219169083151502179055508173ffffffffffffffffffffffffffffffffffffffff168373ffffffffffffffffffffffffffffffffffffffff167f17307eab39ab6107e8899845ad3d59bd9653f200f220920489ca2b5937696c318360405161290391906146d0565b60405180910390a3505050565b6000818361291e9190614cc7565b905092915050565b61293184848461206c565b61293d8484848461313a565b61297c576040517f08c379a0000000000000000000000000000000000000000000000000000000008152600401612973906147f2565b60405180910390fd5b50505050565b606061298d82611e61565b6129cc576040517f08c379a00000000000000000000000000000000000000000000000000000000081526004016129c390614a72565b60405180910390fd5b60006097600084815260200190815260200160002080546129ec90614e61565b80601f0160208091040260200160405190810160405280929190818152602001828054612a1890614e61565b8015612a655780601f10612a3a57610100808354040283529160200191612a65565b820191906000526020600020905b815481529060010190602001808311612a4857829003601f168201915b505050505090506000612a766132d1565b9050600081511415612a8c578192505050612acf565b600082511115612ac1578082604051602001612aa99291906145e5565b60405160208183030381529060405292505050612acf565b612aca8461330e565b925050505b919050565b612adc61121d565b15612b1c576040517f08c379a0000000000000000000000000000000000000000000000000000000008152600401612b1390614912565b60405180910390fd5b612b278383836133b5565b505050565b505050565b60008183612b3f9190614d4e565b905092915050565b612b50816133ba565b6000609760008381526020019081526020016000208054612b7090614e61565b905014612b9757609760008281526020019081526020016000206000612b969190613a63565b5b50565b600080604183511415612bdc5760008060006020860151925060408601519150606086015160001a9050612bd0878285856134d7565b94509450505050612c16565b604083511415612c0d576000806020850151915060408501519050612c028683836135e4565b935093505050612c16565b60006002915091505b9250929050565b60006004811115612c57577f4e487b7100000000000000000000000000000000000000000000000000000000600052602160045260246000fd5b816004811115612c90577f4e487b7100000000000000000000000000000000000000000000000000000000600052602160045260246000fd5b1415612c9b57612f6b565b60016004811115612cd5577f4e487b7100000000000000000000000000000000000000000000000000000000600052602160045260246000fd5b816004811115612d0e577f4e487b7100000000000000000000000000000000000000000000000000000000600052602160045260246000fd5b1415612d4f576040517f08c379a0000000000000000000000000000000000000000000000000000000008152600401612d4690614752565b60405180910390fd5b60026004811115612d89577f4e487b7100000000000000000000000000000000000000000000000000000000600052602160045260246000fd5b816004811115612dc2577f4e487b7100000000000000000000000000000000000000000000000000000000600052602160045260246000fd5b1415612e03576040517f08c379a0000000000000000000000000000000000000000000000000000000008152600401612dfa906147d2565b60405180910390fd5b60036004811115612e3d577f4e487b7100000000000000000000000000000000000000000000000000000000600052602160045260246000fd5b816004811115612e76577f4e487b7100000000000000000000000000000000000000000000000000000000600052602160045260246000fd5b1415612eb7576040517f08c379a0000000000000000000000000000000000000000000000000000000008152600401612eae906148d2565b60405180910390fd5b600480811115612ef0577f4e487b7100000000000000000000000000000000000000000000000000000000600052602160045260246000fd5b816004811115612f29577f4e487b7100000000000000000000000000000000000000000000000000000000600052602160045260246000fd5b1415612f6a576040517f08c379a0000000000000000000000000000000000000000000000000000000008152600401612f6190614a12565b60405180910390fd5b5b50565b612f788383613643565b612f85600084848461313a565b612fc4576040517f08c379a0000000000000000000000000000000000000000000000000000000008152600401612fbb906147f2565b60405180910390fd5b505050565b6000808273ffffffffffffffffffffffffffffffffffffffff163b119050919050565b600060019054906101000a900460ff1661303b576040517f08c379a000000000000000000000000000000000000000000000000000000000815260040161303290614b32565b60405180910390fd5b81606590805190602001906130519291906139dd565b5080606690805190602001906130689291906139dd565b505050565b600060019054906101000a900460ff166130bc576040517f08c379a00000000000000000000000000000000000000000000000000000000081526004016130b390614b32565b60405180910390fd5b600060c960006101000a81548160ff021916908315150217905550565b600060019054906101000a900460ff16613128576040517f08c379a000000000000000000000000000000000000000000000000000000000815260040161311f90614b32565b60405180910390fd5b613138613133611ecd565b612638565b565b600061315b8473ffffffffffffffffffffffffffffffffffffffff16612fc9565b156132c4578373ffffffffffffffffffffffffffffffffffffffff1663150b7a02613184611ecd565b8786866040518563ffffffff1660e01b81526004016131a69493929190614639565b602060405180830381600087803b1580156131c057600080fd5b505af19250505080156131f157506040513d601f19601f820116820180604052508101906131ee9190613eda565b60015b613274573d8060008114613221576040519150601f19603f3d011682016040523d82523d6000602084013e613226565b606091505b5060008151141561326c576040517f08c379a0000000000000000000000000000000000000000000000000000000008152600401613263906147f2565b60405180910390fd5b805181602001fd5b63150b7a0260e01b7bffffffffffffffffffffffffffffffffffffffffffffffffffffffff1916817bffffffffffffffffffffffffffffffffffffffffffffffffffffffff1916149150506132c9565b600190505b949350505050565b60606040518060400160405280600781526020017f697066733a2f2f00000000000000000000000000000000000000000000000000815250905090565b606061331982611e61565b613358576040517f08c379a000000000000000000000000000000000000000000000000000000000815260040161334f90614ad2565b60405180910390fd5b60006133626132d1565b9050600081511161338257604051806020016040528060008152506133ad565b8061338c8461381d565b60405160200161339d9291906145e5565b6040516020818303038152906040525b915050919050565b505050565b60006133c5826113ac565b90506133d381600084612ad4565b6133de600083611ed5565b6001606860008373ffffffffffffffffffffffffffffffffffffffff1673ffffffffffffffffffffffffffffffffffffffff168152602001908152602001600020600082825461342e9190614d4e565b925050819055506067600083815260200190815260200160002060006101000a81549073ffffffffffffffffffffffffffffffffffffffff021916905581600073ffffffffffffffffffffffffffffffffffffffff168273ffffffffffffffffffffffffffffffffffffffff167fddf252ad1be2c89b69c2b068fc378daa952ba7f163c4a11628f55a4df523b3ef60405160405180910390a46134d381600084612b2c565b5050565b6000807f7fffffffffffffffffffffffffffffff5d576e7357a4501ddfe92f46681b20a08360001c11156135125760006003915091506135db565b601b8560ff161415801561352a5750601c8560ff1614155b1561353c5760006004915091506135db565b60006001878787876040516000815260200160405260405161356194939291906146eb565b6020604051602081039080840390855afa158015613583573d6000803e3d6000fd5b505050602060405103519050600073ffffffffffffffffffffffffffffffffffffffff168173ffffffffffffffffffffffffffffffffffffffff1614156135d2576000600192509250506135db565b80600092509250505b94509492505050565b60008060007f7fffffffffffffffffffffffffffffffffffffffffffffffffffffffffffffff60001b841690506000601b60ff8660001c901c6136279190614cc7565b9050613635878288856134d7565b935093505050935093915050565b600073ffffffffffffffffffffffffffffffffffffffff168273ffffffffffffffffffffffffffffffffffffffff1614156136b3576040517f08c379a00000000000000000000000000000000000000000000000000000000081526004016136aa90614a32565b60405180910390fd5b6136bc81611e61565b156136fc576040517f08c379a00000000000000000000000000000000000000000000000000000000081526004016136f390614852565b60405180910390fd5b61370860008383612ad4565b6001606860008473ffffffffffffffffffffffffffffffffffffffff1673ffffffffffffffffffffffffffffffffffffffff16815260200190815260200160002060008282546137589190614cc7565b92505081905550816067600083815260200190815260200160002060006101000a81548173ffffffffffffffffffffffffffffffffffffffff021916908373ffffffffffffffffffffffffffffffffffffffff160217905550808273ffffffffffffffffffffffffffffffffffffffff16600073ffffffffffffffffffffffffffffffffffffffff167fddf252ad1be2c89b69c2b068fc378daa952ba7f163c4a11628f55a4df523b3ef60405160405180910390a461381960008383612b2c565b5050565b60606000821415613865576040518060400160405280600181526020017f300000000000000000000000000000000000000000000000000000000000000081525090506139c5565b600082905060005b6000821461389757808061388090614ec4565b915050600a826138909190614d1d565b915061386d565b60008167ffffffffffffffff8111156138d9577f4e487b7100000000000000000000000000000000000000000000000000000000600052604160045260246000fd5b6040519080825280601f01601f19166020018201604052801561390b5781602001600182028036833780820191505090505b5090505b600085146139be576001826139249190614d4e565b9150600a856139339190614f0d565b603061393f9190614cc7565b60f81b81838151811061397b577f4e487b7100000000000000000000000000000000000000000000000000000000600052603260045260246000fd5b60200101907effffffffffffffffffffffffffffffffffffffffffffffffffffffffffffff1916908160001a905350600a856139b79190614d1d565b945061390f565b8093505050505b919050565b6040518060200160405280600081525090565b8280546139e990614e61565b90600052602060002090601f016020900481019282613a0b5760008555613a52565b82601f10613a2457805160ff1916838001178555613a52565b82800160010185558215613a52579182015b82811115613a51578251825591602001919060010190613a36565b5b509050613a5f9190613aa3565b5090565b508054613a6f90614e61565b6000825580601f10613a815750613aa0565b601f016020900490600052602060002090810190613a9f9190613aa3565b5b50565b5b80821115613abc576000816000905550600101613aa4565b5090565b6000613ad3613ace84614bcd565b614ba8565b905082815260208101848484011115613aeb57600080fd5b613af6848285614e1f565b509392505050565b6000613b11613b0c84614bfe565b614ba8565b905082815260208101848484011115613b2957600080fd5b613b34848285614e1f565b509392505050565b600081359050613b4b8161584f565b92915050565b600081359050613b6081615866565b92915050565b600081359050613b758161587d565b92915050565b600081359050613b8a81615894565b92915050565b600081519050613b9f81615894565b92915050565b600082601f830112613bb657600080fd5b8135613bc6848260208601613ac0565b91505092915050565b600082601f830112613be057600080fd5b8135613bf0848260208601613afe565b91505092915050565b600081359050613c08816158ab565b92915050565b600081519050613c1d816158ab565b92915050565b600060208284031215613c3557600080fd5b6000613c4384828501613b3c565b91505092915050565b60008060408385031215613c5f57600080fd5b6000613c6d85828601613b3c565b9250506020613c7e85828601613b3c565b9150509250929050565b600080600060608486031215613c9d57600080fd5b6000613cab86828701613b3c565b9350506020613cbc86828701613b3c565b9250506040613ccd86828701613bf9565b9150509250925092565b60008060008060808587031215613ced57600080fd5b6000613cfb87828801613b3c565b9450506020613d0c87828801613b3c565b9350506040613d1d87828801613bf9565b925050606085013567ffffffffffffffff811115613d3a57600080fd5b613d4687828801613ba5565b91505092959194509250565b60008060408385031215613d6557600080fd5b6000613d7385828601613b3c565b9250506020613d8485828601613b51565b9150509250929050565b60008060408385031215613da157600080fd5b6000613daf85828601613b3c565b925050602083013567ffffffffffffffff811115613dcc57600080fd5b613dd885828601613bcf565b9150509250929050565b60008060408385031215613df557600080fd5b6000613e0385828601613b3c565b9250506020613e1485828601613bf9565b9150509250929050565b60008060008060808587031215613e3457600080fd5b6000613e4287828801613b66565b945050602085013567ffffffffffffffff811115613e5f57600080fd5b613e6b87828801613ba5565b9350506040613e7c87828801613b3c565b925050606085013567ffffffffffffffff811115613e9957600080fd5b613ea587828801613bcf565b91505092959194509250565b600060208284031215613ec357600080fd5b6000613ed184828501613b7b565b91505092915050565b600060208284031215613eec57600080fd5b6000613efa84828501613b90565b91505092915050565b600060208284031215613f1557600080fd5b6000613f2384828501613bf9565b91505092915050565b600060208284031215613f3e57600080fd5b6000613f4c84828501613c0e565b91505092915050565b6000613f618383614053565b905092915050565b613f7281614d82565b82525050565b6000613f8382614c3f565b613f8d8185614c6d565b935083602082028501613f9f85614c2f565b8060005b85811015613fdb5784840389528151613fbc8582613f55565b9450613fc783614c60565b925060208a01995050600181019050613fa3565b50829750879550505050505092915050565b613ff681614d94565b82525050565b61400581614da0565b82525050565b600061401682614c4a565b6140208185614c7e565b9350614030818560208601614e2e565b61403981614ffa565b840191505092915050565b61404d81614e0d565b82525050565b600061405e82614c55565b6140688185614c9a565b9350614078818560208601614e2e565b61408181614ffa565b840191505092915050565b600061409782614c55565b6140a18185614cab565b93506140b1818560208601614e2e565b6140ba81614ffa565b840191505092915050565b60006140d082614c55565b6140da8185614cbc565b93506140ea818560208601614e2e565b80840191505092915050565b6000614103601883614cab565b915061410e8261500b565b602082019050919050565b6000614126601e83614cab565b915061413182615034565b602082019050919050565b6000614149601483614cab565b91506141548261505d565b602082019050919050565b600061416c601683614cab565b915061417782615086565b602082019050919050565b600061418f601f83614cab565b915061419a826150af565b602082019050919050565b60006141b2603283614cab565b91506141bd826150d8565b604082019050919050565b60006141d5602683614cab565b91506141e082615127565b604082019050919050565b60006141f8602583614cab565b915061420382615176565b604082019050919050565b600061421b601c83614cab565b9150614226826151c5565b602082019050919050565b600061423e601483614cab565b9150614249826151ee565b602082019050919050565b6000614261602483614cab565b915061426c82615217565b604082019050919050565b6000614284601983614cab565b915061428f82615266565b602082019050919050565b60006142a7602283614cab565b91506142b28261528f565b604082019050919050565b60006142ca602c83614cab565b91506142d5826152de565b604082019050919050565b60006142ed601083614cab565b91506142f88261532d565b602082019050919050565b6000614310603883614cab565b915061431b82615356565b604082019050919050565b6000614333602a83614cab565b915061433e826153a5565b604082019050919050565b6000614356602983614cab565b9150614361826153f4565b604082019050919050565b6000614379602e83614cab565b915061438482615443565b604082019050919050565b600061439c602e83614cab565b91506143a782615492565b604082019050919050565b60006143bf601483614cab565b91506143ca826154e1565b602082019050919050565b60006143e2602583614cab565b91506143ed8261550a565b604082019050919050565b6000614405602283614cab565b915061441082615559565b604082019050919050565b6000614428602083614cab565b9150614433826155a8565b602082019050919050565b600061444b601883614cab565b9150614456826155d1565b602082019050919050565b600061446e603183614cab565b9150614479826155fa565b604082019050919050565b6000614491602c83614cab565b915061449c82615649565b604082019050919050565b60006144b4602083614cab565b91506144bf82615698565b602082019050919050565b60006144d7602f83614cab565b91506144e2826156c1565b604082019050919050565b60006144fa602183614cab565b915061450582615710565b604082019050919050565b600061451d600083614c8f565b91506145288261575f565b600082019050919050565b6000614540603183614cab565b915061454b82615762565b604082019050919050565b6000614563602b83614cab565b915061456e826157b1565b604082019050919050565b6000614586603083614cab565b915061459182615800565b604082019050919050565b6020820160008201516145b260008501826145b8565b50505050565b6145c181614df6565b82525050565b6145d081614df6565b82525050565b6145df81614e00565b82525050565b60006145f182856140c5565b91506145fd82846140c5565b91508190509392505050565b600061461482614510565b9150819050919050565b60006020820190506146336000830184613f69565b92915050565b600060808201905061464e6000830187613f69565b61465b6020830186613f69565b61466860408301856145c7565b818103606083015261467a818461400b565b905095945050505050565b600060408201905061469a6000830185613f69565b6146a76020830184614044565b9392505050565b600060208201905081810360008301526146c88184613f78565b905092915050565b60006020820190506146e56000830184613fed565b92915050565b60006080820190506147006000830187613ffc565b61470d60208301866145d6565b61471a6040830185613ffc565b6147276060830184613ffc565b95945050505050565b6000602082019050818103600083015261474a818461408c565b905092915050565b6000602082019050818103600083015261476b816140f6565b9050919050565b6000602082019050818103600083015261478b81614119565b9050919050565b600060208201905081810360008301526147ab8161413c565b9050919050565b600060208201905081810360008301526147cb8161415f565b9050919050565b600060208201905081810360008301526147eb81614182565b9050919050565b6000602082019050818103600083015261480b816141a5565b9050919050565b6000602082019050818103600083015261482b816141c8565b9050919050565b6000602082019050818103600083015261484b816141eb565b9050919050565b6000602082019050818103600083015261486b8161420e565b9050919050565b6000602082019050818103600083015261488b81614231565b9050919050565b600060208201905081810360008301526148ab81614254565b9050919050565b600060208201905081810360008301526148cb81614277565b9050919050565b600060208201905081810360008301526148eb8161429a565b9050919050565b6000602082019050818103600083015261490b816142bd565b9050919050565b6000602082019050818103600083015261492b816142e0565b9050919050565b6000602082019050818103600083015261494b81614303565b9050919050565b6000602082019050818103600083015261496b81614326565b9050919050565b6000602082019050818103600083015261498b81614349565b9050919050565b600060208201905081810360008301526149ab8161436c565b9050919050565b600060208201905081810360008301526149cb8161438f565b9050919050565b600060208201905081810360008301526149eb816143b2565b9050919050565b60006020820190508181036000830152614a0b816143d5565b9050919050565b60006020820190508181036000830152614a2b816143f8565b9050919050565b60006020820190508181036000830152614a4b8161441b565b9050919050565b60006020820190508181036000830152614a6b8161443e565b9050919050565b60006020820190508181036000830152614a8b81614461565b9050919050565b60006020820190508181036000830152614aab81614484565b9050919050565b60006020820190508181036000830152614acb816144a7565b9050919050565b60006020820190508181036000830152614aeb816144ca565b9050919050565b60006020820190508181036000830152614b0b816144ed565b9050919050565b60006020820190508181036000830152614b2b81614533565b9050919050565b60006020820190508181036000830152614b4b81614556565b9050919050565b60006020820190508181036000830152614b6b81614579565b9050919050565b6000602082019050614b87600083018461459c565b92915050565b6000602082019050614ba260008301846145c7565b92915050565b6000614bb2614bc3565b9050614bbe8282614e93565b919050565b6000604051905090565b600067ffffffffffffffff821115614be857614be7614fcb565b5b614bf182614ffa565b9050602081019050919050565b600067ffffffffffffffff821115614c1957614c18614fcb565b5b614c2282614ffa565b9050602081019050919050565b6000819050602082019050919050565b600081519050919050565b600081519050919050565b600081519050919050565b6000602082019050919050565b600082825260208201905092915050565b600082825260208201905092915050565b600081905092915050565b600082825260208201905092915050565b600082825260208201905092915050565b600081905092915050565b6000614cd282614df6565b9150614cdd83614df6565b9250827fffffffffffffffffffffffffffffffffffffffffffffffffffffffffffffffff03821115614d1257614d11614f3e565b5b828201905092915050565b6000614d2882614df6565b9150614d3383614df6565b925082614d4357614d42614f6d565b5b828204905092915050565b6000614d5982614df6565b9150614d6483614df6565b925082821015614d7757614d76614f3e565b5b828203905092915050565b6000614d8d82614dd6565b9050919050565b60008115159050919050565b6000819050919050565b60007fffffffff0000000000000000000000000000000000000000000000000000000082169050919050565b600073ffffffffffffffffffffffffffffffffffffffff82169050919050565b6000819050919050565b600060ff82169050919050565b6000614e1882614df6565b9050919050565b82818337600083830152505050565b60005b83811015614e4c578082015181840152602081019050614e31565b83811115614e5b576000848401525b50505050565b60006002820490506001821680614e7957607f821691505b60208210811415614e8d57614e8c614f9c565b5b50919050565b614e9c82614ffa565b810181811067ffffffffffffffff82111715614ebb57614eba614fcb565b5b80604052505050565b6000614ecf82614df6565b91507fffffffffffffffffffffffffffffffffffffffffffffffffffffffffffffffff821415614f0257614f01614f3e565b5b600182019050919050565b6000614f1882614df6565b9150614f2383614df6565b925082614f3357614f32614f6d565b5b828206905092915050565b7f4e487b7100000000000000000000000000000000000000000000000000000000600052601160045260246000fd5b7f4e487b7100000000000000000000000000000000000000000000000000000000600052601260045260246000fd5b7f4e487b7100000000000000000000000000000000000000000000000000000000600052602260045260246000fd5b7f4e487b7100000000000000000000000000000000000000000000000000000000600052604160045260246000fd5b6000601f19601f8301169050919050565b7f45434453413a20696e76616c6964207369676e61747572650000000000000000600082015250565b7f5468697320636f64652077617320616c72656164792072656465656d65640000600082015250565b7f5061757361626c653a206e6f7420706175736564000000000000000000000000600082015250565b7f4e6f7420656e6f7567682070726f6d65746869756d7300000000000000000000600082015250565b7f45434453413a20696e76616c6964207369676e6174757265206c656e67746800600082015250565b7f4552433732313a207472616e7366657220746f206e6f6e20455243373231526560008201527f63656976657220696d706c656d656e7465720000000000000000000000000000602082015250565b7f4f776e61626c653a206e6577206f776e657220697320746865207a65726f206160008201527f6464726573730000000000000000000000000000000000000000000000000000602082015250565b7f4552433732313a207472616e736665722066726f6d20696e636f72726563742060008201527f6f776e6572000000000000000000000000000000000000000000000000000000602082015250565b7f4552433732313a20746f6b656e20616c7265616479206d696e74656400000000600082015250565b7f4661696c656420746f2073656e64204574686572000000000000000000000000600082015250565b7f4552433732313a207472616e7366657220746f20746865207a65726f2061646460008201527f7265737300000000000000000000000000000000000000000000000000000000602082015250565b7f4552433732313a20617070726f766520746f2063616c6c657200000000000000600082015250565b7f45434453413a20696e76616c6964207369676e6174757265202773272076616c60008201527f7565000000000000000000000000000000000000000000000000000000000000602082015250565b7f4552433732313a206f70657261746f7220717565727920666f72206e6f6e657860008201527f697374656e7420746f6b656e0000000000000000000000000000000000000000602082015250565b7f5061757361626c653a2070617573656400000000000000000000000000000000600082015250565b7f4552433732313a20617070726f76652063616c6c6572206973206e6f74206f7760008201527f6e6572206e6f7220617070726f76656420666f7220616c6c0000000000000000602082015250565b7f4552433732313a2062616c616e636520717565727920666f7220746865207a6560008201527f726f206164647265737300000000000000000000000000000000000000000000602082015250565b7f4552433732313a206f776e657220717565727920666f72206e6f6e657869737460008201527f656e7420746f6b656e0000000000000000000000000000000000000000000000602082015250565b7f45524337323155524953746f726167653a2055524920736574206f66206e6f6e60008201527f6578697374656e7420746f6b656e000000000000000000000000000000000000602082015250565b7f496e697469616c697a61626c653a20636f6e747261637420697320616c72656160008201527f647920696e697469616c697a6564000000000000000000000000000000000000602082015250565b7f4e6f2066756e647320746f207265747269657665000000000000000000000000600082015250565b7f54686973206d696e7420776173206e6f74207369676e6564206279207468652060008201527f6f776e6572000000000000000000000000000000000000000000000000000000602082015250565b7f45434453413a20696e76616c6964207369676e6174757265202776272076616c60008201527f7565000000000000000000000000000000000000000000000000000000000000602082015250565b7f4552433732313a206d696e7420746f20746865207a65726f2061646472657373600082015250565b7f4e6f7420656e6f7567682066756e647320746f206d696e740000000000000000600082015250565b7f45524337323155524953746f726167653a2055524920717565727920666f722060008201527f6e6f6e6578697374656e7420746f6b656e000000000000000000000000000000602082015250565b7f4552433732313a20617070726f76656420717565727920666f72206e6f6e657860008201527f697374656e7420746f6b656e0000000000000000000000000000000000000000602082015250565b7f4f776e61626c653a2063616c6c6572206973206e6f7420746865206f776e6572600082015250565b7f4552433732314d657461646174613a2055524920717565727920666f72206e6f60008201527f6e6578697374656e7420746f6b656e0000000000000000000000000000000000602082015250565b7f4552433732313a20617070726f76616c20746f2063757272656e74206f776e6560008201527f7200000000000000000000000000000000000000000000000000000000000000602082015250565b50565b7f4552433732313a207472616e736665722063616c6c6572206973206e6f74206f60008201527f776e6572206e6f7220617070726f766564000000000000000000000000000000602082015250565b7f496e697469616c697a61626c653a20636f6e7472616374206973206e6f74206960008201527f6e697469616c697a696e67000000000000000000000000000000000000000000602082015250565b7f4552433732314275726e61626c653a2063616c6c6572206973206e6f74206f7760008201527f6e6572206e6f7220617070726f76656400000000000000000000000000000000602082015250565b61585881614d82565b811461586357600080fd5b50565b61586f81614d94565b811461587a57600080fd5b50565b61588681614da0565b811461589157600080fd5b50565b61589d81614daa565b81146158a857600080fd5b50565b6158b481614df6565b81146158bf57600080fd5b5056fea2646970667358221220ecf3e408f73f6613bc6b3991219929f6d79b0ae8cb548c31b348e97c5b2a370864736f6c63430008020033",
  "linkReferences": {},
  "deployedLinkReferences": {}
}