{
  "_format": "hh-sol-artifact-1",
  "contractName": "MonstersOnTheWayCardsV2",
  "sourceName": "contracts/MonstersOnTheWayCardsV2.sol",
  "abi": [
    {
      "anonymous": false,
      "inputs": [
        {
          "indexed": true,
          "internalType": "address",
          "name": "owner",
          "type": "address"
        },
        {
          "indexed": true,
          "internalType": "address",
          "name": "approved",
          "type": "address"
        },
        {
          "indexed": true,
          "internalType": "uint256",
          "name": "tokenId",
          "type": "uint256"
        }
      ],
      "name": "Approval",
      "type": "event"
    },
    {
      "anonymous": false,
      "inputs": [
        {
          "indexed": true,
          "internalType": "address",
          "name": "owner",
          "type": "address"
        },
        {
          "indexed": true,
          "internalType": "address",
          "name": "operator",
          "type": "address"
        },
        {
          "indexed": false,
          "internalType": "bool",
          "name": "approved",
          "type": "bool"
        }
      ],
      "name": "ApprovalForAll",
      "type": "event"
    },
    {
      "anonymous": false,
      "inputs": [
        {
          "indexed": true,
          "internalType": "address",
          "name": "previousOwner",
          "type": "address"
        },
        {
          "indexed": true,
          "internalType": "address",
          "name": "newOwner",
          "type": "address"
        }
      ],
      "name": "OwnershipTransferred",
      "type": "event"
    },
    {
      "anonymous": false,
      "inputs": [
        {
          "indexed": false,
          "internalType": "address",
          "name": "account",
          "type": "address"
        }
      ],
      "name": "Paused",
      "type": "event"
    },
    {
      "anonymous": false,
      "inputs": [
        {
          "indexed": true,
          "internalType": "address",
          "name": "from",
          "type": "address"
        },
        {
          "indexed": true,
          "internalType": "address",
          "name": "to",
          "type": "address"
        },
        {
          "indexed": true,
          "internalType": "uint256",
          "name": "tokenId",
          "type": "uint256"
        }
      ],
      "name": "Transfer",
      "type": "event"
    },
    {
      "anonymous": false,
      "inputs": [
        {
          "indexed": false,
          "internalType": "address",
          "name": "account",
          "type": "address"
        }
      ],
      "name": "Unpaused",
      "type": "event"
    },
    {
      "inputs": [
        {
          "internalType": "address",
          "name": "to",
          "type": "address"
        },
        {
          "internalType": "uint256",
          "name": "tokenId",
          "type": "uint256"
        }
      ],
      "name": "approve",
      "outputs": [],
      "stateMutability": "nonpayable",
      "type": "function"
    },
    {
      "inputs": [
        {
          "internalType": "address",
          "name": "owner",
          "type": "address"
        }
      ],
      "name": "balanceOf",
      "outputs": [
        {
          "internalType": "uint256",
          "name": "",
          "type": "uint256"
        }
      ],
      "stateMutability": "view",
      "type": "function"
    },
    {
      "inputs": [],
      "name": "balanceToRetrieveByTheOwner",
      "outputs": [
        {
          "internalType": "uint256",
          "name": "",
          "type": "uint256"
        }
      ],
      "stateMutability": "view",
      "type": "function"
    },
    {
      "inputs": [
        {
          "internalType": "uint256",
          "name": "tokenId",
          "type": "uint256"
        }
      ],
      "name": "burn",
      "outputs": [],
      "stateMutability": "nonpayable",
      "type": "function"
    },
    {
      "inputs": [
        {
          "internalType": "uint256",
          "name": "tokenId",
          "type": "uint256"
        }
      ],
      "name": "getApproved",
      "outputs": [
        {
          "internalType": "address",
          "name": "",
          "type": "address"
        }
      ],
      "stateMutability": "view",
      "type": "function"
    },
    {
      "inputs": [],
      "name": "getCids",
      "outputs": [
        {
          "internalType": "string[]",
          "name": "",
          "type": "string[]"
        }
      ],
      "stateMutability": "view",
      "type": "function"
    },
    {
      "inputs": [],
      "name": "getFee",
      "outputs": [
        {
          "internalType": "uint256",
          "name": "",
          "type": "uint256"
        }
      ],
      "stateMutability": "view",
      "type": "function"
    },
    {
      "inputs": [],
      "name": "getRetriever",
      "outputs": [
        {
          "internalType": "address",
          "name": "",
          "type": "address"
        }
      ],
      "stateMutability": "view",
      "type": "function"
    },
    {
      "inputs": [],
      "name": "getSmartContractAddr",
      "outputs": [
        {
          "internalType": "address",
          "name": "",
          "type": "address"
        }
      ],
      "stateMutability": "view",
      "type": "function"
    },
    {
      "inputs": [
        {
          "internalType": "address",
          "name": "addressOfPromethium",
          "type": "address"
        },
        {
          "internalType": "address",
          "name": "newOwner",
          "type": "address"
        }
      ],
      "name": "initialize",
      "outputs": [],
      "stateMutability": "nonpayable",
      "type": "function"
    },
    {
      "inputs": [
        {
          "internalType": "address",
          "name": "owner",
          "type": "address"
        },
        {
          "internalType": "address",
          "name": "operator",
          "type": "address"
        }
      ],
      "name": "isApprovedForAll",
      "outputs": [
        {
          "internalType": "bool",
          "name": "",
          "type": "bool"
        }
      ],
      "stateMutability": "view",
      "type": "function"
    },
    {
      "inputs": [],
      "name": "name",
      "outputs": [
        {
          "internalType": "string",
          "name": "",
          "type": "string"
        }
      ],
      "stateMutability": "view",
      "type": "function"
    },
    {
      "inputs": [],
      "name": "owner",
      "outputs": [
        {
          "internalType": "address",
          "name": "",
          "type": "address"
        }
      ],
      "stateMutability": "view",
      "type": "function"
    },
    {
      "inputs": [
        {
          "internalType": "uint256",
          "name": "tokenId",
          "type": "uint256"
        }
      ],
      "name": "ownerOf",
      "outputs": [
        {
          "internalType": "address",
          "name": "",
          "type": "address"
        }
      ],
      "stateMutability": "view",
      "type": "function"
    },
    {
      "inputs": [],
      "name": "pause",
      "outputs": [],
      "stateMutability": "nonpayable",
      "type": "function"
    },
    {
      "inputs": [],
      "name": "paused",
      "outputs": [
        {
          "internalType": "bool",
          "name": "",
          "type": "bool"
        }
      ],
      "stateMutability": "view",
      "type": "function"
    },
    {
      "inputs": [],
      "name": "renounceOwnership",
      "outputs": [],
      "stateMutability": "nonpayable",
      "type": "function"
    },
    {
      "inputs": [],
      "name": "retrieveFunds",
      "outputs": [],
      "stateMutability": "nonpayable",
      "type": "function"
    },
    {
      "inputs": [
        {
          "internalType": "address",
          "name": "to",
          "type": "address"
        },
        {
          "internalType": "string",
          "name": "uri",
          "type": "string"
        }
      ],
      "name": "safeMint",
      "outputs": [],
      "stateMutability": "payable",
      "type": "function"
    },
    {
      "inputs": [
        {
          "internalType": "bytes32",
          "name": "_hash",
          "type": "bytes32"
        },
        {
          "internalType": "bytes",
          "name": "_signature",
          "type": "bytes"
        },
        {
          "internalType": "address",
          "name": "to",
          "type": "address"
        },
        {
          "internalType": "string",
          "name": "uri",
          "type": "string"
        }
      ],
      "name": "safeMintWithTicket",
      "outputs": [],
      "stateMutability": "nonpayable",
      "type": "function"
    },
    {
      "inputs": [
        {
          "internalType": "address",
          "name": "to",
          "type": "address"
        },
        {
          "internalType": "string",
          "name": "uri",
          "type": "string"
        }
      ],
      "name": "safeMintWithTokens",
      "outputs": [],
      "stateMutability": "nonpayable",
      "type": "function"
    },
    {
      "inputs": [
        {
          "internalType": "address",
          "name": "from",
          "type": "address"
        },
        {
          "internalType": "address",
          "name": "to",
          "type": "address"
        },
        {
          "internalType": "uint256",
          "name": "tokenId",
          "type": "uint256"
        }
      ],
      "name": "safeTransferFrom",
      "outputs": [],
      "stateMutability": "nonpayable",
      "type": "function"
    },
    {
      "inputs": [
        {
          "internalType": "address",
          "name": "from",
          "type": "address"
        },
        {
          "internalType": "address",
          "name": "to",
          "type": "address"
        },
        {
          "internalType": "uint256",
          "name": "tokenId",
          "type": "uint256"
        },
        {
          "internalType": "bytes",
          "name": "_data",
          "type": "bytes"
        }
      ],
      "name": "safeTransferFrom",
      "outputs": [],
      "stateMutability": "nonpayable",
      "type": "function"
    },
    {
      "inputs": [
        {
          "internalType": "address",
          "name": "newAddress",
          "type": "address"
        }
      ],
      "name": "setAddressOfTokenContract",
      "outputs": [],
      "stateMutability": "nonpayable",
      "type": "function"
    },
    {
      "inputs": [
        {
          "internalType": "address",
          "name": "operator",
          "type": "address"
        },
        {
          "internalType": "bool",
          "name": "approved",
          "type": "bool"
        }
      ],
      "name": "setApprovalForAll",
      "outputs": [],
      "stateMutability": "nonpayable",
      "type": "function"
    },
    {
      "inputs": [
        {
          "internalType": "uint256",
          "name": "fee",
          "type": "uint256"
        }
      ],
      "name": "setFee",
      "outputs": [],
      "stateMutability": "nonpayable",
      "type": "function"
    },
    {
      "inputs": [
        {
          "internalType": "address",
          "name": "newRetrieve",
          "type": "address"
        }
      ],
      "name": "setRetriever",
      "outputs": [],
      "stateMutability": "nonpayable",
      "type": "function"
    },
    {
      "inputs": [
        {
          "internalType": "bytes4",
          "name": "interfaceId",
          "type": "bytes4"
        }
      ],
      "name": "supportsInterface",
      "outputs": [
        {
          "internalType": "bool",
          "name": "",
          "type": "bool"
        }
      ],
      "stateMutability": "view",
      "type": "function"
    },
    {
      "inputs": [],
      "name": "symbol",
      "outputs": [
        {
          "internalType": "string",
          "name": "",
          "type": "string"
        }
      ],
      "stateMutability": "view",
      "type": "function"
    },
    {
      "inputs": [
        {
          "internalType": "uint256",
          "name": "tokenId",
          "type": "uint256"
        }
      ],
      "name": "tokenURI",
      "outputs": [
        {
          "internalType": "string",
          "name": "",
          "type": "string"
        }
      ],
      "stateMutability": "view",
      "type": "function"
    },
    {
      "inputs": [
        {
          "internalType": "address",
          "name": "from",
          "type": "address"
        },
        {
          "internalType": "address",
          "name": "to",
          "type": "address"
        },
        {
          "internalType": "uint256",
          "name": "tokenId",
          "type": "uint256"
        }
      ],
      "name": "transferFrom",
      "outputs": [],
      "stateMutability": "nonpayable",
      "type": "function"
    },
    {
      "inputs": [
        {
          "internalType": "address",
          "name": "newOwner",
          "type": "address"
        }
      ],
      "name": "transferOwnership",
      "outputs": [],
      "stateMutability": "nonpayable",
      "type": "function"
    },
    {
      "inputs": [],
      "name": "unpause",
      "outputs": [],
      "stateMutability": "nonpayable",
      "type": "function"
    }
  ],
  "bytecode": "0x608060405234801561001057600080fd5b506156cf80620000216000396000f3fe6080604052600436106101ee5760003560e01c806369fe0e2d1161010d5780639bbbe461116100a0578063c87b56dd1161006f578063c87b56dd14610687578063ced72f87146106c4578063d204c45e146106ef578063e985e9c51461070b578063f2fde38b14610748576101ee565b80639bbbe461146105e1578063a22cb4651461060c578063b823629914610635578063b88d4fde1461065e576101ee565b80638da5cb5b116100dc5780638da5cb5b146105375780639266c05b1461056257806395d89b411461058d5780639a8d141e146105b8576101ee565b806369fe0e2d146104a357806370a08231146104cc578063715018a6146105095780638456cb5914610520576101ee565b806342842e0e116101855780634e11ecb2116101545780634e11ecb2146103f95780635c975abb1461042457806361b20d8c1461044f5780636352211e14610466576101ee565b806342842e0e1461035557806342966c681461037e5780634668f1af146103a7578063485cc955146103d0576101ee565b806323b872dd116101c157806323b872dd146102c1578063278bea4b146102ea57806330a29d39146103135780633f4ba83a1461033e576101ee565b806301ffc9a7146101f357806306fdde0314610230578063081812fc1461025b578063095ea7b314610298575b600080fd5b3480156101ff57600080fd5b5061021a60048036038101906102159190613cce565b610771565b60405161022791906144c2565b60405180910390f35b34801561023c57600080fd5b50610245610853565b6040516102529190614522565b60405180910390f35b34801561026757600080fd5b50610282600480360381019061027d9190613d20565b6108e5565b60405161028f9190614410565b60405180910390f35b3480156102a457600080fd5b506102bf60048036038101906102ba9190613bff565b61096a565b005b3480156102cd57600080fd5b506102e860048036038101906102e39190613aa5565b610a82565b005b3480156102f657600080fd5b50610311600480360381019061030c9190613a40565b610ae2565b005b34801561031f57600080fd5b50610328610ba3565b60405161033591906144a0565b60405180910390f35b34801561034a57600080fd5b50610353610c7d565b005b34801561036157600080fd5b5061037c60048036038101906103779190613aa5565b610d03565b005b34801561038a57600080fd5b506103a560048036038101906103a09190613d20565b610d23565b005b3480156103b357600080fd5b506103ce60048036038101906103c99190613c3b565b610d7f565b005b3480156103dc57600080fd5b506103f760048036038101906103f29190613a69565b610ec1565b005b34801561040557600080fd5b5061040e6110ce565b60405161041b9190614964565b60405180910390f35b34801561043057600080fd5b50610439611152565b60405161044691906144c2565b60405180910390f35b34801561045b57600080fd5b50610464611169565b005b34801561047257600080fd5b5061048d60048036038101906104889190613d20565b6112e1565b60405161049a9190614410565b60405180910390f35b3480156104af57600080fd5b506104ca60048036038101906104c59190613d20565b611393565b005b3480156104d857600080fd5b506104f360048036038101906104ee9190613a40565b61141a565b6040516105009190614964565b60405180910390f35b34801561051557600080fd5b5061051e6114d2565b005b34801561052c57600080fd5b5061053561155a565b005b34801561054357600080fd5b5061054c6115e0565b6040516105599190614410565b60405180910390f35b34801561056e57600080fd5b5061057761160b565b6040516105849190614410565b60405180910390f35b34801561059957600080fd5b506105a2611636565b6040516105af9190614522565b60405180910390f35b3480156105c457600080fd5b506105df60048036038101906105da9190613a40565b6116c8565b005b3480156105ed57600080fd5b506105f6611789565b6040516106039190614410565b60405180910390f35b34801561061857600080fd5b50610633600480360381019061062e9190613b6f565b6117b4565b005b34801561064157600080fd5b5061065c60048036038101906106579190613bab565b6117ca565b005b34801561066a57600080fd5b5061068560048036038101906106809190613af4565b6119aa565b005b34801561069357600080fd5b506106ae60048036038101906106a99190613d20565b611a0c565b6040516106bb9190614522565b60405180910390f35b3480156106d057600080fd5b506106d9611a1e565b6040516106e69190614964565b60405180910390f35b61070960048036038101906107049190613bab565b611a29565b005b34801561071757600080fd5b50610732600480360381019061072d9190613a69565b611adf565b60405161073f91906144c2565b60405180910390f35b34801561075457600080fd5b5061076f600480360381019061076a9190613a40565b611b73565b005b60007f80ac58cd000000000000000000000000000000000000000000000000000000007bffffffffffffffffffffffffffffffffffffffffffffffffffffffff1916827bffffffffffffffffffffffffffffffffffffffffffffffffffffffff1916148061083c57507f5b5e139f000000000000000000000000000000000000000000000000000000007bffffffffffffffffffffffffffffffffffffffffffffffffffffffff1916827bffffffffffffffffffffffffffffffffffffffffffffffffffffffff1916145b8061084c575061084b82611c6b565b5b9050919050565b60606065805461086290614c38565b80601f016020809104026020016040519081016040528092919081815260200182805461088e90614c38565b80156108db5780601f106108b0576101008083540402835291602001916108db565b820191906000526020600020905b8154815290600101906020018083116108be57829003601f168201915b5050505050905090565b60006108f082611cd5565b61092f576040517f08c379a000000000000000000000000000000000000000000000000000000000815260040161092690614884565b60405180910390fd5b6069600083815260200190815260200160002060009054906101000a900473ffffffffffffffffffffffffffffffffffffffff169050919050565b6000610975826112e1565b90508073ffffffffffffffffffffffffffffffffffffffff168373ffffffffffffffffffffffffffffffffffffffff1614156109e6576040517f08c379a00000000000000000000000000000000000000000000000000000000081526004016109dd906148e4565b60405180910390fd5b8073ffffffffffffffffffffffffffffffffffffffff16610a05611d41565b73ffffffffffffffffffffffffffffffffffffffff161480610a345750610a3381610a2e611d41565b611adf565b5b610a73576040517f08c379a0000000000000000000000000000000000000000000000000000000008152600401610a6a90614724565b60405180910390fd5b610a7d8383611d49565b505050565b610a93610a8d611d41565b82611e02565b610ad2576040517f08c379a0000000000000000000000000000000000000000000000000000000008152600401610ac990614904565b60405180910390fd5b610add838383611ee0565b505050565b610aea611d41565b73ffffffffffffffffffffffffffffffffffffffff16610b086115e0565b73ffffffffffffffffffffffffffffffffffffffff1614610b5e576040517f08c379a0000000000000000000000000000000000000000000000000000000008152600401610b55906148a4565b60405180910390fd5b8061016160006101000a81548173ffffffffffffffffffffffffffffffffffffffff021916908373ffffffffffffffffffffffffffffffffffffffff16021790555050565b6060610163805480602002602001604051908101604052809291908181526020016000905b82821015610c74578382906000526020600020018054610be790614c38565b80601f0160208091040260200160405190810160405280929190818152602001828054610c1390614c38565b8015610c605780601f10610c3557610100808354040283529160200191610c60565b820191906000526020600020905b815481529060010190602001808311610c4357829003601f168201915b505050505081526020019060010190610bc8565b50505050905090565b610c85611d41565b73ffffffffffffffffffffffffffffffffffffffff16610ca36115e0565b73ffffffffffffffffffffffffffffffffffffffff1614610cf9576040517f08c379a0000000000000000000000000000000000000000000000000000000008152600401610cf0906148a4565b60405180910390fd5b610d01612147565b565b610d1e838383604051806020016040528060008152506119aa565b505050565b610d34610d2e611d41565b82611e02565b610d73576040517f08c379a0000000000000000000000000000000000000000000000000000000008152600401610d6a90614944565b60405180910390fd5b610d7c816121e9565b50565b610d876115e0565b73ffffffffffffffffffffffffffffffffffffffff16610da785856121f5565b73ffffffffffffffffffffffffffffffffffffffff1614610dfd576040517f08c379a0000000000000000000000000000000000000000000000000000000008152600401610df4906147e4565b60405180910390fd5b610165600085815260200190815260200160002060009054906101000a900460ff1615610e5f576040517f08c379a0000000000000000000000000000000000000000000000000000000008152600401610e5690614564565b60405180910390fd5b6001610165600086815260200190815260200160002060006101000a81548160ff0219169083151502179055506000610e9961015f61221c565b9050610ea661015f61222a565b610eb08382612240565b610eba818361225e565b5050505050565b600060019054906101000a900460ff16610ee95760008054906101000a900460ff1615610ef2565b610ef16122d2565b5b610f31576040517f08c379a0000000000000000000000000000000000000000000000000000000008152600401610f28906147a4565b60405180910390fd5b60008060019054906101000a900460ff161590508015610f81576001600060016101000a81548160ff02191690831515021790555060016000806101000a81548160ff0219169083151502179055505b610ff56040518060400160405280600581526020017f43617264730000000000000000000000000000000000000000000000000000008152506040518060400160405280600381526020017f43524400000000000000000000000000000000000000000000000000000000008152506122e3565b610ffd612340565b611005612391565b61100d6123ea565b61101561243b565b8261016460006101000a81548173ffffffffffffffffffffffffffffffffffffffff021916908373ffffffffffffffffffffffffffffffffffffffff160217905550660aa87bee538000610160819055508161016160006101000a81548173ffffffffffffffffffffffffffffffffffffffff021916908373ffffffffffffffffffffffffffffffffffffffff16021790555080156110c95760008060016101000a81548160ff0219169083151502179055505b505050565b60006110d8611d41565b73ffffffffffffffffffffffffffffffffffffffff166110f66115e0565b73ffffffffffffffffffffffffffffffffffffffff161461114c576040517f08c379a0000000000000000000000000000000000000000000000000000000008152600401611143906148a4565b60405180910390fd5b47905090565b600060c960009054906101000a900460ff16905090565b611171611d41565b73ffffffffffffffffffffffffffffffffffffffff1661118f6115e0565b73ffffffffffffffffffffffffffffffffffffffff16146111e5576040517f08c379a00000000000000000000000000000000000000000000000000000000081526004016111dc906148a4565b60405180910390fd5b60004711611228576040517f08c379a000000000000000000000000000000000000000000000000000000000815260040161121f906147c4565b60405180910390fd5b6000806112336115e0565b73ffffffffffffffffffffffffffffffffffffffff1647604051611256906143fb565b60006040518083038185875af1925050503d8060008114611293576040519150601f19603f3d011682016040523d82523d6000602084013e611298565b606091505b5091509150816112dd576040517f08c379a00000000000000000000000000000000000000000000000000000000081526004016112d490614664565b60405180910390fd5b5050565b6000806067600084815260200190815260200160002060009054906101000a900473ffffffffffffffffffffffffffffffffffffffff169050600073ffffffffffffffffffffffffffffffffffffffff168173ffffffffffffffffffffffffffffffffffffffff16141561138a576040517f08c379a000000000000000000000000000000000000000000000000000000000815260040161138190614764565b60405180910390fd5b80915050919050565b61139b611d41565b73ffffffffffffffffffffffffffffffffffffffff166113b96115e0565b73ffffffffffffffffffffffffffffffffffffffff161461140f576040517f08c379a0000000000000000000000000000000000000000000000000000000008152600401611406906148a4565b60405180910390fd5b806101608190555050565b60008073ffffffffffffffffffffffffffffffffffffffff168273ffffffffffffffffffffffffffffffffffffffff16141561148b576040517f08c379a000000000000000000000000000000000000000000000000000000000815260040161148290614744565b60405180910390fd5b606860008373ffffffffffffffffffffffffffffffffffffffff1673ffffffffffffffffffffffffffffffffffffffff168152602001908152602001600020549050919050565b6114da611d41565b73ffffffffffffffffffffffffffffffffffffffff166114f86115e0565b73ffffffffffffffffffffffffffffffffffffffff161461154e576040517f08c379a0000000000000000000000000000000000000000000000000000000008152600401611545906148a4565b60405180910390fd5b6115586000612494565b565b611562611d41565b73ffffffffffffffffffffffffffffffffffffffff166115806115e0565b73ffffffffffffffffffffffffffffffffffffffff16146115d6576040517f08c379a00000000000000000000000000000000000000000000000000000000081526004016115cd906148a4565b60405180910390fd5b6115de61255c565b565b600061012d60009054906101000a900473ffffffffffffffffffffffffffffffffffffffff16905090565b600061016160009054906101000a900473ffffffffffffffffffffffffffffffffffffffff16905090565b60606066805461164590614c38565b80601f016020809104026020016040519081016040528092919081815260200182805461167190614c38565b80156116be5780601f10611693576101008083540402835291602001916116be565b820191906000526020600020905b8154815290600101906020018083116116a157829003601f168201915b5050505050905090565b6116d0611d41565b73ffffffffffffffffffffffffffffffffffffffff166116ee6115e0565b73ffffffffffffffffffffffffffffffffffffffff1614611744576040517f08c379a000000000000000000000000000000000000000000000000000000000815260040161173b906148a4565b60405180910390fd5b8061016460006101000a81548173ffffffffffffffffffffffffffffffffffffffff021916908373ffffffffffffffffffffffffffffffffffffffff16021790555050565b600061016460009054906101000a900473ffffffffffffffffffffffffffffffffffffffff16905090565b6117c66117bf611d41565b83836125ff565b5050565b600061016460009054906101000a900473ffffffffffffffffffffffffffffffffffffffff169050600a8173ffffffffffffffffffffffffffffffffffffffff166370a08231611818611d41565b6040518263ffffffff1660e01b81526004016118349190614410565b60206040518083038186803b15801561184c57600080fd5b505afa158015611860573d6000803e3d6000fd5b505050506040513d601f19601f820116820180604052508101906118849190613d49565b116118c4576040517f08c379a00000000000000000000000000000000000000000000000000000000081526004016118bb906145a4565b60405180910390fd5b8073ffffffffffffffffffffffffffffffffffffffff1663b7b9790c6118e8611d41565b600a6040518363ffffffff1660e01b8152600401611907929190614477565b600060405180830381600087803b15801561192157600080fd5b505af1158015611935573d6000803e3d6000fd5b50505050610163829080600181540180825580915050600190039060005260206000200160009091909190915090805190602001906119759291906137fa565b50600061198361015f61221c565b905061199061015f61222a565b61199a8482612240565b6119a4818461225e565b50505050565b6119bb6119b5611d41565b83611e02565b6119fa576040517f08c379a00000000000000000000000000000000000000000000000000000000081526004016119f190614904565b60405180910390fd5b611a068484848461276c565b50505050565b6060611a17826127c8565b9050919050565b600061016054905090565b61016054341015611a6f576040517f08c379a0000000000000000000000000000000000000000000000000000000008152600401611a6690614844565b60405180910390fd5b61016381908060018154018082558091505060019003906000526020600020016000909190919091509080519060200190611aab9291906137fa565b506000611ab961015f61221c565b9050611ac661015f61222a565b611ad08382612240565b611ada818361225e565b505050565b6000606a60008473ffffffffffffffffffffffffffffffffffffffff1673ffffffffffffffffffffffffffffffffffffffff16815260200190815260200160002060008373ffffffffffffffffffffffffffffffffffffffff1673ffffffffffffffffffffffffffffffffffffffff16815260200190815260200160002060009054906101000a900460ff16905092915050565b611b7b611d41565b73ffffffffffffffffffffffffffffffffffffffff16611b996115e0565b73ffffffffffffffffffffffffffffffffffffffff1614611bef576040517f08c379a0000000000000000000000000000000000000000000000000000000008152600401611be6906148a4565b60405180910390fd5b600073ffffffffffffffffffffffffffffffffffffffff168173ffffffffffffffffffffffffffffffffffffffff161415611c5f576040517f08c379a0000000000000000000000000000000000000000000000000000000008152600401611c5690614604565b60405180910390fd5b611c6881612494565b50565b60007f01ffc9a7000000000000000000000000000000000000000000000000000000007bffffffffffffffffffffffffffffffffffffffffffffffffffffffff1916827bffffffffffffffffffffffffffffffffffffffffffffffffffffffff1916149050919050565b60008073ffffffffffffffffffffffffffffffffffffffff166067600084815260200190815260200160002060009054906101000a900473ffffffffffffffffffffffffffffffffffffffff1673ffffffffffffffffffffffffffffffffffffffff1614159050919050565b600033905090565b816069600083815260200190815260200160002060006101000a81548173ffffffffffffffffffffffffffffffffffffffff021916908373ffffffffffffffffffffffffffffffffffffffff160217905550808273ffffffffffffffffffffffffffffffffffffffff16611dbc836112e1565b73ffffffffffffffffffffffffffffffffffffffff167f8c5be1e5ebec7d5bd14f71427d1e84f3dd0314c0f7b2291e5b200ac8c7c3b92560405160405180910390a45050565b6000611e0d82611cd5565b611e4c576040517f08c379a0000000000000000000000000000000000000000000000000000000008152600401611e43906146e4565b60405180910390fd5b6000611e57836112e1565b90508073ffffffffffffffffffffffffffffffffffffffff168473ffffffffffffffffffffffffffffffffffffffff161480611ec657508373ffffffffffffffffffffffffffffffffffffffff16611eae846108e5565b73ffffffffffffffffffffffffffffffffffffffff16145b80611ed75750611ed68185611adf565b5b91505092915050565b8273ffffffffffffffffffffffffffffffffffffffff16611f00826112e1565b73ffffffffffffffffffffffffffffffffffffffff1614611f56576040517f08c379a0000000000000000000000000000000000000000000000000000000008152600401611f4d90614624565b60405180910390fd5b600073ffffffffffffffffffffffffffffffffffffffff168273ffffffffffffffffffffffffffffffffffffffff161415611fc6576040517f08c379a0000000000000000000000000000000000000000000000000000000008152600401611fbd90614684565b60405180910390fd5b611fd183838361291a565b611fdc600082611d49565b6001606860008573ffffffffffffffffffffffffffffffffffffffff1673ffffffffffffffffffffffffffffffffffffffff168152602001908152602001600020600082825461202c9190614b25565b925050819055506001606860008473ffffffffffffffffffffffffffffffffffffffff1673ffffffffffffffffffffffffffffffffffffffff16815260200190815260200160002060008282546120839190614a9e565b92505081905550816067600083815260200190815260200160002060006101000a81548173ffffffffffffffffffffffffffffffffffffffff021916908373ffffffffffffffffffffffffffffffffffffffff160217905550808273ffffffffffffffffffffffffffffffffffffffff168473ffffffffffffffffffffffffffffffffffffffff167fddf252ad1be2c89b69c2b068fc378daa952ba7f163c4a11628f55a4df523b3ef60405160405180910390a4612142838383612972565b505050565b61214f611152565b61218e576040517f08c379a000000000000000000000000000000000000000000000000000000000815260040161218590614584565b60405180910390fd5b600060c960006101000a81548160ff0219169083151502179055507f5db9ee0a495bf2e6ff9c91a7834c1ba4fdd244a5e8aa4e537bd38aeae4b073aa6121d2611d41565b6040516121df9190614410565b60405180910390a1565b6121f281612977565b50565b600080600061220485856129ca565b9150915061221181612a4d565b819250505092915050565b600081600001549050919050565b6001816000016000828254019250508190555050565b61225a828260405180602001604052806000815250612d9e565b5050565b61226782611cd5565b6122a6576040517f08c379a000000000000000000000000000000000000000000000000000000000815260040161229d90614784565b60405180910390fd5b806097600084815260200190815260200160002090805190602001906122cd9291906137fa565b505050565b60006122dd30612df9565b15905090565b600060019054906101000a900460ff16612332576040517f08c379a000000000000000000000000000000000000000000000000000000000815260040161232990614924565b60405180910390fd5b61233c8282612e1c565b5050565b600060019054906101000a900460ff1661238f576040517f08c379a000000000000000000000000000000000000000000000000000000000815260040161238690614924565b60405180910390fd5b565b600060019054906101000a900460ff166123e0576040517f08c379a00000000000000000000000000000000000000000000000000000000081526004016123d790614924565b60405180910390fd5b6123e8612e9d565b565b600060019054906101000a900460ff16612439576040517f08c379a000000000000000000000000000000000000000000000000000000000815260040161243090614924565b60405180910390fd5b565b600060019054906101000a900460ff1661248a576040517f08c379a000000000000000000000000000000000000000000000000000000000815260040161248190614924565b60405180910390fd5b612492612f09565b565b600061012d60009054906101000a900473ffffffffffffffffffffffffffffffffffffffff1690508161012d60006101000a81548173ffffffffffffffffffffffffffffffffffffffff021916908373ffffffffffffffffffffffffffffffffffffffff1602179055508173ffffffffffffffffffffffffffffffffffffffff168173ffffffffffffffffffffffffffffffffffffffff167f8be0079c531659141344cd1fd0a4f28419497f9722a3daafe3b4186f6b6457e060405160405180910390a35050565b612564611152565b156125a4576040517f08c379a000000000000000000000000000000000000000000000000000000000815260040161259b90614704565b60405180910390fd5b600160c960006101000a81548160ff0219169083151502179055507f62e78cea01bee320cd4e420270b5ea74000d11b0c9f74754ebdbfc544b05a2586125e8611d41565b6040516125f59190614410565b60405180910390a1565b8173ffffffffffffffffffffffffffffffffffffffff168373ffffffffffffffffffffffffffffffffffffffff16141561266e576040517f08c379a0000000000000000000000000000000000000000000000000000000008152600401612665906146a4565b60405180910390fd5b80606a60008573ffffffffffffffffffffffffffffffffffffffff1673ffffffffffffffffffffffffffffffffffffffff16815260200190815260200160002060008473ffffffffffffffffffffffffffffffffffffffff1673ffffffffffffffffffffffffffffffffffffffff16815260200190815260200160002060006101000a81548160ff0219169083151502179055508173ffffffffffffffffffffffffffffffffffffffff168373ffffffffffffffffffffffffffffffffffffffff167f17307eab39ab6107e8899845ad3d59bd9653f200f220920489ca2b5937696c318360405161275f91906144c2565b60405180910390a3505050565b612777848484611ee0565b61278384848484612f6a565b6127c2576040517f08c379a00000000000000000000000000000000000000000000000000000000081526004016127b9906145e4565b60405180910390fd5b50505050565b60606127d382611cd5565b612812576040517f08c379a000000000000000000000000000000000000000000000000000000000815260040161280990614864565b60405180910390fd5b600060976000848152602001908152602001600020805461283290614c38565b80601f016020809104026020016040519081016040528092919081815260200182805461285e90614c38565b80156128ab5780601f10612880576101008083540402835291602001916128ab565b820191906000526020600020905b81548152906001019060200180831161288e57829003601f168201915b5050505050905060006128bc613101565b90506000815114156128d2578192505050612915565b6000825111156129075780826040516020016128ef9291906143d7565b60405160208183030381529060405292505050612915565b6129108461313e565b925050505b919050565b612922611152565b15612962576040517f08c379a000000000000000000000000000000000000000000000000000000000815260040161295990614704565b60405180910390fd5b61296d8383836131e5565b505050565b505050565b612980816131ea565b60006097600083815260200190815260200160002080546129a090614c38565b9050146129c7576097600082815260200190815260200160002060006129c69190613880565b5b50565b600080604183511415612a0c5760008060006020860151925060408601519150606086015160001a9050612a0087828585613307565b94509450505050612a46565b604083511415612a3d576000806020850151915060408501519050612a32868383613414565b935093505050612a46565b60006002915091505b9250929050565b60006004811115612a87577f4e487b7100000000000000000000000000000000000000000000000000000000600052602160045260246000fd5b816004811115612ac0577f4e487b7100000000000000000000000000000000000000000000000000000000600052602160045260246000fd5b1415612acb57612d9b565b60016004811115612b05577f4e487b7100000000000000000000000000000000000000000000000000000000600052602160045260246000fd5b816004811115612b3e577f4e487b7100000000000000000000000000000000000000000000000000000000600052602160045260246000fd5b1415612b7f576040517f08c379a0000000000000000000000000000000000000000000000000000000008152600401612b7690614544565b60405180910390fd5b60026004811115612bb9577f4e487b7100000000000000000000000000000000000000000000000000000000600052602160045260246000fd5b816004811115612bf2577f4e487b7100000000000000000000000000000000000000000000000000000000600052602160045260246000fd5b1415612c33576040517f08c379a0000000000000000000000000000000000000000000000000000000008152600401612c2a906145c4565b60405180910390fd5b60036004811115612c6d577f4e487b7100000000000000000000000000000000000000000000000000000000600052602160045260246000fd5b816004811115612ca6577f4e487b7100000000000000000000000000000000000000000000000000000000600052602160045260246000fd5b1415612ce7576040517f08c379a0000000000000000000000000000000000000000000000000000000008152600401612cde906146c4565b60405180910390fd5b600480811115612d20577f4e487b7100000000000000000000000000000000000000000000000000000000600052602160045260246000fd5b816004811115612d59577f4e487b7100000000000000000000000000000000000000000000000000000000600052602160045260246000fd5b1415612d9a576040517f08c379a0000000000000000000000000000000000000000000000000000000008152600401612d9190614804565b60405180910390fd5b5b50565b612da88383613473565b612db56000848484612f6a565b612df4576040517f08c379a0000000000000000000000000000000000000000000000000000000008152600401612deb906145e4565b60405180910390fd5b505050565b6000808273ffffffffffffffffffffffffffffffffffffffff163b119050919050565b600060019054906101000a900460ff16612e6b576040517f08c379a0000000000000000000000000000000000000000000000000000000008152600401612e6290614924565b60405180910390fd5b8160659080519060200190612e819291906137fa565b508060669080519060200190612e989291906137fa565b505050565b600060019054906101000a900460ff16612eec576040517f08c379a0000000000000000000000000000000000000000000000000000000008152600401612ee390614924565b60405180910390fd5b600060c960006101000a81548160ff021916908315150217905550565b600060019054906101000a900460ff16612f58576040517f08c379a0000000000000000000000000000000000000000000000000000000008152600401612f4f90614924565b60405180910390fd5b612f68612f63611d41565b612494565b565b6000612f8b8473ffffffffffffffffffffffffffffffffffffffff16612df9565b156130f4578373ffffffffffffffffffffffffffffffffffffffff1663150b7a02612fb4611d41565b8786866040518563ffffffff1660e01b8152600401612fd6949392919061442b565b602060405180830381600087803b158015612ff057600080fd5b505af192505050801561302157506040513d601f19601f8201168201806040525081019061301e9190613cf7565b60015b6130a4573d8060008114613051576040519150601f19603f3d011682016040523d82523d6000602084013e613056565b606091505b5060008151141561309c576040517f08c379a0000000000000000000000000000000000000000000000000000000008152600401613093906145e4565b60405180910390fd5b805181602001fd5b63150b7a0260e01b7bffffffffffffffffffffffffffffffffffffffffffffffffffffffff1916817bffffffffffffffffffffffffffffffffffffffffffffffffffffffff1916149150506130f9565b600190505b949350505050565b60606040518060400160405280600781526020017f697066733a2f2f00000000000000000000000000000000000000000000000000815250905090565b606061314982611cd5565b613188576040517f08c379a000000000000000000000000000000000000000000000000000000000815260040161317f906148c4565b60405180910390fd5b6000613192613101565b905060008151116131b257604051806020016040528060008152506131dd565b806131bc8461364d565b6040516020016131cd9291906143d7565b6040516020818303038152906040525b915050919050565b505050565b60006131f5826112e1565b90506132038160008461291a565b61320e600083611d49565b6001606860008373ffffffffffffffffffffffffffffffffffffffff1673ffffffffffffffffffffffffffffffffffffffff168152602001908152602001600020600082825461325e9190614b25565b925050819055506067600083815260200190815260200160002060006101000a81549073ffffffffffffffffffffffffffffffffffffffff021916905581600073ffffffffffffffffffffffffffffffffffffffff168273ffffffffffffffffffffffffffffffffffffffff167fddf252ad1be2c89b69c2b068fc378daa952ba7f163c4a11628f55a4df523b3ef60405160405180910390a461330381600084612972565b5050565b6000807f7fffffffffffffffffffffffffffffff5d576e7357a4501ddfe92f46681b20a08360001c111561334257600060039150915061340b565b601b8560ff161415801561335a5750601c8560ff1614155b1561336c57600060049150915061340b565b60006001878787876040516000815260200160405260405161339194939291906144dd565b6020604051602081039080840390855afa1580156133b3573d6000803e3d6000fd5b505050602060405103519050600073ffffffffffffffffffffffffffffffffffffffff168173ffffffffffffffffffffffffffffffffffffffff1614156134025760006001925092505061340b565b80600092509250505b94509492505050565b60008060007f7fffffffffffffffffffffffffffffffffffffffffffffffffffffffffffffff60001b841690506000601b60ff8660001c901c6134579190614a9e565b905061346587828885613307565b935093505050935093915050565b600073ffffffffffffffffffffffffffffffffffffffff168273ffffffffffffffffffffffffffffffffffffffff1614156134e3576040517f08c379a00000000000000000000000000000000000000000000000000000000081526004016134da90614824565b60405180910390fd5b6134ec81611cd5565b1561352c576040517f08c379a000000000000000000000000000000000000000000000000000000000815260040161352390614644565b60405180910390fd5b6135386000838361291a565b6001606860008473ffffffffffffffffffffffffffffffffffffffff1673ffffffffffffffffffffffffffffffffffffffff16815260200190815260200160002060008282546135889190614a9e565b92505081905550816067600083815260200190815260200160002060006101000a81548173ffffffffffffffffffffffffffffffffffffffff021916908373ffffffffffffffffffffffffffffffffffffffff160217905550808273ffffffffffffffffffffffffffffffffffffffff16600073ffffffffffffffffffffffffffffffffffffffff167fddf252ad1be2c89b69c2b068fc378daa952ba7f163c4a11628f55a4df523b3ef60405160405180910390a461364960008383612972565b5050565b60606000821415613695576040518060400160405280600181526020017f300000000000000000000000000000000000000000000000000000000000000081525090506137f5565b600082905060005b600082146136c75780806136b090614c9b565b915050600a826136c09190614af4565b915061369d565b60008167ffffffffffffffff811115613709577f4e487b7100000000000000000000000000000000000000000000000000000000600052604160045260246000fd5b6040519080825280601f01601f19166020018201604052801561373b5781602001600182028036833780820191505090505b5090505b600085146137ee576001826137549190614b25565b9150600a856137639190614ce4565b603061376f9190614a9e565b60f81b8183815181106137ab577f4e487b7100000000000000000000000000000000000000000000000000000000600052603260045260246000fd5b60200101907effffffffffffffffffffffffffffffffffffffffffffffffffffffffffffff1916908160001a905350600a856137e79190614af4565b945061373f565b8093505050505b919050565b82805461380690614c38565b90600052602060002090601f016020900481019282613828576000855561386f565b82601f1061384157805160ff191683800117855561386f565b8280016001018555821561386f579182015b8281111561386e578251825591602001919060010190613853565b5b50905061387c91906138c0565b5090565b50805461388c90614c38565b6000825580601f1061389e57506138bd565b601f0160209004906000526020600020908101906138bc91906138c0565b5b50565b5b808211156138d95760008160009055506001016138c1565b5090565b60006138f06138eb846149a4565b61497f565b90508281526020810184848401111561390857600080fd5b613913848285614bf6565b509392505050565b600061392e613929846149d5565b61497f565b90508281526020810184848401111561394657600080fd5b613951848285614bf6565b509392505050565b60008135905061396881615626565b92915050565b60008135905061397d8161563d565b92915050565b60008135905061399281615654565b92915050565b6000813590506139a78161566b565b92915050565b6000815190506139bc8161566b565b92915050565b600082601f8301126139d357600080fd5b81356139e38482602086016138dd565b91505092915050565b600082601f8301126139fd57600080fd5b8135613a0d84826020860161391b565b91505092915050565b600081359050613a2581615682565b92915050565b600081519050613a3a81615682565b92915050565b600060208284031215613a5257600080fd5b6000613a6084828501613959565b91505092915050565b60008060408385031215613a7c57600080fd5b6000613a8a85828601613959565b9250506020613a9b85828601613959565b9150509250929050565b600080600060608486031215613aba57600080fd5b6000613ac886828701613959565b9350506020613ad986828701613959565b9250506040613aea86828701613a16565b9150509250925092565b60008060008060808587031215613b0a57600080fd5b6000613b1887828801613959565b9450506020613b2987828801613959565b9350506040613b3a87828801613a16565b925050606085013567ffffffffffffffff811115613b5757600080fd5b613b63878288016139c2565b91505092959194509250565b60008060408385031215613b8257600080fd5b6000613b9085828601613959565b9250506020613ba18582860161396e565b9150509250929050565b60008060408385031215613bbe57600080fd5b6000613bcc85828601613959565b925050602083013567ffffffffffffffff811115613be957600080fd5b613bf5858286016139ec565b9150509250929050565b60008060408385031215613c1257600080fd5b6000613c2085828601613959565b9250506020613c3185828601613a16565b9150509250929050565b60008060008060808587031215613c5157600080fd5b6000613c5f87828801613983565b945050602085013567ffffffffffffffff811115613c7c57600080fd5b613c88878288016139c2565b9350506040613c9987828801613959565b925050606085013567ffffffffffffffff811115613cb657600080fd5b613cc2878288016139ec565b91505092959194509250565b600060208284031215613ce057600080fd5b6000613cee84828501613998565b91505092915050565b600060208284031215613d0957600080fd5b6000613d17848285016139ad565b91505092915050565b600060208284031215613d3257600080fd5b6000613d4084828501613a16565b91505092915050565b600060208284031215613d5b57600080fd5b6000613d6984828501613a2b565b91505092915050565b6000613d7e8383613e70565b905092915050565b613d8f81614b59565b82525050565b6000613da082614a16565b613daa8185614a44565b935083602082028501613dbc85614a06565b8060005b85811015613df85784840389528151613dd98582613d72565b9450613de483614a37565b925060208a01995050600181019050613dc0565b50829750879550505050505092915050565b613e1381614b6b565b82525050565b613e2281614b77565b82525050565b6000613e3382614a21565b613e3d8185614a55565b9350613e4d818560208601614c05565b613e5681614dd1565b840191505092915050565b613e6a81614be4565b82525050565b6000613e7b82614a2c565b613e858185614a71565b9350613e95818560208601614c05565b613e9e81614dd1565b840191505092915050565b6000613eb482614a2c565b613ebe8185614a82565b9350613ece818560208601614c05565b613ed781614dd1565b840191505092915050565b6000613eed82614a2c565b613ef78185614a93565b9350613f07818560208601614c05565b80840191505092915050565b6000613f20601883614a82565b9150613f2b82614de2565b602082019050919050565b6000613f43601e83614a82565b9150613f4e82614e0b565b602082019050919050565b6000613f66601483614a82565b9150613f7182614e34565b602082019050919050565b6000613f89601683614a82565b9150613f9482614e5d565b602082019050919050565b6000613fac601f83614a82565b9150613fb782614e86565b602082019050919050565b6000613fcf603283614a82565b9150613fda82614eaf565b604082019050919050565b6000613ff2602683614a82565b9150613ffd82614efe565b604082019050919050565b6000614015602583614a82565b915061402082614f4d565b604082019050919050565b6000614038601c83614a82565b915061404382614f9c565b602082019050919050565b600061405b601483614a82565b915061406682614fc5565b602082019050919050565b600061407e602483614a82565b915061408982614fee565b604082019050919050565b60006140a1601983614a82565b91506140ac8261503d565b602082019050919050565b60006140c4602283614a82565b91506140cf82615066565b604082019050919050565b60006140e7602c83614a82565b91506140f2826150b5565b604082019050919050565b600061410a601083614a82565b915061411582615104565b602082019050919050565b600061412d603883614a82565b91506141388261512d565b604082019050919050565b6000614150602a83614a82565b915061415b8261517c565b604082019050919050565b6000614173602983614a82565b915061417e826151cb565b604082019050919050565b6000614196602e83614a82565b91506141a18261521a565b604082019050919050565b60006141b9602e83614a82565b91506141c482615269565b604082019050919050565b60006141dc601483614a82565b91506141e7826152b8565b602082019050919050565b60006141ff602583614a82565b915061420a826152e1565b604082019050919050565b6000614222602283614a82565b915061422d82615330565b604082019050919050565b6000614245602083614a82565b91506142508261537f565b602082019050919050565b6000614268601883614a82565b9150614273826153a8565b602082019050919050565b600061428b603183614a82565b9150614296826153d1565b604082019050919050565b60006142ae602c83614a82565b91506142b982615420565b604082019050919050565b60006142d1602083614a82565b91506142dc8261546f565b602082019050919050565b60006142f4602f83614a82565b91506142ff82615498565b604082019050919050565b6000614317602183614a82565b9150614322826154e7565b604082019050919050565b600061433a600083614a66565b915061434582615536565b600082019050919050565b600061435d603183614a82565b915061436882615539565b604082019050919050565b6000614380602b83614a82565b915061438b82615588565b604082019050919050565b60006143a3603083614a82565b91506143ae826155d7565b604082019050919050565b6143c281614bcd565b82525050565b6143d181614bd7565b82525050565b60006143e38285613ee2565b91506143ef8284613ee2565b91508190509392505050565b60006144068261432d565b9150819050919050565b60006020820190506144256000830184613d86565b92915050565b60006080820190506144406000830187613d86565b61444d6020830186613d86565b61445a60408301856143b9565b818103606083015261446c8184613e28565b905095945050505050565b600060408201905061448c6000830185613d86565b6144996020830184613e61565b9392505050565b600060208201905081810360008301526144ba8184613d95565b905092915050565b60006020820190506144d76000830184613e0a565b92915050565b60006080820190506144f26000830187613e19565b6144ff60208301866143c8565b61450c6040830185613e19565b6145196060830184613e19565b95945050505050565b6000602082019050818103600083015261453c8184613ea9565b905092915050565b6000602082019050818103600083015261455d81613f13565b9050919050565b6000602082019050818103600083015261457d81613f36565b9050919050565b6000602082019050818103600083015261459d81613f59565b9050919050565b600060208201905081810360008301526145bd81613f7c565b9050919050565b600060208201905081810360008301526145dd81613f9f565b9050919050565b600060208201905081810360008301526145fd81613fc2565b9050919050565b6000602082019050818103600083015261461d81613fe5565b9050919050565b6000602082019050818103600083015261463d81614008565b9050919050565b6000602082019050818103600083015261465d8161402b565b9050919050565b6000602082019050818103600083015261467d8161404e565b9050919050565b6000602082019050818103600083015261469d81614071565b9050919050565b600060208201905081810360008301526146bd81614094565b9050919050565b600060208201905081810360008301526146dd816140b7565b9050919050565b600060208201905081810360008301526146fd816140da565b9050919050565b6000602082019050818103600083015261471d816140fd565b9050919050565b6000602082019050818103600083015261473d81614120565b9050919050565b6000602082019050818103600083015261475d81614143565b9050919050565b6000602082019050818103600083015261477d81614166565b9050919050565b6000602082019050818103600083015261479d81614189565b9050919050565b600060208201905081810360008301526147bd816141ac565b9050919050565b600060208201905081810360008301526147dd816141cf565b9050919050565b600060208201905081810360008301526147fd816141f2565b9050919050565b6000602082019050818103600083015261481d81614215565b9050919050565b6000602082019050818103600083015261483d81614238565b9050919050565b6000602082019050818103600083015261485d8161425b565b9050919050565b6000602082019050818103600083015261487d8161427e565b9050919050565b6000602082019050818103600083015261489d816142a1565b9050919050565b600060208201905081810360008301526148bd816142c4565b9050919050565b600060208201905081810360008301526148dd816142e7565b9050919050565b600060208201905081810360008301526148fd8161430a565b9050919050565b6000602082019050818103600083015261491d81614350565b9050919050565b6000602082019050818103600083015261493d81614373565b9050919050565b6000602082019050818103600083015261495d81614396565b9050919050565b600060208201905061497960008301846143b9565b92915050565b600061498961499a565b90506149958282614c6a565b919050565b6000604051905090565b600067ffffffffffffffff8211156149bf576149be614da2565b5b6149c882614dd1565b9050602081019050919050565b600067ffffffffffffffff8211156149f0576149ef614da2565b5b6149f982614dd1565b9050602081019050919050565b6000819050602082019050919050565b600081519050919050565b600081519050919050565b600081519050919050565b6000602082019050919050565b600082825260208201905092915050565b600082825260208201905092915050565b600081905092915050565b600082825260208201905092915050565b600082825260208201905092915050565b600081905092915050565b6000614aa982614bcd565b9150614ab483614bcd565b9250827fffffffffffffffffffffffffffffffffffffffffffffffffffffffffffffffff03821115614ae957614ae8614d15565b5b828201905092915050565b6000614aff82614bcd565b9150614b0a83614bcd565b925082614b1a57614b19614d44565b5b828204905092915050565b6000614b3082614bcd565b9150614b3b83614bcd565b925082821015614b4e57614b4d614d15565b5b828203905092915050565b6000614b6482614bad565b9050919050565b60008115159050919050565b6000819050919050565b60007fffffffff0000000000000000000000000000000000000000000000000000000082169050919050565b600073ffffffffffffffffffffffffffffffffffffffff82169050919050565b6000819050919050565b600060ff82169050919050565b6000614bef82614bcd565b9050919050565b82818337600083830152505050565b60005b83811015614c23578082015181840152602081019050614c08565b83811115614c32576000848401525b50505050565b60006002820490506001821680614c5057607f821691505b60208210811415614c6457614c63614d73565b5b50919050565b614c7382614dd1565b810181811067ffffffffffffffff82111715614c9257614c91614da2565b5b80604052505050565b6000614ca682614bcd565b91507fffffffffffffffffffffffffffffffffffffffffffffffffffffffffffffffff821415614cd957614cd8614d15565b5b600182019050919050565b6000614cef82614bcd565b9150614cfa83614bcd565b925082614d0a57614d09614d44565b5b828206905092915050565b7f4e487b7100000000000000000000000000000000000000000000000000000000600052601160045260246000fd5b7f4e487b7100000000000000000000000000000000000000000000000000000000600052601260045260246000fd5b7f4e487b7100000000000000000000000000000000000000000000000000000000600052602260045260246000fd5b7f4e487b7100000000000000000000000000000000000000000000000000000000600052604160045260246000fd5b6000601f19601f8301169050919050565b7f45434453413a20696e76616c6964207369676e61747572650000000000000000600082015250565b7f5468697320636f64652077617320616c72656164792072656465656d65640000600082015250565b7f5061757361626c653a206e6f7420706175736564000000000000000000000000600082015250565b7f4e6f7420656e6f7567682070726f6d65746869756d7300000000000000000000600082015250565b7f45434453413a20696e76616c6964207369676e6174757265206c656e67746800600082015250565b7f4552433732313a207472616e7366657220746f206e6f6e20455243373231526560008201527f63656976657220696d706c656d656e7465720000000000000000000000000000602082015250565b7f4f776e61626c653a206e6577206f776e657220697320746865207a65726f206160008201527f6464726573730000000000000000000000000000000000000000000000000000602082015250565b7f4552433732313a207472616e736665722066726f6d20696e636f72726563742060008201527f6f776e6572000000000000000000000000000000000000000000000000000000602082015250565b7f4552433732313a20746f6b656e20616c7265616479206d696e74656400000000600082015250565b7f4661696c656420746f2073656e64204574686572000000000000000000000000600082015250565b7f4552433732313a207472616e7366657220746f20746865207a65726f2061646460008201527f7265737300000000000000000000000000000000000000000000000000000000602082015250565b7f4552433732313a20617070726f766520746f2063616c6c657200000000000000600082015250565b7f45434453413a20696e76616c6964207369676e6174757265202773272076616c60008201527f7565000000000000000000000000000000000000000000000000000000000000602082015250565b7f4552433732313a206f70657261746f7220717565727920666f72206e6f6e657860008201527f697374656e7420746f6b656e0000000000000000000000000000000000000000602082015250565b7f5061757361626c653a2070617573656400000000000000000000000000000000600082015250565b7f4552433732313a20617070726f76652063616c6c6572206973206e6f74206f7760008201527f6e6572206e6f7220617070726f76656420666f7220616c6c0000000000000000602082015250565b7f4552433732313a2062616c616e636520717565727920666f7220746865207a6560008201527f726f206164647265737300000000000000000000000000000000000000000000602082015250565b7f4552433732313a206f776e657220717565727920666f72206e6f6e657869737460008201527f656e7420746f6b656e0000000000000000000000000000000000000000000000602082015250565b7f45524337323155524953746f726167653a2055524920736574206f66206e6f6e60008201527f6578697374656e7420746f6b656e000000000000000000000000000000000000602082015250565b7f496e697469616c697a61626c653a20636f6e747261637420697320616c72656160008201527f647920696e697469616c697a6564000000000000000000000000000000000000602082015250565b7f4e6f2066756e647320746f207265747269657665000000000000000000000000600082015250565b7f54686973206d696e7420776173206e6f74207369676e6564206279207468652060008201527f6f776e6572000000000000000000000000000000000000000000000000000000602082015250565b7f45434453413a20696e76616c6964207369676e6174757265202776272076616c60008201527f7565000000000000000000000000000000000000000000000000000000000000602082015250565b7f4552433732313a206d696e7420746f20746865207a65726f2061646472657373600082015250565b7f4e6f7420656e6f7567682066756e647320746f206d696e740000000000000000600082015250565b7f45524337323155524953746f726167653a2055524920717565727920666f722060008201527f6e6f6e6578697374656e7420746f6b656e000000000000000000000000000000602082015250565b7f4552433732313a20617070726f76656420717565727920666f72206e6f6e657860008201527f697374656e7420746f6b656e0000000000000000000000000000000000000000602082015250565b7f4f776e61626c653a2063616c6c6572206973206e6f7420746865206f776e6572600082015250565b7f4552433732314d657461646174613a2055524920717565727920666f72206e6f60008201527f6e6578697374656e7420746f6b656e0000000000000000000000000000000000602082015250565b7f4552433732313a20617070726f76616c20746f2063757272656e74206f776e6560008201527f7200000000000000000000000000000000000000000000000000000000000000602082015250565b50565b7f4552433732313a207472616e736665722063616c6c6572206973206e6f74206f60008201527f776e6572206e6f7220617070726f766564000000000000000000000000000000602082015250565b7f496e697469616c697a61626c653a20636f6e7472616374206973206e6f74206960008201527f6e697469616c697a696e67000000000000000000000000000000000000000000602082015250565b7f4552433732314275726e61626c653a2063616c6c6572206973206e6f74206f7760008201527f6e6572206e6f7220617070726f76656400000000000000000000000000000000602082015250565b61562f81614b59565b811461563a57600080fd5b50565b61564681614b6b565b811461565157600080fd5b50565b61565d81614b77565b811461566857600080fd5b50565b61567481614b81565b811461567f57600080fd5b50565b61568b81614bcd565b811461569657600080fd5b5056fea26469706673582212200e0c3613be5c5464135c9c166a9403cffdc83bc3b69c69c7765a28a893f4660464736f6c63430008020033",
  "linkReferences": {},
  "deployedLinkReferences": {}
}