{
  "_format": "hh-sol-artifact-1",
  "contractName": "MonstersOnTheWayCardsV2",
  "sourceName": "contracts/MonstersOnTheWayCardsV2.sol",
  "abi": [
    {
      "anonymous": false,
      "inputs": [
        {
          "indexed": true,
          "internalType": "address",
          "name": "owner",
          "type": "address"
        },
        {
          "indexed": true,
          "internalType": "address",
          "name": "approved",
          "type": "address"
        },
        {
          "indexed": true,
          "internalType": "uint256",
          "name": "tokenId",
          "type": "uint256"
        }
      ],
      "name": "Approval",
      "type": "event"
    },
    {
      "anonymous": false,
      "inputs": [
        {
          "indexed": true,
          "internalType": "address",
          "name": "owner",
          "type": "address"
        },
        {
          "indexed": true,
          "internalType": "address",
          "name": "operator",
          "type": "address"
        },
        {
          "indexed": false,
          "internalType": "bool",
          "name": "approved",
          "type": "bool"
        }
      ],
      "name": "ApprovalForAll",
      "type": "event"
    },
    {
      "anonymous": false,
      "inputs": [
        {
          "indexed": true,
          "internalType": "address",
          "name": "previousOwner",
          "type": "address"
        },
        {
          "indexed": true,
          "internalType": "address",
          "name": "newOwner",
          "type": "address"
        }
      ],
      "name": "OwnershipTransferred",
      "type": "event"
    },
    {
      "anonymous": false,
      "inputs": [
        {
          "indexed": false,
          "internalType": "address",
          "name": "account",
          "type": "address"
        }
      ],
      "name": "Paused",
      "type": "event"
    },
    {
      "anonymous": false,
      "inputs": [
        {
          "indexed": true,
          "internalType": "address",
          "name": "from",
          "type": "address"
        },
        {
          "indexed": true,
          "internalType": "address",
          "name": "to",
          "type": "address"
        },
        {
          "indexed": true,
          "internalType": "uint256",
          "name": "tokenId",
          "type": "uint256"
        }
      ],
      "name": "Transfer",
      "type": "event"
    },
    {
      "anonymous": false,
      "inputs": [
        {
          "indexed": false,
          "internalType": "address",
          "name": "account",
          "type": "address"
        }
      ],
      "name": "Unpaused",
      "type": "event"
    },
    {
      "inputs": [
        {
          "internalType": "address",
          "name": "to",
          "type": "address"
        },
        {
          "internalType": "uint256",
          "name": "tokenId",
          "type": "uint256"
        }
      ],
      "name": "approve",
      "outputs": [],
      "stateMutability": "nonpayable",
      "type": "function"
    },
    {
      "inputs": [
        {
          "internalType": "address",
          "name": "owner",
          "type": "address"
        }
      ],
      "name": "balanceOf",
      "outputs": [
        {
          "internalType": "uint256",
          "name": "",
          "type": "uint256"
        }
      ],
      "stateMutability": "view",
      "type": "function"
    },
    {
      "inputs": [],
      "name": "balanceToRetrieveByTheOwner",
      "outputs": [
        {
          "internalType": "uint256",
          "name": "",
          "type": "uint256"
        }
      ],
      "stateMutability": "view",
      "type": "function"
    },
    {
      "inputs": [
        {
          "internalType": "uint256",
          "name": "tokenId",
          "type": "uint256"
        }
      ],
      "name": "burn",
      "outputs": [],
      "stateMutability": "nonpayable",
      "type": "function"
    },
    {
      "inputs": [
        {
          "internalType": "uint256",
          "name": "id",
          "type": "uint256"
        }
      ],
      "name": "checkIfTokenExists",
      "outputs": [
        {
          "internalType": "bool",
          "name": "",
          "type": "bool"
        }
      ],
      "stateMutability": "view",
      "type": "function"
    },
    {
      "inputs": [
        {
          "internalType": "uint256",
          "name": "tokenId",
          "type": "uint256"
        }
      ],
      "name": "getApproved",
      "outputs": [
        {
          "internalType": "address",
          "name": "",
          "type": "address"
        }
      ],
      "stateMutability": "view",
      "type": "function"
    },
    {
      "inputs": [],
      "name": "getCids",
      "outputs": [
        {
          "internalType": "string[]",
          "name": "",
          "type": "string[]"
        }
      ],
      "stateMutability": "view",
      "type": "function"
    },
    {
      "inputs": [],
      "name": "getFee",
      "outputs": [
        {
          "internalType": "uint256",
          "name": "",
          "type": "uint256"
        }
      ],
      "stateMutability": "view",
      "type": "function"
    },
    {
      "inputs": [],
      "name": "getRetriever",
      "outputs": [
        {
          "internalType": "address",
          "name": "",
          "type": "address"
        }
      ],
      "stateMutability": "view",
      "type": "function"
    },
    {
      "inputs": [],
      "name": "getSmartContractAddr",
      "outputs": [
        {
          "internalType": "address",
          "name": "",
          "type": "address"
        }
      ],
      "stateMutability": "view",
      "type": "function"
    },
    {
      "inputs": [
        {
          "internalType": "address",
          "name": "addressOfPromethium",
          "type": "address"
        },
        {
          "internalType": "address",
          "name": "newOwner",
          "type": "address"
        }
      ],
      "name": "initialize",
      "outputs": [],
      "stateMutability": "nonpayable",
      "type": "function"
    },
    {
      "inputs": [
        {
          "internalType": "address",
          "name": "owner",
          "type": "address"
        },
        {
          "internalType": "address",
          "name": "operator",
          "type": "address"
        }
      ],
      "name": "isApprovedForAll",
      "outputs": [
        {
          "internalType": "bool",
          "name": "",
          "type": "bool"
        }
      ],
      "stateMutability": "view",
      "type": "function"
    },
    {
      "inputs": [],
      "name": "lastIdMinted",
      "outputs": [
        {
          "components": [
            {
              "internalType": "uint256",
              "name": "_value",
              "type": "uint256"
            }
          ],
          "internalType": "struct CountersUpgradeable.Counter",
          "name": "",
          "type": "tuple"
        }
      ],
      "stateMutability": "view",
      "type": "function"
    },
    {
      "inputs": [],
      "name": "name",
      "outputs": [
        {
          "internalType": "string",
          "name": "",
          "type": "string"
        }
      ],
      "stateMutability": "view",
      "type": "function"
    },
    {
      "inputs": [],
      "name": "owner",
      "outputs": [
        {
          "internalType": "address",
          "name": "",
          "type": "address"
        }
      ],
      "stateMutability": "view",
      "type": "function"
    },
    {
      "inputs": [
        {
          "internalType": "uint256",
          "name": "tokenId",
          "type": "uint256"
        }
      ],
      "name": "ownerOf",
      "outputs": [
        {
          "internalType": "address",
          "name": "",
          "type": "address"
        }
      ],
      "stateMutability": "view",
      "type": "function"
    },
    {
      "inputs": [],
      "name": "pause",
      "outputs": [],
      "stateMutability": "nonpayable",
      "type": "function"
    },
    {
      "inputs": [],
      "name": "paused",
      "outputs": [
        {
          "internalType": "bool",
          "name": "",
          "type": "bool"
        }
      ],
      "stateMutability": "view",
      "type": "function"
    },
    {
      "inputs": [],
      "name": "renounceOwnership",
      "outputs": [],
      "stateMutability": "nonpayable",
      "type": "function"
    },
    {
      "inputs": [],
      "name": "retrieveFunds",
      "outputs": [],
      "stateMutability": "nonpayable",
      "type": "function"
    },
    {
      "inputs": [
        {
          "internalType": "address",
          "name": "to",
          "type": "address"
        },
        {
          "internalType": "string",
          "name": "uri",
          "type": "string"
        }
      ],
      "name": "safeMint",
      "outputs": [],
      "stateMutability": "payable",
      "type": "function"
    },
    {
      "inputs": [
        {
          "internalType": "bytes32",
          "name": "_hash",
          "type": "bytes32"
        },
        {
          "internalType": "bytes",
          "name": "_signature",
          "type": "bytes"
        },
        {
          "internalType": "address",
          "name": "to",
          "type": "address"
        },
        {
          "internalType": "string",
          "name": "uri",
          "type": "string"
        }
      ],
      "name": "safeMintWithTicket",
      "outputs": [],
      "stateMutability": "nonpayable",
      "type": "function"
    },
    {
      "inputs": [
        {
          "internalType": "address",
          "name": "to",
          "type": "address"
        },
        {
          "internalType": "string",
          "name": "uri",
          "type": "string"
        }
      ],
      "name": "safeMintWithTokens",
      "outputs": [],
      "stateMutability": "nonpayable",
      "type": "function"
    },
    {
      "inputs": [
        {
          "internalType": "address",
          "name": "from",
          "type": "address"
        },
        {
          "internalType": "address",
          "name": "to",
          "type": "address"
        },
        {
          "internalType": "uint256",
          "name": "tokenId",
          "type": "uint256"
        }
      ],
      "name": "safeTransferFrom",
      "outputs": [],
      "stateMutability": "nonpayable",
      "type": "function"
    },
    {
      "inputs": [
        {
          "internalType": "address",
          "name": "from",
          "type": "address"
        },
        {
          "internalType": "address",
          "name": "to",
          "type": "address"
        },
        {
          "internalType": "uint256",
          "name": "tokenId",
          "type": "uint256"
        },
        {
          "internalType": "bytes",
          "name": "_data",
          "type": "bytes"
        }
      ],
      "name": "safeTransferFrom",
      "outputs": [],
      "stateMutability": "nonpayable",
      "type": "function"
    },
    {
      "inputs": [
        {
          "internalType": "address",
          "name": "newAddress",
          "type": "address"
        }
      ],
      "name": "setAddressOfTokenContract",
      "outputs": [],
      "stateMutability": "nonpayable",
      "type": "function"
    },
    {
      "inputs": [
        {
          "internalType": "address",
          "name": "operator",
          "type": "address"
        },
        {
          "internalType": "bool",
          "name": "approved",
          "type": "bool"
        }
      ],
      "name": "setApprovalForAll",
      "outputs": [],
      "stateMutability": "nonpayable",
      "type": "function"
    },
    {
      "inputs": [
        {
          "internalType": "uint256",
          "name": "fee",
          "type": "uint256"
        }
      ],
      "name": "setFee",
      "outputs": [],
      "stateMutability": "nonpayable",
      "type": "function"
    },
    {
      "inputs": [
        {
          "internalType": "address",
          "name": "newRetrieve",
          "type": "address"
        }
      ],
      "name": "setRetriever",
      "outputs": [],
      "stateMutability": "nonpayable",
      "type": "function"
    },
    {
      "inputs": [
        {
          "internalType": "bytes4",
          "name": "interfaceId",
          "type": "bytes4"
        }
      ],
      "name": "supportsInterface",
      "outputs": [
        {
          "internalType": "bool",
          "name": "",
          "type": "bool"
        }
      ],
      "stateMutability": "view",
      "type": "function"
    },
    {
      "inputs": [],
      "name": "symbol",
      "outputs": [
        {
          "internalType": "string",
          "name": "",
          "type": "string"
        }
      ],
      "stateMutability": "view",
      "type": "function"
    },
    {
      "inputs": [
        {
          "internalType": "uint256",
          "name": "tokenId",
          "type": "uint256"
        }
      ],
      "name": "tokenURI",
      "outputs": [
        {
          "internalType": "string",
          "name": "",
          "type": "string"
        }
      ],
      "stateMutability": "view",
      "type": "function"
    },
    {
      "inputs": [
        {
          "internalType": "address",
          "name": "from",
          "type": "address"
        },
        {
          "internalType": "address",
          "name": "to",
          "type": "address"
        },
        {
          "internalType": "uint256",
          "name": "tokenId",
          "type": "uint256"
        }
      ],
      "name": "transferFrom",
      "outputs": [],
      "stateMutability": "nonpayable",
      "type": "function"
    },
    {
      "inputs": [
        {
          "internalType": "address",
          "name": "newOwner",
          "type": "address"
        }
      ],
      "name": "transferOwnership",
      "outputs": [],
      "stateMutability": "nonpayable",
      "type": "function"
    },
    {
      "inputs": [],
      "name": "unpause",
      "outputs": [],
      "stateMutability": "nonpayable",
      "type": "function"
    }
  ],
  "bytecode": "0x608060405234801561001057600080fd5b5061583780620000216000396000f3fe6080604052600436106102045760003560e01c80636352211e116101185780639bbbe461116100a0578063c87b56dd1161006f578063c87b56dd14610705578063ced72f8714610742578063d204c45e1461076d578063e985e9c514610789578063f2fde38b146107c657610204565b80639bbbe4611461065f578063a22cb4651461068a578063b8236299146106b3578063b88d4fde146106dc57610204565b80638456cb59116100e75780638456cb591461059e5780638da5cb5b146105b55780639266c05b146105e057806395d89b411461060b5780639a8d141e1461063657610204565b80636352211e146104e457806369fe0e2d1461052157806370a082311461054a578063715018a61461058757610204565b80633f4ba83a1161019b5780634668f1af1161016a5780634668f1af14610425578063485cc9551461044e5780634e11ecb2146104775780635c975abb146104a257806361b20d8c146104cd57610204565b80633f4ba83a1461039157806342842e0e146103a857806342966c68146103d1578063437decde146103fa57610204565b80631b334918116101d75780631b334918146102d757806323b872dd14610314578063278bea4b1461033d57806330a29d391461036657610204565b806301ffc9a71461020957806306fdde0314610246578063081812fc14610271578063095ea7b3146102ae575b600080fd5b34801561021557600080fd5b50610230600480360381019061022b9190613df0565b6107ef565b60405161023d919061460f565b60405180910390f35b34801561025257600080fd5b5061025b6108d1565b604051610268919061466f565b60405180910390f35b34801561027d57600080fd5b5061029860048036038101906102939190613e42565b610963565b6040516102a5919061455d565b60405180910390f35b3480156102ba57600080fd5b506102d560048036038101906102d09190613d21565b6109e8565b005b3480156102e357600080fd5b506102fe60048036038101906102f99190613e42565b610b00565b60405161030b919061460f565b60405180910390f35b34801561032057600080fd5b5061033b60048036038101906103369190613bc7565b610b6c565b005b34801561034957600080fd5b50610364600480360381019061035f9190613b62565b610bcc565b005b34801561037257600080fd5b5061037b610c8d565b60405161038891906145ed565b60405180910390f35b34801561039d57600080fd5b506103a6610d67565b005b3480156103b457600080fd5b506103cf60048036038101906103ca9190613bc7565b610ded565b005b3480156103dd57600080fd5b506103f860048036038101906103f39190613e42565b610e0d565b005b34801561040657600080fd5b5061040f610e69565b60405161041c9190614ab1565b60405180910390f35b34801561043157600080fd5b5061044c60048036038101906104479190613d5d565b610e8e565b005b34801561045a57600080fd5b5061047560048036038101906104709190613b8b565b610fd0565b005b34801561048357600080fd5b5061048c6111dd565b6040516104999190614acc565b60405180910390f35b3480156104ae57600080fd5b506104b7611261565b6040516104c4919061460f565b60405180910390f35b3480156104d957600080fd5b506104e2611278565b005b3480156104f057600080fd5b5061050b60048036038101906105069190613e42565b6113f0565b604051610518919061455d565b60405180910390f35b34801561052d57600080fd5b5061054860048036038101906105439190613e42565b6114a2565b005b34801561055657600080fd5b50610571600480360381019061056c9190613b62565b611529565b60405161057e9190614acc565b60405180910390f35b34801561059357600080fd5b5061059c6115e1565b005b3480156105aa57600080fd5b506105b3611669565b005b3480156105c157600080fd5b506105ca6116ef565b6040516105d7919061455d565b60405180910390f35b3480156105ec57600080fd5b506105f561171a565b604051610602919061455d565b60405180910390f35b34801561061757600080fd5b50610620611745565b60405161062d919061466f565b60405180910390f35b34801561064257600080fd5b5061065d60048036038101906106589190613b62565b6117d7565b005b34801561066b57600080fd5b50610674611898565b604051610681919061455d565b60405180910390f35b34801561069657600080fd5b506106b160048036038101906106ac9190613c91565b6118c3565b005b3480156106bf57600080fd5b506106da60048036038101906106d59190613ccd565b6118d9565b005b3480156106e857600080fd5b5061070360048036038101906106fe9190613c16565b611ab9565b005b34801561071157600080fd5b5061072c60048036038101906107279190613e42565b611b1b565b604051610739919061466f565b60405180910390f35b34801561074e57600080fd5b50610757611b2d565b6040516107649190614acc565b60405180910390f35b61078760048036038101906107829190613ccd565b611b38565b005b34801561079557600080fd5b506107b060048036038101906107ab9190613b8b565b611bee565b6040516107bd919061460f565b60405180910390f35b3480156107d257600080fd5b506107ed60048036038101906107e89190613b62565b611c82565b005b60007f80ac58cd000000000000000000000000000000000000000000000000000000007bffffffffffffffffffffffffffffffffffffffffffffffffffffffff1916827bffffffffffffffffffffffffffffffffffffffffffffffffffffffff191614806108ba57507f5b5e139f000000000000000000000000000000000000000000000000000000007bffffffffffffffffffffffffffffffffffffffffffffffffffffffff1916827bffffffffffffffffffffffffffffffffffffffffffffffffffffffff1916145b806108ca57506108c982611d7a565b5b9050919050565b6060606580546108e090614da0565b80601f016020809104026020016040519081016040528092919081815260200182805461090c90614da0565b80156109595780601f1061092e57610100808354040283529160200191610959565b820191906000526020600020905b81548152906001019060200180831161093c57829003601f168201915b5050505050905090565b600061096e82611de4565b6109ad576040517f08c379a00000000000000000000000000000000000000000000000000000000081526004016109a4906149d1565b60405180910390fd5b6069600083815260200190815260200160002060009054906101000a900473ffffffffffffffffffffffffffffffffffffffff169050919050565b60006109f3826113f0565b90508073ffffffffffffffffffffffffffffffffffffffff168373ffffffffffffffffffffffffffffffffffffffff161415610a64576040517f08c379a0000000000000000000000000000000000000000000000000000000008152600401610a5b90614a31565b60405180910390fd5b8073ffffffffffffffffffffffffffffffffffffffff16610a83611e50565b73ffffffffffffffffffffffffffffffffffffffff161480610ab25750610ab181610aac611e50565b611bee565b5b610af1576040517f08c379a0000000000000000000000000000000000000000000000000000000008152600401610ae890614871565b60405180910390fd5b610afb8383611e58565b505050565b60008073ffffffffffffffffffffffffffffffffffffffff166067600084815260200190815260200160002060009054906101000a900473ffffffffffffffffffffffffffffffffffffffff1673ffffffffffffffffffffffffffffffffffffffff1614159050919050565b610b7d610b77611e50565b82611f11565b610bbc576040517f08c379a0000000000000000000000000000000000000000000000000000000008152600401610bb390614a51565b60405180910390fd5b610bc7838383611fef565b505050565b610bd4611e50565b73ffffffffffffffffffffffffffffffffffffffff16610bf26116ef565b73ffffffffffffffffffffffffffffffffffffffff1614610c48576040517f08c379a0000000000000000000000000000000000000000000000000000000008152600401610c3f906149f1565b60405180910390fd5b8061016160006101000a81548173ffffffffffffffffffffffffffffffffffffffff021916908373ffffffffffffffffffffffffffffffffffffffff16021790555050565b6060610163805480602002602001604051908101604052809291908181526020016000905b82821015610d5e578382906000526020600020018054610cd190614da0565b80601f0160208091040260200160405190810160405280929190818152602001828054610cfd90614da0565b8015610d4a5780601f10610d1f57610100808354040283529160200191610d4a565b820191906000526020600020905b815481529060010190602001808311610d2d57829003601f168201915b505050505081526020019060010190610cb2565b50505050905090565b610d6f611e50565b73ffffffffffffffffffffffffffffffffffffffff16610d8d6116ef565b73ffffffffffffffffffffffffffffffffffffffff1614610de3576040517f08c379a0000000000000000000000000000000000000000000000000000000008152600401610dda906149f1565b60405180910390fd5b610deb612256565b565b610e0883838360405180602001604052806000815250611ab9565b505050565b610e1e610e18611e50565b82611f11565b610e5d576040517f08c379a0000000000000000000000000000000000000000000000000000000008152600401610e5490614a91565b60405180910390fd5b610e66816122f8565b50565b610e71613909565b61015f604051806020016040529081600082015481525050905090565b610e966116ef565b73ffffffffffffffffffffffffffffffffffffffff16610eb68585612304565b73ffffffffffffffffffffffffffffffffffffffff1614610f0c576040517f08c379a0000000000000000000000000000000000000000000000000000000008152600401610f0390614931565b60405180910390fd5b610165600085815260200190815260200160002060009054906101000a900460ff1615610f6e576040517f08c379a0000000000000000000000000000000000000000000000000000000008152600401610f65906146b1565b60405180910390fd5b6001610165600086815260200190815260200160002060006101000a81548160ff0219169083151502179055506000610fa861015f61232b565b9050610fb561015f612339565b610fbf838261234f565b610fc9818361236d565b5050505050565b600060019054906101000a900460ff16610ff85760008054906101000a900460ff1615611001565b6110006123e1565b5b611040576040517f08c379a0000000000000000000000000000000000000000000000000000000008152600401611037906148f1565b60405180910390fd5b60008060019054906101000a900460ff161590508015611090576001600060016101000a81548160ff02191690831515021790555060016000806101000a81548160ff0219169083151502179055505b6111046040518060400160405280600581526020017f43617264730000000000000000000000000000000000000000000000000000008152506040518060400160405280600381526020017f43524400000000000000000000000000000000000000000000000000000000008152506123f2565b61110c61244f565b6111146124a0565b61111c6124f9565b61112461254a565b8261016460006101000a81548173ffffffffffffffffffffffffffffffffffffffff021916908373ffffffffffffffffffffffffffffffffffffffff160217905550660aa87bee538000610160819055508161016160006101000a81548173ffffffffffffffffffffffffffffffffffffffff021916908373ffffffffffffffffffffffffffffffffffffffff16021790555080156111d85760008060016101000a81548160ff0219169083151502179055505b505050565b60006111e7611e50565b73ffffffffffffffffffffffffffffffffffffffff166112056116ef565b73ffffffffffffffffffffffffffffffffffffffff161461125b576040517f08c379a0000000000000000000000000000000000000000000000000000000008152600401611252906149f1565b60405180910390fd5b47905090565b600060c960009054906101000a900460ff16905090565b611280611e50565b73ffffffffffffffffffffffffffffffffffffffff1661129e6116ef565b73ffffffffffffffffffffffffffffffffffffffff16146112f4576040517f08c379a00000000000000000000000000000000000000000000000000000000081526004016112eb906149f1565b60405180910390fd5b60004711611337576040517f08c379a000000000000000000000000000000000000000000000000000000000815260040161132e90614911565b60405180910390fd5b6000806113426116ef565b73ffffffffffffffffffffffffffffffffffffffff164760405161136590614548565b60006040518083038185875af1925050503d80600081146113a2576040519150601f19603f3d011682016040523d82523d6000602084013e6113a7565b606091505b5091509150816113ec576040517f08c379a00000000000000000000000000000000000000000000000000000000081526004016113e3906147b1565b60405180910390fd5b5050565b6000806067600084815260200190815260200160002060009054906101000a900473ffffffffffffffffffffffffffffffffffffffff169050600073ffffffffffffffffffffffffffffffffffffffff168173ffffffffffffffffffffffffffffffffffffffff161415611499576040517f08c379a0000000000000000000000000000000000000000000000000000000008152600401611490906148b1565b60405180910390fd5b80915050919050565b6114aa611e50565b73ffffffffffffffffffffffffffffffffffffffff166114c86116ef565b73ffffffffffffffffffffffffffffffffffffffff161461151e576040517f08c379a0000000000000000000000000000000000000000000000000000000008152600401611515906149f1565b60405180910390fd5b806101608190555050565b60008073ffffffffffffffffffffffffffffffffffffffff168273ffffffffffffffffffffffffffffffffffffffff16141561159a576040517f08c379a000000000000000000000000000000000000000000000000000000000815260040161159190614891565b60405180910390fd5b606860008373ffffffffffffffffffffffffffffffffffffffff1673ffffffffffffffffffffffffffffffffffffffff168152602001908152602001600020549050919050565b6115e9611e50565b73ffffffffffffffffffffffffffffffffffffffff166116076116ef565b73ffffffffffffffffffffffffffffffffffffffff161461165d576040517f08c379a0000000000000000000000000000000000000000000000000000000008152600401611654906149f1565b60405180910390fd5b61166760006125a3565b565b611671611e50565b73ffffffffffffffffffffffffffffffffffffffff1661168f6116ef565b73ffffffffffffffffffffffffffffffffffffffff16146116e5576040517f08c379a00000000000000000000000000000000000000000000000000000000081526004016116dc906149f1565b60405180910390fd5b6116ed61266b565b565b600061012d60009054906101000a900473ffffffffffffffffffffffffffffffffffffffff16905090565b600061016160009054906101000a900473ffffffffffffffffffffffffffffffffffffffff16905090565b60606066805461175490614da0565b80601f016020809104026020016040519081016040528092919081815260200182805461178090614da0565b80156117cd5780601f106117a2576101008083540402835291602001916117cd565b820191906000526020600020905b8154815290600101906020018083116117b057829003601f168201915b5050505050905090565b6117df611e50565b73ffffffffffffffffffffffffffffffffffffffff166117fd6116ef565b73ffffffffffffffffffffffffffffffffffffffff1614611853576040517f08c379a000000000000000000000000000000000000000000000000000000000815260040161184a906149f1565b60405180910390fd5b8061016460006101000a81548173ffffffffffffffffffffffffffffffffffffffff021916908373ffffffffffffffffffffffffffffffffffffffff16021790555050565b600061016460009054906101000a900473ffffffffffffffffffffffffffffffffffffffff16905090565b6118d56118ce611e50565b838361270e565b5050565b600061016460009054906101000a900473ffffffffffffffffffffffffffffffffffffffff169050600a8173ffffffffffffffffffffffffffffffffffffffff166370a08231611927611e50565b6040518263ffffffff1660e01b8152600401611943919061455d565b60206040518083038186803b15801561195b57600080fd5b505afa15801561196f573d6000803e3d6000fd5b505050506040513d601f19601f820116820180604052508101906119939190613e6b565b116119d3576040517f08c379a00000000000000000000000000000000000000000000000000000000081526004016119ca906146f1565b60405180910390fd5b8073ffffffffffffffffffffffffffffffffffffffff1663b7b9790c6119f7611e50565b600a6040518363ffffffff1660e01b8152600401611a169291906145c4565b600060405180830381600087803b158015611a3057600080fd5b505af1158015611a44573d6000803e3d6000fd5b5050505061016382908060018154018082558091505060019003906000526020600020016000909190919091509080519060200190611a8492919061391c565b506000611a9261015f61232b565b9050611a9f61015f612339565b611aa9848261234f565b611ab3818461236d565b50505050565b611aca611ac4611e50565b83611f11565b611b09576040517f08c379a0000000000000000000000000000000000000000000000000000000008152600401611b0090614a51565b60405180910390fd5b611b158484848461287b565b50505050565b6060611b26826128d7565b9050919050565b600061016054905090565b61016054341015611b7e576040517f08c379a0000000000000000000000000000000000000000000000000000000008152600401611b7590614991565b60405180910390fd5b61016381908060018154018082558091505060019003906000526020600020016000909190919091509080519060200190611bba92919061391c565b506000611bc861015f61232b565b9050611bd561015f612339565b611bdf838261234f565b611be9818361236d565b505050565b6000606a60008473ffffffffffffffffffffffffffffffffffffffff1673ffffffffffffffffffffffffffffffffffffffff16815260200190815260200160002060008373ffffffffffffffffffffffffffffffffffffffff1673ffffffffffffffffffffffffffffffffffffffff16815260200190815260200160002060009054906101000a900460ff16905092915050565b611c8a611e50565b73ffffffffffffffffffffffffffffffffffffffff16611ca86116ef565b73ffffffffffffffffffffffffffffffffffffffff1614611cfe576040517f08c379a0000000000000000000000000000000000000000000000000000000008152600401611cf5906149f1565b60405180910390fd5b600073ffffffffffffffffffffffffffffffffffffffff168173ffffffffffffffffffffffffffffffffffffffff161415611d6e576040517f08c379a0000000000000000000000000000000000000000000000000000000008152600401611d6590614751565b60405180910390fd5b611d77816125a3565b50565b60007f01ffc9a7000000000000000000000000000000000000000000000000000000007bffffffffffffffffffffffffffffffffffffffffffffffffffffffff1916827bffffffffffffffffffffffffffffffffffffffffffffffffffffffff1916149050919050565b60008073ffffffffffffffffffffffffffffffffffffffff166067600084815260200190815260200160002060009054906101000a900473ffffffffffffffffffffffffffffffffffffffff1673ffffffffffffffffffffffffffffffffffffffff1614159050919050565b600033905090565b816069600083815260200190815260200160002060006101000a81548173ffffffffffffffffffffffffffffffffffffffff021916908373ffffffffffffffffffffffffffffffffffffffff160217905550808273ffffffffffffffffffffffffffffffffffffffff16611ecb836113f0565b73ffffffffffffffffffffffffffffffffffffffff167f8c5be1e5ebec7d5bd14f71427d1e84f3dd0314c0f7b2291e5b200ac8c7c3b92560405160405180910390a45050565b6000611f1c82611de4565b611f5b576040517f08c379a0000000000000000000000000000000000000000000000000000000008152600401611f5290614831565b60405180910390fd5b6000611f66836113f0565b90508073ffffffffffffffffffffffffffffffffffffffff168473ffffffffffffffffffffffffffffffffffffffff161480611fd557508373ffffffffffffffffffffffffffffffffffffffff16611fbd84610963565b73ffffffffffffffffffffffffffffffffffffffff16145b80611fe65750611fe58185611bee565b5b91505092915050565b8273ffffffffffffffffffffffffffffffffffffffff1661200f826113f0565b73ffffffffffffffffffffffffffffffffffffffff1614612065576040517f08c379a000000000000000000000000000000000000000000000000000000000815260040161205c90614771565b60405180910390fd5b600073ffffffffffffffffffffffffffffffffffffffff168273ffffffffffffffffffffffffffffffffffffffff1614156120d5576040517f08c379a00000000000000000000000000000000000000000000000000000000081526004016120cc906147d1565b60405180910390fd5b6120e0838383612a29565b6120eb600082611e58565b6001606860008573ffffffffffffffffffffffffffffffffffffffff1673ffffffffffffffffffffffffffffffffffffffff168152602001908152602001600020600082825461213b9190614c8d565b925050819055506001606860008473ffffffffffffffffffffffffffffffffffffffff1673ffffffffffffffffffffffffffffffffffffffff16815260200190815260200160002060008282546121929190614c06565b92505081905550816067600083815260200190815260200160002060006101000a81548173ffffffffffffffffffffffffffffffffffffffff021916908373ffffffffffffffffffffffffffffffffffffffff160217905550808273ffffffffffffffffffffffffffffffffffffffff168473ffffffffffffffffffffffffffffffffffffffff167fddf252ad1be2c89b69c2b068fc378daa952ba7f163c4a11628f55a4df523b3ef60405160405180910390a4612251838383612a81565b505050565b61225e611261565b61229d576040517f08c379a0000000000000000000000000000000000000000000000000000000008152600401612294906146d1565b60405180910390fd5b600060c960006101000a81548160ff0219169083151502179055507f5db9ee0a495bf2e6ff9c91a7834c1ba4fdd244a5e8aa4e537bd38aeae4b073aa6122e1611e50565b6040516122ee919061455d565b60405180910390a1565b61230181612a86565b50565b60008060006123138585612ad9565b9150915061232081612b5c565b819250505092915050565b600081600001549050919050565b6001816000016000828254019250508190555050565b612369828260405180602001604052806000815250612ead565b5050565b61237682611de4565b6123b5576040517f08c379a00000000000000000000000000000000000000000000000000000000081526004016123ac906148d1565b60405180910390fd5b806097600084815260200190815260200160002090805190602001906123dc92919061391c565b505050565b60006123ec30612f08565b15905090565b600060019054906101000a900460ff16612441576040517f08c379a000000000000000000000000000000000000000000000000000000000815260040161243890614a71565b60405180910390fd5b61244b8282612f2b565b5050565b600060019054906101000a900460ff1661249e576040517f08c379a000000000000000000000000000000000000000000000000000000000815260040161249590614a71565b60405180910390fd5b565b600060019054906101000a900460ff166124ef576040517f08c379a00000000000000000000000000000000000000000000000000000000081526004016124e690614a71565b60405180910390fd5b6124f7612fac565b565b600060019054906101000a900460ff16612548576040517f08c379a000000000000000000000000000000000000000000000000000000000815260040161253f90614a71565b60405180910390fd5b565b600060019054906101000a900460ff16612599576040517f08c379a000000000000000000000000000000000000000000000000000000000815260040161259090614a71565b60405180910390fd5b6125a1613018565b565b600061012d60009054906101000a900473ffffffffffffffffffffffffffffffffffffffff1690508161012d60006101000a81548173ffffffffffffffffffffffffffffffffffffffff021916908373ffffffffffffffffffffffffffffffffffffffff1602179055508173ffffffffffffffffffffffffffffffffffffffff168173ffffffffffffffffffffffffffffffffffffffff167f8be0079c531659141344cd1fd0a4f28419497f9722a3daafe3b4186f6b6457e060405160405180910390a35050565b612673611261565b156126b3576040517f08c379a00000000000000000000000000000000000000000000000000000000081526004016126aa90614851565b60405180910390fd5b600160c960006101000a81548160ff0219169083151502179055507f62e78cea01bee320cd4e420270b5ea74000d11b0c9f74754ebdbfc544b05a2586126f7611e50565b604051612704919061455d565b60405180910390a1565b8173ffffffffffffffffffffffffffffffffffffffff168373ffffffffffffffffffffffffffffffffffffffff16141561277d576040517f08c379a0000000000000000000000000000000000000000000000000000000008152600401612774906147f1565b60405180910390fd5b80606a60008573ffffffffffffffffffffffffffffffffffffffff1673ffffffffffffffffffffffffffffffffffffffff16815260200190815260200160002060008473ffffffffffffffffffffffffffffffffffffffff1673ffffffffffffffffffffffffffffffffffffffff16815260200190815260200160002060006101000a81548160ff0219169083151502179055508173ffffffffffffffffffffffffffffffffffffffff168373ffffffffffffffffffffffffffffffffffffffff167f17307eab39ab6107e8899845ad3d59bd9653f200f220920489ca2b5937696c318360405161286e919061460f565b60405180910390a3505050565b612886848484611fef565b61289284848484613079565b6128d1576040517f08c379a00000000000000000000000000000000000000000000000000000000081526004016128c890614731565b60405180910390fd5b50505050565b60606128e282611de4565b612921576040517f08c379a0000000000000000000000000000000000000000000000000000000008152600401612918906149b1565b60405180910390fd5b600060976000848152602001908152602001600020805461294190614da0565b80601f016020809104026020016040519081016040528092919081815260200182805461296d90614da0565b80156129ba5780601f1061298f576101008083540402835291602001916129ba565b820191906000526020600020905b81548152906001019060200180831161299d57829003601f168201915b5050505050905060006129cb613210565b90506000815114156129e1578192505050612a24565b600082511115612a165780826040516020016129fe929190614524565b60405160208183030381529060405292505050612a24565b612a1f8461324d565b925050505b919050565b612a31611261565b15612a71576040517f08c379a0000000000000000000000000000000000000000000000000000000008152600401612a6890614851565b60405180910390fd5b612a7c8383836132f4565b505050565b505050565b612a8f816132f9565b6000609760008381526020019081526020016000208054612aaf90614da0565b905014612ad657609760008281526020019081526020016000206000612ad591906139a2565b5b50565b600080604183511415612b1b5760008060006020860151925060408601519150606086015160001a9050612b0f87828585613416565b94509450505050612b55565b604083511415612b4c576000806020850151915060408501519050612b41868383613523565b935093505050612b55565b60006002915091505b9250929050565b60006004811115612b96577f4e487b7100000000000000000000000000000000000000000000000000000000600052602160045260246000fd5b816004811115612bcf577f4e487b7100000000000000000000000000000000000000000000000000000000600052602160045260246000fd5b1415612bda57612eaa565b60016004811115612c14577f4e487b7100000000000000000000000000000000000000000000000000000000600052602160045260246000fd5b816004811115612c4d577f4e487b7100000000000000000000000000000000000000000000000000000000600052602160045260246000fd5b1415612c8e576040517f08c379a0000000000000000000000000000000000000000000000000000000008152600401612c8590614691565b60405180910390fd5b60026004811115612cc8577f4e487b7100000000000000000000000000000000000000000000000000000000600052602160045260246000fd5b816004811115612d01577f4e487b7100000000000000000000000000000000000000000000000000000000600052602160045260246000fd5b1415612d42576040517f08c379a0000000000000000000000000000000000000000000000000000000008152600401612d3990614711565b60405180910390fd5b60036004811115612d7c577f4e487b7100000000000000000000000000000000000000000000000000000000600052602160045260246000fd5b816004811115612db5577f4e487b7100000000000000000000000000000000000000000000000000000000600052602160045260246000fd5b1415612df6576040517f08c379a0000000000000000000000000000000000000000000000000000000008152600401612ded90614811565b60405180910390fd5b600480811115612e2f577f4e487b7100000000000000000000000000000000000000000000000000000000600052602160045260246000fd5b816004811115612e68577f4e487b7100000000000000000000000000000000000000000000000000000000600052602160045260246000fd5b1415612ea9576040517f08c379a0000000000000000000000000000000000000000000000000000000008152600401612ea090614951565b60405180910390fd5b5b50565b612eb78383613582565b612ec46000848484613079565b612f03576040517f08c379a0000000000000000000000000000000000000000000000000000000008152600401612efa90614731565b60405180910390fd5b505050565b6000808273ffffffffffffffffffffffffffffffffffffffff163b119050919050565b600060019054906101000a900460ff16612f7a576040517f08c379a0000000000000000000000000000000000000000000000000000000008152600401612f7190614a71565b60405180910390fd5b8160659080519060200190612f9092919061391c565b508060669080519060200190612fa792919061391c565b505050565b600060019054906101000a900460ff16612ffb576040517f08c379a0000000000000000000000000000000000000000000000000000000008152600401612ff290614a71565b60405180910390fd5b600060c960006101000a81548160ff021916908315150217905550565b600060019054906101000a900460ff16613067576040517f08c379a000000000000000000000000000000000000000000000000000000000815260040161305e90614a71565b60405180910390fd5b613077613072611e50565b6125a3565b565b600061309a8473ffffffffffffffffffffffffffffffffffffffff16612f08565b15613203578373ffffffffffffffffffffffffffffffffffffffff1663150b7a026130c3611e50565b8786866040518563ffffffff1660e01b81526004016130e59493929190614578565b602060405180830381600087803b1580156130ff57600080fd5b505af192505050801561313057506040513d601f19601f8201168201806040525081019061312d9190613e19565b60015b6131b3573d8060008114613160576040519150601f19603f3d011682016040523d82523d6000602084013e613165565b606091505b506000815114156131ab576040517f08c379a00000000000000000000000000000000000000000000000000000000081526004016131a290614731565b60405180910390fd5b805181602001fd5b63150b7a0260e01b7bffffffffffffffffffffffffffffffffffffffffffffffffffffffff1916817bffffffffffffffffffffffffffffffffffffffffffffffffffffffff191614915050613208565b600190505b949350505050565b60606040518060400160405280600781526020017f697066733a2f2f00000000000000000000000000000000000000000000000000815250905090565b606061325882611de4565b613297576040517f08c379a000000000000000000000000000000000000000000000000000000000815260040161328e90614a11565b60405180910390fd5b60006132a1613210565b905060008151116132c157604051806020016040528060008152506132ec565b806132cb8461375c565b6040516020016132dc929190614524565b6040516020818303038152906040525b915050919050565b505050565b6000613304826113f0565b905061331281600084612a29565b61331d600083611e58565b6001606860008373ffffffffffffffffffffffffffffffffffffffff1673ffffffffffffffffffffffffffffffffffffffff168152602001908152602001600020600082825461336d9190614c8d565b925050819055506067600083815260200190815260200160002060006101000a81549073ffffffffffffffffffffffffffffffffffffffff021916905581600073ffffffffffffffffffffffffffffffffffffffff168273ffffffffffffffffffffffffffffffffffffffff167fddf252ad1be2c89b69c2b068fc378daa952ba7f163c4a11628f55a4df523b3ef60405160405180910390a461341281600084612a81565b5050565b6000807f7fffffffffffffffffffffffffffffff5d576e7357a4501ddfe92f46681b20a08360001c111561345157600060039150915061351a565b601b8560ff16141580156134695750601c8560ff1614155b1561347b57600060049150915061351a565b6000600187878787604051600081526020016040526040516134a0949392919061462a565b6020604051602081039080840390855afa1580156134c2573d6000803e3d6000fd5b505050602060405103519050600073ffffffffffffffffffffffffffffffffffffffff168173ffffffffffffffffffffffffffffffffffffffff1614156135115760006001925092505061351a565b80600092509250505b94509492505050565b60008060007f7fffffffffffffffffffffffffffffffffffffffffffffffffffffffffffffff60001b841690506000601b60ff8660001c901c6135669190614c06565b905061357487828885613416565b935093505050935093915050565b600073ffffffffffffffffffffffffffffffffffffffff168273ffffffffffffffffffffffffffffffffffffffff1614156135f2576040517f08c379a00000000000000000000000000000000000000000000000000000000081526004016135e990614971565b60405180910390fd5b6135fb81611de4565b1561363b576040517f08c379a000000000000000000000000000000000000000000000000000000000815260040161363290614791565b60405180910390fd5b61364760008383612a29565b6001606860008473ffffffffffffffffffffffffffffffffffffffff1673ffffffffffffffffffffffffffffffffffffffff16815260200190815260200160002060008282546136979190614c06565b92505081905550816067600083815260200190815260200160002060006101000a81548173ffffffffffffffffffffffffffffffffffffffff021916908373ffffffffffffffffffffffffffffffffffffffff160217905550808273ffffffffffffffffffffffffffffffffffffffff16600073ffffffffffffffffffffffffffffffffffffffff167fddf252ad1be2c89b69c2b068fc378daa952ba7f163c4a11628f55a4df523b3ef60405160405180910390a461375860008383612a81565b5050565b606060008214156137a4576040518060400160405280600181526020017f30000000000000000000000000000000000000000000000000000000000000008152509050613904565b600082905060005b600082146137d65780806137bf90614e03565b915050600a826137cf9190614c5c565b91506137ac565b60008167ffffffffffffffff811115613818577f4e487b7100000000000000000000000000000000000000000000000000000000600052604160045260246000fd5b6040519080825280601f01601f19166020018201604052801561384a5781602001600182028036833780820191505090505b5090505b600085146138fd576001826138639190614c8d565b9150600a856138729190614e4c565b603061387e9190614c06565b60f81b8183815181106138ba577f4e487b7100000000000000000000000000000000000000000000000000000000600052603260045260246000fd5b60200101907effffffffffffffffffffffffffffffffffffffffffffffffffffffffffffff1916908160001a905350600a856138f69190614c5c565b945061384e565b8093505050505b919050565b6040518060200160405280600081525090565b82805461392890614da0565b90600052602060002090601f01602090048101928261394a5760008555613991565b82601f1061396357805160ff1916838001178555613991565b82800160010185558215613991579182015b82811115613990578251825591602001919060010190613975565b5b50905061399e91906139e2565b5090565b5080546139ae90614da0565b6000825580601f106139c057506139df565b601f0160209004906000526020600020908101906139de91906139e2565b5b50565b5b808211156139fb5760008160009055506001016139e3565b5090565b6000613a12613a0d84614b0c565b614ae7565b905082815260208101848484011115613a2a57600080fd5b613a35848285614d5e565b509392505050565b6000613a50613a4b84614b3d565b614ae7565b905082815260208101848484011115613a6857600080fd5b613a73848285614d5e565b509392505050565b600081359050613a8a8161578e565b92915050565b600081359050613a9f816157a5565b92915050565b600081359050613ab4816157bc565b92915050565b600081359050613ac9816157d3565b92915050565b600081519050613ade816157d3565b92915050565b600082601f830112613af557600080fd5b8135613b058482602086016139ff565b91505092915050565b600082601f830112613b1f57600080fd5b8135613b2f848260208601613a3d565b91505092915050565b600081359050613b47816157ea565b92915050565b600081519050613b5c816157ea565b92915050565b600060208284031215613b7457600080fd5b6000613b8284828501613a7b565b91505092915050565b60008060408385031215613b9e57600080fd5b6000613bac85828601613a7b565b9250506020613bbd85828601613a7b565b9150509250929050565b600080600060608486031215613bdc57600080fd5b6000613bea86828701613a7b565b9350506020613bfb86828701613a7b565b9250506040613c0c86828701613b38565b9150509250925092565b60008060008060808587031215613c2c57600080fd5b6000613c3a87828801613a7b565b9450506020613c4b87828801613a7b565b9350506040613c5c87828801613b38565b925050606085013567ffffffffffffffff811115613c7957600080fd5b613c8587828801613ae4565b91505092959194509250565b60008060408385031215613ca457600080fd5b6000613cb285828601613a7b565b9250506020613cc385828601613a90565b9150509250929050565b60008060408385031215613ce057600080fd5b6000613cee85828601613a7b565b925050602083013567ffffffffffffffff811115613d0b57600080fd5b613d1785828601613b0e565b9150509250929050565b60008060408385031215613d3457600080fd5b6000613d4285828601613a7b565b9250506020613d5385828601613b38565b9150509250929050565b60008060008060808587031215613d7357600080fd5b6000613d8187828801613aa5565b945050602085013567ffffffffffffffff811115613d9e57600080fd5b613daa87828801613ae4565b9350506040613dbb87828801613a7b565b925050606085013567ffffffffffffffff811115613dd857600080fd5b613de487828801613b0e565b91505092959194509250565b600060208284031215613e0257600080fd5b6000613e1084828501613aba565b91505092915050565b600060208284031215613e2b57600080fd5b6000613e3984828501613acf565b91505092915050565b600060208284031215613e5457600080fd5b6000613e6284828501613b38565b91505092915050565b600060208284031215613e7d57600080fd5b6000613e8b84828501613b4d565b91505092915050565b6000613ea08383613f92565b905092915050565b613eb181614cc1565b82525050565b6000613ec282614b7e565b613ecc8185614bac565b935083602082028501613ede85614b6e565b8060005b85811015613f1a5784840389528151613efb8582613e94565b9450613f0683614b9f565b925060208a01995050600181019050613ee2565b50829750879550505050505092915050565b613f3581614cd3565b82525050565b613f4481614cdf565b82525050565b6000613f5582614b89565b613f5f8185614bbd565b9350613f6f818560208601614d6d565b613f7881614f39565b840191505092915050565b613f8c81614d4c565b82525050565b6000613f9d82614b94565b613fa78185614bd9565b9350613fb7818560208601614d6d565b613fc081614f39565b840191505092915050565b6000613fd682614b94565b613fe08185614bea565b9350613ff0818560208601614d6d565b613ff981614f39565b840191505092915050565b600061400f82614b94565b6140198185614bfb565b9350614029818560208601614d6d565b80840191505092915050565b6000614042601883614bea565b915061404d82614f4a565b602082019050919050565b6000614065601e83614bea565b915061407082614f73565b602082019050919050565b6000614088601483614bea565b915061409382614f9c565b602082019050919050565b60006140ab601683614bea565b91506140b682614fc5565b602082019050919050565b60006140ce601f83614bea565b91506140d982614fee565b602082019050919050565b60006140f1603283614bea565b91506140fc82615017565b604082019050919050565b6000614114602683614bea565b915061411f82615066565b604082019050919050565b6000614137602583614bea565b9150614142826150b5565b604082019050919050565b600061415a601c83614bea565b915061416582615104565b602082019050919050565b600061417d601483614bea565b91506141888261512d565b602082019050919050565b60006141a0602483614bea565b91506141ab82615156565b604082019050919050565b60006141c3601983614bea565b91506141ce826151a5565b602082019050919050565b60006141e6602283614bea565b91506141f1826151ce565b604082019050919050565b6000614209602c83614bea565b91506142148261521d565b604082019050919050565b600061422c601083614bea565b91506142378261526c565b602082019050919050565b600061424f603883614bea565b915061425a82615295565b604082019050919050565b6000614272602a83614bea565b915061427d826152e4565b604082019050919050565b6000614295602983614bea565b91506142a082615333565b604082019050919050565b60006142b8602e83614bea565b91506142c382615382565b604082019050919050565b60006142db602e83614bea565b91506142e6826153d1565b604082019050919050565b60006142fe601483614bea565b915061430982615420565b602082019050919050565b6000614321602583614bea565b915061432c82615449565b604082019050919050565b6000614344602283614bea565b915061434f82615498565b604082019050919050565b6000614367602083614bea565b9150614372826154e7565b602082019050919050565b600061438a601883614bea565b915061439582615510565b602082019050919050565b60006143ad603183614bea565b91506143b882615539565b604082019050919050565b60006143d0602c83614bea565b91506143db82615588565b604082019050919050565b60006143f3602083614bea565b91506143fe826155d7565b602082019050919050565b6000614416602f83614bea565b915061442182615600565b604082019050919050565b6000614439602183614bea565b91506144448261564f565b604082019050919050565b600061445c600083614bce565b91506144678261569e565b600082019050919050565b600061447f603183614bea565b915061448a826156a1565b604082019050919050565b60006144a2602b83614bea565b91506144ad826156f0565b604082019050919050565b60006144c5603083614bea565b91506144d08261573f565b604082019050919050565b6020820160008201516144f160008501826144f7565b50505050565b61450081614d35565b82525050565b61450f81614d35565b82525050565b61451e81614d3f565b82525050565b60006145308285614004565b915061453c8284614004565b91508190509392505050565b60006145538261444f565b9150819050919050565b60006020820190506145726000830184613ea8565b92915050565b600060808201905061458d6000830187613ea8565b61459a6020830186613ea8565b6145a76040830185614506565b81810360608301526145b98184613f4a565b905095945050505050565b60006040820190506145d96000830185613ea8565b6145e66020830184613f83565b9392505050565b600060208201905081810360008301526146078184613eb7565b905092915050565b60006020820190506146246000830184613f2c565b92915050565b600060808201905061463f6000830187613f3b565b61464c6020830186614515565b6146596040830185613f3b565b6146666060830184613f3b565b95945050505050565b600060208201905081810360008301526146898184613fcb565b905092915050565b600060208201905081810360008301526146aa81614035565b9050919050565b600060208201905081810360008301526146ca81614058565b9050919050565b600060208201905081810360008301526146ea8161407b565b9050919050565b6000602082019050818103600083015261470a8161409e565b9050919050565b6000602082019050818103600083015261472a816140c1565b9050919050565b6000602082019050818103600083015261474a816140e4565b9050919050565b6000602082019050818103600083015261476a81614107565b9050919050565b6000602082019050818103600083015261478a8161412a565b9050919050565b600060208201905081810360008301526147aa8161414d565b9050919050565b600060208201905081810360008301526147ca81614170565b9050919050565b600060208201905081810360008301526147ea81614193565b9050919050565b6000602082019050818103600083015261480a816141b6565b9050919050565b6000602082019050818103600083015261482a816141d9565b9050919050565b6000602082019050818103600083015261484a816141fc565b9050919050565b6000602082019050818103600083015261486a8161421f565b9050919050565b6000602082019050818103600083015261488a81614242565b9050919050565b600060208201905081810360008301526148aa81614265565b9050919050565b600060208201905081810360008301526148ca81614288565b9050919050565b600060208201905081810360008301526148ea816142ab565b9050919050565b6000602082019050818103600083015261490a816142ce565b9050919050565b6000602082019050818103600083015261492a816142f1565b9050919050565b6000602082019050818103600083015261494a81614314565b9050919050565b6000602082019050818103600083015261496a81614337565b9050919050565b6000602082019050818103600083015261498a8161435a565b9050919050565b600060208201905081810360008301526149aa8161437d565b9050919050565b600060208201905081810360008301526149ca816143a0565b9050919050565b600060208201905081810360008301526149ea816143c3565b9050919050565b60006020820190508181036000830152614a0a816143e6565b9050919050565b60006020820190508181036000830152614a2a81614409565b9050919050565b60006020820190508181036000830152614a4a8161442c565b9050919050565b60006020820190508181036000830152614a6a81614472565b9050919050565b60006020820190508181036000830152614a8a81614495565b9050919050565b60006020820190508181036000830152614aaa816144b8565b9050919050565b6000602082019050614ac660008301846144db565b92915050565b6000602082019050614ae16000830184614506565b92915050565b6000614af1614b02565b9050614afd8282614dd2565b919050565b6000604051905090565b600067ffffffffffffffff821115614b2757614b26614f0a565b5b614b3082614f39565b9050602081019050919050565b600067ffffffffffffffff821115614b5857614b57614f0a565b5b614b6182614f39565b9050602081019050919050565b6000819050602082019050919050565b600081519050919050565b600081519050919050565b600081519050919050565b6000602082019050919050565b600082825260208201905092915050565b600082825260208201905092915050565b600081905092915050565b600082825260208201905092915050565b600082825260208201905092915050565b600081905092915050565b6000614c1182614d35565b9150614c1c83614d35565b9250827fffffffffffffffffffffffffffffffffffffffffffffffffffffffffffffffff03821115614c5157614c50614e7d565b5b828201905092915050565b6000614c6782614d35565b9150614c7283614d35565b925082614c8257614c81614eac565b5b828204905092915050565b6000614c9882614d35565b9150614ca383614d35565b925082821015614cb657614cb5614e7d565b5b828203905092915050565b6000614ccc82614d15565b9050919050565b60008115159050919050565b6000819050919050565b60007fffffffff0000000000000000000000000000000000000000000000000000000082169050919050565b600073ffffffffffffffffffffffffffffffffffffffff82169050919050565b6000819050919050565b600060ff82169050919050565b6000614d5782614d35565b9050919050565b82818337600083830152505050565b60005b83811015614d8b578082015181840152602081019050614d70565b83811115614d9a576000848401525b50505050565b60006002820490506001821680614db857607f821691505b60208210811415614dcc57614dcb614edb565b5b50919050565b614ddb82614f39565b810181811067ffffffffffffffff82111715614dfa57614df9614f0a565b5b80604052505050565b6000614e0e82614d35565b91507fffffffffffffffffffffffffffffffffffffffffffffffffffffffffffffffff821415614e4157614e40614e7d565b5b600182019050919050565b6000614e5782614d35565b9150614e6283614d35565b925082614e7257614e71614eac565b5b828206905092915050565b7f4e487b7100000000000000000000000000000000000000000000000000000000600052601160045260246000fd5b7f4e487b7100000000000000000000000000000000000000000000000000000000600052601260045260246000fd5b7f4e487b7100000000000000000000000000000000000000000000000000000000600052602260045260246000fd5b7f4e487b7100000000000000000000000000000000000000000000000000000000600052604160045260246000fd5b6000601f19601f8301169050919050565b7f45434453413a20696e76616c6964207369676e61747572650000000000000000600082015250565b7f5468697320636f64652077617320616c72656164792072656465656d65640000600082015250565b7f5061757361626c653a206e6f7420706175736564000000000000000000000000600082015250565b7f4e6f7420656e6f7567682070726f6d65746869756d7300000000000000000000600082015250565b7f45434453413a20696e76616c6964207369676e6174757265206c656e67746800600082015250565b7f4552433732313a207472616e7366657220746f206e6f6e20455243373231526560008201527f63656976657220696d706c656d656e7465720000000000000000000000000000602082015250565b7f4f776e61626c653a206e6577206f776e657220697320746865207a65726f206160008201527f6464726573730000000000000000000000000000000000000000000000000000602082015250565b7f4552433732313a207472616e736665722066726f6d20696e636f72726563742060008201527f6f776e6572000000000000000000000000000000000000000000000000000000602082015250565b7f4552433732313a20746f6b656e20616c7265616479206d696e74656400000000600082015250565b7f4661696c656420746f2073656e64204574686572000000000000000000000000600082015250565b7f4552433732313a207472616e7366657220746f20746865207a65726f2061646460008201527f7265737300000000000000000000000000000000000000000000000000000000602082015250565b7f4552433732313a20617070726f766520746f2063616c6c657200000000000000600082015250565b7f45434453413a20696e76616c6964207369676e6174757265202773272076616c60008201527f7565000000000000000000000000000000000000000000000000000000000000602082015250565b7f4552433732313a206f70657261746f7220717565727920666f72206e6f6e657860008201527f697374656e7420746f6b656e0000000000000000000000000000000000000000602082015250565b7f5061757361626c653a2070617573656400000000000000000000000000000000600082015250565b7f4552433732313a20617070726f76652063616c6c6572206973206e6f74206f7760008201527f6e6572206e6f7220617070726f76656420666f7220616c6c0000000000000000602082015250565b7f4552433732313a2062616c616e636520717565727920666f7220746865207a6560008201527f726f206164647265737300000000000000000000000000000000000000000000602082015250565b7f4552433732313a206f776e657220717565727920666f72206e6f6e657869737460008201527f656e7420746f6b656e0000000000000000000000000000000000000000000000602082015250565b7f45524337323155524953746f726167653a2055524920736574206f66206e6f6e60008201527f6578697374656e7420746f6b656e000000000000000000000000000000000000602082015250565b7f496e697469616c697a61626c653a20636f6e747261637420697320616c72656160008201527f647920696e697469616c697a6564000000000000000000000000000000000000602082015250565b7f4e6f2066756e647320746f207265747269657665000000000000000000000000600082015250565b7f54686973206d696e7420776173206e6f74207369676e6564206279207468652060008201527f6f776e6572000000000000000000000000000000000000000000000000000000602082015250565b7f45434453413a20696e76616c6964207369676e6174757265202776272076616c60008201527f7565000000000000000000000000000000000000000000000000000000000000602082015250565b7f4552433732313a206d696e7420746f20746865207a65726f2061646472657373600082015250565b7f4e6f7420656e6f7567682066756e647320746f206d696e740000000000000000600082015250565b7f45524337323155524953746f726167653a2055524920717565727920666f722060008201527f6e6f6e6578697374656e7420746f6b656e000000000000000000000000000000602082015250565b7f4552433732313a20617070726f76656420717565727920666f72206e6f6e657860008201527f697374656e7420746f6b656e0000000000000000000000000000000000000000602082015250565b7f4f776e61626c653a2063616c6c6572206973206e6f7420746865206f776e6572600082015250565b7f4552433732314d657461646174613a2055524920717565727920666f72206e6f60008201527f6e6578697374656e7420746f6b656e0000000000000000000000000000000000602082015250565b7f4552433732313a20617070726f76616c20746f2063757272656e74206f776e6560008201527f7200000000000000000000000000000000000000000000000000000000000000602082015250565b50565b7f4552433732313a207472616e736665722063616c6c6572206973206e6f74206f60008201527f776e6572206e6f7220617070726f766564000000000000000000000000000000602082015250565b7f496e697469616c697a61626c653a20636f6e7472616374206973206e6f74206960008201527f6e697469616c697a696e67000000000000000000000000000000000000000000602082015250565b7f4552433732314275726e61626c653a2063616c6c6572206973206e6f74206f7760008201527f6e6572206e6f7220617070726f76656400000000000000000000000000000000602082015250565b61579781614cc1565b81146157a257600080fd5b50565b6157ae81614cd3565b81146157b957600080fd5b50565b6157c581614cdf565b81146157d057600080fd5b50565b6157dc81614ce9565b81146157e757600080fd5b50565b6157f381614d35565b81146157fe57600080fd5b5056fea2646970667358221220f28015898f10aa7c0ab041ef260c6c9d05d6d06a0ff382d10bff844f59928e5364736f6c63430008020033",
  "linkReferences": {},
  "deployedLinkReferences": {}
}